{
	"contracts/MockPriceOracle.sol": {
		"MockPrices": {
			"abi": [
				{
					"inputs": [],
					"name": "MOCK_ETH_USD_PRICE",
					"outputs": [
						{
							"internalType": "uint256",
							"name": "",
							"type": "uint256"
						}
					],
					"stateMutability": "view",
					"type": "function"
				},
				{
					"inputs": [],
					"name": "MOCK_TOKEN_ETH_PRICE",
					"outputs": [
						{
							"internalType": "uint256",
							"name": "",
							"type": "uint256"
						}
					],
					"stateMutability": "view",
					"type": "function"
				},
				{
					"inputs": [],
					"name": "getEthUsdPrice",
					"outputs": [
						{
							"internalType": "uint256",
							"name": "",
							"type": "uint256"
						}
					],
					"stateMutability": "pure",
					"type": "function"
				},
				{
					"inputs": [
						{
							"internalType": "uint32",
							"name": "secondsAgo",
							"type": "uint32"
						}
					],
					"name": "getTokenPrice",
					"outputs": [
						{
							"internalType": "uint256",
							"name": "",
							"type": "uint256"
						}
					],
					"stateMutability": "pure",
					"type": "function"
				}
			],
			"devdoc": {
				"kind": "dev",
				"methods": {},
				"version": 1
			},
			"evm": {
				"assembly": "    /* \"contracts/MockPriceOracle.sol\":96:664  contract MockPrices {... */\n  mstore(0x40, 0x80)\n  callvalue\n  dup1\n  iszero\n  tag_1\n  jumpi\n  revert(0x00, 0x00)\ntag_1:\n  pop\n  dataSize(sub_0)\n  dup1\n  dataOffset(sub_0)\n  0x00\n  codecopy\n  0x00\n  return\nstop\n\nsub_0: assembly {\n        /* \"contracts/MockPriceOracle.sol\":96:664  contract MockPrices {... */\n      mstore(0x40, 0x80)\n      callvalue\n      dup1\n      iszero\n      tag_1\n      jumpi\n      revert(0x00, 0x00)\n    tag_1:\n      pop\n      jumpi(tag_2, lt(calldatasize, 0x04))\n      shr(0xe0, calldataload(0x00))\n      dup1\n      0x2ab568d4\n      eq\n      tag_3\n      jumpi\n      dup1\n      0x906d67ea\n      eq\n      tag_4\n      jumpi\n      dup1\n      0xa0a8045e\n      eq\n      tag_5\n      jumpi\n      dup1\n      0xe2800cc1\n      eq\n      tag_6\n      jumpi\n    tag_2:\n      revert(0x00, 0x00)\n        /* \"contracts/MockPriceOracle.sol\":253:315  uint256 public constant MOCK_TOKEN_ETH_PRICE = 820000000000000 */\n    tag_3:\n      tag_7\n      tag_8\n      jump\t// in\n    tag_7:\n      mload(0x40)\n      tag_9\n      swap2\n      swap1\n      tag_10\n      jump\t// in\n    tag_9:\n      mload(0x40)\n      dup1\n      swap2\n      sub\n      swap1\n      return\n        /* \"contracts/MockPriceOracle.sol\":508:662  function getTokenPrice(uint32 secondsAgo) public pure returns (uint256) {... */\n    tag_4:\n      tag_11\n      0x04\n      dup1\n      calldatasize\n      sub\n      dup2\n      add\n      swap1\n      tag_12\n      swap2\n      swap1\n      tag_13\n      jump\t// in\n    tag_12:\n      tag_14\n      jump\t// in\n    tag_11:\n      mload(0x40)\n      tag_15\n      swap2\n      swap1\n      tag_10\n      jump\t// in\n    tag_15:\n      mload(0x40)\n      dup1\n      swap2\n      sub\n      swap1\n      return\n        /* \"contracts/MockPriceOracle.sol\":338:438  function getEthUsdPrice() external pure returns (uint256) {... */\n    tag_5:\n      tag_16\n      tag_17\n      jump\t// in\n    tag_16:\n      mload(0x40)\n      tag_18\n      swap2\n      swap1\n      tag_10\n      jump\t// in\n    tag_18:\n      mload(0x40)\n      dup1\n      swap2\n      sub\n      swap1\n      return\n        /* \"contracts/MockPriceOracle.sol\":190:247  uint256 public constant MOCK_ETH_USD_PRICE = 300000000000 */\n    tag_6:\n      tag_19\n      tag_20\n      jump\t// in\n    tag_19:\n      mload(0x40)\n      tag_21\n      swap2\n      swap1\n      tag_10\n      jump\t// in\n    tag_21:\n      mload(0x40)\n      dup1\n      swap2\n      sub\n      swap1\n      return\n        /* \"contracts/MockPriceOracle.sol\":253:315  uint256 public constant MOCK_TOKEN_ETH_PRICE = 820000000000000 */\n    tag_8:\n        /* \"contracts/MockPriceOracle.sol\":300:315  820000000000000 */\n      0x02e9c920b74000\n        /* \"contracts/MockPriceOracle.sol\":253:315  uint256 public constant MOCK_TOKEN_ETH_PRICE = 820000000000000 */\n      dup2\n      jump\t// out\n        /* \"contracts/MockPriceOracle.sol\":508:662  function getTokenPrice(uint32 secondsAgo) public pure returns (uint256) {... */\n    tag_14:\n        /* \"contracts/MockPriceOracle.sol\":571:578  uint256 */\n      0x00\n        /* \"contracts/MockPriceOracle.sol\":300:315  820000000000000 */\n      0x02e9c920b74000\n        /* \"contracts/MockPriceOracle.sol\":627:654  return MOCK_TOKEN_ETH_PRICE */\n      swap1\n      pop\n        /* \"contracts/MockPriceOracle.sol\":508:662  function getTokenPrice(uint32 secondsAgo) public pure returns (uint256) {... */\n      swap2\n      swap1\n      pop\n      jump\t// out\n        /* \"contracts/MockPriceOracle.sol\":338:438  function getEthUsdPrice() external pure returns (uint256) {... */\n    tag_17:\n        /* \"contracts/MockPriceOracle.sol\":387:394  uint256 */\n      0x00\n        /* \"contracts/MockPriceOracle.sol\":235:247  300000000000 */\n      0x45d964b800\n        /* \"contracts/MockPriceOracle.sol\":406:431  return MOCK_ETH_USD_PRICE */\n      swap1\n      pop\n        /* \"contracts/MockPriceOracle.sol\":338:438  function getEthUsdPrice() external pure returns (uint256) {... */\n      swap1\n      jump\t// out\n        /* \"contracts/MockPriceOracle.sol\":190:247  uint256 public constant MOCK_ETH_USD_PRICE = 300000000000 */\n    tag_20:\n        /* \"contracts/MockPriceOracle.sol\":235:247  300000000000 */\n      0x45d964b800\n        /* \"contracts/MockPriceOracle.sol\":190:247  uint256 public constant MOCK_ETH_USD_PRICE = 300000000000 */\n      dup2\n      jump\t// out\n        /* \"#utility.yul\":7:84   */\n    tag_24:\n        /* \"#utility.yul\":44:51   */\n      0x00\n        /* \"#utility.yul\":73:78   */\n      dup2\n        /* \"#utility.yul\":62:78   */\n      swap1\n      pop\n        /* \"#utility.yul\":7:84   */\n      swap2\n      swap1\n      pop\n      jump\t// out\n        /* \"#utility.yul\":90:208   */\n    tag_25:\n        /* \"#utility.yul\":177:201   */\n      tag_35\n        /* \"#utility.yul\":195:200   */\n      dup2\n        /* \"#utility.yul\":177:201   */\n      tag_24\n      jump\t// in\n    tag_35:\n        /* \"#utility.yul\":172:175   */\n      dup3\n        /* \"#utility.yul\":165:202   */\n      mstore\n        /* \"#utility.yul\":90:208   */\n      pop\n      pop\n      jump\t// out\n        /* \"#utility.yul\":214:436   */\n    tag_10:\n        /* \"#utility.yul\":307:311   */\n      0x00\n        /* \"#utility.yul\":345:347   */\n      0x20\n        /* \"#utility.yul\":334:343   */\n      dup3\n        /* \"#utility.yul\":330:348   */\n      add\n        /* \"#utility.yul\":322:348   */\n      swap1\n      pop\n        /* \"#utility.yul\":358:429   */\n      tag_37\n        /* \"#utility.yul\":426:427   */\n      0x00\n        /* \"#utility.yul\":415:424   */\n      dup4\n        /* \"#utility.yul\":411:428   */\n      add\n        /* \"#utility.yul\":402:408   */\n      dup5\n        /* \"#utility.yul\":358:429   */\n      tag_25\n      jump\t// in\n    tag_37:\n        /* \"#utility.yul\":214:436   */\n      swap3\n      swap2\n      pop\n      pop\n      jump\t// out\n        /* \"#utility.yul\":523:640   */\n    tag_27:\n        /* \"#utility.yul\":632:633   */\n      0x00\n        /* \"#utility.yul\":629:630   */\n      0x00\n        /* \"#utility.yul\":622:634   */\n      revert\n        /* \"#utility.yul\":769:862   */\n    tag_29:\n        /* \"#utility.yul\":805:812   */\n      0x00\n        /* \"#utility.yul\":845:855   */\n      0xffffffff\n        /* \"#utility.yul\":838:843   */\n      dup3\n        /* \"#utility.yul\":834:856   */\n      and\n        /* \"#utility.yul\":823:856   */\n      swap1\n      pop\n        /* \"#utility.yul\":769:862   */\n      swap2\n      swap1\n      pop\n      jump\t// out\n        /* \"#utility.yul\":868:988   */\n    tag_30:\n        /* \"#utility.yul\":940:963   */\n      tag_43\n        /* \"#utility.yul\":957:962   */\n      dup2\n        /* \"#utility.yul\":940:963   */\n      tag_29\n      jump\t// in\n    tag_43:\n        /* \"#utility.yul\":933:938   */\n      dup2\n        /* \"#utility.yul\":930:964   */\n      eq\n        /* \"#utility.yul\":920:982   */\n      tag_44\n      jumpi\n        /* \"#utility.yul\":978:979   */\n      0x00\n        /* \"#utility.yul\":975:976   */\n      0x00\n        /* \"#utility.yul\":968:980   */\n      revert\n        /* \"#utility.yul\":920:982   */\n    tag_44:\n        /* \"#utility.yul\":868:988   */\n      pop\n      jump\t// out\n        /* \"#utility.yul\":994:1131   */\n    tag_31:\n        /* \"#utility.yul\":1039:1044   */\n      0x00\n        /* \"#utility.yul\":1077:1083   */\n      dup2\n        /* \"#utility.yul\":1064:1084   */\n      calldataload\n        /* \"#utility.yul\":1055:1084   */\n      swap1\n      pop\n        /* \"#utility.yul\":1093:1125   */\n      tag_46\n        /* \"#utility.yul\":1119:1124   */\n      dup2\n        /* \"#utility.yul\":1093:1125   */\n      tag_30\n      jump\t// in\n    tag_46:\n        /* \"#utility.yul\":994:1131   */\n      swap3\n      swap2\n      pop\n      pop\n      jump\t// out\n        /* \"#utility.yul\":1137:1464   */\n    tag_13:\n        /* \"#utility.yul\":1195:1201   */\n      0x00\n        /* \"#utility.yul\":1244:1246   */\n      0x20\n        /* \"#utility.yul\":1232:1241   */\n      dup3\n        /* \"#utility.yul\":1223:1230   */\n      dup5\n        /* \"#utility.yul\":1219:1242   */\n      sub\n        /* \"#utility.yul\":1215:1247   */\n      slt\n        /* \"#utility.yul\":1212:1331   */\n      iszero\n      tag_48\n      jumpi\n        /* \"#utility.yul\":1250:1329   */\n      tag_49\n      tag_27\n      jump\t// in\n    tag_49:\n        /* \"#utility.yul\":1212:1331   */\n    tag_48:\n        /* \"#utility.yul\":1370:1371   */\n      0x00\n        /* \"#utility.yul\":1395:1447   */\n      tag_50\n        /* \"#utility.yul\":1439:1446   */\n      dup5\n        /* \"#utility.yul\":1430:1436   */\n      dup3\n        /* \"#utility.yul\":1419:1428   */\n      dup6\n        /* \"#utility.yul\":1415:1437   */\n      add\n        /* \"#utility.yul\":1395:1447   */\n      tag_31\n      jump\t// in\n    tag_50:\n        /* \"#utility.yul\":1385:1447   */\n      swap2\n      pop\n        /* \"#utility.yul\":1341:1457   */\n      pop\n        /* \"#utility.yul\":1137:1464   */\n      swap3\n      swap2\n      pop\n      pop\n      jump\t// out\n\n    auxdata: 0xa2646970667358221220facf912e202de393bed3de96b1ed5d99ee0e3e3d2238a22f81ddc15fd80adb8f64736f6c634300081e0033\n}\n",
				"bytecode": {
					"linkReferences": {},
					"object": "6080604052348015600e575f5ffd5b506101d78061001c5f395ff3fe608060405234801561000f575f5ffd5b506004361061004a575f3560e01c80632ab568d41461004e578063906d67ea1461006c578063a0a8045e1461009c578063e2800cc1146100ba575b5f5ffd5b6100566100d8565b6040516100639190610120565b60405180910390f35b61008660048036038101906100819190610176565b6100e3565b6040516100939190610120565b60405180910390f35b6100a46100f3565b6040516100b19190610120565b60405180910390f35b6100c26100ff565b6040516100cf9190610120565b60405180910390f35b6602e9c920b7400081565b5f6602e9c920b740009050919050565b5f6445d964b800905090565b6445d964b80081565b5f819050919050565b61011a81610108565b82525050565b5f6020820190506101335f830184610111565b92915050565b5f5ffd5b5f63ffffffff82169050919050565b6101558161013d565b811461015f575f5ffd5b50565b5f813590506101708161014c565b92915050565b5f6020828403121561018b5761018a610139565b5b5f61019884828501610162565b9150509291505056fea2646970667358221220facf912e202de393bed3de96b1ed5d99ee0e3e3d2238a22f81ddc15fd80adb8f64736f6c634300081e0033",
					"opcodes": "PUSH1 0x80 PUSH1 0x40 MSTORE CALLVALUE DUP1 ISZERO PUSH1 0xE JUMPI PUSH0 PUSH0 REVERT JUMPDEST POP PUSH2 0x1D7 DUP1 PUSH2 0x1C PUSH0 CODECOPY PUSH0 RETURN INVALID PUSH1 0x80 PUSH1 0x40 MSTORE CALLVALUE DUP1 ISZERO PUSH2 0xF JUMPI PUSH0 PUSH0 REVERT JUMPDEST POP PUSH1 0x4 CALLDATASIZE LT PUSH2 0x4A JUMPI PUSH0 CALLDATALOAD PUSH1 0xE0 SHR DUP1 PUSH4 0x2AB568D4 EQ PUSH2 0x4E JUMPI DUP1 PUSH4 0x906D67EA EQ PUSH2 0x6C JUMPI DUP1 PUSH4 0xA0A8045E EQ PUSH2 0x9C JUMPI DUP1 PUSH4 0xE2800CC1 EQ PUSH2 0xBA JUMPI JUMPDEST PUSH0 PUSH0 REVERT JUMPDEST PUSH2 0x56 PUSH2 0xD8 JUMP JUMPDEST PUSH1 0x40 MLOAD PUSH2 0x63 SWAP2 SWAP1 PUSH2 0x120 JUMP JUMPDEST PUSH1 0x40 MLOAD DUP1 SWAP2 SUB SWAP1 RETURN JUMPDEST PUSH2 0x86 PUSH1 0x4 DUP1 CALLDATASIZE SUB DUP2 ADD SWAP1 PUSH2 0x81 SWAP2 SWAP1 PUSH2 0x176 JUMP JUMPDEST PUSH2 0xE3 JUMP JUMPDEST PUSH1 0x40 MLOAD PUSH2 0x93 SWAP2 SWAP1 PUSH2 0x120 JUMP JUMPDEST PUSH1 0x40 MLOAD DUP1 SWAP2 SUB SWAP1 RETURN JUMPDEST PUSH2 0xA4 PUSH2 0xF3 JUMP JUMPDEST PUSH1 0x40 MLOAD PUSH2 0xB1 SWAP2 SWAP1 PUSH2 0x120 JUMP JUMPDEST PUSH1 0x40 MLOAD DUP1 SWAP2 SUB SWAP1 RETURN JUMPDEST PUSH2 0xC2 PUSH2 0xFF JUMP JUMPDEST PUSH1 0x40 MLOAD PUSH2 0xCF SWAP2 SWAP1 PUSH2 0x120 JUMP JUMPDEST PUSH1 0x40 MLOAD DUP1 SWAP2 SUB SWAP1 RETURN JUMPDEST PUSH7 0x2E9C920B74000 DUP2 JUMP JUMPDEST PUSH0 PUSH7 0x2E9C920B74000 SWAP1 POP SWAP2 SWAP1 POP JUMP JUMPDEST PUSH0 PUSH5 0x45D964B800 SWAP1 POP SWAP1 JUMP JUMPDEST PUSH5 0x45D964B800 DUP2 JUMP JUMPDEST PUSH0 DUP2 SWAP1 POP SWAP2 SWAP1 POP JUMP JUMPDEST PUSH2 0x11A DUP2 PUSH2 0x108 JUMP JUMPDEST DUP3 MSTORE POP POP JUMP JUMPDEST PUSH0 PUSH1 0x20 DUP3 ADD SWAP1 POP PUSH2 0x133 PUSH0 DUP4 ADD DUP5 PUSH2 0x111 JUMP JUMPDEST SWAP3 SWAP2 POP POP JUMP JUMPDEST PUSH0 PUSH0 REVERT JUMPDEST PUSH0 PUSH4 0xFFFFFFFF DUP3 AND SWAP1 POP SWAP2 SWAP1 POP JUMP JUMPDEST PUSH2 0x155 DUP2 PUSH2 0x13D JUMP JUMPDEST DUP2 EQ PUSH2 0x15F JUMPI PUSH0 PUSH0 REVERT JUMPDEST POP JUMP JUMPDEST PUSH0 DUP2 CALLDATALOAD SWAP1 POP PUSH2 0x170 DUP2 PUSH2 0x14C JUMP JUMPDEST SWAP3 SWAP2 POP POP JUMP JUMPDEST PUSH0 PUSH1 0x20 DUP3 DUP5 SUB SLT ISZERO PUSH2 0x18B JUMPI PUSH2 0x18A PUSH2 0x139 JUMP JUMPDEST JUMPDEST PUSH0 PUSH2 0x198 DUP5 DUP3 DUP6 ADD PUSH2 0x162 JUMP JUMPDEST SWAP2 POP POP SWAP3 SWAP2 POP POP JUMP INVALID LOG2 PUSH5 0x6970667358 0x22 SLT KECCAK256 STATICCALL 0xCF SWAP2 0x2E KECCAK256 0x2D CALLF 0x93BE 0xD3 0xDE SWAP7 0xB1 0xED TSTORE SWAP10 RETURNCONTRACT 0xE RETURNDATACOPY RETURNDATASIZE 0x22 CODESIZE LOG2 0x2F DUP2 0xDD 0xC1 PUSH0 0xD8 EXP 0xDB DUP16 PUSH5 0x736F6C6343 STOP ADDMOD 0x1E STOP CALLER "
				},
				"gasEstimates": {
					"creation": {
						"codeDepositCost": "94200",
						"executionCost": "139",
						"totalCost": "94339"
					},
					"external": {
						"MOCK_ETH_USD_PRICE()": "369",
						"MOCK_TOKEN_ETH_PRICE()": "303",
						"getEthUsdPrice()": "354",
						"getTokenPrice(uint32)": "599"
					}
				},
				"methodIdentifiers": {
					"MOCK_ETH_USD_PRICE()": "e2800cc1",
					"MOCK_TOKEN_ETH_PRICE()": "2ab568d4",
					"getEthUsdPrice()": "a0a8045e",
					"getTokenPrice(uint32)": "906d67ea"
				}
			},
			"storageLayout": {
				"storage": [],
				"types": null
			},
			"userdoc": {
				"kind": "user",
				"methods": {},
				"version": 1
			}
		}
	}
}