{
	"contracts/solotest.sol": {
		"PriceOracle": {
			"abi": [
				{
					"inputs": [
						{
							"internalType": "uint256",
							"name": "usdAmount",
							"type": "uint256"
						},
						{
							"internalType": "uint32",
							"name": "secondsAgo",
							"type": "uint32"
						},
						{
							"internalType": "uint8",
							"name": "tokenDecimals",
							"type": "uint8"
						}
					],
					"name": "anotherUsdToToken",
					"outputs": [
						{
							"internalType": "uint256",
							"name": "tokensNeeded",
							"type": "uint256"
						}
					],
					"stateMutability": "view",
					"type": "function"
				},
				{
					"inputs": [
						{
							"internalType": "uint32",
							"name": "secondsAgo",
							"type": "uint32"
						}
					],
					"name": "getTokenPrice",
					"outputs": [
						{
							"internalType": "uint256",
							"name": "",
							"type": "uint256"
						}
					],
					"stateMutability": "view",
					"type": "function"
				},
				{
					"inputs": [
						{
							"internalType": "uint256",
							"name": "usdAmount_6Decimals",
							"type": "uint256"
						},
						{
							"internalType": "uint256",
							"name": "ethPriceInUSD_8Decimals",
							"type": "uint256"
						},
						{
							"internalType": "uint256",
							"name": "tokenPriceInETH_18Decimals",
							"type": "uint256"
						},
						{
							"internalType": "uint8",
							"name": "tokenDecimals",
							"type": "uint8"
						}
					],
					"name": "getTokensForUSD",
					"outputs": [
						{
							"internalType": "uint256",
							"name": "tokensNeeded",
							"type": "uint256"
						}
					],
					"stateMutability": "pure",
					"type": "function"
				},
				{
					"inputs": [],
					"name": "token",
					"outputs": [
						{
							"internalType": "address",
							"name": "",
							"type": "address"
						}
					],
					"stateMutability": "view",
					"type": "function"
				},
				{
					"inputs": [
						{
							"internalType": "uint256",
							"name": "usdAmount",
							"type": "uint256"
						},
						{
							"internalType": "uint32",
							"name": "secondsAgo",
							"type": "uint32"
						}
					],
					"name": "usdToToken",
					"outputs": [
						{
							"internalType": "uint256",
							"name": "",
							"type": "uint256"
						}
					],
					"stateMutability": "view",
					"type": "function"
				},
				{
					"inputs": [],
					"name": "weth",
					"outputs": [
						{
							"internalType": "address",
							"name": "",
							"type": "address"
						}
					],
					"stateMutability": "view",
					"type": "function"
				}
			],
			"devdoc": {
				"kind": "dev",
				"methods": {},
				"version": 1
			},
			"evm": {
				"assembly": "    /* \"contracts/solotest.sol\":362:7511  contract PriceOracle {... */\n  mstore(0x40, 0x80)\n  callvalue\n  dup1\n  iszero\n  tag_1\n  jumpi\n  0x00\n  dup1\n  revert\ntag_1:\n  pop\n  dataSize(sub_0)\n  dup1\n  dataOffset(sub_0)\n  0x00\n  codecopy\n  0x00\n  return\nstop\n\nsub_0: assembly {\n        /* \"contracts/solotest.sol\":362:7511  contract PriceOracle {... */\n      mstore(0x40, 0x80)\n      callvalue\n      dup1\n      iszero\n      tag_1\n      jumpi\n      0x00\n      dup1\n      revert\n    tag_1:\n      pop\n      jumpi(tag_2, lt(calldatasize, 0x04))\n      shr(0xe0, calldataload(0x00))\n      dup1\n      0x17fdaffa\n      eq\n      tag_3\n      jumpi\n      dup1\n      0x3fc8cef3\n      eq\n      tag_4\n      jumpi\n      dup1\n      0x85f7ae8f\n      eq\n      tag_5\n      jumpi\n      dup1\n      0x906d67ea\n      eq\n      tag_6\n      jumpi\n      dup1\n      0xa0152b3a\n      eq\n      tag_7\n      jumpi\n      dup1\n      0xfc0c546a\n      eq\n      tag_8\n      jumpi\n    tag_2:\n      0x00\n      dup1\n      revert\n        /* \"contracts/solotest.sol\":2429:5726  function getTokensForUSD(... */\n    tag_3:\n      tag_9\n      0x04\n      dup1\n      calldatasize\n      sub\n      0x80\n      dup2\n      lt\n      iszero\n      tag_10\n      jumpi\n      0x00\n      dup1\n      revert\n    tag_10:\n      dup2\n      add\n      swap1\n      dup1\n      dup1\n      calldataload\n      swap1\n      0x20\n      add\n      swap1\n      swap3\n      swap2\n      swap1\n      dup1\n      calldataload\n      swap1\n      0x20\n      add\n      swap1\n      swap3\n      swap2\n      swap1\n      dup1\n      calldataload\n      swap1\n      0x20\n      add\n      swap1\n      swap3\n      swap2\n      swap1\n      dup1\n      calldataload\n      0xff\n      and\n      swap1\n      0x20\n      add\n      swap1\n      swap3\n      swap2\n      swap1\n      pop\n      pop\n      pop\n      tag_11\n      jump\t// in\n    tag_9:\n      mload(0x40)\n      dup1\n      dup3\n      dup2\n      mstore\n      0x20\n      add\n      swap2\n      pop\n      pop\n      mload(0x40)\n      dup1\n      swap2\n      sub\n      swap1\n      return\n        /* \"contracts/solotest.sol\":469:542  address public constant weth = 0x7b79995e5f793A07Bc00c21412e50Ecae098E7f9 */\n    tag_4:\n      tag_12\n      tag_13\n      jump\t// in\n    tag_12:\n      mload(0x40)\n      dup1\n      dup3\n      0xffffffffffffffffffffffffffffffffffffffff\n      and\n      dup2\n      mstore\n      0x20\n      add\n      swap2\n      pop\n      pop\n      mload(0x40)\n      dup1\n      swap2\n      sub\n      swap1\n      return\n        /* \"contracts/solotest.sol\":5737:7508  function anotherUsdToToken(... */\n    tag_5:\n      tag_14\n      0x04\n      dup1\n      calldatasize\n      sub\n      0x60\n      dup2\n      lt\n      iszero\n      tag_15\n      jumpi\n      0x00\n      dup1\n      revert\n    tag_15:\n      dup2\n      add\n      swap1\n      dup1\n      dup1\n      calldataload\n      swap1\n      0x20\n      add\n      swap1\n      swap3\n      swap2\n      swap1\n      dup1\n      calldataload\n      0xffffffff\n      and\n      swap1\n      0x20\n      add\n      swap1\n      swap3\n      swap2\n      swap1\n      dup1\n      calldataload\n      0xff\n      and\n      swap1\n      0x20\n      add\n      swap1\n      swap3\n      swap2\n      swap1\n      pop\n      pop\n      pop\n      tag_16\n      jump\t// in\n    tag_14:\n      mload(0x40)\n      dup1\n      dup3\n      dup2\n      mstore\n      0x20\n      add\n      swap2\n      pop\n      pop\n      mload(0x40)\n      dup1\n      swap2\n      sub\n      swap1\n      return\n        /* \"contracts/solotest.sol\":692:1444  function getTokenPrice(uint32 secondsAgo) public view returns (uint256) {... */\n    tag_6:\n      tag_17\n      0x04\n      dup1\n      calldatasize\n      sub\n      0x20\n      dup2\n      lt\n      iszero\n      tag_18\n      jumpi\n      0x00\n      dup1\n      revert\n    tag_18:\n      dup2\n      add\n      swap1\n      dup1\n      dup1\n      calldataload\n      0xffffffff\n      and\n      swap1\n      0x20\n      add\n      swap1\n      swap3\n      swap2\n      swap1\n      pop\n      pop\n      pop\n      tag_19\n      jump\t// in\n    tag_17:\n      mload(0x40)\n      dup1\n      dup3\n      dup2\n      mstore\n      0x20\n      add\n      swap2\n      pop\n      pop\n      mload(0x40)\n      dup1\n      swap2\n      sub\n      swap1\n      return\n        /* \"contracts/solotest.sol\":1844:2423  function usdToToken(... */\n    tag_7:\n      tag_20\n      0x04\n      dup1\n      calldatasize\n      sub\n      0x40\n      dup2\n      lt\n      iszero\n      tag_21\n      jumpi\n      0x00\n      dup1\n      revert\n    tag_21:\n      dup2\n      add\n      swap1\n      dup1\n      dup1\n      calldataload\n      swap1\n      0x20\n      add\n      swap1\n      swap3\n      swap2\n      swap1\n      dup1\n      calldataload\n      0xffffffff\n      and\n      swap1\n      0x20\n      add\n      swap1\n      swap3\n      swap2\n      swap1\n      pop\n      pop\n      pop\n      tag_22\n      jump\t// in\n    tag_20:\n      mload(0x40)\n      dup1\n      dup3\n      dup2\n      mstore\n      0x20\n      add\n      swap2\n      pop\n      pop\n      mload(0x40)\n      dup1\n      swap2\n      sub\n      swap1\n      return\n        /* \"contracts/solotest.sol\":389:463  address public constant token = 0x1c7D4B196Cb0C7B01d743Fbc6116a902379C7238 */\n    tag_8:\n      tag_23\n      tag_24\n      jump\t// in\n    tag_23:\n      mload(0x40)\n      dup1\n      dup3\n      0xffffffffffffffffffffffffffffffffffffffff\n      and\n      dup2\n      mstore\n      0x20\n      add\n      swap2\n      pop\n      pop\n      mload(0x40)\n      dup1\n      swap2\n      sub\n      swap1\n      return\n        /* \"contracts/solotest.sol\":2429:5726  function getTokensForUSD(... */\n    tag_11:\n        /* \"contracts/solotest.sol\":2721:2741  uint256 tokensNeeded */\n      0x00\n        /* \"contracts/solotest.sol\":3718:3736  uint256 multiplier */\n      dup1\n        /* \"contracts/solotest.sol\":3739:3743  1e18 */\n      0x0de0b6b3a7640000\n        /* \"contracts/solotest.sol\":3718:3743  uint256 multiplier = 1e18 */\n      swap1\n      pop\n        /* \"contracts/solotest.sol\":4043:4074  uint256 tokenDecimalsMultiplier */\n      0x00\n        /* \"contracts/solotest.sol\":4077:4078  1 */\n      0x01\n        /* \"contracts/solotest.sol\":4043:4078  uint256 tokenDecimalsMultiplier = 1 */\n      swap1\n      pop\n        /* \"contracts/solotest.sol\":4108:4109  0 */\n      0x00\n        /* \"contracts/solotest.sol\":4092:4105  tokenDecimals */\n      dup5\n        /* \"contracts/solotest.sol\":4092:4109  tokenDecimals > 0 */\n      0xff\n      and\n      gt\n        /* \"contracts/solotest.sol\":4088:4179  if (tokenDecimals > 0) {... */\n      iszero\n      tag_26\n      jumpi\n        /* \"contracts/solotest.sol\":4155:4168  tokenDecimals */\n      dup4\n        /* \"contracts/solotest.sol\":4151:4168  10**tokenDecimals */\n      0xff\n      and\n        /* \"contracts/solotest.sol\":4151:4153  10 */\n      0x0a\n        /* \"contracts/solotest.sol\":4151:4168  10**tokenDecimals */\n      exp\n        /* \"contracts/solotest.sol\":4125:4168  tokenDecimalsMultiplier = 10**tokenDecimals */\n      swap1\n      pop\n        /* \"contracts/solotest.sol\":4088:4179  if (tokenDecimals > 0) {... */\n    tag_26:\n        /* \"contracts/solotest.sol\":4696:4729  uint256 tokenPriceInUSD_8Decimals */\n      0x00\n        /* \"contracts/solotest.sol\":4789:4793  1e18 */\n      0x0de0b6b3a7640000\n        /* \"contracts/solotest.sol\":4762:4785  ethPriceInUSD_8Decimals */\n      dup8\n        /* \"contracts/solotest.sol\":4733:4759  tokenPriceInETH_18Decimals */\n      dup8\n        /* \"contracts/solotest.sol\":4733:4785  tokenPriceInETH_18Decimals * ethPriceInUSD_8Decimals */\n      mul\n        /* \"contracts/solotest.sol\":4732:4793  (tokenPriceInETH_18Decimals * ethPriceInUSD_8Decimals) / 1e18 */\n      dup2\n      tag_27\n      jumpi\n      invalid\n    tag_27:\n      div\n        /* \"contracts/solotest.sol\":4696:4793  uint256 tokenPriceInUSD_8Decimals = (tokenPriceInETH_18Decimals * ethPriceInUSD_8Decimals) / 1e18 */\n      swap1\n      pop\n        /* \"contracts/solotest.sol\":4932:4933  0 */\n      0x00\n        /* \"contracts/solotest.sol\":4904:4929  tokenPriceInUSD_8Decimals */\n      dup2\n        /* \"contracts/solotest.sol\":4904:4933  tokenPriceInUSD_8Decimals > 0 */\n      gt\n        /* \"contracts/solotest.sol\":4896:4969  require(tokenPriceInUSD_8Decimals > 0, \"Price must be greater than zero\") */\n      tag_28\n      jumpi\n      mload(0x40)\n      0x08c379a000000000000000000000000000000000000000000000000000000000\n      dup2\n      mstore\n      0x04\n      add\n      dup1\n      dup1\n      0x20\n      add\n      dup3\n      dup2\n      sub\n      dup3\n      mstore\n      0x1f\n      dup2\n      mstore\n      0x20\n      add\n      dup1\n      0x5072696365206d7573742062652067726561746572207468616e207a65726f00\n      dup2\n      mstore\n      pop\n      0x20\n      add\n      swap2\n      pop\n      pop\n      mload(0x40)\n      dup1\n      swap2\n      sub\n      swap1\n      revert\n    tag_28:\n        /* \"contracts/solotest.sol\":5576:5593  uint256 numerator */\n      0x00\n        /* \"contracts/solotest.sol\":5644:5647  100 */\n      0x64\n        /* \"contracts/solotest.sol\":5618:5641  tokenDecimalsMultiplier */\n      dup4\n        /* \"contracts/solotest.sol\":5596:5615  usdAmount_6Decimals */\n      dup11\n        /* \"contracts/solotest.sol\":5596:5641  usdAmount_6Decimals * tokenDecimalsMultiplier */\n      mul\n        /* \"contracts/solotest.sol\":5596:5647  usdAmount_6Decimals * tokenDecimalsMultiplier * 100 */\n      mul\n        /* \"contracts/solotest.sol\":5576:5647  uint256 numerator = usdAmount_6Decimals * tokenDecimalsMultiplier * 100 */\n      swap1\n      pop\n        /* \"contracts/solotest.sol\":5694:5719  tokenPriceInUSD_8Decimals */\n      dup2\n        /* \"contracts/solotest.sol\":5682:5691  numerator */\n      dup2\n        /* \"contracts/solotest.sol\":5682:5719  numerator / tokenPriceInUSD_8Decimals */\n      dup2\n      tag_29\n      jumpi\n      invalid\n    tag_29:\n      div\n        /* \"contracts/solotest.sol\":5675:5719  return numerator / tokenPriceInUSD_8Decimals */\n      swap5\n      pop\n      pop\n      pop\n      pop\n      pop\n        /* \"contracts/solotest.sol\":2429:5726  function getTokensForUSD(... */\n      swap5\n      swap4\n      pop\n      pop\n      pop\n      pop\n      jump\t// out\n        /* \"contracts/solotest.sol\":469:542  address public constant weth = 0x7b79995e5f793A07Bc00c21412e50Ecae098E7f9 */\n    tag_13:\n        /* \"contracts/solotest.sol\":500:542  0x7b79995e5f793A07Bc00c21412e50Ecae098E7f9 */\n      0x7b79995e5f793a07bc00c21412e50ecae098e7f9\n        /* \"contracts/solotest.sol\":469:542  address public constant weth = 0x7b79995e5f793A07Bc00c21412e50Ecae098E7f9 */\n      dup2\n      jump\t// out\n        /* \"contracts/solotest.sol\":5737:7508  function anotherUsdToToken(... */\n    tag_16:\n        /* \"contracts/solotest.sol\":6021:6041  uint256 tokensNeeded */\n      0x00\n        /* \"contracts/solotest.sol\":6143:6159  uint256 tokenEth */\n      dup1\n        /* \"contracts/solotest.sol\":6162:6187  getTokenPrice(secondsAgo) */\n      tag_31\n        /* \"contracts/solotest.sol\":6176:6186  secondsAgo */\n      dup5\n        /* \"contracts/solotest.sol\":6162:6175  getTokenPrice */\n      tag_19\n        /* \"contracts/solotest.sol\":6162:6187  getTokenPrice(secondsAgo) */\n      jump\t// in\n    tag_31:\n        /* \"contracts/solotest.sol\":6143:6187  uint256 tokenEth = getTokenPrice(secondsAgo) */\n      swap1\n      pop\n        /* \"contracts/solotest.sol\":6277:6291  uint256 ethUsd */\n      0x00\n        /* \"contracts/solotest.sol\":6304:6346  0xf623109f16Fdf8ef1dA0830c5B1c7ba9dBa4A06E */\n      0xf623109f16fdf8ef1da0830c5b1c7ba9dba4a06e\n        /* \"contracts/solotest.sol\":6294:6362  IContract(0xf623109f16Fdf8ef1dA0830c5B1c7ba9dBa4A06E).getEthUsdPrice */\n      0xffffffffffffffffffffffffffffffffffffffff\n      and\n      0xa0a8045e\n        /* \"contracts/solotest.sol\":6294:6364  IContract(0xf623109f16Fdf8ef1dA0830c5B1c7ba9dBa4A06E).getEthUsdPrice() */\n      mload(0x40)\n      dup2\n      0xffffffff\n      and\n      0xe0\n      shl\n      dup2\n      mstore\n      0x04\n      add\n      0x20\n      mload(0x40)\n      dup1\n      dup4\n      sub\n      dup2\n      dup7\n      dup1\n      extcodesize\n      iszero\n      dup1\n      iszero\n      tag_32\n      jumpi\n      0x00\n      dup1\n      revert\n    tag_32:\n      pop\n      gas\n      staticcall\n      iszero\n      dup1\n      iszero\n      tag_34\n      jumpi\n      returndatasize\n      0x00\n      dup1\n      returndatacopy\n      revert(0x00, returndatasize)\n    tag_34:\n      pop\n      pop\n      pop\n      pop\n      mload(0x40)\n      returndatasize\n      0x20\n      dup2\n      lt\n      iszero\n      tag_35\n      jumpi\n      0x00\n      dup1\n      revert\n    tag_35:\n      dup2\n      add\n      swap1\n      dup1\n      dup1\n      mload\n      swap1\n      0x20\n      add\n      swap1\n      swap3\n      swap2\n      swap1\n      pop\n      pop\n      pop\n        /* \"contracts/solotest.sol\":6277:6364  uint256 ethUsd = IContract(0xf623109f16Fdf8ef1dA0830c5B1c7ba9dBa4A06E).getEthUsdPrice() */\n      swap1\n      pop\n        /* \"contracts/solotest.sol\":6484:6485  0 */\n      0x00\n        /* \"contracts/solotest.sol\":6473:6481  tokenEth */\n      dup3\n        /* \"contracts/solotest.sol\":6473:6485  tokenEth > 0 */\n      gt\n        /* \"contracts/solotest.sol\":6465:6514  require(tokenEth > 0, \"Token/ETH price is zero.\") */\n      tag_36\n      jumpi\n      mload(0x40)\n      0x08c379a000000000000000000000000000000000000000000000000000000000\n      dup2\n      mstore\n      0x04\n      add\n      dup1\n      dup1\n      0x20\n      add\n      dup3\n      dup2\n      sub\n      dup3\n      mstore\n      0x18\n      dup2\n      mstore\n      0x20\n      add\n      dup1\n      0x546f6b656e2f455448207072696365206973207a65726f2e0000000000000000\n      dup2\n      mstore\n      pop\n      0x20\n      add\n      swap2\n      pop\n      pop\n      mload(0x40)\n      dup1\n      swap2\n      sub\n      swap1\n      revert\n    tag_36:\n        /* \"contracts/solotest.sol\":6545:6546  0 */\n      0x00\n        /* \"contracts/solotest.sol\":6536:6542  ethUsd */\n      dup2\n        /* \"contracts/solotest.sol\":6536:6546  ethUsd > 0 */\n      gt\n        /* \"contracts/solotest.sol\":6528:6573  require(ethUsd > 0, \"ETH/USD price is zero.\") */\n      tag_37\n      jumpi\n      mload(0x40)\n      0x08c379a000000000000000000000000000000000000000000000000000000000\n      dup2\n      mstore\n      0x04\n      add\n      dup1\n      dup1\n      0x20\n      add\n      dup3\n      dup2\n      sub\n      dup3\n      mstore\n      0x16\n      dup2\n      mstore\n      0x20\n      add\n      dup1\n      0x4554482f555344207072696365206973207a65726f2e00000000000000000000\n      dup2\n      mstore\n      pop\n      0x20\n      add\n      swap2\n      pop\n      pop\n      mload(0x40)\n      dup1\n      swap2\n      sub\n      swap1\n      revert\n    tag_37:\n        /* \"contracts/solotest.sol\":6670:6689  uint256 denominator */\n      0x00\n        /* \"contracts/solotest.sol\":6703:6709  ethUsd */\n      dup2\n        /* \"contracts/solotest.sol\":6692:6700  tokenEth */\n      dup4\n        /* \"contracts/solotest.sol\":6692:6709  tokenEth * ethUsd */\n      mul\n        /* \"contracts/solotest.sol\":6670:6709  uint256 denominator = tokenEth * ethUsd */\n      swap1\n      pop\n        /* \"contracts/solotest.sol\":6745:6746  0 */\n      0x00\n        /* \"contracts/solotest.sol\":6731:6742  denominator */\n      dup2\n        /* \"contracts/solotest.sol\":6731:6746  denominator > 0 */\n      gt\n        /* \"contracts/solotest.sol\":6723:6777  require(denominator > 0, \"Price denominator is zero.\") */\n      tag_38\n      jumpi\n      mload(0x40)\n      0x08c379a000000000000000000000000000000000000000000000000000000000\n      dup2\n      mstore\n      0x04\n      add\n      dup1\n      dup1\n      0x20\n      add\n      dup3\n      dup2\n      sub\n      dup3\n      mstore\n      0x1a\n      dup2\n      mstore\n      0x20\n      add\n      dup1\n      0x50726963652064656e6f6d696e61746f72206973207a65726f2e000000000000\n      dup2\n      mstore\n      pop\n      0x20\n      add\n      swap2\n      pop\n      pop\n      mload(0x40)\n      dup1\n      swap2\n      sub\n      swap1\n      revert\n    tag_38:\n        /* \"contracts/solotest.sol\":6864:6895  uint256 tokenDecimalsMultiplier */\n      0x00\n        /* \"contracts/solotest.sol\":6902:6915  tokenDecimals */\n      dup6\n        /* \"contracts/solotest.sol\":6898:6915  10**tokenDecimals */\n      0xff\n      and\n        /* \"contracts/solotest.sol\":6898:6900  10 */\n      0x0a\n        /* \"contracts/solotest.sol\":6898:6915  10**tokenDecimals */\n      exp\n        /* \"contracts/solotest.sol\":6864:6915  uint256 tokenDecimalsMultiplier = 10**tokenDecimals */\n      swap1\n      pop\n        /* \"contracts/solotest.sol\":6999:7021  uint256 numeratorPart1 */\n      0x00\n        /* \"contracts/solotest.sol\":7036:7040  1e18 */\n      0x0de0b6b3a7640000\n        /* \"contracts/solotest.sol\":7024:7033  usdAmount */\n      dup10\n        /* \"contracts/solotest.sol\":7024:7040  usdAmount * 1e18 */\n      mul\n        /* \"contracts/solotest.sol\":6999:7040  uint256 numeratorPart1 = usdAmount * 1e18 */\n      swap1\n      pop\n        /* \"contracts/solotest.sol\":7181:7203  uint256 numeratorPart2 */\n      0x00\n        /* \"contracts/solotest.sol\":7223:7226  1e6 */\n      0x0f4240\n        /* \"contracts/solotest.sol\":7206:7220  numeratorPart1 */\n      dup3\n        /* \"contracts/solotest.sol\":7206:7226  numeratorPart1 * 1e6 */\n      mul\n        /* \"contracts/solotest.sol\":7181:7226  uint256 numeratorPart2 = numeratorPart1 * 1e6 */\n      swap1\n      pop\n        /* \"contracts/solotest.sol\":7338:7355  uint256 numerator */\n      0x00\n        /* \"contracts/solotest.sol\":7375:7398  tokenDecimalsMultiplier */\n      dup4\n        /* \"contracts/solotest.sol\":7358:7372  numeratorPart2 */\n      dup3\n        /* \"contracts/solotest.sol\":7358:7398  numeratorPart2 * tokenDecimalsMultiplier */\n      mul\n        /* \"contracts/solotest.sol\":7338:7398  uint256 numerator = numeratorPart2 * tokenDecimalsMultiplier */\n      swap1\n      pop\n        /* \"contracts/solotest.sol\":7440:7451  denominator */\n      dup5\n        /* \"contracts/solotest.sol\":7428:7437  numerator */\n      dup2\n        /* \"contracts/solotest.sol\":7428:7451  numerator / denominator */\n      dup2\n      tag_39\n      jumpi\n      invalid\n    tag_39:\n      div\n        /* \"contracts/solotest.sol\":7413:7451  tokensNeeded = numerator / denominator */\n      swap8\n      pop\n        /* \"contracts/solotest.sol\":7478:7497  return tokensNeeded */\n      pop\n      pop\n      pop\n      pop\n      pop\n      pop\n      pop\n        /* \"contracts/solotest.sol\":5737:7508  function anotherUsdToToken(... */\n      swap4\n      swap3\n      pop\n      pop\n      pop\n      jump\t// out\n        /* \"contracts/solotest.sol\":692:1444  function getTokenPrice(uint32 secondsAgo) public view returns (uint256) {... */\n    tag_19:\n        /* \"contracts/solotest.sol\":755:762  uint256 */\n      0x00\n        /* \"contracts/solotest.sol\":774:786  address pool */\n      dup1\n        /* \"contracts/solotest.sol\":789:805  getPoolAddress() */\n      tag_41\n        /* \"contracts/solotest.sol\":789:803  getPoolAddress */\n      tag_42\n        /* \"contracts/solotest.sol\":789:805  getPoolAddress() */\n      jump\t// in\n    tag_41:\n        /* \"contracts/solotest.sol\":774:805  address pool = getPoolAddress() */\n      swap1\n      pop\n        /* \"contracts/solotest.sol\":816:840  int24 arithmeticMeanTick */\n      0x00\n        /* \"contracts/solotest.sol\":846:885  OracleLibrary.consult(pool, secondsAgo) */\n      tag_43\n        /* \"contracts/solotest.sol\":868:872  pool */\n      dup3\n        /* \"contracts/solotest.sol\":874:884  secondsAgo */\n      dup6\n        /* \"contracts/solotest.sol\":846:867  OracleLibrary.consult */\n      tag_44\n        /* \"contracts/solotest.sol\":846:885  OracleLibrary.consult(pool, secondsAgo) */\n      jump\t// in\n    tag_43:\n        /* \"contracts/solotest.sol\":815:885  (int24 arithmeticMeanTick, ) = OracleLibrary.consult(pool, secondsAgo) */\n      pop\n      swap1\n      pop\n        /* \"contracts/solotest.sol\":896:910  uint8 decimals */\n      0x00\n        /* \"contracts/solotest.sol\":421:463  0x1c7D4B196Cb0C7B01d743Fbc6116a902379C7238 */\n      0x1c7d4b196cb0c7b01d743fbc6116a902379c7238\n        /* \"contracts/solotest.sol\":913:935  IERC20(token).decimals */\n      0xffffffffffffffffffffffffffffffffffffffff\n      and\n      0x313ce567\n        /* \"contracts/solotest.sol\":913:937  IERC20(token).decimals() */\n      mload(0x40)\n      dup2\n      0xffffffff\n      and\n      0xe0\n      shl\n      dup2\n      mstore\n      0x04\n      add\n      0x20\n      mload(0x40)\n      dup1\n      dup4\n      sub\n      dup2\n      dup7\n      dup1\n      extcodesize\n      iszero\n      dup1\n      iszero\n      tag_45\n      jumpi\n      0x00\n      dup1\n      revert\n    tag_45:\n      pop\n      gas\n      staticcall\n      iszero\n      dup1\n      iszero\n      tag_47\n      jumpi\n      returndatasize\n      0x00\n      dup1\n      returndatacopy\n      revert(0x00, returndatasize)\n    tag_47:\n      pop\n      pop\n      pop\n      pop\n      mload(0x40)\n      returndatasize\n      0x20\n      dup2\n      lt\n      iszero\n      tag_48\n      jumpi\n      0x00\n      dup1\n      revert\n    tag_48:\n      dup2\n      add\n      swap1\n      dup1\n      dup1\n      mload\n      swap1\n      0x20\n      add\n      swap1\n      swap3\n      swap2\n      swap1\n      pop\n      pop\n      pop\n        /* \"contracts/solotest.sol\":896:937  uint8 decimals = IERC20(token).decimals() */\n      swap1\n      pop\n        /* \"contracts/solotest.sol\":947:960  uint128 scale */\n      0x00\n        /* \"contracts/solotest.sol\":986:987  6 */\n      0x06\n        /* \"contracts/solotest.sol\":974:982  decimals */\n      dup3\n        /* \"contracts/solotest.sol\":974:987  decimals == 6 */\n      0xff\n      and\n      eq\n        /* \"contracts/solotest.sol\":970:1294  if (decimals == 6) {... */\n      iszero\n      tag_49\n      jumpi\n        /* \"contracts/solotest.sol\":1011:1014  1e6 */\n      0x0f4240\n        /* \"contracts/solotest.sol\":1003:1014  scale = 1e6 */\n      swap1\n      pop\n        /* \"contracts/solotest.sol\":970:1294  if (decimals == 6) {... */\n      jump(tag_50)\n    tag_49:\n        /* \"contracts/solotest.sol\":1047:1048  8 */\n      0x08\n        /* \"contracts/solotest.sol\":1035:1043  decimals */\n      dup3\n        /* \"contracts/solotest.sol\":1035:1048  decimals == 8 */\n      0xff\n      and\n      eq\n        /* \"contracts/solotest.sol\":1031:1294  if (decimals == 8) {... */\n      iszero\n      tag_51\n      jumpi\n        /* \"contracts/solotest.sol\":1072:1075  1e8 */\n      0x05f5e100\n        /* \"contracts/solotest.sol\":1064:1075  scale = 1e8 */\n      swap1\n      pop\n        /* \"contracts/solotest.sol\":1031:1294  if (decimals == 8) {... */\n      jump(tag_52)\n    tag_51:\n        /* \"contracts/solotest.sol\":1108:1110  18 */\n      0x12\n        /* \"contracts/solotest.sol\":1096:1104  decimals */\n      dup3\n        /* \"contracts/solotest.sol\":1096:1110  decimals == 18 */\n      0xff\n      and\n      eq\n        /* \"contracts/solotest.sol\":1092:1294  if (decimals == 18) {... */\n      iszero\n      tag_53\n      jumpi\n        /* \"contracts/solotest.sol\":1134:1138  1e18 */\n      0x0de0b6b3a7640000\n        /* \"contracts/solotest.sol\":1126:1138  scale = 1e18 */\n      swap1\n      pop\n        /* \"contracts/solotest.sol\":1092:1294  if (decimals == 18) {... */\n      jump(tag_54)\n    tag_53:\n        /* \"contracts/solotest.sol\":1169:1201  revert(\"not available interval\") */\n      mload(0x40)\n      0x08c379a000000000000000000000000000000000000000000000000000000000\n      dup2\n      mstore\n      0x04\n      add\n      dup1\n      dup1\n      0x20\n      add\n      dup3\n      dup2\n      sub\n      dup3\n      mstore\n      0x16\n      dup2\n      mstore\n      0x20\n      add\n      dup1\n      0x6e6f7420617661696c61626c6520696e74657276616c00000000000000000000\n      dup2\n      mstore\n      pop\n      0x20\n      add\n      swap2\n      pop\n      pop\n      mload(0x40)\n      dup1\n      swap2\n      sub\n      swap1\n      revert\n        /* \"contracts/solotest.sol\":1092:1294  if (decimals == 18) {... */\n    tag_54:\n        /* \"contracts/solotest.sol\":1031:1294  if (decimals == 8) {... */\n    tag_52:\n        /* \"contracts/solotest.sol\":970:1294  if (decimals == 6) {... */\n    tag_50:\n        /* \"contracts/solotest.sol\":1311:1437  OracleLibrary.getQuoteAtTick(... */\n      tag_55\n        /* \"contracts/solotest.sol\":1353:1371  arithmeticMeanTick */\n      dup4\n        /* \"contracts/solotest.sol\":1385:1390  scale */\n      dup3\n        /* \"contracts/solotest.sol\":421:463  0x1c7D4B196Cb0C7B01d743Fbc6116a902379C7238 */\n      0x1c7d4b196cb0c7b01d743fbc6116a902379c7238\n        /* \"contracts/solotest.sol\":500:542  0x7b79995e5f793A07Bc00c21412e50Ecae098E7f9 */\n      0x7b79995e5f793a07bc00c21412e50ecae098e7f9\n        /* \"contracts/solotest.sol\":1311:1339  OracleLibrary.getQuoteAtTick */\n      tag_56\n        /* \"contracts/solotest.sol\":1311:1437  OracleLibrary.getQuoteAtTick(... */\n      jump\t// in\n    tag_55:\n        /* \"contracts/solotest.sol\":1304:1437  return OracleLibrary.getQuoteAtTick(... */\n      swap5\n      pop\n      pop\n      pop\n      pop\n      pop\n        /* \"contracts/solotest.sol\":692:1444  function getTokenPrice(uint32 secondsAgo) public view returns (uint256) {... */\n      swap2\n      swap1\n      pop\n      jump\t// out\n        /* \"contracts/solotest.sol\":1844:2423  function usdToToken(... */\n    tag_22:\n        /* \"contracts/solotest.sol\":2025:2032  uint256 */\n      0x00\n        /* \"contracts/solotest.sol\":2089:2105  uint256 tokenEth */\n      dup1\n        /* \"contracts/solotest.sol\":2108:2133  getTokenPrice(secondsAgo) */\n      tag_58\n        /* \"contracts/solotest.sol\":2122:2132  secondsAgo */\n      dup4\n        /* \"contracts/solotest.sol\":2108:2121  getTokenPrice */\n      tag_19\n        /* \"contracts/solotest.sol\":2108:2133  getTokenPrice(secondsAgo) */\n      jump\t// in\n    tag_58:\n        /* \"contracts/solotest.sol\":2089:2133  uint256 tokenEth = getTokenPrice(secondsAgo) */\n      swap1\n      pop\n        /* \"contracts/solotest.sol\":2182:2196  uint256 ethUsd */\n      0x00\n        /* \"contracts/solotest.sol\":2209:2251  0xf623109f16Fdf8ef1dA0830c5B1c7ba9dBa4A06E */\n      0xf623109f16fdf8ef1da0830c5b1c7ba9dba4a06e\n        /* \"contracts/solotest.sol\":2199:2267  IContract(0xf623109f16Fdf8ef1dA0830c5B1c7ba9dBa4A06E).getEthUsdPrice */\n      0xffffffffffffffffffffffffffffffffffffffff\n      and\n      0xa0a8045e\n        /* \"contracts/solotest.sol\":2199:2269  IContract(0xf623109f16Fdf8ef1dA0830c5B1c7ba9dBa4A06E).getEthUsdPrice() */\n      mload(0x40)\n      dup2\n      0xffffffff\n      and\n      0xe0\n      shl\n      dup2\n      mstore\n      0x04\n      add\n      0x20\n      mload(0x40)\n      dup1\n      dup4\n      sub\n      dup2\n      dup7\n      dup1\n      extcodesize\n      iszero\n      dup1\n      iszero\n      tag_59\n      jumpi\n      0x00\n      dup1\n      revert\n    tag_59:\n      pop\n      gas\n      staticcall\n      iszero\n      dup1\n      iszero\n      tag_61\n      jumpi\n      returndatasize\n      0x00\n      dup1\n      returndatacopy\n      revert(0x00, returndatasize)\n    tag_61:\n      pop\n      pop\n      pop\n      pop\n      mload(0x40)\n      returndatasize\n      0x20\n      dup2\n      lt\n      iszero\n      tag_62\n      jumpi\n      0x00\n      dup1\n      revert\n    tag_62:\n      dup2\n      add\n      swap1\n      dup1\n      dup1\n      mload\n      swap1\n      0x20\n      add\n      swap1\n      swap3\n      swap2\n      swap1\n      pop\n      pop\n      pop\n        /* \"contracts/solotest.sol\":2182:2269  uint256 ethUsd = IContract(0xf623109f16Fdf8ef1dA0830c5B1c7ba9dBa4A06E).getEthUsdPrice() */\n      swap1\n      pop\n        /* \"contracts/solotest.sol\":2304:2320  uint256 tokenUsd */\n      0x00\n        /* \"contracts/solotest.sol\":2334:2340  ethUsd */\n      dup2\n        /* \"contracts/solotest.sol\":2323:2331  tokenEth */\n      dup4\n        /* \"contracts/solotest.sol\":2323:2340  tokenEth * ethUsd */\n      mul\n        /* \"contracts/solotest.sol\":2304:2340  uint256 tokenUsd = tokenEth * ethUsd */\n      swap1\n      pop\n        /* \"contracts/solotest.sol\":2370:2378  tokenUsd */\n      dup1\n        /* \"contracts/solotest.sol\":2358:2367  usdAmount */\n      dup7\n        /* \"contracts/solotest.sol\":2358:2378  usdAmount / tokenUsd */\n      dup2\n      tag_63\n      jumpi\n      invalid\n    tag_63:\n      div\n        /* \"contracts/solotest.sol\":2351:2378  return usdAmount / tokenUsd */\n      swap4\n      pop\n      pop\n      pop\n      pop\n        /* \"contracts/solotest.sol\":1844:2423  function usdToToken(... */\n      swap3\n      swap2\n      pop\n      pop\n      jump\t// out\n        /* \"contracts/solotest.sol\":389:463  address public constant token = 0x1c7D4B196Cb0C7B01d743Fbc6116a902379C7238 */\n    tag_24:\n        /* \"contracts/solotest.sol\":421:463  0x1c7D4B196Cb0C7B01d743Fbc6116a902379C7238 */\n      0x1c7d4b196cb0c7b01d743fbc6116a902379c7238\n        /* \"contracts/solotest.sol\":389:463  address public constant token = 0x1c7D4B196Cb0C7B01d743Fbc6116a902379C7238 */\n      dup2\n      jump\t// out\n        /* \"contracts/solotest.sol\":1451:1838  function getPoolAddress() internal  pure returns (address) {... */\n    tag_42:\n        /* \"contracts/solotest.sol\":1501:1508  address */\n      0x00\n        /* \"contracts/solotest.sol\":1520:1550  PoolAddress.PoolKey memory key */\n      dup1\n        /* \"contracts/solotest.sol\":1553:1660  PoolAddress.PoolKey({... */\n      mload(0x40)\n      dup1\n      0x60\n      add\n      0x40\n      mstore\n      dup1\n        /* \"contracts/solotest.sol\":421:463  0x1c7D4B196Cb0C7B01d743Fbc6116a902379C7238 */\n      0x1c7d4b196cb0c7b01d743fbc6116a902379c7238\n        /* \"contracts/solotest.sol\":1553:1660  PoolAddress.PoolKey({... */\n      0xffffffffffffffffffffffffffffffffffffffff\n      and\n      dup2\n      mstore\n      0x20\n      add\n        /* \"contracts/solotest.sol\":500:542  0x7b79995e5f793A07Bc00c21412e50Ecae098E7f9 */\n      0x7b79995e5f793a07bc00c21412e50ecae098e7f9\n        /* \"contracts/solotest.sol\":1553:1660  PoolAddress.PoolKey({... */\n      0xffffffffffffffffffffffffffffffffffffffff\n      and\n      dup2\n      mstore\n      0x20\n      add\n        /* \"contracts/solotest.sol\":1645:1649  3000 */\n      0x0bb8\n        /* \"contracts/solotest.sol\":1553:1660  PoolAddress.PoolKey({... */\n      0xffffff\n      and\n      dup2\n      mstore\n      pop\n        /* \"contracts/solotest.sol\":1520:1660  PoolAddress.PoolKey memory key = PoolAddress.PoolKey({... */\n      swap1\n      pop\n        /* \"contracts/solotest.sol\":1671:1690  address poolAddress */\n      0x00\n        /* \"contracts/solotest.sol\":1693:1802  PoolAddress.computeAddress(... */\n      tag_65\n        /* \"contracts/solotest.sol\":1733:1775  0x0227628f3F023bb0B980b67D528571c95c6DaC1c */\n      0x0227628f3f023bb0b980b67d528571c95c6dac1c\n        /* \"contracts/solotest.sol\":1789:1792  key */\n      dup4\n        /* \"contracts/solotest.sol\":1693:1719  PoolAddress.computeAddress */\n      tag_66\n        /* \"contracts/solotest.sol\":1693:1802  PoolAddress.computeAddress(... */\n      jump\t// in\n    tag_65:\n        /* \"contracts/solotest.sol\":1671:1802  address poolAddress = PoolAddress.computeAddress(... */\n      swap1\n      pop\n        /* \"contracts/solotest.sol\":1820:1831  poolAddress */\n      dup1\n        /* \"contracts/solotest.sol\":1813:1831  return poolAddress */\n      swap3\n      pop\n      pop\n      pop\n        /* \"contracts/solotest.sol\":1451:1838  function getPoolAddress() internal  pure returns (address) {... */\n      swap1\n      jump\t// out\n        /* \"@uniswap/v3-periphery/contracts/libraries/OracleLibrary.sol\":885:2112  function consult(address pool, uint32 secondsAgo)... */\n    tag_44:\n        /* \"@uniswap/v3-periphery/contracts/libraries/OracleLibrary.sol\":982:1006  int24 arithmeticMeanTick */\n      0x00\n        /* \"@uniswap/v3-periphery/contracts/libraries/OracleLibrary.sol\":1008:1037  uint128 harmonicMeanLiquidity */\n      dup1\n        /* \"@uniswap/v3-periphery/contracts/libraries/OracleLibrary.sol\":1075:1076  0 */\n      0x00\n        /* \"@uniswap/v3-periphery/contracts/libraries/OracleLibrary.sol\":1061:1071  secondsAgo */\n      dup4\n        /* \"@uniswap/v3-periphery/contracts/libraries/OracleLibrary.sol\":1061:1076  secondsAgo != 0 */\n      0xffffffff\n      and\n      eq\n      iszero\n        /* \"@uniswap/v3-periphery/contracts/libraries/OracleLibrary.sol\":1053:1083  require(secondsAgo != 0, 'BP') */\n      tag_68\n      jumpi\n      mload(0x40)\n      0x08c379a000000000000000000000000000000000000000000000000000000000\n      dup2\n      mstore\n      0x04\n      add\n      dup1\n      dup1\n      0x20\n      add\n      dup3\n      dup2\n      sub\n      dup3\n      mstore\n      0x02\n      dup2\n      mstore\n      0x20\n      add\n      dup1\n      0x4250000000000000000000000000000000000000000000000000000000000000\n      dup2\n      mstore\n      pop\n      0x20\n      add\n      swap2\n      pop\n      pop\n      mload(0x40)\n      dup1\n      swap2\n      sub\n      swap1\n      revert\n    tag_68:\n        /* \"@uniswap/v3-periphery/contracts/libraries/OracleLibrary.sol\":1094:1121  uint32[] memory secondsAgos */\n      0x00\n        /* \"@uniswap/v3-periphery/contracts/libraries/OracleLibrary.sol\":1137:1138  2 */\n      0x02\n        /* \"@uniswap/v3-periphery/contracts/libraries/OracleLibrary.sol\":1124:1139  new uint32[](2) */\n      0xffffffffffffffff\n      dup2\n      gt\n      dup1\n      iszero\n      tag_69\n      jumpi\n      0x00\n      dup1\n      revert\n    tag_69:\n      pop\n      mload(0x40)\n      swap1\n      dup1\n      dup3\n      mstore\n      dup1\n      0x20\n      mul\n      0x20\n      add\n      dup3\n      add\n      0x40\n      mstore\n      dup1\n      iszero\n      tag_70\n      jumpi\n      dup2\n      0x20\n      add\n      0x20\n      dup3\n      mul\n      dup1\n      calldatasize\n      dup4\n      calldatacopy\n      dup1\n      dup3\n      add\n      swap2\n      pop\n      pop\n      swap1\n      pop\n    tag_70:\n      pop\n        /* \"@uniswap/v3-periphery/contracts/libraries/OracleLibrary.sol\":1094:1139  uint32[] memory secondsAgos = new uint32[](2) */\n      swap1\n      pop\n        /* \"@uniswap/v3-periphery/contracts/libraries/OracleLibrary.sol\":1166:1176  secondsAgo */\n      dup4\n        /* \"@uniswap/v3-periphery/contracts/libraries/OracleLibrary.sol\":1149:1160  secondsAgos */\n      dup2\n        /* \"@uniswap/v3-periphery/contracts/libraries/OracleLibrary.sol\":1161:1162  0 */\n      0x00\n        /* \"@uniswap/v3-periphery/contracts/libraries/OracleLibrary.sol\":1149:1163  secondsAgos[0] */\n      dup2\n      mload\n      dup2\n      lt\n      tag_71\n      jumpi\n      invalid\n    tag_71:\n      0x20\n      mul\n      0x20\n      add\n      add\n        /* \"@uniswap/v3-periphery/contracts/libraries/OracleLibrary.sol\":1149:1176  secondsAgos[0] = secondsAgo */\n      swap1\n      0xffffffff\n      and\n      swap1\n      dup2\n      0xffffffff\n      and\n      dup2\n      mstore\n      pop\n      pop\n        /* \"@uniswap/v3-periphery/contracts/libraries/OracleLibrary.sol\":1203:1204  0 */\n      0x00\n        /* \"@uniswap/v3-periphery/contracts/libraries/OracleLibrary.sol\":1186:1197  secondsAgos */\n      dup2\n        /* \"@uniswap/v3-periphery/contracts/libraries/OracleLibrary.sol\":1198:1199  1 */\n      0x01\n        /* \"@uniswap/v3-periphery/contracts/libraries/OracleLibrary.sol\":1186:1200  secondsAgos[1] */\n      dup2\n      mload\n      dup2\n      lt\n      tag_72\n      jumpi\n      invalid\n    tag_72:\n      0x20\n      mul\n      0x20\n      add\n      add\n        /* \"@uniswap/v3-periphery/contracts/libraries/OracleLibrary.sol\":1186:1204  secondsAgos[1] = 0 */\n      swap1\n      0xffffffff\n      and\n      swap1\n      dup2\n      0xffffffff\n      and\n      dup2\n      mstore\n      pop\n      pop\n        /* \"@uniswap/v3-periphery/contracts/libraries/OracleLibrary.sol\":1216:1246  int56[] memory tickCumulatives */\n      0x00\n        /* \"@uniswap/v3-periphery/contracts/libraries/OracleLibrary.sol\":1248:1299  uint160[] memory secondsPerLiquidityCumulativeX128s */\n      dup1\n        /* \"@uniswap/v3-periphery/contracts/libraries/OracleLibrary.sol\":1330:1334  pool */\n      dup7\n        /* \"@uniswap/v3-periphery/contracts/libraries/OracleLibrary.sol\":1315:1343  IUniswapV3Pool(pool).observe */\n      0xffffffffffffffffffffffffffffffffffffffff\n      and\n      0x883bdbfd\n        /* \"@uniswap/v3-periphery/contracts/libraries/OracleLibrary.sol\":1344:1355  secondsAgos */\n      dup5\n        /* \"@uniswap/v3-periphery/contracts/libraries/OracleLibrary.sol\":1315:1356  IUniswapV3Pool(pool).observe(secondsAgos) */\n      mload(0x40)\n      dup3\n      0xffffffff\n      and\n      0xe0\n      shl\n      dup2\n      mstore\n      0x04\n      add\n      dup1\n      dup1\n      0x20\n      add\n      dup3\n      dup2\n      sub\n      dup3\n      mstore\n      dup4\n      dup2\n      dup2\n      mload\n      dup2\n      mstore\n      0x20\n      add\n      swap2\n      pop\n      dup1\n      mload\n      swap1\n      0x20\n      add\n      swap1\n      0x20\n      mul\n      dup1\n      dup4\n      dup4\n      0x00\n    tag_73:\n      dup4\n      dup2\n      lt\n      iszero\n      tag_75\n      jumpi\n      dup1\n      dup3\n      add\n      mload\n      dup2\n      dup5\n      add\n      mstore\n      0x20\n      dup2\n      add\n      swap1\n      pop\n      jump(tag_73)\n    tag_75:\n      pop\n      pop\n      pop\n      pop\n      swap1\n      pop\n      add\n      swap3\n      pop\n      pop\n      pop\n      0x00\n      mload(0x40)\n      dup1\n      dup4\n      sub\n      dup2\n      dup7\n      dup1\n      extcodesize\n      iszero\n      dup1\n      iszero\n      tag_76\n      jumpi\n      0x00\n      dup1\n      revert\n    tag_76:\n      pop\n      gas\n      staticcall\n      iszero\n      dup1\n      iszero\n      tag_78\n      jumpi\n      returndatasize\n      0x00\n      dup1\n      returndatacopy\n      revert(0x00, returndatasize)\n    tag_78:\n      pop\n      pop\n      pop\n      pop\n      mload(0x40)\n      returndatasize\n      0x00\n      dup3\n      returndatacopy\n      returndatasize\n      not(0x1f)\n      0x1f\n      dup3\n      add\n      and\n      dup3\n      add\n      dup1\n      0x40\n      mstore\n      pop\n      0x40\n      dup2\n      lt\n      iszero\n      tag_79\n      jumpi\n      0x00\n      dup1\n      revert\n    tag_79:\n      dup2\n      add\n      swap1\n      dup1\n      dup1\n      mload\n      mload(0x40)\n      swap4\n      swap3\n      swap2\n      swap1\n      dup5\n      0x0100000000\n      dup3\n      gt\n      iszero\n      tag_80\n      jumpi\n      0x00\n      dup1\n      revert\n    tag_80:\n      dup4\n      dup3\n      add\n      swap2\n      pop\n      0x20\n      dup3\n      add\n      dup6\n      dup2\n      gt\n      iszero\n      tag_81\n      jumpi\n      0x00\n      dup1\n      revert\n    tag_81:\n      dup3\n      mload\n      dup7\n      0x20\n      dup3\n      mul\n      dup4\n      add\n      gt\n      0x0100000000\n      dup3\n      gt\n      or\n      iszero\n      tag_82\n      jumpi\n      0x00\n      dup1\n      revert\n    tag_82:\n      dup1\n      dup4\n      mstore\n      0x20\n      dup4\n      add\n      swap3\n      pop\n      pop\n      pop\n      swap1\n      dup1\n      mload\n      swap1\n      0x20\n      add\n      swap1\n      0x20\n      mul\n      dup1\n      dup4\n      dup4\n      0x00\n    tag_83:\n      dup4\n      dup2\n      lt\n      iszero\n      tag_85\n      jumpi\n      dup1\n      dup3\n      add\n      mload\n      dup2\n      dup5\n      add\n      mstore\n      0x20\n      dup2\n      add\n      swap1\n      pop\n      jump(tag_83)\n    tag_85:\n      pop\n      pop\n      pop\n      pop\n      swap1\n      pop\n      add\n      0x40\n      mstore\n      0x20\n      add\n      dup1\n      mload\n      mload(0x40)\n      swap4\n      swap3\n      swap2\n      swap1\n      dup5\n      0x0100000000\n      dup3\n      gt\n      iszero\n      tag_86\n      jumpi\n      0x00\n      dup1\n      revert\n    tag_86:\n      dup4\n      dup3\n      add\n      swap2\n      pop\n      0x20\n      dup3\n      add\n      dup6\n      dup2\n      gt\n      iszero\n      tag_87\n      jumpi\n      0x00\n      dup1\n      revert\n    tag_87:\n      dup3\n      mload\n      dup7\n      0x20\n      dup3\n      mul\n      dup4\n      add\n      gt\n      0x0100000000\n      dup3\n      gt\n      or\n      iszero\n      tag_88\n      jumpi\n      0x00\n      dup1\n      revert\n    tag_88:\n      dup1\n      dup4\n      mstore\n      0x20\n      dup4\n      add\n      swap3\n      pop\n      pop\n      pop\n      swap1\n      dup1\n      mload\n      swap1\n      0x20\n      add\n      swap1\n      0x20\n      mul\n      dup1\n      dup4\n      dup4\n      0x00\n    tag_89:\n      dup4\n      dup2\n      lt\n      iszero\n      tag_91\n      jumpi\n      dup1\n      dup3\n      add\n      mload\n      dup2\n      dup5\n      add\n      mstore\n      0x20\n      dup2\n      add\n      swap1\n      pop\n      jump(tag_89)\n    tag_91:\n      pop\n      pop\n      pop\n      pop\n      swap1\n      pop\n      add\n      0x40\n      mstore\n      pop\n      pop\n      pop\n        /* \"@uniswap/v3-periphery/contracts/libraries/OracleLibrary.sol\":1215:1356  (int56[] memory tickCumulatives, uint160[] memory secondsPerLiquidityCumulativeX128s) =... */\n      swap2\n      pop\n      swap2\n      pop\n        /* \"@uniswap/v3-periphery/contracts/libraries/OracleLibrary.sol\":1367:1393  int56 tickCumulativesDelta */\n      0x00\n        /* \"@uniswap/v3-periphery/contracts/libraries/OracleLibrary.sol\":1417:1432  tickCumulatives */\n      dup3\n        /* \"@uniswap/v3-periphery/contracts/libraries/OracleLibrary.sol\":1433:1434  0 */\n      0x00\n        /* \"@uniswap/v3-periphery/contracts/libraries/OracleLibrary.sol\":1417:1435  tickCumulatives[0] */\n      dup2\n      mload\n      dup2\n      lt\n      tag_92\n      jumpi\n      invalid\n    tag_92:\n      0x20\n      mul\n      0x20\n      add\n      add\n      mload\n        /* \"@uniswap/v3-periphery/contracts/libraries/OracleLibrary.sol\":1396:1411  tickCumulatives */\n      dup4\n        /* \"@uniswap/v3-periphery/contracts/libraries/OracleLibrary.sol\":1412:1413  1 */\n      0x01\n        /* \"@uniswap/v3-periphery/contracts/libraries/OracleLibrary.sol\":1396:1414  tickCumulatives[1] */\n      dup2\n      mload\n      dup2\n      lt\n      tag_93\n      jumpi\n      invalid\n    tag_93:\n      0x20\n      mul\n      0x20\n      add\n      add\n      mload\n        /* \"@uniswap/v3-periphery/contracts/libraries/OracleLibrary.sol\":1396:1435  tickCumulatives[1] - tickCumulatives[0] */\n      sub\n        /* \"@uniswap/v3-periphery/contracts/libraries/OracleLibrary.sol\":1367:1435  int56 tickCumulativesDelta = tickCumulatives[1] - tickCumulatives[0] */\n      swap1\n      pop\n        /* \"@uniswap/v3-periphery/contracts/libraries/OracleLibrary.sol\":1445:1488  uint160 secondsPerLiquidityCumulativesDelta */\n      0x00\n        /* \"@uniswap/v3-periphery/contracts/libraries/OracleLibrary.sol\":1543:1577  secondsPerLiquidityCumulativeX128s */\n      dup3\n        /* \"@uniswap/v3-periphery/contracts/libraries/OracleLibrary.sol\":1578:1579  0 */\n      0x00\n        /* \"@uniswap/v3-periphery/contracts/libraries/OracleLibrary.sol\":1543:1580  secondsPerLiquidityCumulativeX128s[0] */\n      dup2\n      mload\n      dup2\n      lt\n      tag_94\n      jumpi\n      invalid\n    tag_94:\n      0x20\n      mul\n      0x20\n      add\n      add\n      mload\n        /* \"@uniswap/v3-periphery/contracts/libraries/OracleLibrary.sol\":1503:1537  secondsPerLiquidityCumulativeX128s */\n      dup4\n        /* \"@uniswap/v3-periphery/contracts/libraries/OracleLibrary.sol\":1538:1539  1 */\n      0x01\n        /* \"@uniswap/v3-periphery/contracts/libraries/OracleLibrary.sol\":1503:1540  secondsPerLiquidityCumulativeX128s[1] */\n      dup2\n      mload\n      dup2\n      lt\n      tag_95\n      jumpi\n      invalid\n    tag_95:\n      0x20\n      mul\n      0x20\n      add\n      add\n      mload\n        /* \"@uniswap/v3-periphery/contracts/libraries/OracleLibrary.sol\":1503:1580  secondsPerLiquidityCumulativeX128s[1] - secondsPerLiquidityCumulativeX128s[0] */\n      sub\n        /* \"@uniswap/v3-periphery/contracts/libraries/OracleLibrary.sol\":1445:1580  uint160 secondsPerLiquidityCumulativesDelta =... */\n      swap1\n      pop\n        /* \"@uniswap/v3-periphery/contracts/libraries/OracleLibrary.sol\":1641:1651  secondsAgo */\n      dup8\n        /* \"@uniswap/v3-periphery/contracts/libraries/OracleLibrary.sol\":1618:1651  tickCumulativesDelta / secondsAgo */\n      0xffffffff\n      and\n        /* \"@uniswap/v3-periphery/contracts/libraries/OracleLibrary.sol\":1618:1638  tickCumulativesDelta */\n      dup3\n        /* \"@uniswap/v3-periphery/contracts/libraries/OracleLibrary.sol\":1618:1651  tickCumulativesDelta / secondsAgo */\n      0x06\n      signextend\n      dup2\n      tag_96\n      jumpi\n      invalid\n    tag_96:\n      sdiv\n        /* \"@uniswap/v3-periphery/contracts/libraries/OracleLibrary.sol\":1591:1652  arithmeticMeanTick = int24(tickCumulativesDelta / secondsAgo) */\n      swap7\n      pop\n        /* \"@uniswap/v3-periphery/contracts/libraries/OracleLibrary.sol\":1734:1735  0 */\n      0x00\n        /* \"@uniswap/v3-periphery/contracts/libraries/OracleLibrary.sol\":1711:1731  tickCumulativesDelta */\n      dup3\n        /* \"@uniswap/v3-periphery/contracts/libraries/OracleLibrary.sol\":1711:1735  tickCumulativesDelta < 0 */\n      0x06\n      signextend\n      slt\n        /* \"@uniswap/v3-periphery/contracts/libraries/OracleLibrary.sol\":1711:1779  tickCumulativesDelta < 0 && (tickCumulativesDelta % secondsAgo != 0) */\n      dup1\n      iszero\n      tag_97\n      jumpi\n      pop\n        /* \"@uniswap/v3-periphery/contracts/libraries/OracleLibrary.sol\":1777:1778  0 */\n      0x00\n        /* \"@uniswap/v3-periphery/contracts/libraries/OracleLibrary.sol\":1763:1773  secondsAgo */\n      dup9\n        /* \"@uniswap/v3-periphery/contracts/libraries/OracleLibrary.sol\":1740:1773  tickCumulativesDelta % secondsAgo */\n      0xffffffff\n      and\n        /* \"@uniswap/v3-periphery/contracts/libraries/OracleLibrary.sol\":1740:1760  tickCumulativesDelta */\n      dup4\n        /* \"@uniswap/v3-periphery/contracts/libraries/OracleLibrary.sol\":1740:1773  tickCumulativesDelta % secondsAgo */\n      0x06\n      signextend\n      dup2\n      tag_98\n      jumpi\n      invalid\n    tag_98:\n      smod\n        /* \"@uniswap/v3-periphery/contracts/libraries/OracleLibrary.sol\":1740:1778  tickCumulativesDelta % secondsAgo != 0 */\n      0x06\n      signextend\n      eq\n      iszero\n        /* \"@uniswap/v3-periphery/contracts/libraries/OracleLibrary.sol\":1711:1779  tickCumulativesDelta < 0 && (tickCumulativesDelta % secondsAgo != 0) */\n    tag_97:\n        /* \"@uniswap/v3-periphery/contracts/libraries/OracleLibrary.sol\":1707:1801  if (tickCumulativesDelta < 0 && (tickCumulativesDelta % secondsAgo != 0)) arithmeticMeanTick-- */\n      iszero\n      tag_99\n      jumpi\n        /* \"@uniswap/v3-periphery/contracts/libraries/OracleLibrary.sol\":1781:1801  arithmeticMeanTick-- */\n      dup7\n      dup1\n      0x01\n      swap1\n      sub\n      swap8\n      pop\n      pop\n        /* \"@uniswap/v3-periphery/contracts/libraries/OracleLibrary.sol\":1707:1801  if (tickCumulativesDelta < 0 && (tickCumulativesDelta % secondsAgo != 0)) arithmeticMeanTick-- */\n    tag_99:\n        /* \"@uniswap/v3-periphery/contracts/libraries/OracleLibrary.sol\":1929:1951  uint192 secondsAgoX160 */\n      0x00\n        /* \"@uniswap/v3-periphery/contracts/libraries/OracleLibrary.sol\":1976:1993  type(uint160).max */\n      0xffffffffffffffffffffffffffffffffffffffff\n        /* \"@uniswap/v3-periphery/contracts/libraries/OracleLibrary.sol\":1954:1993  uint192(secondsAgo) * type(uint160).max */\n      dup1\n      and\n        /* \"@uniswap/v3-periphery/contracts/libraries/OracleLibrary.sol\":1962:1972  secondsAgo */\n      dup10\n        /* \"@uniswap/v3-periphery/contracts/libraries/OracleLibrary.sol\":1954:1973  uint192(secondsAgo) */\n      0xffffffff\n      and\n        /* \"@uniswap/v3-periphery/contracts/libraries/OracleLibrary.sol\":1954:1993  uint192(secondsAgo) * type(uint160).max */\n      mul\n        /* \"@uniswap/v3-periphery/contracts/libraries/OracleLibrary.sol\":1929:1993  uint192 secondsAgoX160 = uint192(secondsAgo) * type(uint160).max */\n      swap1\n      pop\n        /* \"@uniswap/v3-periphery/contracts/libraries/OracleLibrary.sol\":2101:2103  32 */\n      0x20\n        /* \"@uniswap/v3-periphery/contracts/libraries/OracleLibrary.sol\":2061:2096  secondsPerLiquidityCumulativesDelta */\n      dup3\n        /* \"@uniswap/v3-periphery/contracts/libraries/OracleLibrary.sol\":2053:2097  uint192(secondsPerLiquidityCumulativesDelta) */\n      0xffffffffffffffffffffffffffffffffffffffff\n      and\n        /* \"@uniswap/v3-periphery/contracts/libraries/OracleLibrary.sol\":2053:2103  uint192(secondsPerLiquidityCumulativesDelta) << 32 */\n      0xffffffffffffffffffffffffffffffffffffffffffffffff\n      and\n      swap1\n      shl\n        /* \"@uniswap/v3-periphery/contracts/libraries/OracleLibrary.sol\":2035:2104  secondsAgoX160 / (uint192(secondsPerLiquidityCumulativesDelta) << 32) */\n      0xffffffffffffffffffffffffffffffffffffffffffffffff\n      and\n        /* \"@uniswap/v3-periphery/contracts/libraries/OracleLibrary.sol\":2035:2049  secondsAgoX160 */\n      dup2\n        /* \"@uniswap/v3-periphery/contracts/libraries/OracleLibrary.sol\":2035:2104  secondsAgoX160 / (uint192(secondsPerLiquidityCumulativesDelta) << 32) */\n      0xffffffffffffffffffffffffffffffffffffffffffffffff\n      and\n      dup2\n      tag_100\n      jumpi\n      invalid\n    tag_100:\n      div\n        /* \"@uniswap/v3-periphery/contracts/libraries/OracleLibrary.sol\":2003:2105  harmonicMeanLiquidity = uint128(secondsAgoX160 / (uint192(secondsPerLiquidityCumulativesDelta) << 32)) */\n      swap7\n      pop\n        /* \"@uniswap/v3-periphery/contracts/libraries/OracleLibrary.sol\":885:2112  function consult(address pool, uint32 secondsAgo)... */\n      pop\n      pop\n      pop\n      pop\n      pop\n      pop\n      swap3\n      pop\n      swap3\n      swap1\n      pop\n      jump\t// out\n        /* \"@uniswap/v3-periphery/contracts/libraries/OracleLibrary.sol\":2616:3571  function getQuoteAtTick(... */\n    tag_56:\n        /* \"@uniswap/v3-periphery/contracts/libraries/OracleLibrary.sol\":2772:2791  uint256 quoteAmount */\n      0x00\n        /* \"@uniswap/v3-periphery/contracts/libraries/OracleLibrary.sol\":2803:2823  uint160 sqrtRatioX96 */\n      dup1\n        /* \"@uniswap/v3-periphery/contracts/libraries/OracleLibrary.sol\":2826:2859  TickMath.getSqrtRatioAtTick(tick) */\n      tag_102\n        /* \"@uniswap/v3-periphery/contracts/libraries/OracleLibrary.sol\":2854:2858  tick */\n      dup7\n        /* \"@uniswap/v3-periphery/contracts/libraries/OracleLibrary.sol\":2826:2853  TickMath.getSqrtRatioAtTick */\n      tag_103\n        /* \"@uniswap/v3-periphery/contracts/libraries/OracleLibrary.sol\":2826:2859  TickMath.getSqrtRatioAtTick(tick) */\n      jump\t// in\n    tag_102:\n        /* \"@uniswap/v3-periphery/contracts/libraries/OracleLibrary.sol\":2803:2859  uint160 sqrtRatioX96 = TickMath.getSqrtRatioAtTick(tick) */\n      swap1\n      pop\n        /* \"@uniswap/v3-periphery/contracts/libraries/OracleLibrary.sol\":2994:3011  type(uint128).max */\n      0xffffffffffffffffffffffffffffffff\n        /* \"@uniswap/v3-periphery/contracts/libraries/OracleLibrary.sol\":2978:3011  sqrtRatioX96 <= type(uint128).max */\n      dup1\n      and\n        /* \"@uniswap/v3-periphery/contracts/libraries/OracleLibrary.sol\":2978:2990  sqrtRatioX96 */\n      dup2\n        /* \"@uniswap/v3-periphery/contracts/libraries/OracleLibrary.sol\":2978:3011  sqrtRatioX96 <= type(uint128).max */\n      0xffffffffffffffffffffffffffffffffffffffff\n      and\n      gt\n        /* \"@uniswap/v3-periphery/contracts/libraries/OracleLibrary.sol\":2974:3565  if (sqrtRatioX96 <= type(uint128).max) {... */\n      tag_104\n      jumpi\n        /* \"@uniswap/v3-periphery/contracts/libraries/OracleLibrary.sol\":3027:3044  uint256 ratioX192 */\n      0x00\n        /* \"@uniswap/v3-periphery/contracts/libraries/OracleLibrary.sol\":3071:3083  sqrtRatioX96 */\n      dup2\n        /* \"@uniswap/v3-periphery/contracts/libraries/OracleLibrary.sol\":3047:3083  uint256(sqrtRatioX96) * sqrtRatioX96 */\n      0xffffffffffffffffffffffffffffffffffffffff\n      and\n        /* \"@uniswap/v3-periphery/contracts/libraries/OracleLibrary.sol\":3055:3067  sqrtRatioX96 */\n      dup3\n        /* \"@uniswap/v3-periphery/contracts/libraries/OracleLibrary.sol\":3047:3068  uint256(sqrtRatioX96) */\n      0xffffffffffffffffffffffffffffffffffffffff\n      and\n        /* \"@uniswap/v3-periphery/contracts/libraries/OracleLibrary.sol\":3047:3083  uint256(sqrtRatioX96) * sqrtRatioX96 */\n      mul\n        /* \"@uniswap/v3-periphery/contracts/libraries/OracleLibrary.sol\":3027:3083  uint256 ratioX192 = uint256(sqrtRatioX96) * sqrtRatioX96 */\n      swap1\n      pop\n        /* \"@uniswap/v3-periphery/contracts/libraries/OracleLibrary.sol\":3123:3133  quoteToken */\n      dup4\n        /* \"@uniswap/v3-periphery/contracts/libraries/OracleLibrary.sol\":3111:3133  baseToken < quoteToken */\n      0xffffffffffffffffffffffffffffffffffffffff\n      and\n        /* \"@uniswap/v3-periphery/contracts/libraries/OracleLibrary.sol\":3111:3120  baseToken */\n      dup6\n        /* \"@uniswap/v3-periphery/contracts/libraries/OracleLibrary.sol\":3111:3133  baseToken < quoteToken */\n      0xffffffffffffffffffffffffffffffffffffffff\n      and\n      lt\n        /* \"@uniswap/v3-periphery/contracts/libraries/OracleLibrary.sol\":3111:3267  baseToken < quoteToken... */\n      tag_105\n      jumpi\n        /* \"@uniswap/v3-periphery/contracts/libraries/OracleLibrary.sol\":3219:3267  FullMath.mulDiv(1 << 192, baseAmount, ratioX192) */\n      tag_106\n        /* \"@uniswap/v3-periphery/contracts/libraries/OracleLibrary.sol\":3235:3243  1 << 192 */\n      0x01000000000000000000000000000000000000000000000000\n        /* \"@uniswap/v3-periphery/contracts/libraries/OracleLibrary.sol\":3245:3255  baseAmount */\n      dup8\n        /* \"@uniswap/v3-periphery/contracts/libraries/OracleLibrary.sol\":3219:3267  FullMath.mulDiv(1 << 192, baseAmount, ratioX192) */\n      0xffffffffffffffffffffffffffffffff\n      and\n        /* \"@uniswap/v3-periphery/contracts/libraries/OracleLibrary.sol\":3257:3266  ratioX192 */\n      dup4\n        /* \"@uniswap/v3-periphery/contracts/libraries/OracleLibrary.sol\":3219:3234  FullMath.mulDiv */\n      tag_107\n        /* \"@uniswap/v3-periphery/contracts/libraries/OracleLibrary.sol\":3219:3267  FullMath.mulDiv(1 << 192, baseAmount, ratioX192) */\n      jump\t// in\n    tag_106:\n        /* \"@uniswap/v3-periphery/contracts/libraries/OracleLibrary.sol\":3111:3267  baseToken < quoteToken... */\n      jump(tag_108)\n    tag_105:\n        /* \"@uniswap/v3-periphery/contracts/libraries/OracleLibrary.sol\":3152:3200  FullMath.mulDiv(ratioX192, baseAmount, 1 << 192) */\n      tag_109\n        /* \"@uniswap/v3-periphery/contracts/libraries/OracleLibrary.sol\":3168:3177  ratioX192 */\n      dup2\n        /* \"@uniswap/v3-periphery/contracts/libraries/OracleLibrary.sol\":3179:3189  baseAmount */\n      dup8\n        /* \"@uniswap/v3-periphery/contracts/libraries/OracleLibrary.sol\":3152:3200  FullMath.mulDiv(ratioX192, baseAmount, 1 << 192) */\n      0xffffffffffffffffffffffffffffffff\n      and\n        /* \"@uniswap/v3-periphery/contracts/libraries/OracleLibrary.sol\":3191:3199  1 << 192 */\n      0x01000000000000000000000000000000000000000000000000\n        /* \"@uniswap/v3-periphery/contracts/libraries/OracleLibrary.sol\":3152:3167  FullMath.mulDiv */\n      tag_107\n        /* \"@uniswap/v3-periphery/contracts/libraries/OracleLibrary.sol\":3152:3200  FullMath.mulDiv(ratioX192, baseAmount, 1 << 192) */\n      jump\t// in\n    tag_109:\n        /* \"@uniswap/v3-periphery/contracts/libraries/OracleLibrary.sol\":3111:3267  baseToken < quoteToken... */\n    tag_108:\n        /* \"@uniswap/v3-periphery/contracts/libraries/OracleLibrary.sol\":3097:3267  quoteAmount = baseToken < quoteToken... */\n      swap3\n      pop\n        /* \"@uniswap/v3-periphery/contracts/libraries/OracleLibrary.sol\":2974:3565  if (sqrtRatioX96 <= type(uint128).max) {... */\n      pop\n      jump(tag_110)\n    tag_104:\n        /* \"@uniswap/v3-periphery/contracts/libraries/OracleLibrary.sol\":3298:3315  uint256 ratioX128 */\n      0x00\n        /* \"@uniswap/v3-periphery/contracts/libraries/OracleLibrary.sol\":3318:3370  FullMath.mulDiv(sqrtRatioX96, sqrtRatioX96, 1 << 64) */\n      tag_111\n        /* \"@uniswap/v3-periphery/contracts/libraries/OracleLibrary.sol\":3334:3346  sqrtRatioX96 */\n      dup3\n        /* \"@uniswap/v3-periphery/contracts/libraries/OracleLibrary.sol\":3318:3370  FullMath.mulDiv(sqrtRatioX96, sqrtRatioX96, 1 << 64) */\n      0xffffffffffffffffffffffffffffffffffffffff\n      and\n        /* \"@uniswap/v3-periphery/contracts/libraries/OracleLibrary.sol\":3348:3360  sqrtRatioX96 */\n      dup4\n        /* \"@uniswap/v3-periphery/contracts/libraries/OracleLibrary.sol\":3318:3370  FullMath.mulDiv(sqrtRatioX96, sqrtRatioX96, 1 << 64) */\n      0xffffffffffffffffffffffffffffffffffffffff\n      and\n        /* \"@uniswap/v3-periphery/contracts/libraries/OracleLibrary.sol\":3362:3369  1 << 64 */\n      0x010000000000000000\n        /* \"@uniswap/v3-periphery/contracts/libraries/OracleLibrary.sol\":3318:3333  FullMath.mulDiv */\n      tag_107\n        /* \"@uniswap/v3-periphery/contracts/libraries/OracleLibrary.sol\":3318:3370  FullMath.mulDiv(sqrtRatioX96, sqrtRatioX96, 1 << 64) */\n      jump\t// in\n    tag_111:\n        /* \"@uniswap/v3-periphery/contracts/libraries/OracleLibrary.sol\":3298:3370  uint256 ratioX128 = FullMath.mulDiv(sqrtRatioX96, sqrtRatioX96, 1 << 64) */\n      swap1\n      pop\n        /* \"@uniswap/v3-periphery/contracts/libraries/OracleLibrary.sol\":3410:3420  quoteToken */\n      dup4\n        /* \"@uniswap/v3-periphery/contracts/libraries/OracleLibrary.sol\":3398:3420  baseToken < quoteToken */\n      0xffffffffffffffffffffffffffffffffffffffff\n      and\n        /* \"@uniswap/v3-periphery/contracts/libraries/OracleLibrary.sol\":3398:3407  baseToken */\n      dup6\n        /* \"@uniswap/v3-periphery/contracts/libraries/OracleLibrary.sol\":3398:3420  baseToken < quoteToken */\n      0xffffffffffffffffffffffffffffffffffffffff\n      and\n      lt\n        /* \"@uniswap/v3-periphery/contracts/libraries/OracleLibrary.sol\":3398:3554  baseToken < quoteToken... */\n      tag_112\n      jumpi\n        /* \"@uniswap/v3-periphery/contracts/libraries/OracleLibrary.sol\":3506:3554  FullMath.mulDiv(1 << 128, baseAmount, ratioX128) */\n      tag_113\n        /* \"@uniswap/v3-periphery/contracts/libraries/OracleLibrary.sol\":3522:3530  1 << 128 */\n      0x0100000000000000000000000000000000\n        /* \"@uniswap/v3-periphery/contracts/libraries/OracleLibrary.sol\":3532:3542  baseAmount */\n      dup8\n        /* \"@uniswap/v3-periphery/contracts/libraries/OracleLibrary.sol\":3506:3554  FullMath.mulDiv(1 << 128, baseAmount, ratioX128) */\n      0xffffffffffffffffffffffffffffffff\n      and\n        /* \"@uniswap/v3-periphery/contracts/libraries/OracleLibrary.sol\":3544:3553  ratioX128 */\n      dup4\n        /* \"@uniswap/v3-periphery/contracts/libraries/OracleLibrary.sol\":3506:3521  FullMath.mulDiv */\n      tag_107\n        /* \"@uniswap/v3-periphery/contracts/libraries/OracleLibrary.sol\":3506:3554  FullMath.mulDiv(1 << 128, baseAmount, ratioX128) */\n      jump\t// in\n    tag_113:\n        /* \"@uniswap/v3-periphery/contracts/libraries/OracleLibrary.sol\":3398:3554  baseToken < quoteToken... */\n      jump(tag_114)\n    tag_112:\n        /* \"@uniswap/v3-periphery/contracts/libraries/OracleLibrary.sol\":3439:3487  FullMath.mulDiv(ratioX128, baseAmount, 1 << 128) */\n      tag_115\n        /* \"@uniswap/v3-periphery/contracts/libraries/OracleLibrary.sol\":3455:3464  ratioX128 */\n      dup2\n        /* \"@uniswap/v3-periphery/contracts/libraries/OracleLibrary.sol\":3466:3476  baseAmount */\n      dup8\n        /* \"@uniswap/v3-periphery/contracts/libraries/OracleLibrary.sol\":3439:3487  FullMath.mulDiv(ratioX128, baseAmount, 1 << 128) */\n      0xffffffffffffffffffffffffffffffff\n      and\n        /* \"@uniswap/v3-periphery/contracts/libraries/OracleLibrary.sol\":3478:3486  1 << 128 */\n      0x0100000000000000000000000000000000\n        /* \"@uniswap/v3-periphery/contracts/libraries/OracleLibrary.sol\":3439:3454  FullMath.mulDiv */\n      tag_107\n        /* \"@uniswap/v3-periphery/contracts/libraries/OracleLibrary.sol\":3439:3487  FullMath.mulDiv(ratioX128, baseAmount, 1 << 128) */\n      jump\t// in\n    tag_115:\n        /* \"@uniswap/v3-periphery/contracts/libraries/OracleLibrary.sol\":3398:3554  baseToken < quoteToken... */\n    tag_114:\n        /* \"@uniswap/v3-periphery/contracts/libraries/OracleLibrary.sol\":3384:3554  quoteAmount = baseToken < quoteToken... */\n      swap3\n      pop\n        /* \"@uniswap/v3-periphery/contracts/libraries/OracleLibrary.sol\":2974:3565  if (sqrtRatioX96 <= type(uint128).max) {... */\n      pop\n    tag_110:\n        /* \"@uniswap/v3-periphery/contracts/libraries/OracleLibrary.sol\":2616:3571  function getQuoteAtTick(... */\n      pop\n      swap5\n      swap4\n      pop\n      pop\n      pop\n      pop\n      jump\t// out\n        /* \"@uniswap/v3-periphery/contracts/libraries/PoolAddress.sol\":1305:1817  function computeAddress(address factory, PoolKey memory key) internal pure returns (address pool) {... */\n    tag_66:\n        /* \"@uniswap/v3-periphery/contracts/libraries/PoolAddress.sol\":1389:1401  address pool */\n      0x00\n        /* \"@uniswap/v3-periphery/contracts/libraries/PoolAddress.sol\":1434:1437  key */\n      dup2\n        /* \"@uniswap/v3-periphery/contracts/libraries/PoolAddress.sol\":1434:1444  key.token1 */\n      0x20\n      add\n      mload\n        /* \"@uniswap/v3-periphery/contracts/libraries/PoolAddress.sol\":1421:1444  key.token0 < key.token1 */\n      0xffffffffffffffffffffffffffffffffffffffff\n      and\n        /* \"@uniswap/v3-periphery/contracts/libraries/PoolAddress.sol\":1421:1424  key */\n      dup3\n        /* \"@uniswap/v3-periphery/contracts/libraries/PoolAddress.sol\":1421:1431  key.token0 */\n      0x00\n      add\n      mload\n        /* \"@uniswap/v3-periphery/contracts/libraries/PoolAddress.sol\":1421:1444  key.token0 < key.token1 */\n      0xffffffffffffffffffffffffffffffffffffffff\n      and\n      lt\n        /* \"@uniswap/v3-periphery/contracts/libraries/PoolAddress.sol\":1413:1445  require(key.token0 < key.token1) */\n      tag_117\n      jumpi\n      0x00\n      dup1\n      revert\n    tag_117:\n        /* \"@uniswap/v3-periphery/contracts/libraries/PoolAddress.sol\":1614:1621  factory */\n      dup3\n        /* \"@uniswap/v3-periphery/contracts/libraries/PoolAddress.sol\":1668:1671  key */\n      dup3\n        /* \"@uniswap/v3-periphery/contracts/libraries/PoolAddress.sol\":1668:1678  key.token0 */\n      0x00\n      add\n      mload\n        /* \"@uniswap/v3-periphery/contracts/libraries/PoolAddress.sol\":1680:1683  key */\n      dup4\n        /* \"@uniswap/v3-periphery/contracts/libraries/PoolAddress.sol\":1680:1690  key.token1 */\n      0x20\n      add\n      mload\n        /* \"@uniswap/v3-periphery/contracts/libraries/PoolAddress.sol\":1692:1695  key */\n      dup5\n        /* \"@uniswap/v3-periphery/contracts/libraries/PoolAddress.sol\":1692:1699  key.fee */\n      0x40\n      add\n      mload\n        /* \"@uniswap/v3-periphery/contracts/libraries/PoolAddress.sol\":1657:1700  abi.encode(key.token0, key.token1, key.fee) */\n      add(0x20, mload(0x40))\n      dup1\n      dup5\n      0xffffffffffffffffffffffffffffffffffffffff\n      and\n      dup2\n      mstore\n      0x20\n      add\n      dup4\n      0xffffffffffffffffffffffffffffffffffffffff\n      and\n      dup2\n      mstore\n      0x20\n      add\n      dup3\n      0xffffff\n      and\n      dup2\n      mstore\n      0x20\n      add\n      swap4\n      pop\n      pop\n      pop\n      pop\n      mload(0x40)\n      0x20\n      dup2\n      dup4\n      sub\n      sub\n      dup2\n      mstore\n      swap1\n      0x40\n      mstore\n        /* \"@uniswap/v3-periphery/contracts/libraries/PoolAddress.sol\":1647:1701  keccak256(abi.encode(key.token0, key.token1, key.fee)) */\n      dup1\n      mload\n      swap1\n      0x20\n      add\n      keccak256\n        /* \"@uniswap/v3-periphery/contracts/libraries/PoolAddress.sol\":241:307  0xe34f199b19b2b4f47f68442619d555527d244f78a3297ea89325f843f87b8b54 */\n      0xe34f199b19b2b4f47f68442619d555527d244f78a3297ea89325f843f87b8b54\n        /* \"@uniswap/v3-periphery/contracts/libraries/PoolAddress.sol\":1727:1746  POOL_INIT_CODE_HASH */\n      0x00\n      shl\n        /* \"@uniswap/v3-periphery/contracts/libraries/PoolAddress.sol\":1539:1768  abi.encodePacked(... */\n      add(0x20, mload(0x40))\n      dup1\n      dup1\n      0xff00000000000000000000000000000000000000000000000000000000000000\n      dup2\n      mstore\n      pop\n      0x01\n      add\n      dup5\n      0xffffffffffffffffffffffffffffffffffffffff\n      and\n      0x60\n      shl\n      dup2\n      mstore\n      0x14\n      add\n      dup4\n      dup2\n      mstore\n      0x20\n      add\n      dup3\n      dup2\n      mstore\n      0x20\n      add\n      swap4\n      pop\n      pop\n      pop\n      pop\n      mload(0x40)\n      0x20\n      dup2\n      dup4\n      sub\n      sub\n      dup2\n      mstore\n      swap1\n      0x40\n      mstore\n        /* \"@uniswap/v3-periphery/contracts/libraries/PoolAddress.sol\":1508:1786  keccak256(... */\n      dup1\n      mload\n      swap1\n      0x20\n      add\n      keccak256\n        /* \"@uniswap/v3-periphery/contracts/libraries/PoolAddress.sol\":1483:1800  uint256(... */\n      0x00\n      shr\n        /* \"@uniswap/v3-periphery/contracts/libraries/PoolAddress.sol\":1455:1810  pool = address(... */\n      swap1\n      pop\n        /* \"@uniswap/v3-periphery/contracts/libraries/PoolAddress.sol\":1305:1817  function computeAddress(address factory, PoolKey memory key) internal pure returns (address pool) {... */\n      swap3\n      swap2\n      pop\n      pop\n      jump\t// out\n        /* \"@uniswap/v3-core/contracts/libraries/TickMath.sol\":1362:3942  function getSqrtRatioAtTick(int24 tick) internal pure returns (uint160 sqrtPriceX96) {... */\n    tag_103:\n        /* \"@uniswap/v3-core/contracts/libraries/TickMath.sol\":1425:1445  uint160 sqrtPriceX96 */\n      0x00\n        /* \"@uniswap/v3-core/contracts/libraries/TickMath.sol\":1457:1472  uint256 absTick */\n      dup1\n        /* \"@uniswap/v3-core/contracts/libraries/TickMath.sol\":1482:1483  0 */\n      0x00\n        /* \"@uniswap/v3-core/contracts/libraries/TickMath.sol\":1475:1479  tick */\n      dup4\n        /* \"@uniswap/v3-core/contracts/libraries/TickMath.sol\":1475:1483  tick < 0 */\n      0x02\n      signextend\n      slt\n        /* \"@uniswap/v3-core/contracts/libraries/TickMath.sol\":1475:1532  tick < 0 ? uint256(-int256(tick)) : uint256(int256(tick)) */\n      tag_119\n      jumpi\n        /* \"@uniswap/v3-core/contracts/libraries/TickMath.sol\":1526:1530  tick */\n      dup3\n        /* \"@uniswap/v3-core/contracts/libraries/TickMath.sol\":1519:1531  int256(tick) */\n      0x02\n      signextend\n        /* \"@uniswap/v3-core/contracts/libraries/TickMath.sol\":1475:1532  tick < 0 ? uint256(-int256(tick)) : uint256(int256(tick)) */\n      jump(tag_120)\n    tag_119:\n        /* \"@uniswap/v3-core/contracts/libraries/TickMath.sol\":1502:1506  tick */\n      dup3\n        /* \"@uniswap/v3-core/contracts/libraries/TickMath.sol\":1495:1507  int256(tick) */\n      0x02\n      signextend\n        /* \"@uniswap/v3-core/contracts/libraries/TickMath.sol\":1494:1507  -int256(tick) */\n      0x00\n      sub\n        /* \"@uniswap/v3-core/contracts/libraries/TickMath.sol\":1475:1532  tick < 0 ? uint256(-int256(tick)) : uint256(int256(tick)) */\n    tag_120:\n        /* \"@uniswap/v3-core/contracts/libraries/TickMath.sol\":1457:1532  uint256 absTick = tick < 0 ? uint256(-int256(tick)) : uint256(int256(tick)) */\n      swap1\n      pop\n        /* \"@uniswap/v3-core/contracts/libraries/TickMath.sol\":484:491  -887272 */\n      0xfffffffffffffffffffffffffffffffffffffffffffffffffffffffffff27618\n        /* \"@uniswap/v3-core/contracts/libraries/TickMath.sol\":644:653  -MIN_TICK */\n      0x00\n      sub\n        /* \"@uniswap/v3-core/contracts/libraries/TickMath.sol\":1561:1578  uint256(MAX_TICK) */\n      0x02\n      signextend\n        /* \"@uniswap/v3-core/contracts/libraries/TickMath.sol\":1550:1557  absTick */\n      dup2\n        /* \"@uniswap/v3-core/contracts/libraries/TickMath.sol\":1550:1578  absTick <= uint256(MAX_TICK) */\n      gt\n      iszero\n        /* \"@uniswap/v3-core/contracts/libraries/TickMath.sol\":1542:1584  require(absTick <= uint256(MAX_TICK), 'T') */\n      tag_121\n      jumpi\n      mload(0x40)\n      0x08c379a000000000000000000000000000000000000000000000000000000000\n      dup2\n      mstore\n      0x04\n      add\n      dup1\n      dup1\n      0x20\n      add\n      dup3\n      dup2\n      sub\n      dup3\n      mstore\n      0x01\n      dup2\n      mstore\n      0x20\n      add\n      dup1\n      0x5400000000000000000000000000000000000000000000000000000000000000\n      dup2\n      mstore\n      pop\n      0x20\n      add\n      swap2\n      pop\n      pop\n      mload(0x40)\n      dup1\n      swap2\n      sub\n      swap1\n      revert\n    tag_121:\n        /* \"@uniswap/v3-core/contracts/libraries/TickMath.sol\":1595:1608  uint256 ratio */\n      0x00\n        /* \"@uniswap/v3-core/contracts/libraries/TickMath.sol\":1628:1629  0 */\n      dup1\n        /* \"@uniswap/v3-core/contracts/libraries/TickMath.sol\":1621:1624  0x1 */\n      0x01\n        /* \"@uniswap/v3-core/contracts/libraries/TickMath.sol\":1611:1618  absTick */\n      dup4\n        /* \"@uniswap/v3-core/contracts/libraries/TickMath.sol\":1611:1624  absTick & 0x1 */\n      and\n        /* \"@uniswap/v3-core/contracts/libraries/TickMath.sol\":1611:1629  absTick & 0x1 != 0 */\n      eq\n      iszero\n        /* \"@uniswap/v3-core/contracts/libraries/TickMath.sol\":1611:1704  absTick & 0x1 != 0 ? 0xfffcb933bd6fad37aa2d162d1a594001 : 0x100000000000000000000000000000000 */\n      tag_122\n      jumpi\n        /* \"@uniswap/v3-core/contracts/libraries/TickMath.sol\":1669:1704  0x100000000000000000000000000000000 */\n      0x0100000000000000000000000000000000\n        /* \"@uniswap/v3-core/contracts/libraries/TickMath.sol\":1611:1704  absTick & 0x1 != 0 ? 0xfffcb933bd6fad37aa2d162d1a594001 : 0x100000000000000000000000000000000 */\n      jump(tag_123)\n    tag_122:\n        /* \"@uniswap/v3-core/contracts/libraries/TickMath.sol\":1632:1666  0xfffcb933bd6fad37aa2d162d1a594001 */\n      0xfffcb933bd6fad37aa2d162d1a594001\n        /* \"@uniswap/v3-core/contracts/libraries/TickMath.sol\":1611:1704  absTick & 0x1 != 0 ? 0xfffcb933bd6fad37aa2d162d1a594001 : 0x100000000000000000000000000000000 */\n    tag_123:\n        /* \"@uniswap/v3-core/contracts/libraries/TickMath.sol\":1595:1704  uint256 ratio = absTick & 0x1 != 0 ? 0xfffcb933bd6fad37aa2d162d1a594001 : 0x100000000000000000000000000000000 */\n      0xffffffffffffffffffffffffffffffffff\n      and\n      swap1\n      pop\n        /* \"@uniswap/v3-core/contracts/libraries/TickMath.sol\":1735:1736  0 */\n      0x00\n        /* \"@uniswap/v3-core/contracts/libraries/TickMath.sol\":1728:1731  0x2 */\n      0x02\n        /* \"@uniswap/v3-core/contracts/libraries/TickMath.sol\":1718:1725  absTick */\n      dup4\n        /* \"@uniswap/v3-core/contracts/libraries/TickMath.sol\":1718:1731  absTick & 0x2 */\n      and\n        /* \"@uniswap/v3-core/contracts/libraries/TickMath.sol\":1718:1736  absTick & 0x2 != 0 */\n      eq\n        /* \"@uniswap/v3-core/contracts/libraries/TickMath.sol\":1714:1797  if (absTick & 0x2 != 0) ratio = (ratio * 0xfff97272373d413259a46990580e213a) >> 128 */\n      tag_124\n      jumpi\n        /* \"@uniswap/v3-core/contracts/libraries/TickMath.sol\":1794:1797  128 */\n      0x80\n        /* \"@uniswap/v3-core/contracts/libraries/TickMath.sol\":1755:1789  0xfff97272373d413259a46990580e213a */\n      0xfff97272373d413259a46990580e213a\n        /* \"@uniswap/v3-core/contracts/libraries/TickMath.sol\":1747:1752  ratio */\n      dup3\n        /* \"@uniswap/v3-core/contracts/libraries/TickMath.sol\":1747:1789  ratio * 0xfff97272373d413259a46990580e213a */\n      mul\n        /* \"@uniswap/v3-core/contracts/libraries/TickMath.sol\":1746:1797  (ratio * 0xfff97272373d413259a46990580e213a) >> 128 */\n      swap1\n      shr\n        /* \"@uniswap/v3-core/contracts/libraries/TickMath.sol\":1738:1797  ratio = (ratio * 0xfff97272373d413259a46990580e213a) >> 128 */\n      swap1\n      pop\n        /* \"@uniswap/v3-core/contracts/libraries/TickMath.sol\":1714:1797  if (absTick & 0x2 != 0) ratio = (ratio * 0xfff97272373d413259a46990580e213a) >> 128 */\n    tag_124:\n        /* \"@uniswap/v3-core/contracts/libraries/TickMath.sol\":1828:1829  0 */\n      0x00\n        /* \"@uniswap/v3-core/contracts/libraries/TickMath.sol\":1821:1824  0x4 */\n      0x04\n        /* \"@uniswap/v3-core/contracts/libraries/TickMath.sol\":1811:1818  absTick */\n      dup4\n        /* \"@uniswap/v3-core/contracts/libraries/TickMath.sol\":1811:1824  absTick & 0x4 */\n      and\n        /* \"@uniswap/v3-core/contracts/libraries/TickMath.sol\":1811:1829  absTick & 0x4 != 0 */\n      eq\n        /* \"@uniswap/v3-core/contracts/libraries/TickMath.sol\":1807:1890  if (absTick & 0x4 != 0) ratio = (ratio * 0xfff2e50f5f656932ef12357cf3c7fdcc) >> 128 */\n      tag_125\n      jumpi\n        /* \"@uniswap/v3-core/contracts/libraries/TickMath.sol\":1887:1890  128 */\n      0x80\n        /* \"@uniswap/v3-core/contracts/libraries/TickMath.sol\":1848:1882  0xfff2e50f5f656932ef12357cf3c7fdcc */\n      0xfff2e50f5f656932ef12357cf3c7fdcc\n        /* \"@uniswap/v3-core/contracts/libraries/TickMath.sol\":1840:1845  ratio */\n      dup3\n        /* \"@uniswap/v3-core/contracts/libraries/TickMath.sol\":1840:1882  ratio * 0xfff2e50f5f656932ef12357cf3c7fdcc */\n      mul\n        /* \"@uniswap/v3-core/contracts/libraries/TickMath.sol\":1839:1890  (ratio * 0xfff2e50f5f656932ef12357cf3c7fdcc) >> 128 */\n      swap1\n      shr\n        /* \"@uniswap/v3-core/contracts/libraries/TickMath.sol\":1831:1890  ratio = (ratio * 0xfff2e50f5f656932ef12357cf3c7fdcc) >> 128 */\n      swap1\n      pop\n        /* \"@uniswap/v3-core/contracts/libraries/TickMath.sol\":1807:1890  if (absTick & 0x4 != 0) ratio = (ratio * 0xfff2e50f5f656932ef12357cf3c7fdcc) >> 128 */\n    tag_125:\n        /* \"@uniswap/v3-core/contracts/libraries/TickMath.sol\":1921:1922  0 */\n      0x00\n        /* \"@uniswap/v3-core/contracts/libraries/TickMath.sol\":1914:1917  0x8 */\n      0x08\n        /* \"@uniswap/v3-core/contracts/libraries/TickMath.sol\":1904:1911  absTick */\n      dup4\n        /* \"@uniswap/v3-core/contracts/libraries/TickMath.sol\":1904:1917  absTick & 0x8 */\n      and\n        /* \"@uniswap/v3-core/contracts/libraries/TickMath.sol\":1904:1922  absTick & 0x8 != 0 */\n      eq\n        /* \"@uniswap/v3-core/contracts/libraries/TickMath.sol\":1900:1983  if (absTick & 0x8 != 0) ratio = (ratio * 0xffe5caca7e10e4e61c3624eaa0941cd0) >> 128 */\n      tag_126\n      jumpi\n        /* \"@uniswap/v3-core/contracts/libraries/TickMath.sol\":1980:1983  128 */\n      0x80\n        /* \"@uniswap/v3-core/contracts/libraries/TickMath.sol\":1941:1975  0xffe5caca7e10e4e61c3624eaa0941cd0 */\n      0xffe5caca7e10e4e61c3624eaa0941cd0\n        /* \"@uniswap/v3-core/contracts/libraries/TickMath.sol\":1933:1938  ratio */\n      dup3\n        /* \"@uniswap/v3-core/contracts/libraries/TickMath.sol\":1933:1975  ratio * 0xffe5caca7e10e4e61c3624eaa0941cd0 */\n      mul\n        /* \"@uniswap/v3-core/contracts/libraries/TickMath.sol\":1932:1983  (ratio * 0xffe5caca7e10e4e61c3624eaa0941cd0) >> 128 */\n      swap1\n      shr\n        /* \"@uniswap/v3-core/contracts/libraries/TickMath.sol\":1924:1983  ratio = (ratio * 0xffe5caca7e10e4e61c3624eaa0941cd0) >> 128 */\n      swap1\n      pop\n        /* \"@uniswap/v3-core/contracts/libraries/TickMath.sol\":1900:1983  if (absTick & 0x8 != 0) ratio = (ratio * 0xffe5caca7e10e4e61c3624eaa0941cd0) >> 128 */\n    tag_126:\n        /* \"@uniswap/v3-core/contracts/libraries/TickMath.sol\":2015:2016  0 */\n      0x00\n        /* \"@uniswap/v3-core/contracts/libraries/TickMath.sol\":2007:2011  0x10 */\n      0x10\n        /* \"@uniswap/v3-core/contracts/libraries/TickMath.sol\":1997:2004  absTick */\n      dup4\n        /* \"@uniswap/v3-core/contracts/libraries/TickMath.sol\":1997:2011  absTick & 0x10 */\n      and\n        /* \"@uniswap/v3-core/contracts/libraries/TickMath.sol\":1997:2016  absTick & 0x10 != 0 */\n      eq\n        /* \"@uniswap/v3-core/contracts/libraries/TickMath.sol\":1993:2077  if (absTick & 0x10 != 0) ratio = (ratio * 0xffcb9843d60f6159c9db58835c926644) >> 128 */\n      tag_127\n      jumpi\n        /* \"@uniswap/v3-core/contracts/libraries/TickMath.sol\":2074:2077  128 */\n      0x80\n        /* \"@uniswap/v3-core/contracts/libraries/TickMath.sol\":2035:2069  0xffcb9843d60f6159c9db58835c926644 */\n      0xffcb9843d60f6159c9db58835c926644\n        /* \"@uniswap/v3-core/contracts/libraries/TickMath.sol\":2027:2032  ratio */\n      dup3\n        /* \"@uniswap/v3-core/contracts/libraries/TickMath.sol\":2027:2069  ratio * 0xffcb9843d60f6159c9db58835c926644 */\n      mul\n        /* \"@uniswap/v3-core/contracts/libraries/TickMath.sol\":2026:2077  (ratio * 0xffcb9843d60f6159c9db58835c926644) >> 128 */\n      swap1\n      shr\n        /* \"@uniswap/v3-core/contracts/libraries/TickMath.sol\":2018:2077  ratio = (ratio * 0xffcb9843d60f6159c9db58835c926644) >> 128 */\n      swap1\n      pop\n        /* \"@uniswap/v3-core/contracts/libraries/TickMath.sol\":1993:2077  if (absTick & 0x10 != 0) ratio = (ratio * 0xffcb9843d60f6159c9db58835c926644) >> 128 */\n    tag_127:\n        /* \"@uniswap/v3-core/contracts/libraries/TickMath.sol\":2109:2110  0 */\n      0x00\n        /* \"@uniswap/v3-core/contracts/libraries/TickMath.sol\":2101:2105  0x20 */\n      0x20\n        /* \"@uniswap/v3-core/contracts/libraries/TickMath.sol\":2091:2098  absTick */\n      dup4\n        /* \"@uniswap/v3-core/contracts/libraries/TickMath.sol\":2091:2105  absTick & 0x20 */\n      and\n        /* \"@uniswap/v3-core/contracts/libraries/TickMath.sol\":2091:2110  absTick & 0x20 != 0 */\n      eq\n        /* \"@uniswap/v3-core/contracts/libraries/TickMath.sol\":2087:2171  if (absTick & 0x20 != 0) ratio = (ratio * 0xff973b41fa98c081472e6896dfb254c0) >> 128 */\n      tag_128\n      jumpi\n        /* \"@uniswap/v3-core/contracts/libraries/TickMath.sol\":2168:2171  128 */\n      0x80\n        /* \"@uniswap/v3-core/contracts/libraries/TickMath.sol\":2129:2163  0xff973b41fa98c081472e6896dfb254c0 */\n      0xff973b41fa98c081472e6896dfb254c0\n        /* \"@uniswap/v3-core/contracts/libraries/TickMath.sol\":2121:2126  ratio */\n      dup3\n        /* \"@uniswap/v3-core/contracts/libraries/TickMath.sol\":2121:2163  ratio * 0xff973b41fa98c081472e6896dfb254c0 */\n      mul\n        /* \"@uniswap/v3-core/contracts/libraries/TickMath.sol\":2120:2171  (ratio * 0xff973b41fa98c081472e6896dfb254c0) >> 128 */\n      swap1\n      shr\n        /* \"@uniswap/v3-core/contracts/libraries/TickMath.sol\":2112:2171  ratio = (ratio * 0xff973b41fa98c081472e6896dfb254c0) >> 128 */\n      swap1\n      pop\n        /* \"@uniswap/v3-core/contracts/libraries/TickMath.sol\":2087:2171  if (absTick & 0x20 != 0) ratio = (ratio * 0xff973b41fa98c081472e6896dfb254c0) >> 128 */\n    tag_128:\n        /* \"@uniswap/v3-core/contracts/libraries/TickMath.sol\":2203:2204  0 */\n      0x00\n        /* \"@uniswap/v3-core/contracts/libraries/TickMath.sol\":2195:2199  0x40 */\n      0x40\n        /* \"@uniswap/v3-core/contracts/libraries/TickMath.sol\":2185:2192  absTick */\n      dup4\n        /* \"@uniswap/v3-core/contracts/libraries/TickMath.sol\":2185:2199  absTick & 0x40 */\n      and\n        /* \"@uniswap/v3-core/contracts/libraries/TickMath.sol\":2185:2204  absTick & 0x40 != 0 */\n      eq\n        /* \"@uniswap/v3-core/contracts/libraries/TickMath.sol\":2181:2265  if (absTick & 0x40 != 0) ratio = (ratio * 0xff2ea16466c96a3843ec78b326b52861) >> 128 */\n      tag_129\n      jumpi\n        /* \"@uniswap/v3-core/contracts/libraries/TickMath.sol\":2262:2265  128 */\n      0x80\n        /* \"@uniswap/v3-core/contracts/libraries/TickMath.sol\":2223:2257  0xff2ea16466c96a3843ec78b326b52861 */\n      0xff2ea16466c96a3843ec78b326b52861\n        /* \"@uniswap/v3-core/contracts/libraries/TickMath.sol\":2215:2220  ratio */\n      dup3\n        /* \"@uniswap/v3-core/contracts/libraries/TickMath.sol\":2215:2257  ratio * 0xff2ea16466c96a3843ec78b326b52861 */\n      mul\n        /* \"@uniswap/v3-core/contracts/libraries/TickMath.sol\":2214:2265  (ratio * 0xff2ea16466c96a3843ec78b326b52861) >> 128 */\n      swap1\n      shr\n        /* \"@uniswap/v3-core/contracts/libraries/TickMath.sol\":2206:2265  ratio = (ratio * 0xff2ea16466c96a3843ec78b326b52861) >> 128 */\n      swap1\n      pop\n        /* \"@uniswap/v3-core/contracts/libraries/TickMath.sol\":2181:2265  if (absTick & 0x40 != 0) ratio = (ratio * 0xff2ea16466c96a3843ec78b326b52861) >> 128 */\n    tag_129:\n        /* \"@uniswap/v3-core/contracts/libraries/TickMath.sol\":2297:2298  0 */\n      0x00\n        /* \"@uniswap/v3-core/contracts/libraries/TickMath.sol\":2289:2293  0x80 */\n      0x80\n        /* \"@uniswap/v3-core/contracts/libraries/TickMath.sol\":2279:2286  absTick */\n      dup4\n        /* \"@uniswap/v3-core/contracts/libraries/TickMath.sol\":2279:2293  absTick & 0x80 */\n      and\n        /* \"@uniswap/v3-core/contracts/libraries/TickMath.sol\":2279:2298  absTick & 0x80 != 0 */\n      eq\n        /* \"@uniswap/v3-core/contracts/libraries/TickMath.sol\":2275:2359  if (absTick & 0x80 != 0) ratio = (ratio * 0xfe5dee046a99a2a811c461f1969c3053) >> 128 */\n      tag_130\n      jumpi\n        /* \"@uniswap/v3-core/contracts/libraries/TickMath.sol\":2356:2359  128 */\n      0x80\n        /* \"@uniswap/v3-core/contracts/libraries/TickMath.sol\":2317:2351  0xfe5dee046a99a2a811c461f1969c3053 */\n      0xfe5dee046a99a2a811c461f1969c3053\n        /* \"@uniswap/v3-core/contracts/libraries/TickMath.sol\":2309:2314  ratio */\n      dup3\n        /* \"@uniswap/v3-core/contracts/libraries/TickMath.sol\":2309:2351  ratio * 0xfe5dee046a99a2a811c461f1969c3053 */\n      mul\n        /* \"@uniswap/v3-core/contracts/libraries/TickMath.sol\":2308:2359  (ratio * 0xfe5dee046a99a2a811c461f1969c3053) >> 128 */\n      swap1\n      shr\n        /* \"@uniswap/v3-core/contracts/libraries/TickMath.sol\":2300:2359  ratio = (ratio * 0xfe5dee046a99a2a811c461f1969c3053) >> 128 */\n      swap1\n      pop\n        /* \"@uniswap/v3-core/contracts/libraries/TickMath.sol\":2275:2359  if (absTick & 0x80 != 0) ratio = (ratio * 0xfe5dee046a99a2a811c461f1969c3053) >> 128 */\n    tag_130:\n        /* \"@uniswap/v3-core/contracts/libraries/TickMath.sol\":2392:2393  0 */\n      0x00\n        /* \"@uniswap/v3-core/contracts/libraries/TickMath.sol\":2383:2388  0x100 */\n      0x0100\n        /* \"@uniswap/v3-core/contracts/libraries/TickMath.sol\":2373:2380  absTick */\n      dup4\n        /* \"@uniswap/v3-core/contracts/libraries/TickMath.sol\":2373:2388  absTick & 0x100 */\n      and\n        /* \"@uniswap/v3-core/contracts/libraries/TickMath.sol\":2373:2393  absTick & 0x100 != 0 */\n      eq\n        /* \"@uniswap/v3-core/contracts/libraries/TickMath.sol\":2369:2454  if (absTick & 0x100 != 0) ratio = (ratio * 0xfcbe86c7900a88aedcffc83b479aa3a4) >> 128 */\n      tag_131\n      jumpi\n        /* \"@uniswap/v3-core/contracts/libraries/TickMath.sol\":2451:2454  128 */\n      0x80\n        /* \"@uniswap/v3-core/contracts/libraries/TickMath.sol\":2412:2446  0xfcbe86c7900a88aedcffc83b479aa3a4 */\n      0xfcbe86c7900a88aedcffc83b479aa3a4\n        /* \"@uniswap/v3-core/contracts/libraries/TickMath.sol\":2404:2409  ratio */\n      dup3\n        /* \"@uniswap/v3-core/contracts/libraries/TickMath.sol\":2404:2446  ratio * 0xfcbe86c7900a88aedcffc83b479aa3a4 */\n      mul\n        /* \"@uniswap/v3-core/contracts/libraries/TickMath.sol\":2403:2454  (ratio * 0xfcbe86c7900a88aedcffc83b479aa3a4) >> 128 */\n      swap1\n      shr\n        /* \"@uniswap/v3-core/contracts/libraries/TickMath.sol\":2395:2454  ratio = (ratio * 0xfcbe86c7900a88aedcffc83b479aa3a4) >> 128 */\n      swap1\n      pop\n        /* \"@uniswap/v3-core/contracts/libraries/TickMath.sol\":2369:2454  if (absTick & 0x100 != 0) ratio = (ratio * 0xfcbe86c7900a88aedcffc83b479aa3a4) >> 128 */\n    tag_131:\n        /* \"@uniswap/v3-core/contracts/libraries/TickMath.sol\":2487:2488  0 */\n      0x00\n        /* \"@uniswap/v3-core/contracts/libraries/TickMath.sol\":2478:2483  0x200 */\n      0x0200\n        /* \"@uniswap/v3-core/contracts/libraries/TickMath.sol\":2468:2475  absTick */\n      dup4\n        /* \"@uniswap/v3-core/contracts/libraries/TickMath.sol\":2468:2483  absTick & 0x200 */\n      and\n        /* \"@uniswap/v3-core/contracts/libraries/TickMath.sol\":2468:2488  absTick & 0x200 != 0 */\n      eq\n        /* \"@uniswap/v3-core/contracts/libraries/TickMath.sol\":2464:2549  if (absTick & 0x200 != 0) ratio = (ratio * 0xf987a7253ac413176f2b074cf7815e54) >> 128 */\n      tag_132\n      jumpi\n        /* \"@uniswap/v3-core/contracts/libraries/TickMath.sol\":2546:2549  128 */\n      0x80\n        /* \"@uniswap/v3-core/contracts/libraries/TickMath.sol\":2507:2541  0xf987a7253ac413176f2b074cf7815e54 */\n      0xf987a7253ac413176f2b074cf7815e54\n        /* \"@uniswap/v3-core/contracts/libraries/TickMath.sol\":2499:2504  ratio */\n      dup3\n        /* \"@uniswap/v3-core/contracts/libraries/TickMath.sol\":2499:2541  ratio * 0xf987a7253ac413176f2b074cf7815e54 */\n      mul\n        /* \"@uniswap/v3-core/contracts/libraries/TickMath.sol\":2498:2549  (ratio * 0xf987a7253ac413176f2b074cf7815e54) >> 128 */\n      swap1\n      shr\n        /* \"@uniswap/v3-core/contracts/libraries/TickMath.sol\":2490:2549  ratio = (ratio * 0xf987a7253ac413176f2b074cf7815e54) >> 128 */\n      swap1\n      pop\n        /* \"@uniswap/v3-core/contracts/libraries/TickMath.sol\":2464:2549  if (absTick & 0x200 != 0) ratio = (ratio * 0xf987a7253ac413176f2b074cf7815e54) >> 128 */\n    tag_132:\n        /* \"@uniswap/v3-core/contracts/libraries/TickMath.sol\":2582:2583  0 */\n      0x00\n        /* \"@uniswap/v3-core/contracts/libraries/TickMath.sol\":2573:2578  0x400 */\n      0x0400\n        /* \"@uniswap/v3-core/contracts/libraries/TickMath.sol\":2563:2570  absTick */\n      dup4\n        /* \"@uniswap/v3-core/contracts/libraries/TickMath.sol\":2563:2578  absTick & 0x400 */\n      and\n        /* \"@uniswap/v3-core/contracts/libraries/TickMath.sol\":2563:2583  absTick & 0x400 != 0 */\n      eq\n        /* \"@uniswap/v3-core/contracts/libraries/TickMath.sol\":2559:2644  if (absTick & 0x400 != 0) ratio = (ratio * 0xf3392b0822b70005940c7a398e4b70f3) >> 128 */\n      tag_133\n      jumpi\n        /* \"@uniswap/v3-core/contracts/libraries/TickMath.sol\":2641:2644  128 */\n      0x80\n        /* \"@uniswap/v3-core/contracts/libraries/TickMath.sol\":2602:2636  0xf3392b0822b70005940c7a398e4b70f3 */\n      0xf3392b0822b70005940c7a398e4b70f3\n        /* \"@uniswap/v3-core/contracts/libraries/TickMath.sol\":2594:2599  ratio */\n      dup3\n        /* \"@uniswap/v3-core/contracts/libraries/TickMath.sol\":2594:2636  ratio * 0xf3392b0822b70005940c7a398e4b70f3 */\n      mul\n        /* \"@uniswap/v3-core/contracts/libraries/TickMath.sol\":2593:2644  (ratio * 0xf3392b0822b70005940c7a398e4b70f3) >> 128 */\n      swap1\n      shr\n        /* \"@uniswap/v3-core/contracts/libraries/TickMath.sol\":2585:2644  ratio = (ratio * 0xf3392b0822b70005940c7a398e4b70f3) >> 128 */\n      swap1\n      pop\n        /* \"@uniswap/v3-core/contracts/libraries/TickMath.sol\":2559:2644  if (absTick & 0x400 != 0) ratio = (ratio * 0xf3392b0822b70005940c7a398e4b70f3) >> 128 */\n    tag_133:\n        /* \"@uniswap/v3-core/contracts/libraries/TickMath.sol\":2677:2678  0 */\n      0x00\n        /* \"@uniswap/v3-core/contracts/libraries/TickMath.sol\":2668:2673  0x800 */\n      0x0800\n        /* \"@uniswap/v3-core/contracts/libraries/TickMath.sol\":2658:2665  absTick */\n      dup4\n        /* \"@uniswap/v3-core/contracts/libraries/TickMath.sol\":2658:2673  absTick & 0x800 */\n      and\n        /* \"@uniswap/v3-core/contracts/libraries/TickMath.sol\":2658:2678  absTick & 0x800 != 0 */\n      eq\n        /* \"@uniswap/v3-core/contracts/libraries/TickMath.sol\":2654:2739  if (absTick & 0x800 != 0) ratio = (ratio * 0xe7159475a2c29b7443b29c7fa6e889d9) >> 128 */\n      tag_134\n      jumpi\n        /* \"@uniswap/v3-core/contracts/libraries/TickMath.sol\":2736:2739  128 */\n      0x80\n        /* \"@uniswap/v3-core/contracts/libraries/TickMath.sol\":2697:2731  0xe7159475a2c29b7443b29c7fa6e889d9 */\n      0xe7159475a2c29b7443b29c7fa6e889d9\n        /* \"@uniswap/v3-core/contracts/libraries/TickMath.sol\":2689:2694  ratio */\n      dup3\n        /* \"@uniswap/v3-core/contracts/libraries/TickMath.sol\":2689:2731  ratio * 0xe7159475a2c29b7443b29c7fa6e889d9 */\n      mul\n        /* \"@uniswap/v3-core/contracts/libraries/TickMath.sol\":2688:2739  (ratio * 0xe7159475a2c29b7443b29c7fa6e889d9) >> 128 */\n      swap1\n      shr\n        /* \"@uniswap/v3-core/contracts/libraries/TickMath.sol\":2680:2739  ratio = (ratio * 0xe7159475a2c29b7443b29c7fa6e889d9) >> 128 */\n      swap1\n      pop\n        /* \"@uniswap/v3-core/contracts/libraries/TickMath.sol\":2654:2739  if (absTick & 0x800 != 0) ratio = (ratio * 0xe7159475a2c29b7443b29c7fa6e889d9) >> 128 */\n    tag_134:\n        /* \"@uniswap/v3-core/contracts/libraries/TickMath.sol\":2773:2774  0 */\n      0x00\n        /* \"@uniswap/v3-core/contracts/libraries/TickMath.sol\":2763:2769  0x1000 */\n      0x1000\n        /* \"@uniswap/v3-core/contracts/libraries/TickMath.sol\":2753:2760  absTick */\n      dup4\n        /* \"@uniswap/v3-core/contracts/libraries/TickMath.sol\":2753:2769  absTick & 0x1000 */\n      and\n        /* \"@uniswap/v3-core/contracts/libraries/TickMath.sol\":2753:2774  absTick & 0x1000 != 0 */\n      eq\n        /* \"@uniswap/v3-core/contracts/libraries/TickMath.sol\":2749:2835  if (absTick & 0x1000 != 0) ratio = (ratio * 0xd097f3bdfd2022b8845ad8f792aa5825) >> 128 */\n      tag_135\n      jumpi\n        /* \"@uniswap/v3-core/contracts/libraries/TickMath.sol\":2832:2835  128 */\n      0x80\n        /* \"@uniswap/v3-core/contracts/libraries/TickMath.sol\":2793:2827  0xd097f3bdfd2022b8845ad8f792aa5825 */\n      0xd097f3bdfd2022b8845ad8f792aa5825\n        /* \"@uniswap/v3-core/contracts/libraries/TickMath.sol\":2785:2790  ratio */\n      dup3\n        /* \"@uniswap/v3-core/contracts/libraries/TickMath.sol\":2785:2827  ratio * 0xd097f3bdfd2022b8845ad8f792aa5825 */\n      mul\n        /* \"@uniswap/v3-core/contracts/libraries/TickMath.sol\":2784:2835  (ratio * 0xd097f3bdfd2022b8845ad8f792aa5825) >> 128 */\n      swap1\n      shr\n        /* \"@uniswap/v3-core/contracts/libraries/TickMath.sol\":2776:2835  ratio = (ratio * 0xd097f3bdfd2022b8845ad8f792aa5825) >> 128 */\n      swap1\n      pop\n        /* \"@uniswap/v3-core/contracts/libraries/TickMath.sol\":2749:2835  if (absTick & 0x1000 != 0) ratio = (ratio * 0xd097f3bdfd2022b8845ad8f792aa5825) >> 128 */\n    tag_135:\n        /* \"@uniswap/v3-core/contracts/libraries/TickMath.sol\":2869:2870  0 */\n      0x00\n        /* \"@uniswap/v3-core/contracts/libraries/TickMath.sol\":2859:2865  0x2000 */\n      0x2000\n        /* \"@uniswap/v3-core/contracts/libraries/TickMath.sol\":2849:2856  absTick */\n      dup4\n        /* \"@uniswap/v3-core/contracts/libraries/TickMath.sol\":2849:2865  absTick & 0x2000 */\n      and\n        /* \"@uniswap/v3-core/contracts/libraries/TickMath.sol\":2849:2870  absTick & 0x2000 != 0 */\n      eq\n        /* \"@uniswap/v3-core/contracts/libraries/TickMath.sol\":2845:2931  if (absTick & 0x2000 != 0) ratio = (ratio * 0xa9f746462d870fdf8a65dc1f90e061e5) >> 128 */\n      tag_136\n      jumpi\n        /* \"@uniswap/v3-core/contracts/libraries/TickMath.sol\":2928:2931  128 */\n      0x80\n        /* \"@uniswap/v3-core/contracts/libraries/TickMath.sol\":2889:2923  0xa9f746462d870fdf8a65dc1f90e061e5 */\n      0xa9f746462d870fdf8a65dc1f90e061e5\n        /* \"@uniswap/v3-core/contracts/libraries/TickMath.sol\":2881:2886  ratio */\n      dup3\n        /* \"@uniswap/v3-core/contracts/libraries/TickMath.sol\":2881:2923  ratio * 0xa9f746462d870fdf8a65dc1f90e061e5 */\n      mul\n        /* \"@uniswap/v3-core/contracts/libraries/TickMath.sol\":2880:2931  (ratio * 0xa9f746462d870fdf8a65dc1f90e061e5) >> 128 */\n      swap1\n      shr\n        /* \"@uniswap/v3-core/contracts/libraries/TickMath.sol\":2872:2931  ratio = (ratio * 0xa9f746462d870fdf8a65dc1f90e061e5) >> 128 */\n      swap1\n      pop\n        /* \"@uniswap/v3-core/contracts/libraries/TickMath.sol\":2845:2931  if (absTick & 0x2000 != 0) ratio = (ratio * 0xa9f746462d870fdf8a65dc1f90e061e5) >> 128 */\n    tag_136:\n        /* \"@uniswap/v3-core/contracts/libraries/TickMath.sol\":2965:2966  0 */\n      0x00\n        /* \"@uniswap/v3-core/contracts/libraries/TickMath.sol\":2955:2961  0x4000 */\n      0x4000\n        /* \"@uniswap/v3-core/contracts/libraries/TickMath.sol\":2945:2952  absTick */\n      dup4\n        /* \"@uniswap/v3-core/contracts/libraries/TickMath.sol\":2945:2961  absTick & 0x4000 */\n      and\n        /* \"@uniswap/v3-core/contracts/libraries/TickMath.sol\":2945:2966  absTick & 0x4000 != 0 */\n      eq\n        /* \"@uniswap/v3-core/contracts/libraries/TickMath.sol\":2941:3027  if (absTick & 0x4000 != 0) ratio = (ratio * 0x70d869a156d2a1b890bb3df62baf32f7) >> 128 */\n      tag_137\n      jumpi\n        /* \"@uniswap/v3-core/contracts/libraries/TickMath.sol\":3024:3027  128 */\n      0x80\n        /* \"@uniswap/v3-core/contracts/libraries/TickMath.sol\":2985:3019  0x70d869a156d2a1b890bb3df62baf32f7 */\n      0x70d869a156d2a1b890bb3df62baf32f7\n        /* \"@uniswap/v3-core/contracts/libraries/TickMath.sol\":2977:2982  ratio */\n      dup3\n        /* \"@uniswap/v3-core/contracts/libraries/TickMath.sol\":2977:3019  ratio * 0x70d869a156d2a1b890bb3df62baf32f7 */\n      mul\n        /* \"@uniswap/v3-core/contracts/libraries/TickMath.sol\":2976:3027  (ratio * 0x70d869a156d2a1b890bb3df62baf32f7) >> 128 */\n      swap1\n      shr\n        /* \"@uniswap/v3-core/contracts/libraries/TickMath.sol\":2968:3027  ratio = (ratio * 0x70d869a156d2a1b890bb3df62baf32f7) >> 128 */\n      swap1\n      pop\n        /* \"@uniswap/v3-core/contracts/libraries/TickMath.sol\":2941:3027  if (absTick & 0x4000 != 0) ratio = (ratio * 0x70d869a156d2a1b890bb3df62baf32f7) >> 128 */\n    tag_137:\n        /* \"@uniswap/v3-core/contracts/libraries/TickMath.sol\":3061:3062  0 */\n      0x00\n        /* \"@uniswap/v3-core/contracts/libraries/TickMath.sol\":3051:3057  0x8000 */\n      0x8000\n        /* \"@uniswap/v3-core/contracts/libraries/TickMath.sol\":3041:3048  absTick */\n      dup4\n        /* \"@uniswap/v3-core/contracts/libraries/TickMath.sol\":3041:3057  absTick & 0x8000 */\n      and\n        /* \"@uniswap/v3-core/contracts/libraries/TickMath.sol\":3041:3062  absTick & 0x8000 != 0 */\n      eq\n        /* \"@uniswap/v3-core/contracts/libraries/TickMath.sol\":3037:3123  if (absTick & 0x8000 != 0) ratio = (ratio * 0x31be135f97d08fd981231505542fcfa6) >> 128 */\n      tag_138\n      jumpi\n        /* \"@uniswap/v3-core/contracts/libraries/TickMath.sol\":3120:3123  128 */\n      0x80\n        /* \"@uniswap/v3-core/contracts/libraries/TickMath.sol\":3081:3115  0x31be135f97d08fd981231505542fcfa6 */\n      0x31be135f97d08fd981231505542fcfa6\n        /* \"@uniswap/v3-core/contracts/libraries/TickMath.sol\":3073:3078  ratio */\n      dup3\n        /* \"@uniswap/v3-core/contracts/libraries/TickMath.sol\":3073:3115  ratio * 0x31be135f97d08fd981231505542fcfa6 */\n      mul\n        /* \"@uniswap/v3-core/contracts/libraries/TickMath.sol\":3072:3123  (ratio * 0x31be135f97d08fd981231505542fcfa6) >> 128 */\n      swap1\n      shr\n        /* \"@uniswap/v3-core/contracts/libraries/TickMath.sol\":3064:3123  ratio = (ratio * 0x31be135f97d08fd981231505542fcfa6) >> 128 */\n      swap1\n      pop\n        /* \"@uniswap/v3-core/contracts/libraries/TickMath.sol\":3037:3123  if (absTick & 0x8000 != 0) ratio = (ratio * 0x31be135f97d08fd981231505542fcfa6) >> 128 */\n    tag_138:\n        /* \"@uniswap/v3-core/contracts/libraries/TickMath.sol\":3158:3159  0 */\n      0x00\n        /* \"@uniswap/v3-core/contracts/libraries/TickMath.sol\":3147:3154  0x10000 */\n      0x010000\n        /* \"@uniswap/v3-core/contracts/libraries/TickMath.sol\":3137:3144  absTick */\n      dup4\n        /* \"@uniswap/v3-core/contracts/libraries/TickMath.sol\":3137:3154  absTick & 0x10000 */\n      and\n        /* \"@uniswap/v3-core/contracts/libraries/TickMath.sol\":3137:3159  absTick & 0x10000 != 0 */\n      eq\n        /* \"@uniswap/v3-core/contracts/libraries/TickMath.sol\":3133:3219  if (absTick & 0x10000 != 0) ratio = (ratio * 0x9aa508b5b7a84e1c677de54f3e99bc9) >> 128 */\n      tag_139\n      jumpi\n        /* \"@uniswap/v3-core/contracts/libraries/TickMath.sol\":3216:3219  128 */\n      0x80\n        /* \"@uniswap/v3-core/contracts/libraries/TickMath.sol\":3178:3211  0x9aa508b5b7a84e1c677de54f3e99bc9 */\n      0x09aa508b5b7a84e1c677de54f3e99bc9\n        /* \"@uniswap/v3-core/contracts/libraries/TickMath.sol\":3170:3175  ratio */\n      dup3\n        /* \"@uniswap/v3-core/contracts/libraries/TickMath.sol\":3170:3211  ratio * 0x9aa508b5b7a84e1c677de54f3e99bc9 */\n      mul\n        /* \"@uniswap/v3-core/contracts/libraries/TickMath.sol\":3169:3219  (ratio * 0x9aa508b5b7a84e1c677de54f3e99bc9) >> 128 */\n      swap1\n      shr\n        /* \"@uniswap/v3-core/contracts/libraries/TickMath.sol\":3161:3219  ratio = (ratio * 0x9aa508b5b7a84e1c677de54f3e99bc9) >> 128 */\n      swap1\n      pop\n        /* \"@uniswap/v3-core/contracts/libraries/TickMath.sol\":3133:3219  if (absTick & 0x10000 != 0) ratio = (ratio * 0x9aa508b5b7a84e1c677de54f3e99bc9) >> 128 */\n    tag_139:\n        /* \"@uniswap/v3-core/contracts/libraries/TickMath.sol\":3254:3255  0 */\n      0x00\n        /* \"@uniswap/v3-core/contracts/libraries/TickMath.sol\":3243:3250  0x20000 */\n      0x020000\n        /* \"@uniswap/v3-core/contracts/libraries/TickMath.sol\":3233:3240  absTick */\n      dup4\n        /* \"@uniswap/v3-core/contracts/libraries/TickMath.sol\":3233:3250  absTick & 0x20000 */\n      and\n        /* \"@uniswap/v3-core/contracts/libraries/TickMath.sol\":3233:3255  absTick & 0x20000 != 0 */\n      eq\n        /* \"@uniswap/v3-core/contracts/libraries/TickMath.sol\":3229:3314  if (absTick & 0x20000 != 0) ratio = (ratio * 0x5d6af8dedb81196699c329225ee604) >> 128 */\n      tag_140\n      jumpi\n        /* \"@uniswap/v3-core/contracts/libraries/TickMath.sol\":3311:3314  128 */\n      0x80\n        /* \"@uniswap/v3-core/contracts/libraries/TickMath.sol\":3274:3306  0x5d6af8dedb81196699c329225ee604 */\n      0x5d6af8dedb81196699c329225ee604\n        /* \"@uniswap/v3-core/contracts/libraries/TickMath.sol\":3266:3271  ratio */\n      dup3\n        /* \"@uniswap/v3-core/contracts/libraries/TickMath.sol\":3266:3306  ratio * 0x5d6af8dedb81196699c329225ee604 */\n      mul\n        /* \"@uniswap/v3-core/contracts/libraries/TickMath.sol\":3265:3314  (ratio * 0x5d6af8dedb81196699c329225ee604) >> 128 */\n      swap1\n      shr\n        /* \"@uniswap/v3-core/contracts/libraries/TickMath.sol\":3257:3314  ratio = (ratio * 0x5d6af8dedb81196699c329225ee604) >> 128 */\n      swap1\n      pop\n        /* \"@uniswap/v3-core/contracts/libraries/TickMath.sol\":3229:3314  if (absTick & 0x20000 != 0) ratio = (ratio * 0x5d6af8dedb81196699c329225ee604) >> 128 */\n    tag_140:\n        /* \"@uniswap/v3-core/contracts/libraries/TickMath.sol\":3349:3350  0 */\n      0x00\n        /* \"@uniswap/v3-core/contracts/libraries/TickMath.sol\":3338:3345  0x40000 */\n      0x040000\n        /* \"@uniswap/v3-core/contracts/libraries/TickMath.sol\":3328:3335  absTick */\n      dup4\n        /* \"@uniswap/v3-core/contracts/libraries/TickMath.sol\":3328:3345  absTick & 0x40000 */\n      and\n        /* \"@uniswap/v3-core/contracts/libraries/TickMath.sol\":3328:3350  absTick & 0x40000 != 0 */\n      eq\n        /* \"@uniswap/v3-core/contracts/libraries/TickMath.sol\":3324:3407  if (absTick & 0x40000 != 0) ratio = (ratio * 0x2216e584f5fa1ea926041bedfe98) >> 128 */\n      tag_141\n      jumpi\n        /* \"@uniswap/v3-core/contracts/libraries/TickMath.sol\":3404:3407  128 */\n      0x80\n        /* \"@uniswap/v3-core/contracts/libraries/TickMath.sol\":3369:3399  0x2216e584f5fa1ea926041bedfe98 */\n      0x2216e584f5fa1ea926041bedfe98\n        /* \"@uniswap/v3-core/contracts/libraries/TickMath.sol\":3361:3366  ratio */\n      dup3\n        /* \"@uniswap/v3-core/contracts/libraries/TickMath.sol\":3361:3399  ratio * 0x2216e584f5fa1ea926041bedfe98 */\n      mul\n        /* \"@uniswap/v3-core/contracts/libraries/TickMath.sol\":3360:3407  (ratio * 0x2216e584f5fa1ea926041bedfe98) >> 128 */\n      swap1\n      shr\n        /* \"@uniswap/v3-core/contracts/libraries/TickMath.sol\":3352:3407  ratio = (ratio * 0x2216e584f5fa1ea926041bedfe98) >> 128 */\n      swap1\n      pop\n        /* \"@uniswap/v3-core/contracts/libraries/TickMath.sol\":3324:3407  if (absTick & 0x40000 != 0) ratio = (ratio * 0x2216e584f5fa1ea926041bedfe98) >> 128 */\n    tag_141:\n        /* \"@uniswap/v3-core/contracts/libraries/TickMath.sol\":3442:3443  0 */\n      0x00\n        /* \"@uniswap/v3-core/contracts/libraries/TickMath.sol\":3431:3438  0x80000 */\n      0x080000\n        /* \"@uniswap/v3-core/contracts/libraries/TickMath.sol\":3421:3428  absTick */\n      dup4\n        /* \"@uniswap/v3-core/contracts/libraries/TickMath.sol\":3421:3438  absTick & 0x80000 */\n      and\n        /* \"@uniswap/v3-core/contracts/libraries/TickMath.sol\":3421:3443  absTick & 0x80000 != 0 */\n      eq\n        /* \"@uniswap/v3-core/contracts/libraries/TickMath.sol\":3417:3495  if (absTick & 0x80000 != 0) ratio = (ratio * 0x48a170391f7dc42444e8fa2) >> 128 */\n      tag_142\n      jumpi\n        /* \"@uniswap/v3-core/contracts/libraries/TickMath.sol\":3492:3495  128 */\n      0x80\n        /* \"@uniswap/v3-core/contracts/libraries/TickMath.sol\":3462:3487  0x48a170391f7dc42444e8fa2 */\n      0x048a170391f7dc42444e8fa2\n        /* \"@uniswap/v3-core/contracts/libraries/TickMath.sol\":3454:3459  ratio */\n      dup3\n        /* \"@uniswap/v3-core/contracts/libraries/TickMath.sol\":3454:3487  ratio * 0x48a170391f7dc42444e8fa2 */\n      mul\n        /* \"@uniswap/v3-core/contracts/libraries/TickMath.sol\":3453:3495  (ratio * 0x48a170391f7dc42444e8fa2) >> 128 */\n      swap1\n      shr\n        /* \"@uniswap/v3-core/contracts/libraries/TickMath.sol\":3445:3495  ratio = (ratio * 0x48a170391f7dc42444e8fa2) >> 128 */\n      swap1\n      pop\n        /* \"@uniswap/v3-core/contracts/libraries/TickMath.sol\":3417:3495  if (absTick & 0x80000 != 0) ratio = (ratio * 0x48a170391f7dc42444e8fa2) >> 128 */\n    tag_142:\n        /* \"@uniswap/v3-core/contracts/libraries/TickMath.sol\":3517:3518  0 */\n      0x00\n        /* \"@uniswap/v3-core/contracts/libraries/TickMath.sol\":3510:3514  tick */\n      dup5\n        /* \"@uniswap/v3-core/contracts/libraries/TickMath.sol\":3510:3518  tick > 0 */\n      0x02\n      signextend\n      sgt\n        /* \"@uniswap/v3-core/contracts/libraries/TickMath.sol\":3506:3553  if (tick > 0) ratio = type(uint256).max / ratio */\n      iszero\n      tag_143\n      jumpi\n        /* \"@uniswap/v3-core/contracts/libraries/TickMath.sol\":3548:3553  ratio */\n      dup1\n        /* \"@uniswap/v3-core/contracts/libraries/TickMath.sol\":3528:3545  type(uint256).max */\n      0xffffffffffffffffffffffffffffffffffffffffffffffffffffffffffffffff\n        /* \"@uniswap/v3-core/contracts/libraries/TickMath.sol\":3528:3553  type(uint256).max / ratio */\n      dup2\n      tag_144\n      jumpi\n      invalid\n    tag_144:\n      div\n        /* \"@uniswap/v3-core/contracts/libraries/TickMath.sol\":3520:3553  ratio = type(uint256).max / ratio */\n      swap1\n      pop\n        /* \"@uniswap/v3-core/contracts/libraries/TickMath.sol\":3506:3553  if (tick > 0) ratio = type(uint256).max / ratio */\n    tag_143:\n        /* \"@uniswap/v3-core/contracts/libraries/TickMath.sol\":3924:3925  0 */\n      0x00\n        /* \"@uniswap/v3-core/contracts/libraries/TickMath.sol\":3912:3919  1 << 32 */\n      0x0100000000\n        /* \"@uniswap/v3-core/contracts/libraries/TickMath.sol\":3903:3908  ratio */\n      dup3\n        /* \"@uniswap/v3-core/contracts/libraries/TickMath.sol\":3903:3920  ratio % (1 << 32) */\n      dup2\n      tag_145\n      jumpi\n      invalid\n    tag_145:\n      mod\n        /* \"@uniswap/v3-core/contracts/libraries/TickMath.sol\":3903:3925  ratio % (1 << 32) == 0 */\n      eq\n        /* \"@uniswap/v3-core/contracts/libraries/TickMath.sol\":3903:3933  ratio % (1 << 32) == 0 ? 0 : 1 */\n      tag_146\n      jumpi\n        /* \"@uniswap/v3-core/contracts/libraries/TickMath.sol\":3932:3933  1 */\n      0x01\n        /* \"@uniswap/v3-core/contracts/libraries/TickMath.sol\":3903:3933  ratio % (1 << 32) == 0 ? 0 : 1 */\n      jump(tag_147)\n    tag_146:\n        /* \"@uniswap/v3-core/contracts/libraries/TickMath.sol\":3928:3929  0 */\n      0x00\n        /* \"@uniswap/v3-core/contracts/libraries/TickMath.sol\":3903:3933  ratio % (1 << 32) == 0 ? 0 : 1 */\n    tag_147:\n        /* \"@uniswap/v3-core/contracts/libraries/TickMath.sol\":3886:3934  (ratio >> 32) + (ratio % (1 << 32) == 0 ? 0 : 1) */\n      0xff\n      and\n        /* \"@uniswap/v3-core/contracts/libraries/TickMath.sol\":3896:3898  32 */\n      0x20\n        /* \"@uniswap/v3-core/contracts/libraries/TickMath.sol\":3887:3892  ratio */\n      dup3\n        /* \"@uniswap/v3-core/contracts/libraries/TickMath.sol\":3887:3898  ratio >> 32 */\n      swap1\n      shr\n        /* \"@uniswap/v3-core/contracts/libraries/TickMath.sol\":3886:3934  (ratio >> 32) + (ratio % (1 << 32) == 0 ? 0 : 1) */\n      add\n        /* \"@uniswap/v3-core/contracts/libraries/TickMath.sol\":3863:3935  sqrtPriceX96 = uint160((ratio >> 32) + (ratio % (1 << 32) == 0 ? 0 : 1)) */\n      swap3\n      pop\n        /* \"@uniswap/v3-core/contracts/libraries/TickMath.sol\":1362:3942  function getSqrtRatioAtTick(int24 tick) internal pure returns (uint160 sqrtPriceX96) {... */\n      pop\n      pop\n      swap2\n      swap1\n      pop\n      jump\t// out\n        /* \"@uniswap/v3-core/contracts/libraries/FullMath.sol\":749:4525  function mulDiv(... */\n    tag_107:\n        /* \"@uniswap/v3-core/contracts/libraries/FullMath.sol\":861:875  uint256 result */\n      0x00\n        /* \"@uniswap/v3-core/contracts/libraries/FullMath.sol\":1190:1203  uint256 prod0 */\n      dup1\n        /* \"@uniswap/v3-core/contracts/libraries/FullMath.sol\":1258:1271  uint256 prod1 */\n      0x00\n        /* \"@uniswap/v3-core/contracts/libraries/FullMath.sol\":1375:1376  0 */\n      dup1\n        /* \"@uniswap/v3-core/contracts/libraries/FullMath.sol\":1371:1377  not(0) */\n      not\n        /* \"@uniswap/v3-core/contracts/libraries/FullMath.sol\":1368:1369  b */\n      dup6\n        /* \"@uniswap/v3-core/contracts/libraries/FullMath.sol\":1365:1366  a */\n      dup8\n        /* \"@uniswap/v3-core/contracts/libraries/FullMath.sol\":1358:1378  mulmod(a, b, not(0)) */\n      mulmod\n        /* \"@uniswap/v3-core/contracts/libraries/FullMath.sol\":1407:1408  b */\n      dup6\n        /* \"@uniswap/v3-core/contracts/libraries/FullMath.sol\":1404:1405  a */\n      dup8\n        /* \"@uniswap/v3-core/contracts/libraries/FullMath.sol\":1400:1409  mul(a, b) */\n      mul\n        /* \"@uniswap/v3-core/contracts/libraries/FullMath.sol\":1391:1409  prod0 := mul(a, b) */\n      swap3\n      pop\n        /* \"@uniswap/v3-core/contracts/libraries/FullMath.sol\":1458:1463  prod0 */\n      dup3\n        /* \"@uniswap/v3-core/contracts/libraries/FullMath.sol\":1454:1456  mm */\n      dup2\n        /* \"@uniswap/v3-core/contracts/libraries/FullMath.sol\":1451:1464  lt(mm, prod0) */\n      lt\n        /* \"@uniswap/v3-core/contracts/libraries/FullMath.sol\":1443:1448  prod0 */\n      dup4\n        /* \"@uniswap/v3-core/contracts/libraries/FullMath.sol\":1439:1441  mm */\n      dup3\n        /* \"@uniswap/v3-core/contracts/libraries/FullMath.sol\":1435:1449  sub(mm, prod0) */\n      sub\n        /* \"@uniswap/v3-core/contracts/libraries/FullMath.sol\":1431:1465  sub(sub(mm, prod0), lt(mm, prod0)) */\n      sub\n        /* \"@uniswap/v3-core/contracts/libraries/FullMath.sol\":1422:1465  prod1 := sub(sub(mm, prod0), lt(mm, prod0)) */\n      swap2\n      pop\n        /* \"@uniswap/v3-core/contracts/libraries/FullMath.sol\":1334:1475  {... */\n      pop\n        /* \"@uniswap/v3-core/contracts/libraries/FullMath.sol\":1556:1557  0 */\n      0x00\n        /* \"@uniswap/v3-core/contracts/libraries/FullMath.sol\":1547:1552  prod1 */\n      dup2\n        /* \"@uniswap/v3-core/contracts/libraries/FullMath.sol\":1547:1557  prod1 == 0 */\n      eq\n        /* \"@uniswap/v3-core/contracts/libraries/FullMath.sol\":1543:1722  if (prod1 == 0) {... */\n      iszero\n      tag_149\n      jumpi\n        /* \"@uniswap/v3-core/contracts/libraries/FullMath.sol\":1595:1596  0 */\n      0x00\n        /* \"@uniswap/v3-core/contracts/libraries/FullMath.sol\":1581:1592  denominator */\n      dup5\n        /* \"@uniswap/v3-core/contracts/libraries/FullMath.sol\":1581:1596  denominator > 0 */\n      gt\n        /* \"@uniswap/v3-core/contracts/libraries/FullMath.sol\":1573:1597  require(denominator > 0) */\n      tag_150\n      jumpi\n      0x00\n      dup1\n      revert\n    tag_150:\n        /* \"@uniswap/v3-core/contracts/libraries/FullMath.sol\":1659:1670  denominator */\n      dup4\n        /* \"@uniswap/v3-core/contracts/libraries/FullMath.sol\":1652:1657  prod0 */\n      dup3\n        /* \"@uniswap/v3-core/contracts/libraries/FullMath.sol\":1648:1671  div(prod0, denominator) */\n      div\n        /* \"@uniswap/v3-core/contracts/libraries/FullMath.sol\":1638:1671  result := div(prod0, denominator) */\n      swap3\n      pop\n        /* \"@uniswap/v3-core/contracts/libraries/FullMath.sol\":1698:1711  return result */\n      pop\n      pop\n      jump(tag_148)\n        /* \"@uniswap/v3-core/contracts/libraries/FullMath.sol\":1543:1722  if (prod1 == 0) {... */\n    tag_149:\n        /* \"@uniswap/v3-core/contracts/libraries/FullMath.sol\":1849:1854  prod1 */\n      dup1\n        /* \"@uniswap/v3-core/contracts/libraries/FullMath.sol\":1835:1846  denominator */\n      dup5\n        /* \"@uniswap/v3-core/contracts/libraries/FullMath.sol\":1835:1854  denominator > prod1 */\n      gt\n        /* \"@uniswap/v3-core/contracts/libraries/FullMath.sol\":1827:1855  require(denominator > prod1) */\n      tag_151\n      jumpi\n      0x00\n      dup1\n      revert\n    tag_151:\n        /* \"@uniswap/v3-core/contracts/libraries/FullMath.sol\":2132:2149  uint256 remainder */\n      0x00\n        /* \"@uniswap/v3-core/contracts/libraries/FullMath.sol\":2208:2219  denominator */\n      dup5\n        /* \"@uniswap/v3-core/contracts/libraries/FullMath.sol\":2205:2206  b */\n      dup7\n        /* \"@uniswap/v3-core/contracts/libraries/FullMath.sol\":2202:2203  a */\n      dup9\n        /* \"@uniswap/v3-core/contracts/libraries/FullMath.sol\":2195:2220  mulmod(a, b, denominator) */\n      mulmod\n        /* \"@uniswap/v3-core/contracts/libraries/FullMath.sol\":2182:2220  remainder := mulmod(a, b, denominator) */\n      swap1\n      pop\n        /* \"@uniswap/v3-core/contracts/libraries/FullMath.sol\":2351:2356  prod0 */\n      dup3\n        /* \"@uniswap/v3-core/contracts/libraries/FullMath.sol\":2340:2349  remainder */\n      dup2\n        /* \"@uniswap/v3-core/contracts/libraries/FullMath.sol\":2337:2357  gt(remainder, prod0) */\n      gt\n        /* \"@uniswap/v3-core/contracts/libraries/FullMath.sol\":2330:2335  prod1 */\n      dup3\n        /* \"@uniswap/v3-core/contracts/libraries/FullMath.sol\":2326:2358  sub(prod1, gt(remainder, prod0)) */\n      sub\n        /* \"@uniswap/v3-core/contracts/libraries/FullMath.sol\":2317:2358  prod1 := sub(prod1, gt(remainder, prod0)) */\n      swap2\n      pop\n        /* \"@uniswap/v3-core/contracts/libraries/FullMath.sol\":2391:2400  remainder */\n      dup1\n        /* \"@uniswap/v3-core/contracts/libraries/FullMath.sol\":2384:2389  prod0 */\n      dup4\n        /* \"@uniswap/v3-core/contracts/libraries/FullMath.sol\":2380:2401  sub(prod0, remainder) */\n      sub\n        /* \"@uniswap/v3-core/contracts/libraries/FullMath.sol\":2371:2401  prod0 := sub(prod0, remainder) */\n      swap3\n      pop\n        /* \"@uniswap/v3-core/contracts/libraries/FullMath.sol\":2560:2572  uint256 twos */\n      0x00\n        /* \"@uniswap/v3-core/contracts/libraries/FullMath.sol\":2590:2601  denominator */\n      dup6\n        /* \"@uniswap/v3-core/contracts/libraries/FullMath.sol\":2576:2587  denominator */\n      dup7\n        /* \"@uniswap/v3-core/contracts/libraries/FullMath.sol\":2575:2587  -denominator */\n      0x00\n      sub\n        /* \"@uniswap/v3-core/contracts/libraries/FullMath.sol\":2575:2601  -denominator & denominator */\n      and\n        /* \"@uniswap/v3-core/contracts/libraries/FullMath.sol\":2560:2601  uint256 twos = -denominator & denominator */\n      swap1\n      pop\n        /* \"@uniswap/v3-core/contracts/libraries/FullMath.sol\":2712:2716  twos */\n      dup1\n        /* \"@uniswap/v3-core/contracts/libraries/FullMath.sol\":2699:2710  denominator */\n      dup7\n        /* \"@uniswap/v3-core/contracts/libraries/FullMath.sol\":2695:2717  div(denominator, twos) */\n      div\n        /* \"@uniswap/v3-core/contracts/libraries/FullMath.sol\":2680:2717  denominator := div(denominator, twos) */\n      swap6\n      pop\n        /* \"@uniswap/v3-core/contracts/libraries/FullMath.sol\":2834:2838  twos */\n      dup1\n        /* \"@uniswap/v3-core/contracts/libraries/FullMath.sol\":2827:2832  prod0 */\n      dup5\n        /* \"@uniswap/v3-core/contracts/libraries/FullMath.sol\":2823:2839  div(prod0, twos) */\n      div\n        /* \"@uniswap/v3-core/contracts/libraries/FullMath.sol\":2814:2839  prod0 := div(prod0, twos) */\n      swap4\n      pop\n        /* \"@uniswap/v3-core/contracts/libraries/FullMath.sol\":3088:3089  1 */\n      0x01\n        /* \"@uniswap/v3-core/contracts/libraries/FullMath.sol\":3081:3085  twos */\n      dup2\n        /* \"@uniswap/v3-core/contracts/libraries/FullMath.sol\":3074:3078  twos */\n      dup3\n        /* \"@uniswap/v3-core/contracts/libraries/FullMath.sol\":3071:3072  0 */\n      0x00\n        /* \"@uniswap/v3-core/contracts/libraries/FullMath.sol\":3067:3079  sub(0, twos) */\n      sub\n        /* \"@uniswap/v3-core/contracts/libraries/FullMath.sol\":3063:3086  div(sub(0, twos), twos) */\n      div\n        /* \"@uniswap/v3-core/contracts/libraries/FullMath.sol\":3059:3090  add(div(sub(0, twos), twos), 1) */\n      add\n        /* \"@uniswap/v3-core/contracts/libraries/FullMath.sol\":3051:3090  twos := add(div(sub(0, twos), twos), 1) */\n      swap1\n      pop\n        /* \"@uniswap/v3-core/contracts/libraries/FullMath.sol\":3126:3130  twos */\n      dup1\n        /* \"@uniswap/v3-core/contracts/libraries/FullMath.sol\":3118:3123  prod1 */\n      dup4\n        /* \"@uniswap/v3-core/contracts/libraries/FullMath.sol\":3118:3130  prod1 * twos */\n      mul\n        /* \"@uniswap/v3-core/contracts/libraries/FullMath.sol\":3109:3130  prod0 |= prod1 * twos */\n      dup5\n      or\n      swap4\n      pop\n        /* \"@uniswap/v3-core/contracts/libraries/FullMath.sol\":3464:3475  uint256 inv */\n      0x00\n        /* \"@uniswap/v3-core/contracts/libraries/FullMath.sol\":3498:3499  2 */\n      0x02\n        /* \"@uniswap/v3-core/contracts/libraries/FullMath.sol\":3483:3494  denominator */\n      dup8\n        /* \"@uniswap/v3-core/contracts/libraries/FullMath.sol\":3479:3480  3 */\n      0x03\n        /* \"@uniswap/v3-core/contracts/libraries/FullMath.sol\":3479:3494  3 * denominator */\n      mul\n        /* \"@uniswap/v3-core/contracts/libraries/FullMath.sol\":3478:3499  (3 * denominator) ^ 2 */\n      xor\n        /* \"@uniswap/v3-core/contracts/libraries/FullMath.sol\":3464:3499  uint256 inv = (3 * denominator) ^ 2 */\n      swap1\n      pop\n        /* \"@uniswap/v3-core/contracts/libraries/FullMath.sol\":3739:3742  inv */\n      dup1\n        /* \"@uniswap/v3-core/contracts/libraries/FullMath.sol\":3725:3736  denominator */\n      dup8\n        /* \"@uniswap/v3-core/contracts/libraries/FullMath.sol\":3725:3742  denominator * inv */\n      mul\n        /* \"@uniswap/v3-core/contracts/libraries/FullMath.sol\":3721:3722  2 */\n      0x02\n        /* \"@uniswap/v3-core/contracts/libraries/FullMath.sol\":3721:3742  2 - denominator * inv */\n      sub\n        /* \"@uniswap/v3-core/contracts/libraries/FullMath.sol\":3714:3742  inv *= 2 - denominator * inv */\n      dup2\n      mul\n      swap1\n      pop\n        /* \"@uniswap/v3-core/contracts/libraries/FullMath.sol\":3797:3800  inv */\n      dup1\n        /* \"@uniswap/v3-core/contracts/libraries/FullMath.sol\":3783:3794  denominator */\n      dup8\n        /* \"@uniswap/v3-core/contracts/libraries/FullMath.sol\":3783:3800  denominator * inv */\n      mul\n        /* \"@uniswap/v3-core/contracts/libraries/FullMath.sol\":3779:3780  2 */\n      0x02\n        /* \"@uniswap/v3-core/contracts/libraries/FullMath.sol\":3779:3800  2 - denominator * inv */\n      sub\n        /* \"@uniswap/v3-core/contracts/libraries/FullMath.sol\":3772:3800  inv *= 2 - denominator * inv */\n      dup2\n      mul\n      swap1\n      pop\n        /* \"@uniswap/v3-core/contracts/libraries/FullMath.sol\":3856:3859  inv */\n      dup1\n        /* \"@uniswap/v3-core/contracts/libraries/FullMath.sol\":3842:3853  denominator */\n      dup8\n        /* \"@uniswap/v3-core/contracts/libraries/FullMath.sol\":3842:3859  denominator * inv */\n      mul\n        /* \"@uniswap/v3-core/contracts/libraries/FullMath.sol\":3838:3839  2 */\n      0x02\n        /* \"@uniswap/v3-core/contracts/libraries/FullMath.sol\":3838:3859  2 - denominator * inv */\n      sub\n        /* \"@uniswap/v3-core/contracts/libraries/FullMath.sol\":3831:3859  inv *= 2 - denominator * inv */\n      dup2\n      mul\n      swap1\n      pop\n        /* \"@uniswap/v3-core/contracts/libraries/FullMath.sol\":3915:3918  inv */\n      dup1\n        /* \"@uniswap/v3-core/contracts/libraries/FullMath.sol\":3901:3912  denominator */\n      dup8\n        /* \"@uniswap/v3-core/contracts/libraries/FullMath.sol\":3901:3918  denominator * inv */\n      mul\n        /* \"@uniswap/v3-core/contracts/libraries/FullMath.sol\":3897:3898  2 */\n      0x02\n        /* \"@uniswap/v3-core/contracts/libraries/FullMath.sol\":3897:3918  2 - denominator * inv */\n      sub\n        /* \"@uniswap/v3-core/contracts/libraries/FullMath.sol\":3890:3918  inv *= 2 - denominator * inv */\n      dup2\n      mul\n      swap1\n      pop\n        /* \"@uniswap/v3-core/contracts/libraries/FullMath.sol\":3974:3977  inv */\n      dup1\n        /* \"@uniswap/v3-core/contracts/libraries/FullMath.sol\":3960:3971  denominator */\n      dup8\n        /* \"@uniswap/v3-core/contracts/libraries/FullMath.sol\":3960:3977  denominator * inv */\n      mul\n        /* \"@uniswap/v3-core/contracts/libraries/FullMath.sol\":3956:3957  2 */\n      0x02\n        /* \"@uniswap/v3-core/contracts/libraries/FullMath.sol\":3956:3977  2 - denominator * inv */\n      sub\n        /* \"@uniswap/v3-core/contracts/libraries/FullMath.sol\":3949:3977  inv *= 2 - denominator * inv */\n      dup2\n      mul\n      swap1\n      pop\n        /* \"@uniswap/v3-core/contracts/libraries/FullMath.sol\":4034:4037  inv */\n      dup1\n        /* \"@uniswap/v3-core/contracts/libraries/FullMath.sol\":4020:4031  denominator */\n      dup8\n        /* \"@uniswap/v3-core/contracts/libraries/FullMath.sol\":4020:4037  denominator * inv */\n      mul\n        /* \"@uniswap/v3-core/contracts/libraries/FullMath.sol\":4016:4017  2 */\n      0x02\n        /* \"@uniswap/v3-core/contracts/libraries/FullMath.sol\":4016:4037  2 - denominator * inv */\n      sub\n        /* \"@uniswap/v3-core/contracts/libraries/FullMath.sol\":4009:4037  inv *= 2 - denominator * inv */\n      dup2\n      mul\n      swap1\n      pop\n        /* \"@uniswap/v3-core/contracts/libraries/FullMath.sol\":4492:4495  inv */\n      dup1\n        /* \"@uniswap/v3-core/contracts/libraries/FullMath.sol\":4484:4489  prod0 */\n      dup6\n        /* \"@uniswap/v3-core/contracts/libraries/FullMath.sol\":4484:4495  prod0 * inv */\n      mul\n        /* \"@uniswap/v3-core/contracts/libraries/FullMath.sol\":4475:4495  result = prod0 * inv */\n      swap6\n      pop\n        /* \"@uniswap/v3-core/contracts/libraries/FullMath.sol\":4505:4518  return result */\n      pop\n      pop\n      pop\n      pop\n      pop\n        /* \"@uniswap/v3-core/contracts/libraries/FullMath.sol\":749:4525  function mulDiv(... */\n    tag_148:\n      swap4\n      swap3\n      pop\n      pop\n      pop\n      jump\t// out\n\n    auxdata: 0xa264697066735822122068f803e1627bee188d86f2f6715daf5d3a556b181410105aac5407949364cdcc64736f6c63430007060033\n}\n",
				"bytecode": {
					"linkReferences": {},
					"object": "608060405234801561001057600080fd5b506115b9806100206000396000f3fe608060405234801561001057600080fd5b50600436106100625760003560e01c806317fdaffa146100675780633fc8cef3146100ca57806385f7ae8f146100fe578063906d67ea1461015d578063a0152b3a146101a5578063fc0c546a146101f7575b600080fd5b6100b46004803603608081101561007d57600080fd5b81019080803590602001909291908035906020019092919080359060200190929190803560ff16906020019092919050505061022b565b6040518082815260200191505060405180910390f35b6100d2610305565b604051808273ffffffffffffffffffffffffffffffffffffffff16815260200191505060405180910390f35b6101476004803603606081101561011457600080fd5b8101908080359060200190929190803563ffffffff169060200190929190803560ff16906020019092919050505061031d565b6040518082815260200191505060405180910390f35b61018f6004803603602081101561017357600080fd5b81019080803563ffffffff169060200190929190505050610572565b6040518082815260200191505060405180910390f35b6101e1600480360360408110156101bb57600080fd5b8101908080359060200190929190803563ffffffff169060200190929190505050610723565b6040518082815260200191505060405180910390f35b6101ff6107e6565b604051808273ffffffffffffffffffffffffffffffffffffffff16815260200191505060405180910390f35b600080670de0b6b3a7640000905060006001905060008460ff161115610255578360ff16600a0a90505b6000670de0b6b3a76400008787028161026a57fe5b049050600081116102e3576040517f08c379a000000000000000000000000000000000000000000000000000000000815260040180806020018281038252601f8152602001807f5072696365206d7573742062652067726561746572207468616e207a65726f0081525060200191505060405180910390fd5b60006064838a020290508181816102f657fe5b04945050505050949350505050565b737b79995e5f793a07bc00c21412e50ecae098e7f981565b60008061032984610572565b9050600073f623109f16fdf8ef1da0830c5b1c7ba9dba4a06e73ffffffffffffffffffffffffffffffffffffffff1663a0a8045e6040518163ffffffff1660e01b815260040160206040518083038186803b15801561038757600080fd5b505afa15801561039b573d6000803e3d6000fd5b505050506040513d60208110156103b157600080fd5b810190808051906020019092919050505090506000821161043a576040517f08c379a00000000000000000000000000000000000000000000000000000000081526004018080602001828103825260188152602001807f546f6b656e2f455448207072696365206973207a65726f2e000000000000000081525060200191505060405180910390fd5b600081116104b0576040517f08c379a00000000000000000000000000000000000000000000000000000000081526004018080602001828103825260168152602001807f4554482f555344207072696365206973207a65726f2e0000000000000000000081525060200191505060405180910390fd5b600081830290506000811161052d576040517f08c379a000000000000000000000000000000000000000000000000000000000815260040180806020018281038252601a8152602001807f50726963652064656e6f6d696e61746f72206973207a65726f2e00000000000081525060200191505060405180910390fd5b60008560ff16600a0a90506000670de0b6b3a7640000890290506000620f4240820290506000838202905084818161056157fe5b049750505050505050509392505050565b60008061057d6107fe565b9050600061058b82856108a3565b5090506000731c7d4b196cb0c7b01d743fbc6116a902379c723873ffffffffffffffffffffffffffffffffffffffff1663313ce5676040518163ffffffff1660e01b815260040160206040518083038186803b1580156105ea57600080fd5b505afa1580156105fe573d6000803e3d6000fd5b505050506040513d602081101561061457600080fd5b81019080805190602001909291905050509050600060068260ff16141561064057620f424090506106e4565b60088260ff161415610658576305f5e10090506106e3565b60128260ff16141561067457670de0b6b3a764000090506106e2565b6040517f08c379a00000000000000000000000000000000000000000000000000000000081526004018080602001828103825260168152602001807f6e6f7420617661696c61626c6520696e74657276616c0000000000000000000081525060200191505060405180910390fd5b5b5b6107188382731c7d4b196cb0c7b01d743fbc6116a902379c7238737b79995e5f793a07bc00c21412e50ecae098e7f9610d10565b945050505050919050565b60008061072f83610572565b9050600073f623109f16fdf8ef1da0830c5b1c7ba9dba4a06e73ffffffffffffffffffffffffffffffffffffffff1663a0a8045e6040518163ffffffff1660e01b815260040160206040518083038186803b15801561078d57600080fd5b505afa1580156107a1573d6000803e3d6000fd5b505050506040513d60208110156107b757600080fd5b81019080805190602001909291905050509050600081830290508086816107da57fe5b04935050505092915050565b731c7d4b196cb0c7b01d743fbc6116a902379c723881565b6000806040518060600160405280731c7d4b196cb0c7b01d743fbc6116a902379c723873ffffffffffffffffffffffffffffffffffffffff168152602001737b79995e5f793a07bc00c21412e50ecae098e7f973ffffffffffffffffffffffffffffffffffffffff168152602001610bb862ffffff1681525090506000610899730227628f3f023bb0b980b67d528571c95c6dac1c83610f13565b9050809250505090565b60008060008363ffffffff161415610923576040517f08c379a00000000000000000000000000000000000000000000000000000000081526004018080602001828103825260028152602001807f425000000000000000000000000000000000000000000000000000000000000081525060200191505060405180910390fd5b6000600267ffffffffffffffff8111801561093d57600080fd5b5060405190808252806020026020018201604052801561096c5781602001602082028036833780820191505090505b509050838160008151811061097d57fe5b602002602001019063ffffffff16908163ffffffff16815250506000816001815181106109a657fe5b602002602001019063ffffffff16908163ffffffff16815250506000808673ffffffffffffffffffffffffffffffffffffffff1663883bdbfd846040518263ffffffff1660e01b81526004018080602001828103825283818151815260200191508051906020019060200280838360005b83811015610a32578082015181840152602081019050610a17565b505050509050019250505060006040518083038186803b158015610a5557600080fd5b505afa158015610a69573d6000803e3d6000fd5b505050506040513d6000823e3d601f19601f820116820180604052506040811015610a9357600080fd5b8101908080516040519392919084640100000000821115610ab357600080fd5b83820191506020820185811115610ac957600080fd5b8251866020820283011164010000000082111715610ae657600080fd5b8083526020830192505050908051906020019060200280838360005b83811015610b1d578082015181840152602081019050610b02565b5050505090500160405260200180516040519392919084640100000000821115610b4657600080fd5b83820191506020820185811115610b5c57600080fd5b8251866020820283011164010000000082111715610b7957600080fd5b8083526020830192505050908051906020019060200280838360005b83811015610bb0578082015181840152602081019050610b95565b5050505090500160405250505091509150600082600081518110610bd057fe5b602002602001015183600181518110610be557fe5b6020026020010151039050600082600081518110610bff57fe5b602002602001015183600181518110610c1457fe5b60200260200101510390508763ffffffff168260060b81610c3157fe5b05965060008260060b128015610c5d575060008863ffffffff168360060b81610c5657fe5b0760060b14155b15610c6c578680600190039750505b600073ffffffffffffffffffffffffffffffffffffffff80168963ffffffff1602905060208273ffffffffffffffffffffffffffffffffffffffff1677ffffffffffffffffffffffffffffffffffffffffffffffff16901b77ffffffffffffffffffffffffffffffffffffffffffffffff168177ffffffffffffffffffffffffffffffffffffffffffffffff1681610d0057fe5b0496505050505050509250929050565b600080610d1c8661106e565b90506fffffffffffffffffffffffffffffffff80168173ffffffffffffffffffffffffffffffffffffffff1611610e2d5760008173ffffffffffffffffffffffffffffffffffffffff168273ffffffffffffffffffffffffffffffffffffffff160290508373ffffffffffffffffffffffffffffffffffffffff168573ffffffffffffffffffffffffffffffffffffffff1610610dee57610de97801000000000000000000000000000000000000000000000000876fffffffffffffffffffffffffffffffff16836114a9565b610e25565b610e2481876fffffffffffffffffffffffffffffffff1678010000000000000000000000000000000000000000000000006114a9565b5b925050610f0a565b6000610e6f8273ffffffffffffffffffffffffffffffffffffffff168373ffffffffffffffffffffffffffffffffffffffff16680100000000000000006114a9565b90508373ffffffffffffffffffffffffffffffffffffffff168573ffffffffffffffffffffffffffffffffffffffff1610610ed757610ed2700100000000000000000000000000000000876fffffffffffffffffffffffffffffffff16836114a9565b610f06565b610f0581876fffffffffffffffffffffffffffffffff167001000000000000000000000000000000006114a9565b5b9250505b50949350505050565b6000816020015173ffffffffffffffffffffffffffffffffffffffff16826000015173ffffffffffffffffffffffffffffffffffffffff1610610f5557600080fd5b82826000015183602001518460400151604051602001808473ffffffffffffffffffffffffffffffffffffffff1681526020018373ffffffffffffffffffffffffffffffffffffffff1681526020018262ffffff1681526020019350505050604051602081830303815290604052805190602001207fe34f199b19b2b4f47f68442619d555527d244f78a3297ea89325f843f87b8b5460001b60405160200180807fff000000000000000000000000000000000000000000000000000000000000008152506001018473ffffffffffffffffffffffffffffffffffffffff1660601b815260140183815260200182815260200193505050506040516020818303038152906040528051906020012060001c905092915050565b60008060008360020b12611085578260020b61108d565b8260020b6000035b90507ffffffffffffffffffffffffffffffffffffffffffffffffffffffffffff2761860000360020b81111561112b576040517f08c379a00000000000000000000000000000000000000000000000000000000081526004018080602001828103825260018152602001807f540000000000000000000000000000000000000000000000000000000000000081525060200191505060405180910390fd5b60008060018316141561114f57700100000000000000000000000000000000611161565b6ffffcb933bd6fad37aa2d162d1a5940015b70ffffffffffffffffffffffffffffffffff1690506000600283161461119b5760806ffff97272373d413259a46990580e213a8202901c90505b600060048316146111c05760806ffff2e50f5f656932ef12357cf3c7fdcc8202901c90505b600060088316146111e55760806fffe5caca7e10e4e61c3624eaa0941cd08202901c90505b6000601083161461120a5760806fffcb9843d60f6159c9db58835c9266448202901c90505b6000602083161461122f5760806fff973b41fa98c081472e6896dfb254c08202901c90505b600060408316146112545760806fff2ea16466c96a3843ec78b326b528618202901c90505b600060808316146112795760806ffe5dee046a99a2a811c461f1969c30538202901c90505b600061010083161461129f5760806ffcbe86c7900a88aedcffc83b479aa3a48202901c90505b60006102008316146112c55760806ff987a7253ac413176f2b074cf7815e548202901c90505b60006104008316146112eb5760806ff3392b0822b70005940c7a398e4b70f38202901c90505b60006108008316146113115760806fe7159475a2c29b7443b29c7fa6e889d98202901c90505b60006110008316146113375760806fd097f3bdfd2022b8845ad8f792aa58258202901c90505b600061200083161461135d5760806fa9f746462d870fdf8a65dc1f90e061e58202901c90505b60006140008316146113835760806f70d869a156d2a1b890bb3df62baf32f78202901c90505b60006180008316146113a95760806f31be135f97d08fd981231505542fcfa68202901c90505b6000620100008316146113d05760806f09aa508b5b7a84e1c677de54f3e99bc98202901c90505b6000620200008316146113f65760806e5d6af8dedb81196699c329225ee6048202901c90505b60006204000083161461141b5760806d2216e584f5fa1ea926041bedfe988202901c90505b60006208000083161461143e5760806b048a170391f7dc42444e8fa28202901c90505b60008460020b131561147757807fffffffffffffffffffffffffffffffffffffffffffffffffffffffffffffffff8161147357fe5b0490505b6000640100000000828161148757fe5b0614611494576001611497565b60005b60ff16602082901c0192505050919050565b6000806000801985870985870292508281108382030391505060008114156114e457600084116114d857600080fd5b8382049250505061157c565b8084116114f057600080fd5b600084868809905082811182039150808303925060008586600003169050808604955080840493506001818260000304019050808302841793506000600287600302189050808702600203810290508087026002038102905080870260020381029050808702600203810290508087026002038102905080870260020381029050808502955050505050505b939250505056fea264697066735822122068f803e1627bee188d86f2f6715daf5d3a556b181410105aac5407949364cdcc64736f6c63430007060033",
					"opcodes": "PUSH1 0x80 PUSH1 0x40 MSTORE CALLVALUE DUP1 ISZERO PUSH2 0x10 JUMPI PUSH1 0x0 DUP1 REVERT JUMPDEST POP PUSH2 0x15B9 DUP1 PUSH2 0x20 PUSH1 0x0 CODECOPY PUSH1 0x0 RETURN INVALID PUSH1 0x80 PUSH1 0x40 MSTORE CALLVALUE DUP1 ISZERO PUSH2 0x10 JUMPI PUSH1 0x0 DUP1 REVERT JUMPDEST POP PUSH1 0x4 CALLDATASIZE LT PUSH2 0x62 JUMPI PUSH1 0x0 CALLDATALOAD PUSH1 0xE0 SHR DUP1 PUSH4 0x17FDAFFA EQ PUSH2 0x67 JUMPI DUP1 PUSH4 0x3FC8CEF3 EQ PUSH2 0xCA JUMPI DUP1 PUSH4 0x85F7AE8F EQ PUSH2 0xFE JUMPI DUP1 PUSH4 0x906D67EA EQ PUSH2 0x15D JUMPI DUP1 PUSH4 0xA0152B3A EQ PUSH2 0x1A5 JUMPI DUP1 PUSH4 0xFC0C546A EQ PUSH2 0x1F7 JUMPI JUMPDEST PUSH1 0x0 DUP1 REVERT JUMPDEST PUSH2 0xB4 PUSH1 0x4 DUP1 CALLDATASIZE SUB PUSH1 0x80 DUP2 LT ISZERO PUSH2 0x7D JUMPI PUSH1 0x0 DUP1 REVERT JUMPDEST DUP2 ADD SWAP1 DUP1 DUP1 CALLDATALOAD SWAP1 PUSH1 0x20 ADD SWAP1 SWAP3 SWAP2 SWAP1 DUP1 CALLDATALOAD SWAP1 PUSH1 0x20 ADD SWAP1 SWAP3 SWAP2 SWAP1 DUP1 CALLDATALOAD SWAP1 PUSH1 0x20 ADD SWAP1 SWAP3 SWAP2 SWAP1 DUP1 CALLDATALOAD PUSH1 0xFF AND SWAP1 PUSH1 0x20 ADD SWAP1 SWAP3 SWAP2 SWAP1 POP POP POP PUSH2 0x22B JUMP JUMPDEST PUSH1 0x40 MLOAD DUP1 DUP3 DUP2 MSTORE PUSH1 0x20 ADD SWAP2 POP POP PUSH1 0x40 MLOAD DUP1 SWAP2 SUB SWAP1 RETURN JUMPDEST PUSH2 0xD2 PUSH2 0x305 JUMP JUMPDEST PUSH1 0x40 MLOAD DUP1 DUP3 PUSH20 0xFFFFFFFFFFFFFFFFFFFFFFFFFFFFFFFFFFFFFFFF AND DUP2 MSTORE PUSH1 0x20 ADD SWAP2 POP POP PUSH1 0x40 MLOAD DUP1 SWAP2 SUB SWAP1 RETURN JUMPDEST PUSH2 0x147 PUSH1 0x4 DUP1 CALLDATASIZE SUB PUSH1 0x60 DUP2 LT ISZERO PUSH2 0x114 JUMPI PUSH1 0x0 DUP1 REVERT JUMPDEST DUP2 ADD SWAP1 DUP1 DUP1 CALLDATALOAD SWAP1 PUSH1 0x20 ADD SWAP1 SWAP3 SWAP2 SWAP1 DUP1 CALLDATALOAD PUSH4 0xFFFFFFFF AND SWAP1 PUSH1 0x20 ADD SWAP1 SWAP3 SWAP2 SWAP1 DUP1 CALLDATALOAD PUSH1 0xFF AND SWAP1 PUSH1 0x20 ADD SWAP1 SWAP3 SWAP2 SWAP1 POP POP POP PUSH2 0x31D JUMP JUMPDEST PUSH1 0x40 MLOAD DUP1 DUP3 DUP2 MSTORE PUSH1 0x20 ADD SWAP2 POP POP PUSH1 0x40 MLOAD DUP1 SWAP2 SUB SWAP1 RETURN JUMPDEST PUSH2 0x18F PUSH1 0x4 DUP1 CALLDATASIZE SUB PUSH1 0x20 DUP2 LT ISZERO PUSH2 0x173 JUMPI PUSH1 0x0 DUP1 REVERT JUMPDEST DUP2 ADD SWAP1 DUP1 DUP1 CALLDATALOAD PUSH4 0xFFFFFFFF AND SWAP1 PUSH1 0x20 ADD SWAP1 SWAP3 SWAP2 SWAP1 POP POP POP PUSH2 0x572 JUMP JUMPDEST PUSH1 0x40 MLOAD DUP1 DUP3 DUP2 MSTORE PUSH1 0x20 ADD SWAP2 POP POP PUSH1 0x40 MLOAD DUP1 SWAP2 SUB SWAP1 RETURN JUMPDEST PUSH2 0x1E1 PUSH1 0x4 DUP1 CALLDATASIZE SUB PUSH1 0x40 DUP2 LT ISZERO PUSH2 0x1BB JUMPI PUSH1 0x0 DUP1 REVERT JUMPDEST DUP2 ADD SWAP1 DUP1 DUP1 CALLDATALOAD SWAP1 PUSH1 0x20 ADD SWAP1 SWAP3 SWAP2 SWAP1 DUP1 CALLDATALOAD PUSH4 0xFFFFFFFF AND SWAP1 PUSH1 0x20 ADD SWAP1 SWAP3 SWAP2 SWAP1 POP POP POP PUSH2 0x723 JUMP JUMPDEST PUSH1 0x40 MLOAD DUP1 DUP3 DUP2 MSTORE PUSH1 0x20 ADD SWAP2 POP POP PUSH1 0x40 MLOAD DUP1 SWAP2 SUB SWAP1 RETURN JUMPDEST PUSH2 0x1FF PUSH2 0x7E6 JUMP JUMPDEST PUSH1 0x40 MLOAD DUP1 DUP3 PUSH20 0xFFFFFFFFFFFFFFFFFFFFFFFFFFFFFFFFFFFFFFFF AND DUP2 MSTORE PUSH1 0x20 ADD SWAP2 POP POP PUSH1 0x40 MLOAD DUP1 SWAP2 SUB SWAP1 RETURN JUMPDEST PUSH1 0x0 DUP1 PUSH8 0xDE0B6B3A7640000 SWAP1 POP PUSH1 0x0 PUSH1 0x1 SWAP1 POP PUSH1 0x0 DUP5 PUSH1 0xFF AND GT ISZERO PUSH2 0x255 JUMPI DUP4 PUSH1 0xFF AND PUSH1 0xA EXP SWAP1 POP JUMPDEST PUSH1 0x0 PUSH8 0xDE0B6B3A7640000 DUP8 DUP8 MUL DUP2 PUSH2 0x26A JUMPI INVALID JUMPDEST DIV SWAP1 POP PUSH1 0x0 DUP2 GT PUSH2 0x2E3 JUMPI PUSH1 0x40 MLOAD PUSH32 0x8C379A000000000000000000000000000000000000000000000000000000000 DUP2 MSTORE PUSH1 0x4 ADD DUP1 DUP1 PUSH1 0x20 ADD DUP3 DUP2 SUB DUP3 MSTORE PUSH1 0x1F DUP2 MSTORE PUSH1 0x20 ADD DUP1 PUSH32 0x5072696365206D7573742062652067726561746572207468616E207A65726F00 DUP2 MSTORE POP PUSH1 0x20 ADD SWAP2 POP POP PUSH1 0x40 MLOAD DUP1 SWAP2 SUB SWAP1 REVERT JUMPDEST PUSH1 0x0 PUSH1 0x64 DUP4 DUP11 MUL MUL SWAP1 POP DUP2 DUP2 DUP2 PUSH2 0x2F6 JUMPI INVALID JUMPDEST DIV SWAP5 POP POP POP POP POP SWAP5 SWAP4 POP POP POP POP JUMP JUMPDEST PUSH20 0x7B79995E5F793A07BC00C21412E50ECAE098E7F9 DUP2 JUMP JUMPDEST PUSH1 0x0 DUP1 PUSH2 0x329 DUP5 PUSH2 0x572 JUMP JUMPDEST SWAP1 POP PUSH1 0x0 PUSH20 0xF623109F16FDF8EF1DA0830C5B1C7BA9DBA4A06E PUSH20 0xFFFFFFFFFFFFFFFFFFFFFFFFFFFFFFFFFFFFFFFF AND PUSH4 0xA0A8045E PUSH1 0x40 MLOAD DUP2 PUSH4 0xFFFFFFFF AND PUSH1 0xE0 SHL DUP2 MSTORE PUSH1 0x4 ADD PUSH1 0x20 PUSH1 0x40 MLOAD DUP1 DUP4 SUB DUP2 DUP7 DUP1 EXTCODESIZE ISZERO DUP1 ISZERO PUSH2 0x387 JUMPI PUSH1 0x0 DUP1 REVERT JUMPDEST POP GAS STATICCALL ISZERO DUP1 ISZERO PUSH2 0x39B JUMPI RETURNDATASIZE PUSH1 0x0 DUP1 RETURNDATACOPY RETURNDATASIZE PUSH1 0x0 REVERT JUMPDEST POP POP POP POP PUSH1 0x40 MLOAD RETURNDATASIZE PUSH1 0x20 DUP2 LT ISZERO PUSH2 0x3B1 JUMPI PUSH1 0x0 DUP1 REVERT JUMPDEST DUP2 ADD SWAP1 DUP1 DUP1 MLOAD SWAP1 PUSH1 0x20 ADD SWAP1 SWAP3 SWAP2 SWAP1 POP POP POP SWAP1 POP PUSH1 0x0 DUP3 GT PUSH2 0x43A JUMPI PUSH1 0x40 MLOAD PUSH32 0x8C379A000000000000000000000000000000000000000000000000000000000 DUP2 MSTORE PUSH1 0x4 ADD DUP1 DUP1 PUSH1 0x20 ADD DUP3 DUP2 SUB DUP3 MSTORE PUSH1 0x18 DUP2 MSTORE PUSH1 0x20 ADD DUP1 PUSH32 0x546F6B656E2F455448207072696365206973207A65726F2E0000000000000000 DUP2 MSTORE POP PUSH1 0x20 ADD SWAP2 POP POP PUSH1 0x40 MLOAD DUP1 SWAP2 SUB SWAP1 REVERT JUMPDEST PUSH1 0x0 DUP2 GT PUSH2 0x4B0 JUMPI PUSH1 0x40 MLOAD PUSH32 0x8C379A000000000000000000000000000000000000000000000000000000000 DUP2 MSTORE PUSH1 0x4 ADD DUP1 DUP1 PUSH1 0x20 ADD DUP3 DUP2 SUB DUP3 MSTORE PUSH1 0x16 DUP2 MSTORE PUSH1 0x20 ADD DUP1 PUSH32 0x4554482F555344207072696365206973207A65726F2E00000000000000000000 DUP2 MSTORE POP PUSH1 0x20 ADD SWAP2 POP POP PUSH1 0x40 MLOAD DUP1 SWAP2 SUB SWAP1 REVERT JUMPDEST PUSH1 0x0 DUP2 DUP4 MUL SWAP1 POP PUSH1 0x0 DUP2 GT PUSH2 0x52D JUMPI PUSH1 0x40 MLOAD PUSH32 0x8C379A000000000000000000000000000000000000000000000000000000000 DUP2 MSTORE PUSH1 0x4 ADD DUP1 DUP1 PUSH1 0x20 ADD DUP3 DUP2 SUB DUP3 MSTORE PUSH1 0x1A DUP2 MSTORE PUSH1 0x20 ADD DUP1 PUSH32 0x50726963652064656E6F6D696E61746F72206973207A65726F2E000000000000 DUP2 MSTORE POP PUSH1 0x20 ADD SWAP2 POP POP PUSH1 0x40 MLOAD DUP1 SWAP2 SUB SWAP1 REVERT JUMPDEST PUSH1 0x0 DUP6 PUSH1 0xFF AND PUSH1 0xA EXP SWAP1 POP PUSH1 0x0 PUSH8 0xDE0B6B3A7640000 DUP10 MUL SWAP1 POP PUSH1 0x0 PUSH3 0xF4240 DUP3 MUL SWAP1 POP PUSH1 0x0 DUP4 DUP3 MUL SWAP1 POP DUP5 DUP2 DUP2 PUSH2 0x561 JUMPI INVALID JUMPDEST DIV SWAP8 POP POP POP POP POP POP POP POP SWAP4 SWAP3 POP POP POP JUMP JUMPDEST PUSH1 0x0 DUP1 PUSH2 0x57D PUSH2 0x7FE JUMP JUMPDEST SWAP1 POP PUSH1 0x0 PUSH2 0x58B DUP3 DUP6 PUSH2 0x8A3 JUMP JUMPDEST POP SWAP1 POP PUSH1 0x0 PUSH20 0x1C7D4B196CB0C7B01D743FBC6116A902379C7238 PUSH20 0xFFFFFFFFFFFFFFFFFFFFFFFFFFFFFFFFFFFFFFFF AND PUSH4 0x313CE567 PUSH1 0x40 MLOAD DUP2 PUSH4 0xFFFFFFFF AND PUSH1 0xE0 SHL DUP2 MSTORE PUSH1 0x4 ADD PUSH1 0x20 PUSH1 0x40 MLOAD DUP1 DUP4 SUB DUP2 DUP7 DUP1 EXTCODESIZE ISZERO DUP1 ISZERO PUSH2 0x5EA JUMPI PUSH1 0x0 DUP1 REVERT JUMPDEST POP GAS STATICCALL ISZERO DUP1 ISZERO PUSH2 0x5FE JUMPI RETURNDATASIZE PUSH1 0x0 DUP1 RETURNDATACOPY RETURNDATASIZE PUSH1 0x0 REVERT JUMPDEST POP POP POP POP PUSH1 0x40 MLOAD RETURNDATASIZE PUSH1 0x20 DUP2 LT ISZERO PUSH2 0x614 JUMPI PUSH1 0x0 DUP1 REVERT JUMPDEST DUP2 ADD SWAP1 DUP1 DUP1 MLOAD SWAP1 PUSH1 0x20 ADD SWAP1 SWAP3 SWAP2 SWAP1 POP POP POP SWAP1 POP PUSH1 0x0 PUSH1 0x6 DUP3 PUSH1 0xFF AND EQ ISZERO PUSH2 0x640 JUMPI PUSH3 0xF4240 SWAP1 POP PUSH2 0x6E4 JUMP JUMPDEST PUSH1 0x8 DUP3 PUSH1 0xFF AND EQ ISZERO PUSH2 0x658 JUMPI PUSH4 0x5F5E100 SWAP1 POP PUSH2 0x6E3 JUMP JUMPDEST PUSH1 0x12 DUP3 PUSH1 0xFF AND EQ ISZERO PUSH2 0x674 JUMPI PUSH8 0xDE0B6B3A7640000 SWAP1 POP PUSH2 0x6E2 JUMP JUMPDEST PUSH1 0x40 MLOAD PUSH32 0x8C379A000000000000000000000000000000000000000000000000000000000 DUP2 MSTORE PUSH1 0x4 ADD DUP1 DUP1 PUSH1 0x20 ADD DUP3 DUP2 SUB DUP3 MSTORE PUSH1 0x16 DUP2 MSTORE PUSH1 0x20 ADD DUP1 PUSH32 0x6E6F7420617661696C61626C6520696E74657276616C00000000000000000000 DUP2 MSTORE POP PUSH1 0x20 ADD SWAP2 POP POP PUSH1 0x40 MLOAD DUP1 SWAP2 SUB SWAP1 REVERT JUMPDEST JUMPDEST JUMPDEST PUSH2 0x718 DUP4 DUP3 PUSH20 0x1C7D4B196CB0C7B01D743FBC6116A902379C7238 PUSH20 0x7B79995E5F793A07BC00C21412E50ECAE098E7F9 PUSH2 0xD10 JUMP JUMPDEST SWAP5 POP POP POP POP POP SWAP2 SWAP1 POP JUMP JUMPDEST PUSH1 0x0 DUP1 PUSH2 0x72F DUP4 PUSH2 0x572 JUMP JUMPDEST SWAP1 POP PUSH1 0x0 PUSH20 0xF623109F16FDF8EF1DA0830C5B1C7BA9DBA4A06E PUSH20 0xFFFFFFFFFFFFFFFFFFFFFFFFFFFFFFFFFFFFFFFF AND PUSH4 0xA0A8045E PUSH1 0x40 MLOAD DUP2 PUSH4 0xFFFFFFFF AND PUSH1 0xE0 SHL DUP2 MSTORE PUSH1 0x4 ADD PUSH1 0x20 PUSH1 0x40 MLOAD DUP1 DUP4 SUB DUP2 DUP7 DUP1 EXTCODESIZE ISZERO DUP1 ISZERO PUSH2 0x78D JUMPI PUSH1 0x0 DUP1 REVERT JUMPDEST POP GAS STATICCALL ISZERO DUP1 ISZERO PUSH2 0x7A1 JUMPI RETURNDATASIZE PUSH1 0x0 DUP1 RETURNDATACOPY RETURNDATASIZE PUSH1 0x0 REVERT JUMPDEST POP POP POP POP PUSH1 0x40 MLOAD RETURNDATASIZE PUSH1 0x20 DUP2 LT ISZERO PUSH2 0x7B7 JUMPI PUSH1 0x0 DUP1 REVERT JUMPDEST DUP2 ADD SWAP1 DUP1 DUP1 MLOAD SWAP1 PUSH1 0x20 ADD SWAP1 SWAP3 SWAP2 SWAP1 POP POP POP SWAP1 POP PUSH1 0x0 DUP2 DUP4 MUL SWAP1 POP DUP1 DUP7 DUP2 PUSH2 0x7DA JUMPI INVALID JUMPDEST DIV SWAP4 POP POP POP POP SWAP3 SWAP2 POP POP JUMP JUMPDEST PUSH20 0x1C7D4B196CB0C7B01D743FBC6116A902379C7238 DUP2 JUMP JUMPDEST PUSH1 0x0 DUP1 PUSH1 0x40 MLOAD DUP1 PUSH1 0x60 ADD PUSH1 0x40 MSTORE DUP1 PUSH20 0x1C7D4B196CB0C7B01D743FBC6116A902379C7238 PUSH20 0xFFFFFFFFFFFFFFFFFFFFFFFFFFFFFFFFFFFFFFFF AND DUP2 MSTORE PUSH1 0x20 ADD PUSH20 0x7B79995E5F793A07BC00C21412E50ECAE098E7F9 PUSH20 0xFFFFFFFFFFFFFFFFFFFFFFFFFFFFFFFFFFFFFFFF AND DUP2 MSTORE PUSH1 0x20 ADD PUSH2 0xBB8 PUSH3 0xFFFFFF AND DUP2 MSTORE POP SWAP1 POP PUSH1 0x0 PUSH2 0x899 PUSH20 0x227628F3F023BB0B980B67D528571C95C6DAC1C DUP4 PUSH2 0xF13 JUMP JUMPDEST SWAP1 POP DUP1 SWAP3 POP POP POP SWAP1 JUMP JUMPDEST PUSH1 0x0 DUP1 PUSH1 0x0 DUP4 PUSH4 0xFFFFFFFF AND EQ ISZERO PUSH2 0x923 JUMPI PUSH1 0x40 MLOAD PUSH32 0x8C379A000000000000000000000000000000000000000000000000000000000 DUP2 MSTORE PUSH1 0x4 ADD DUP1 DUP1 PUSH1 0x20 ADD DUP3 DUP2 SUB DUP3 MSTORE PUSH1 0x2 DUP2 MSTORE PUSH1 0x20 ADD DUP1 PUSH32 0x4250000000000000000000000000000000000000000000000000000000000000 DUP2 MSTORE POP PUSH1 0x20 ADD SWAP2 POP POP PUSH1 0x40 MLOAD DUP1 SWAP2 SUB SWAP1 REVERT JUMPDEST PUSH1 0x0 PUSH1 0x2 PUSH8 0xFFFFFFFFFFFFFFFF DUP2 GT DUP1 ISZERO PUSH2 0x93D JUMPI PUSH1 0x0 DUP1 REVERT JUMPDEST POP PUSH1 0x40 MLOAD SWAP1 DUP1 DUP3 MSTORE DUP1 PUSH1 0x20 MUL PUSH1 0x20 ADD DUP3 ADD PUSH1 0x40 MSTORE DUP1 ISZERO PUSH2 0x96C JUMPI DUP2 PUSH1 0x20 ADD PUSH1 0x20 DUP3 MUL DUP1 CALLDATASIZE DUP4 CALLDATACOPY DUP1 DUP3 ADD SWAP2 POP POP SWAP1 POP JUMPDEST POP SWAP1 POP DUP4 DUP2 PUSH1 0x0 DUP2 MLOAD DUP2 LT PUSH2 0x97D JUMPI INVALID JUMPDEST PUSH1 0x20 MUL PUSH1 0x20 ADD ADD SWAP1 PUSH4 0xFFFFFFFF AND SWAP1 DUP2 PUSH4 0xFFFFFFFF AND DUP2 MSTORE POP POP PUSH1 0x0 DUP2 PUSH1 0x1 DUP2 MLOAD DUP2 LT PUSH2 0x9A6 JUMPI INVALID JUMPDEST PUSH1 0x20 MUL PUSH1 0x20 ADD ADD SWAP1 PUSH4 0xFFFFFFFF AND SWAP1 DUP2 PUSH4 0xFFFFFFFF AND DUP2 MSTORE POP POP PUSH1 0x0 DUP1 DUP7 PUSH20 0xFFFFFFFFFFFFFFFFFFFFFFFFFFFFFFFFFFFFFFFF AND PUSH4 0x883BDBFD DUP5 PUSH1 0x40 MLOAD DUP3 PUSH4 0xFFFFFFFF AND PUSH1 0xE0 SHL DUP2 MSTORE PUSH1 0x4 ADD DUP1 DUP1 PUSH1 0x20 ADD DUP3 DUP2 SUB DUP3 MSTORE DUP4 DUP2 DUP2 MLOAD DUP2 MSTORE PUSH1 0x20 ADD SWAP2 POP DUP1 MLOAD SWAP1 PUSH1 0x20 ADD SWAP1 PUSH1 0x20 MUL DUP1 DUP4 DUP4 PUSH1 0x0 JUMPDEST DUP4 DUP2 LT ISZERO PUSH2 0xA32 JUMPI DUP1 DUP3 ADD MLOAD DUP2 DUP5 ADD MSTORE PUSH1 0x20 DUP2 ADD SWAP1 POP PUSH2 0xA17 JUMP JUMPDEST POP POP POP POP SWAP1 POP ADD SWAP3 POP POP POP PUSH1 0x0 PUSH1 0x40 MLOAD DUP1 DUP4 SUB DUP2 DUP7 DUP1 EXTCODESIZE ISZERO DUP1 ISZERO PUSH2 0xA55 JUMPI PUSH1 0x0 DUP1 REVERT JUMPDEST POP GAS STATICCALL ISZERO DUP1 ISZERO PUSH2 0xA69 JUMPI RETURNDATASIZE PUSH1 0x0 DUP1 RETURNDATACOPY RETURNDATASIZE PUSH1 0x0 REVERT JUMPDEST POP POP POP POP PUSH1 0x40 MLOAD RETURNDATASIZE PUSH1 0x0 DUP3 RETURNDATACOPY RETURNDATASIZE PUSH1 0x1F NOT PUSH1 0x1F DUP3 ADD AND DUP3 ADD DUP1 PUSH1 0x40 MSTORE POP PUSH1 0x40 DUP2 LT ISZERO PUSH2 0xA93 JUMPI PUSH1 0x0 DUP1 REVERT JUMPDEST DUP2 ADD SWAP1 DUP1 DUP1 MLOAD PUSH1 0x40 MLOAD SWAP4 SWAP3 SWAP2 SWAP1 DUP5 PUSH5 0x100000000 DUP3 GT ISZERO PUSH2 0xAB3 JUMPI PUSH1 0x0 DUP1 REVERT JUMPDEST DUP4 DUP3 ADD SWAP2 POP PUSH1 0x20 DUP3 ADD DUP6 DUP2 GT ISZERO PUSH2 0xAC9 JUMPI PUSH1 0x0 DUP1 REVERT JUMPDEST DUP3 MLOAD DUP7 PUSH1 0x20 DUP3 MUL DUP4 ADD GT PUSH5 0x100000000 DUP3 GT OR ISZERO PUSH2 0xAE6 JUMPI PUSH1 0x0 DUP1 REVERT JUMPDEST DUP1 DUP4 MSTORE PUSH1 0x20 DUP4 ADD SWAP3 POP POP POP SWAP1 DUP1 MLOAD SWAP1 PUSH1 0x20 ADD SWAP1 PUSH1 0x20 MUL DUP1 DUP4 DUP4 PUSH1 0x0 JUMPDEST DUP4 DUP2 LT ISZERO PUSH2 0xB1D JUMPI DUP1 DUP3 ADD MLOAD DUP2 DUP5 ADD MSTORE PUSH1 0x20 DUP2 ADD SWAP1 POP PUSH2 0xB02 JUMP JUMPDEST POP POP POP POP SWAP1 POP ADD PUSH1 0x40 MSTORE PUSH1 0x20 ADD DUP1 MLOAD PUSH1 0x40 MLOAD SWAP4 SWAP3 SWAP2 SWAP1 DUP5 PUSH5 0x100000000 DUP3 GT ISZERO PUSH2 0xB46 JUMPI PUSH1 0x0 DUP1 REVERT JUMPDEST DUP4 DUP3 ADD SWAP2 POP PUSH1 0x20 DUP3 ADD DUP6 DUP2 GT ISZERO PUSH2 0xB5C JUMPI PUSH1 0x0 DUP1 REVERT JUMPDEST DUP3 MLOAD DUP7 PUSH1 0x20 DUP3 MUL DUP4 ADD GT PUSH5 0x100000000 DUP3 GT OR ISZERO PUSH2 0xB79 JUMPI PUSH1 0x0 DUP1 REVERT JUMPDEST DUP1 DUP4 MSTORE PUSH1 0x20 DUP4 ADD SWAP3 POP POP POP SWAP1 DUP1 MLOAD SWAP1 PUSH1 0x20 ADD SWAP1 PUSH1 0x20 MUL DUP1 DUP4 DUP4 PUSH1 0x0 JUMPDEST DUP4 DUP2 LT ISZERO PUSH2 0xBB0 JUMPI DUP1 DUP3 ADD MLOAD DUP2 DUP5 ADD MSTORE PUSH1 0x20 DUP2 ADD SWAP1 POP PUSH2 0xB95 JUMP JUMPDEST POP POP POP POP SWAP1 POP ADD PUSH1 0x40 MSTORE POP POP POP SWAP2 POP SWAP2 POP PUSH1 0x0 DUP3 PUSH1 0x0 DUP2 MLOAD DUP2 LT PUSH2 0xBD0 JUMPI INVALID JUMPDEST PUSH1 0x20 MUL PUSH1 0x20 ADD ADD MLOAD DUP4 PUSH1 0x1 DUP2 MLOAD DUP2 LT PUSH2 0xBE5 JUMPI INVALID JUMPDEST PUSH1 0x20 MUL PUSH1 0x20 ADD ADD MLOAD SUB SWAP1 POP PUSH1 0x0 DUP3 PUSH1 0x0 DUP2 MLOAD DUP2 LT PUSH2 0xBFF JUMPI INVALID JUMPDEST PUSH1 0x20 MUL PUSH1 0x20 ADD ADD MLOAD DUP4 PUSH1 0x1 DUP2 MLOAD DUP2 LT PUSH2 0xC14 JUMPI INVALID JUMPDEST PUSH1 0x20 MUL PUSH1 0x20 ADD ADD MLOAD SUB SWAP1 POP DUP8 PUSH4 0xFFFFFFFF AND DUP3 PUSH1 0x6 SIGNEXTEND DUP2 PUSH2 0xC31 JUMPI INVALID JUMPDEST SDIV SWAP7 POP PUSH1 0x0 DUP3 PUSH1 0x6 SIGNEXTEND SLT DUP1 ISZERO PUSH2 0xC5D JUMPI POP PUSH1 0x0 DUP9 PUSH4 0xFFFFFFFF AND DUP4 PUSH1 0x6 SIGNEXTEND DUP2 PUSH2 0xC56 JUMPI INVALID JUMPDEST SMOD PUSH1 0x6 SIGNEXTEND EQ ISZERO JUMPDEST ISZERO PUSH2 0xC6C JUMPI DUP7 DUP1 PUSH1 0x1 SWAP1 SUB SWAP8 POP POP JUMPDEST PUSH1 0x0 PUSH20 0xFFFFFFFFFFFFFFFFFFFFFFFFFFFFFFFFFFFFFFFF DUP1 AND DUP10 PUSH4 0xFFFFFFFF AND MUL SWAP1 POP PUSH1 0x20 DUP3 PUSH20 0xFFFFFFFFFFFFFFFFFFFFFFFFFFFFFFFFFFFFFFFF AND PUSH24 0xFFFFFFFFFFFFFFFFFFFFFFFFFFFFFFFFFFFFFFFFFFFFFFFF AND SWAP1 SHL PUSH24 0xFFFFFFFFFFFFFFFFFFFFFFFFFFFFFFFFFFFFFFFFFFFFFFFF AND DUP2 PUSH24 0xFFFFFFFFFFFFFFFFFFFFFFFFFFFFFFFFFFFFFFFFFFFFFFFF AND DUP2 PUSH2 0xD00 JUMPI INVALID JUMPDEST DIV SWAP7 POP POP POP POP POP POP POP SWAP3 POP SWAP3 SWAP1 POP JUMP JUMPDEST PUSH1 0x0 DUP1 PUSH2 0xD1C DUP7 PUSH2 0x106E JUMP JUMPDEST SWAP1 POP PUSH16 0xFFFFFFFFFFFFFFFFFFFFFFFFFFFFFFFF DUP1 AND DUP2 PUSH20 0xFFFFFFFFFFFFFFFFFFFFFFFFFFFFFFFFFFFFFFFF AND GT PUSH2 0xE2D JUMPI PUSH1 0x0 DUP2 PUSH20 0xFFFFFFFFFFFFFFFFFFFFFFFFFFFFFFFFFFFFFFFF AND DUP3 PUSH20 0xFFFFFFFFFFFFFFFFFFFFFFFFFFFFFFFFFFFFFFFF AND MUL SWAP1 POP DUP4 PUSH20 0xFFFFFFFFFFFFFFFFFFFFFFFFFFFFFFFFFFFFFFFF AND DUP6 PUSH20 0xFFFFFFFFFFFFFFFFFFFFFFFFFFFFFFFFFFFFFFFF AND LT PUSH2 0xDEE JUMPI PUSH2 0xDE9 PUSH25 0x1000000000000000000000000000000000000000000000000 DUP8 PUSH16 0xFFFFFFFFFFFFFFFFFFFFFFFFFFFFFFFF AND DUP4 PUSH2 0x14A9 JUMP JUMPDEST PUSH2 0xE25 JUMP JUMPDEST PUSH2 0xE24 DUP2 DUP8 PUSH16 0xFFFFFFFFFFFFFFFFFFFFFFFFFFFFFFFF AND PUSH25 0x1000000000000000000000000000000000000000000000000 PUSH2 0x14A9 JUMP JUMPDEST JUMPDEST SWAP3 POP POP PUSH2 0xF0A JUMP JUMPDEST PUSH1 0x0 PUSH2 0xE6F DUP3 PUSH20 0xFFFFFFFFFFFFFFFFFFFFFFFFFFFFFFFFFFFFFFFF AND DUP4 PUSH20 0xFFFFFFFFFFFFFFFFFFFFFFFFFFFFFFFFFFFFFFFF AND PUSH9 0x10000000000000000 PUSH2 0x14A9 JUMP JUMPDEST SWAP1 POP DUP4 PUSH20 0xFFFFFFFFFFFFFFFFFFFFFFFFFFFFFFFFFFFFFFFF AND DUP6 PUSH20 0xFFFFFFFFFFFFFFFFFFFFFFFFFFFFFFFFFFFFFFFF AND LT PUSH2 0xED7 JUMPI PUSH2 0xED2 PUSH17 0x100000000000000000000000000000000 DUP8 PUSH16 0xFFFFFFFFFFFFFFFFFFFFFFFFFFFFFFFF AND DUP4 PUSH2 0x14A9 JUMP JUMPDEST PUSH2 0xF06 JUMP JUMPDEST PUSH2 0xF05 DUP2 DUP8 PUSH16 0xFFFFFFFFFFFFFFFFFFFFFFFFFFFFFFFF AND PUSH17 0x100000000000000000000000000000000 PUSH2 0x14A9 JUMP JUMPDEST JUMPDEST SWAP3 POP POP JUMPDEST POP SWAP5 SWAP4 POP POP POP POP JUMP JUMPDEST PUSH1 0x0 DUP2 PUSH1 0x20 ADD MLOAD PUSH20 0xFFFFFFFFFFFFFFFFFFFFFFFFFFFFFFFFFFFFFFFF AND DUP3 PUSH1 0x0 ADD MLOAD PUSH20 0xFFFFFFFFFFFFFFFFFFFFFFFFFFFFFFFFFFFFFFFF AND LT PUSH2 0xF55 JUMPI PUSH1 0x0 DUP1 REVERT JUMPDEST DUP3 DUP3 PUSH1 0x0 ADD MLOAD DUP4 PUSH1 0x20 ADD MLOAD DUP5 PUSH1 0x40 ADD MLOAD PUSH1 0x40 MLOAD PUSH1 0x20 ADD DUP1 DUP5 PUSH20 0xFFFFFFFFFFFFFFFFFFFFFFFFFFFFFFFFFFFFFFFF AND DUP2 MSTORE PUSH1 0x20 ADD DUP4 PUSH20 0xFFFFFFFFFFFFFFFFFFFFFFFFFFFFFFFFFFFFFFFF AND DUP2 MSTORE PUSH1 0x20 ADD DUP3 PUSH3 0xFFFFFF AND DUP2 MSTORE PUSH1 0x20 ADD SWAP4 POP POP POP POP PUSH1 0x40 MLOAD PUSH1 0x20 DUP2 DUP4 SUB SUB DUP2 MSTORE SWAP1 PUSH1 0x40 MSTORE DUP1 MLOAD SWAP1 PUSH1 0x20 ADD KECCAK256 PUSH32 0xE34F199B19B2B4F47F68442619D555527D244F78A3297EA89325F843F87B8B54 PUSH1 0x0 SHL PUSH1 0x40 MLOAD PUSH1 0x20 ADD DUP1 DUP1 PUSH32 0xFF00000000000000000000000000000000000000000000000000000000000000 DUP2 MSTORE POP PUSH1 0x1 ADD DUP5 PUSH20 0xFFFFFFFFFFFFFFFFFFFFFFFFFFFFFFFFFFFFFFFF AND PUSH1 0x60 SHL DUP2 MSTORE PUSH1 0x14 ADD DUP4 DUP2 MSTORE PUSH1 0x20 ADD DUP3 DUP2 MSTORE PUSH1 0x20 ADD SWAP4 POP POP POP POP PUSH1 0x40 MLOAD PUSH1 0x20 DUP2 DUP4 SUB SUB DUP2 MSTORE SWAP1 PUSH1 0x40 MSTORE DUP1 MLOAD SWAP1 PUSH1 0x20 ADD KECCAK256 PUSH1 0x0 SHR SWAP1 POP SWAP3 SWAP2 POP POP JUMP JUMPDEST PUSH1 0x0 DUP1 PUSH1 0x0 DUP4 PUSH1 0x2 SIGNEXTEND SLT PUSH2 0x1085 JUMPI DUP3 PUSH1 0x2 SIGNEXTEND PUSH2 0x108D JUMP JUMPDEST DUP3 PUSH1 0x2 SIGNEXTEND PUSH1 0x0 SUB JUMPDEST SWAP1 POP PUSH32 0xFFFFFFFFFFFFFFFFFFFFFFFFFFFFFFFFFFFFFFFFFFFFFFFFFFFFFFFFFFF27618 PUSH1 0x0 SUB PUSH1 0x2 SIGNEXTEND DUP2 GT ISZERO PUSH2 0x112B JUMPI PUSH1 0x40 MLOAD PUSH32 0x8C379A000000000000000000000000000000000000000000000000000000000 DUP2 MSTORE PUSH1 0x4 ADD DUP1 DUP1 PUSH1 0x20 ADD DUP3 DUP2 SUB DUP3 MSTORE PUSH1 0x1 DUP2 MSTORE PUSH1 0x20 ADD DUP1 PUSH32 0x5400000000000000000000000000000000000000000000000000000000000000 DUP2 MSTORE POP PUSH1 0x20 ADD SWAP2 POP POP PUSH1 0x40 MLOAD DUP1 SWAP2 SUB SWAP1 REVERT JUMPDEST PUSH1 0x0 DUP1 PUSH1 0x1 DUP4 AND EQ ISZERO PUSH2 0x114F JUMPI PUSH17 0x100000000000000000000000000000000 PUSH2 0x1161 JUMP JUMPDEST PUSH16 0xFFFCB933BD6FAD37AA2D162D1A594001 JUMPDEST PUSH17 0xFFFFFFFFFFFFFFFFFFFFFFFFFFFFFFFFFF AND SWAP1 POP PUSH1 0x0 PUSH1 0x2 DUP4 AND EQ PUSH2 0x119B JUMPI PUSH1 0x80 PUSH16 0xFFF97272373D413259A46990580E213A DUP3 MUL SWAP1 SHR SWAP1 POP JUMPDEST PUSH1 0x0 PUSH1 0x4 DUP4 AND EQ PUSH2 0x11C0 JUMPI PUSH1 0x80 PUSH16 0xFFF2E50F5F656932EF12357CF3C7FDCC DUP3 MUL SWAP1 SHR SWAP1 POP JUMPDEST PUSH1 0x0 PUSH1 0x8 DUP4 AND EQ PUSH2 0x11E5 JUMPI PUSH1 0x80 PUSH16 0xFFE5CACA7E10E4E61C3624EAA0941CD0 DUP3 MUL SWAP1 SHR SWAP1 POP JUMPDEST PUSH1 0x0 PUSH1 0x10 DUP4 AND EQ PUSH2 0x120A JUMPI PUSH1 0x80 PUSH16 0xFFCB9843D60F6159C9DB58835C926644 DUP3 MUL SWAP1 SHR SWAP1 POP JUMPDEST PUSH1 0x0 PUSH1 0x20 DUP4 AND EQ PUSH2 0x122F JUMPI PUSH1 0x80 PUSH16 0xFF973B41FA98C081472E6896DFB254C0 DUP3 MUL SWAP1 SHR SWAP1 POP JUMPDEST PUSH1 0x0 PUSH1 0x40 DUP4 AND EQ PUSH2 0x1254 JUMPI PUSH1 0x80 PUSH16 0xFF2EA16466C96A3843EC78B326B52861 DUP3 MUL SWAP1 SHR SWAP1 POP JUMPDEST PUSH1 0x0 PUSH1 0x80 DUP4 AND EQ PUSH2 0x1279 JUMPI PUSH1 0x80 PUSH16 0xFE5DEE046A99A2A811C461F1969C3053 DUP3 MUL SWAP1 SHR SWAP1 POP JUMPDEST PUSH1 0x0 PUSH2 0x100 DUP4 AND EQ PUSH2 0x129F JUMPI PUSH1 0x80 PUSH16 0xFCBE86C7900A88AEDCFFC83B479AA3A4 DUP3 MUL SWAP1 SHR SWAP1 POP JUMPDEST PUSH1 0x0 PUSH2 0x200 DUP4 AND EQ PUSH2 0x12C5 JUMPI PUSH1 0x80 PUSH16 0xF987A7253AC413176F2B074CF7815E54 DUP3 MUL SWAP1 SHR SWAP1 POP JUMPDEST PUSH1 0x0 PUSH2 0x400 DUP4 AND EQ PUSH2 0x12EB JUMPI PUSH1 0x80 PUSH16 0xF3392B0822B70005940C7A398E4B70F3 DUP3 MUL SWAP1 SHR SWAP1 POP JUMPDEST PUSH1 0x0 PUSH2 0x800 DUP4 AND EQ PUSH2 0x1311 JUMPI PUSH1 0x80 PUSH16 0xE7159475A2C29B7443B29C7FA6E889D9 DUP3 MUL SWAP1 SHR SWAP1 POP JUMPDEST PUSH1 0x0 PUSH2 0x1000 DUP4 AND EQ PUSH2 0x1337 JUMPI PUSH1 0x80 PUSH16 0xD097F3BDFD2022B8845AD8F792AA5825 DUP3 MUL SWAP1 SHR SWAP1 POP JUMPDEST PUSH1 0x0 PUSH2 0x2000 DUP4 AND EQ PUSH2 0x135D JUMPI PUSH1 0x80 PUSH16 0xA9F746462D870FDF8A65DC1F90E061E5 DUP3 MUL SWAP1 SHR SWAP1 POP JUMPDEST PUSH1 0x0 PUSH2 0x4000 DUP4 AND EQ PUSH2 0x1383 JUMPI PUSH1 0x80 PUSH16 0x70D869A156D2A1B890BB3DF62BAF32F7 DUP3 MUL SWAP1 SHR SWAP1 POP JUMPDEST PUSH1 0x0 PUSH2 0x8000 DUP4 AND EQ PUSH2 0x13A9 JUMPI PUSH1 0x80 PUSH16 0x31BE135F97D08FD981231505542FCFA6 DUP3 MUL SWAP1 SHR SWAP1 POP JUMPDEST PUSH1 0x0 PUSH3 0x10000 DUP4 AND EQ PUSH2 0x13D0 JUMPI PUSH1 0x80 PUSH16 0x9AA508B5B7A84E1C677DE54F3E99BC9 DUP3 MUL SWAP1 SHR SWAP1 POP JUMPDEST PUSH1 0x0 PUSH3 0x20000 DUP4 AND EQ PUSH2 0x13F6 JUMPI PUSH1 0x80 PUSH15 0x5D6AF8DEDB81196699C329225EE604 DUP3 MUL SWAP1 SHR SWAP1 POP JUMPDEST PUSH1 0x0 PUSH3 0x40000 DUP4 AND EQ PUSH2 0x141B JUMPI PUSH1 0x80 PUSH14 0x2216E584F5FA1EA926041BEDFE98 DUP3 MUL SWAP1 SHR SWAP1 POP JUMPDEST PUSH1 0x0 PUSH3 0x80000 DUP4 AND EQ PUSH2 0x143E JUMPI PUSH1 0x80 PUSH12 0x48A170391F7DC42444E8FA2 DUP3 MUL SWAP1 SHR SWAP1 POP JUMPDEST PUSH1 0x0 DUP5 PUSH1 0x2 SIGNEXTEND SGT ISZERO PUSH2 0x1477 JUMPI DUP1 PUSH32 0xFFFFFFFFFFFFFFFFFFFFFFFFFFFFFFFFFFFFFFFFFFFFFFFFFFFFFFFFFFFFFFFF DUP2 PUSH2 0x1473 JUMPI INVALID JUMPDEST DIV SWAP1 POP JUMPDEST PUSH1 0x0 PUSH5 0x100000000 DUP3 DUP2 PUSH2 0x1487 JUMPI INVALID JUMPDEST MOD EQ PUSH2 0x1494 JUMPI PUSH1 0x1 PUSH2 0x1497 JUMP JUMPDEST PUSH1 0x0 JUMPDEST PUSH1 0xFF AND PUSH1 0x20 DUP3 SWAP1 SHR ADD SWAP3 POP POP POP SWAP2 SWAP1 POP JUMP JUMPDEST PUSH1 0x0 DUP1 PUSH1 0x0 DUP1 NOT DUP6 DUP8 MULMOD DUP6 DUP8 MUL SWAP3 POP DUP3 DUP2 LT DUP4 DUP3 SUB SUB SWAP2 POP POP PUSH1 0x0 DUP2 EQ ISZERO PUSH2 0x14E4 JUMPI PUSH1 0x0 DUP5 GT PUSH2 0x14D8 JUMPI PUSH1 0x0 DUP1 REVERT JUMPDEST DUP4 DUP3 DIV SWAP3 POP POP POP PUSH2 0x157C JUMP JUMPDEST DUP1 DUP5 GT PUSH2 0x14F0 JUMPI PUSH1 0x0 DUP1 REVERT JUMPDEST PUSH1 0x0 DUP5 DUP7 DUP9 MULMOD SWAP1 POP DUP3 DUP2 GT DUP3 SUB SWAP2 POP DUP1 DUP4 SUB SWAP3 POP PUSH1 0x0 DUP6 DUP7 PUSH1 0x0 SUB AND SWAP1 POP DUP1 DUP7 DIV SWAP6 POP DUP1 DUP5 DIV SWAP4 POP PUSH1 0x1 DUP2 DUP3 PUSH1 0x0 SUB DIV ADD SWAP1 POP DUP1 DUP4 MUL DUP5 OR SWAP4 POP PUSH1 0x0 PUSH1 0x2 DUP8 PUSH1 0x3 MUL XOR SWAP1 POP DUP1 DUP8 MUL PUSH1 0x2 SUB DUP2 MUL SWAP1 POP DUP1 DUP8 MUL PUSH1 0x2 SUB DUP2 MUL SWAP1 POP DUP1 DUP8 MUL PUSH1 0x2 SUB DUP2 MUL SWAP1 POP DUP1 DUP8 MUL PUSH1 0x2 SUB DUP2 MUL SWAP1 POP DUP1 DUP8 MUL PUSH1 0x2 SUB DUP2 MUL SWAP1 POP DUP1 DUP8 MUL PUSH1 0x2 SUB DUP2 MUL SWAP1 POP DUP1 DUP6 MUL SWAP6 POP POP POP POP POP POP JUMPDEST SWAP4 SWAP3 POP POP POP JUMP INVALID LOG2 PUSH5 0x6970667358 0x22 SLT KECCAK256 PUSH9 0xF803E1627BEE188D86 CALLCODE 0xF6 PUSH18 0x5DAF5D3A556B181410105AAC5407949364CD 0xCC PUSH5 0x736F6C6343 STOP SMOD MOD STOP CALLER "
				},
				"gasEstimates": {
					"creation": {
						"codeDepositCost": "1112200",
						"executionCost": "1154",
						"totalCost": "1113354"
					},
					"external": {
						"anotherUsdToToken(uint256,uint32,uint8)": "infinite",
						"getTokenPrice(uint32)": "infinite",
						"getTokensForUSD(uint256,uint256,uint256,uint8)": "2179",
						"token()": "299",
						"usdToToken(uint256,uint32)": "infinite",
						"weth()": "211"
					},
					"internal": {
						"getPoolAddress()": "infinite"
					}
				},
				"methodIdentifiers": {
					"anotherUsdToToken(uint256,uint32,uint8)": "85f7ae8f",
					"getTokenPrice(uint32)": "906d67ea",
					"getTokensForUSD(uint256,uint256,uint256,uint8)": "17fdaffa",
					"token()": "fc0c546a",
					"usdToToken(uint256,uint32)": "a0152b3a",
					"weth()": "3fc8cef3"
				}
			},
			"storageLayout": {
				"storage": [],
				"types": null
			},
			"userdoc": {
				"kind": "user",
				"methods": {},
				"version": 1
			}
		}
	}
}