{
	"contracts/testnetContract.sol": {
		"PriceOracle": {
			"abi": [
				{
					"inputs": [
						{
							"internalType": "address",
							"name": "_priceSource",
							"type": "address"
						}
					],
					"stateMutability": "nonpayable",
					"type": "constructor"
				},
				{
					"inputs": [],
					"name": "getEthUsdPrice",
					"outputs": [
						{
							"internalType": "uint256",
							"name": "",
							"type": "uint256"
						}
					],
					"stateMutability": "view",
					"type": "function"
				},
				{
					"inputs": [
						{
							"internalType": "uint32",
							"name": "secondsAgo",
							"type": "uint32"
						}
					],
					"name": "getMockTokenPrice",
					"outputs": [
						{
							"internalType": "uint256",
							"name": "",
							"type": "uint256"
						}
					],
					"stateMutability": "view",
					"type": "function"
				},
				{
					"inputs": [],
					"name": "priceSource",
					"outputs": [
						{
							"internalType": "address",
							"name": "",
							"type": "address"
						}
					],
					"stateMutability": "view",
					"type": "function"
				},
				{
					"inputs": [],
					"name": "token",
					"outputs": [
						{
							"internalType": "address",
							"name": "",
							"type": "address"
						}
					],
					"stateMutability": "view",
					"type": "function"
				},
				{
					"inputs": [
						{
							"internalType": "uint256",
							"name": "usdAmount",
							"type": "uint256"
						},
						{
							"internalType": "uint32",
							"name": "secondsAgo",
							"type": "uint32"
						}
					],
					"name": "usdToToken",
					"outputs": [
						{
							"internalType": "uint256",
							"name": "tokensNeeded",
							"type": "uint256"
						}
					],
					"stateMutability": "view",
					"type": "function"
				},
				{
					"inputs": [],
					"name": "weth",
					"outputs": [
						{
							"internalType": "address",
							"name": "",
							"type": "address"
						}
					],
					"stateMutability": "view",
					"type": "function"
				}
			],
			"devdoc": {
				"kind": "dev",
				"methods": {},
				"version": 1
			},
			"evm": {
				"assembly": "    /* \"contracts/testnetContract.sol\":361:2027  contract PriceOracle {... */\n  mstore(0x40, 0x80)\n    /* \"contracts/testnetContract.sol\":595:672  constructor(address _priceSource) {... */\n  callvalue\n  dup1\n  iszero\n  tag_1\n  jumpi\n  revert(0x00, 0x00)\ntag_1:\n  pop\n  mload(0x40)\n  sub(codesize, bytecodeSize)\n  dup1\n  bytecodeSize\n  dup4\n  codecopy\n  dup2\n  dup2\n  add\n  0x40\n  mstore\n  dup2\n  add\n  swap1\n  tag_2\n  swap2\n  swap1\n  tag_3\n  jump\t// in\ntag_2:\n    /* \"contracts/testnetContract.sol\":653:665  _priceSource */\n  dup1\n    /* \"contracts/testnetContract.sol\":639:650  priceSource */\n  0x00\n  0x00\n    /* \"contracts/testnetContract.sol\":639:665  priceSource = _priceSource */\n  0x0100\n  exp\n  dup2\n  sload\n  dup2\n  0xffffffffffffffffffffffffffffffffffffffff\n  mul\n  not\n  and\n  swap1\n  dup4\n  0xffffffffffffffffffffffffffffffffffffffff\n  and\n  mul\n  or\n  swap1\n  sstore\n  pop\n    /* \"contracts/testnetContract.sol\":595:672  constructor(address _priceSource) {... */\n  pop\n    /* \"contracts/testnetContract.sol\":361:2027  contract PriceOracle {... */\n  jump(tag_6)\n    /* \"#utility.yul\":88:205   */\ntag_8:\n    /* \"#utility.yul\":197:198   */\n  0x00\n    /* \"#utility.yul\":194:195   */\n  0x00\n    /* \"#utility.yul\":187:199   */\n  revert\n    /* \"#utility.yul\":334:460   */\ntag_10:\n    /* \"#utility.yul\":371:378   */\n  0x00\n    /* \"#utility.yul\":411:453   */\n  0xffffffffffffffffffffffffffffffffffffffff\n    /* \"#utility.yul\":404:409   */\n  dup3\n    /* \"#utility.yul\":400:454   */\n  and\n    /* \"#utility.yul\":389:454   */\n  swap1\n  pop\n    /* \"#utility.yul\":334:460   */\n  swap2\n  swap1\n  pop\n  jump\t// out\n    /* \"#utility.yul\":466:562   */\ntag_11:\n    /* \"#utility.yul\":503:510   */\n  0x00\n    /* \"#utility.yul\":532:556   */\n  tag_20\n    /* \"#utility.yul\":550:555   */\n  dup3\n    /* \"#utility.yul\":532:556   */\n  tag_10\n  jump\t// in\ntag_20:\n    /* \"#utility.yul\":521:556   */\n  swap1\n  pop\n    /* \"#utility.yul\":466:562   */\n  swap2\n  swap1\n  pop\n  jump\t// out\n    /* \"#utility.yul\":568:690   */\ntag_12:\n    /* \"#utility.yul\":641:665   */\n  tag_22\n    /* \"#utility.yul\":659:664   */\n  dup2\n    /* \"#utility.yul\":641:665   */\n  tag_11\n  jump\t// in\ntag_22:\n    /* \"#utility.yul\":634:639   */\n  dup2\n    /* \"#utility.yul\":631:666   */\n  eq\n    /* \"#utility.yul\":621:684   */\n  tag_23\n  jumpi\n    /* \"#utility.yul\":680:681   */\n  0x00\n    /* \"#utility.yul\":677:678   */\n  0x00\n    /* \"#utility.yul\":670:682   */\n  revert\n    /* \"#utility.yul\":621:684   */\ntag_23:\n    /* \"#utility.yul\":568:690   */\n  pop\n  jump\t// out\n    /* \"#utility.yul\":696:839   */\ntag_13:\n    /* \"#utility.yul\":753:758   */\n  0x00\n    /* \"#utility.yul\":784:790   */\n  dup2\n    /* \"#utility.yul\":778:791   */\n  mload\n    /* \"#utility.yul\":769:791   */\n  swap1\n  pop\n    /* \"#utility.yul\":800:833   */\n  tag_25\n    /* \"#utility.yul\":827:832   */\n  dup2\n    /* \"#utility.yul\":800:833   */\n  tag_12\n  jump\t// in\ntag_25:\n    /* \"#utility.yul\":696:839   */\n  swap3\n  swap2\n  pop\n  pop\n  jump\t// out\n    /* \"#utility.yul\":845:1196   */\ntag_3:\n    /* \"#utility.yul\":915:921   */\n  0x00\n    /* \"#utility.yul\":964:966   */\n  0x20\n    /* \"#utility.yul\":952:961   */\n  dup3\n    /* \"#utility.yul\":943:950   */\n  dup5\n    /* \"#utility.yul\":939:962   */\n  sub\n    /* \"#utility.yul\":935:967   */\n  slt\n    /* \"#utility.yul\":932:1051   */\n  iszero\n  tag_27\n  jumpi\n    /* \"#utility.yul\":970:1049   */\n  tag_28\n  tag_8\n  jump\t// in\ntag_28:\n    /* \"#utility.yul\":932:1051   */\ntag_27:\n    /* \"#utility.yul\":1090:1091   */\n  0x00\n    /* \"#utility.yul\":1115:1179   */\n  tag_29\n    /* \"#utility.yul\":1171:1178   */\n  dup5\n    /* \"#utility.yul\":1162:1168   */\n  dup3\n    /* \"#utility.yul\":1151:1160   */\n  dup6\n    /* \"#utility.yul\":1147:1169   */\n  add\n    /* \"#utility.yul\":1115:1179   */\n  tag_13\n  jump\t// in\ntag_29:\n    /* \"#utility.yul\":1105:1179   */\n  swap2\n  pop\n    /* \"#utility.yul\":1061:1189   */\n  pop\n    /* \"#utility.yul\":845:1196   */\n  swap3\n  swap2\n  pop\n  pop\n  jump\t// out\n    /* \"contracts/testnetContract.sol\":361:2027  contract PriceOracle {... */\ntag_6:\n  dataSize(sub_0)\n  dup1\n  dataOffset(sub_0)\n  0x00\n  codecopy\n  0x00\n  return\nstop\n\nsub_0: assembly {\n        /* \"contracts/testnetContract.sol\":361:2027  contract PriceOracle {... */\n      mstore(0x40, 0x80)\n      callvalue\n      dup1\n      iszero\n      tag_1\n      jumpi\n      revert(0x00, 0x00)\n    tag_1:\n      pop\n      jumpi(tag_2, lt(calldatasize, 0x04))\n      shr(0xe0, calldataload(0x00))\n      dup1\n      0x20531bc9\n      eq\n      tag_3\n      jumpi\n      dup1\n      0x292f8637\n      eq\n      tag_4\n      jumpi\n      dup1\n      0x3fc8cef3\n      eq\n      tag_5\n      jumpi\n      dup1\n      0xa0152b3a\n      eq\n      tag_6\n      jumpi\n      dup1\n      0xa0a8045e\n      eq\n      tag_7\n      jumpi\n      dup1\n      0xfc0c546a\n      eq\n      tag_8\n      jumpi\n    tag_2:\n      revert(0x00, 0x00)\n        /* \"contracts/testnetContract.sol\":388:414  address public priceSource */\n    tag_3:\n      tag_9\n      tag_10\n      jump\t// in\n    tag_9:\n      mload(0x40)\n      tag_11\n      swap2\n      swap1\n      tag_12\n      jump\t// in\n    tag_11:\n      mload(0x40)\n      dup1\n      swap2\n      sub\n      swap1\n      return\n        /* \"contracts/testnetContract.sol\":934:1084  function getMockTokenPrice(uint32 secondsAgo) public view returns (uint256) {... */\n    tag_4:\n      tag_13\n      0x04\n      dup1\n      calldatasize\n      sub\n      dup2\n      add\n      swap1\n      tag_14\n      swap2\n      swap1\n      tag_15\n      jump\t// in\n    tag_14:\n      tag_16\n      jump\t// in\n    tag_13:\n      mload(0x40)\n      tag_17\n      swap2\n      swap1\n      tag_18\n      jump\t// in\n    tag_17:\n      mload(0x40)\n      dup1\n      swap2\n      sub\n      swap1\n      return\n        /* \"contracts/testnetContract.sol\":506:579  address public constant weth = 0x7b79995e5f793A07Bc00c21412e50Ecae098E7f9 */\n    tag_5:\n      tag_19\n      tag_20\n      jump\t// in\n    tag_19:\n      mload(0x40)\n      tag_21\n      swap2\n      swap1\n      tag_12\n      jump\t// in\n    tag_21:\n      mload(0x40)\n      dup1\n      swap2\n      sub\n      swap1\n      return\n        /* \"contracts/testnetContract.sol\":1090:2025  function usdToToken(... */\n    tag_6:\n      tag_22\n      0x04\n      dup1\n      calldatasize\n      sub\n      dup2\n      add\n      swap1\n      tag_23\n      swap2\n      swap1\n      tag_24\n      jump\t// in\n    tag_23:\n      tag_25\n      jump\t// in\n    tag_22:\n      mload(0x40)\n      tag_26\n      swap2\n      swap1\n      tag_18\n      jump\t// in\n    tag_26:\n      mload(0x40)\n      dup1\n      swap2\n      sub\n      swap1\n      return\n        /* \"contracts/testnetContract.sol\":803:924  function getEthUsdPrice() public view returns (uint256) {... */\n    tag_7:\n      tag_27\n      tag_28\n      jump\t// in\n    tag_27:\n      mload(0x40)\n      tag_29\n      swap2\n      swap1\n      tag_18\n      jump\t// in\n    tag_29:\n      mload(0x40)\n      dup1\n      swap2\n      sub\n      swap1\n      return\n        /* \"contracts/testnetContract.sol\":425:499  address public constant token = 0x1c7D4B196Cb0C7B01d743Fbc6116a902379C7238 */\n    tag_8:\n      tag_30\n      tag_31\n      jump\t// in\n    tag_30:\n      mload(0x40)\n      tag_32\n      swap2\n      swap1\n      tag_12\n      jump\t// in\n    tag_32:\n      mload(0x40)\n      dup1\n      swap2\n      sub\n      swap1\n      return\n        /* \"contracts/testnetContract.sol\":388:414  address public priceSource */\n    tag_10:\n      0x00\n      0x00\n      swap1\n      sload\n      swap1\n      0x0100\n      exp\n      swap1\n      div\n      0xffffffffffffffffffffffffffffffffffffffff\n      and\n      dup2\n      jump\t// out\n        /* \"contracts/testnetContract.sol\":934:1084  function getMockTokenPrice(uint32 secondsAgo) public view returns (uint256) {... */\n    tag_16:\n        /* \"contracts/testnetContract.sol\":1001:1008  uint256 */\n      0x00\n        /* \"contracts/testnetContract.sol\":1039:1050  priceSource */\n      0x00\n      0x00\n      swap1\n      sload\n      swap1\n      0x0100\n      exp\n      swap1\n      div\n      0xffffffffffffffffffffffffffffffffffffffff\n      and\n        /* \"contracts/testnetContract.sol\":1027:1065  IMockPrices(priceSource).getTokenPrice */\n      0xffffffffffffffffffffffffffffffffffffffff\n      and\n      0x906d67ea\n        /* \"contracts/testnetContract.sol\":1066:1076  secondsAgo */\n      dup4\n        /* \"contracts/testnetContract.sol\":1027:1077  IMockPrices(priceSource).getTokenPrice(secondsAgo) */\n      mload(0x40)\n      dup3\n      0xffffffff\n      and\n      0xe0\n      shl\n      dup2\n      mstore\n      0x04\n      add\n      tag_34\n      swap2\n      swap1\n      tag_35\n      jump\t// in\n    tag_34:\n      0x20\n      mload(0x40)\n      dup1\n      dup4\n      sub\n      dup2\n      dup7\n      gas\n      staticcall\n      iszero\n      dup1\n      iszero\n      tag_37\n      jumpi\n      returndatacopy(0x00, 0x00, returndatasize)\n      revert(0x00, returndatasize)\n    tag_37:\n      pop\n      pop\n      pop\n      pop\n      mload(0x40)\n      returndatasize\n      not(0x1f)\n      0x1f\n      dup3\n      add\n      and\n      dup3\n      add\n      dup1\n      0x40\n      mstore\n      pop\n      dup2\n      add\n      swap1\n      tag_38\n      swap2\n      swap1\n      tag_39\n      jump\t// in\n    tag_38:\n        /* \"contracts/testnetContract.sol\":1020:1077  return IMockPrices(priceSource).getTokenPrice(secondsAgo) */\n      swap1\n      pop\n        /* \"contracts/testnetContract.sol\":934:1084  function getMockTokenPrice(uint32 secondsAgo) public view returns (uint256) {... */\n      swap2\n      swap1\n      pop\n      jump\t// out\n        /* \"contracts/testnetContract.sol\":506:579  address public constant weth = 0x7b79995e5f793A07Bc00c21412e50Ecae098E7f9 */\n    tag_20:\n        /* \"contracts/testnetContract.sol\":537:579  0x7b79995e5f793A07Bc00c21412e50Ecae098E7f9 */\n      0x7b79995e5f793a07bc00c21412e50ecae098e7f9\n        /* \"contracts/testnetContract.sol\":506:579  address public constant weth = 0x7b79995e5f793A07Bc00c21412e50Ecae098E7f9 */\n      dup2\n      jump\t// out\n        /* \"contracts/testnetContract.sol\":1090:2025  function usdToToken(... */\n    tag_25:\n        /* \"contracts/testnetContract.sol\":1272:1292  uint256 tokensNeeded */\n      0x00\n        /* \"contracts/testnetContract.sol\":1309:1325  uint256 tokenEth */\n      0x00\n        /* \"contracts/testnetContract.sol\":1328:1357  getMockTokenPrice(secondsAgo) */\n      tag_41\n        /* \"contracts/testnetContract.sol\":1346:1356  secondsAgo */\n      dup4\n        /* \"contracts/testnetContract.sol\":1328:1345  getMockTokenPrice */\n      tag_16\n        /* \"contracts/testnetContract.sol\":1328:1357  getMockTokenPrice(secondsAgo) */\n      jump\t// in\n    tag_41:\n        /* \"contracts/testnetContract.sol\":1309:1357  uint256 tokenEth = getMockTokenPrice(secondsAgo) */\n      swap1\n      pop\n        /* \"contracts/testnetContract.sol\":1383:1397  uint256 ethUsd */\n      0x00\n        /* \"contracts/testnetContract.sol\":1400:1416  getEthUsdPrice() */\n      tag_42\n        /* \"contracts/testnetContract.sol\":1400:1414  getEthUsdPrice */\n      tag_28\n        /* \"contracts/testnetContract.sol\":1400:1416  getEthUsdPrice() */\n      jump\t// in\n    tag_42:\n        /* \"contracts/testnetContract.sol\":1383:1416  uint256 ethUsd = getEthUsdPrice() */\n      swap1\n      pop\n        /* \"contracts/testnetContract.sol\":1460:1479  uint8 tokenDecimals */\n      0x00\n        /* \"contracts/testnetContract.sol\":1482:1500  getTokenDecimals() */\n      tag_43\n        /* \"contracts/testnetContract.sol\":1482:1498  getTokenDecimals */\n      tag_44\n        /* \"contracts/testnetContract.sol\":1482:1500  getTokenDecimals() */\n      jump\t// in\n    tag_43:\n        /* \"contracts/testnetContract.sol\":1460:1500  uint8 tokenDecimals = getTokenDecimals() */\n      swap1\n      pop\n        /* \"contracts/testnetContract.sol\":1530:1531  0 */\n      0x00\n        /* \"contracts/testnetContract.sol\":1519:1527  tokenEth */\n      dup4\n        /* \"contracts/testnetContract.sol\":1519:1531  tokenEth > 0 */\n      gt\n        /* \"contracts/testnetContract.sol\":1511:1560  require(tokenEth > 0, \"Token/ETH price is zero.\") */\n      tag_45\n      jumpi\n      mload(0x40)\n      0x08c379a000000000000000000000000000000000000000000000000000000000\n      dup2\n      mstore\n      0x04\n      add\n      tag_46\n      swap1\n      tag_47\n      jump\t// in\n    tag_46:\n      mload(0x40)\n      dup1\n      swap2\n      sub\n      swap1\n      revert\n    tag_45:\n        /* \"contracts/testnetContract.sol\":1587:1588  0 */\n      0x00\n        /* \"contracts/testnetContract.sol\":1578:1584  ethUsd */\n      dup3\n        /* \"contracts/testnetContract.sol\":1578:1588  ethUsd > 0 */\n      gt\n        /* \"contracts/testnetContract.sol\":1570:1615  require(ethUsd > 0, \"ETH/USD price is zero.\") */\n      tag_48\n      jumpi\n      mload(0x40)\n      0x08c379a000000000000000000000000000000000000000000000000000000000\n      dup2\n      mstore\n      0x04\n      add\n      tag_49\n      swap1\n      tag_50\n      jump\t// in\n    tag_49:\n      mload(0x40)\n      dup1\n      swap2\n      sub\n      swap1\n      revert\n    tag_48:\n        /* \"contracts/testnetContract.sol\":1634:1653  uint256 denominator */\n      0x00\n        /* \"contracts/testnetContract.sol\":1667:1673  ethUsd */\n      dup3\n        /* \"contracts/testnetContract.sol\":1656:1664  tokenEth */\n      dup5\n        /* \"contracts/testnetContract.sol\":1656:1673  tokenEth * ethUsd */\n      tag_51\n      swap2\n      swap1\n      tag_52\n      jump\t// in\n    tag_51:\n        /* \"contracts/testnetContract.sol\":1634:1673  uint256 denominator = tokenEth * ethUsd */\n      swap1\n      pop\n        /* \"contracts/testnetContract.sol\":1684:1715  uint256 tokenDecimalsMultiplier */\n      0x00\n        /* \"contracts/testnetContract.sol\":1730:1743  tokenDecimals */\n      dup3\n        /* \"contracts/testnetContract.sol\":1722:1744  uint256(tokenDecimals) */\n      0xff\n      and\n        /* \"contracts/testnetContract.sol\":1718:1720  10 */\n      0x0a\n        /* \"contracts/testnetContract.sol\":1718:1744  10**uint256(tokenDecimals) */\n      tag_53\n      swap2\n      swap1\n      tag_54\n      jump\t// in\n    tag_53:\n        /* \"contracts/testnetContract.sol\":1684:1744  uint256 tokenDecimalsMultiplier = 10**uint256(tokenDecimals) */\n      swap1\n      pop\n        /* \"contracts/testnetContract.sol\":1764:1786  uint256 numeratorPart1 */\n      0x00\n        /* \"contracts/testnetContract.sol\":1801:1805  1e18 */\n      0x0de0b6b3a7640000\n        /* \"contracts/testnetContract.sol\":1789:1798  usdAmount */\n      dup10\n        /* \"contracts/testnetContract.sol\":1789:1805  usdAmount * 1e18 */\n      tag_55\n      swap2\n      swap1\n      tag_52\n      jump\t// in\n    tag_55:\n        /* \"contracts/testnetContract.sol\":1764:1805  uint256 numeratorPart1 = usdAmount * 1e18 */\n      swap1\n      pop\n        /* \"contracts/testnetContract.sol\":1816:1838  uint256 numeratorPart2 */\n      0x00\n        /* \"contracts/testnetContract.sol\":1858:1861  1e6 */\n      0x0f4240\n        /* \"contracts/testnetContract.sol\":1841:1855  numeratorPart1 */\n      dup3\n        /* \"contracts/testnetContract.sol\":1841:1861  numeratorPart1 * 1e6 */\n      tag_56\n      swap2\n      swap1\n      tag_52\n      jump\t// in\n    tag_56:\n        /* \"contracts/testnetContract.sol\":1816:1861  uint256 numeratorPart2 = numeratorPart1 * 1e6 */\n      swap1\n      pop\n        /* \"contracts/testnetContract.sol\":1871:1888  uint256 numerator */\n      0x00\n        /* \"contracts/testnetContract.sol\":1908:1931  tokenDecimalsMultiplier */\n      dup4\n        /* \"contracts/testnetContract.sol\":1891:1905  numeratorPart2 */\n      dup3\n        /* \"contracts/testnetContract.sol\":1891:1931  numeratorPart2 * tokenDecimalsMultiplier */\n      tag_57\n      swap2\n      swap1\n      tag_52\n      jump\t// in\n    tag_57:\n        /* \"contracts/testnetContract.sol\":1871:1931  uint256 numerator = numeratorPart2 * tokenDecimalsMultiplier */\n      swap1\n      pop\n        /* \"contracts/testnetContract.sol\":1969:1980  denominator */\n      dup5\n        /* \"contracts/testnetContract.sol\":1957:1966  numerator */\n      dup2\n        /* \"contracts/testnetContract.sol\":1957:1980  numerator / denominator */\n      tag_58\n      swap2\n      swap1\n      tag_59\n      jump\t// in\n    tag_58:\n        /* \"contracts/testnetContract.sol\":1942:1980  tokensNeeded = numerator / denominator */\n      swap9\n      pop\n        /* \"contracts/testnetContract.sol\":1999:2018  return tokensNeeded */\n      pop\n      pop\n      pop\n      pop\n      pop\n      pop\n      pop\n      pop\n        /* \"contracts/testnetContract.sol\":1090:2025  function usdToToken(... */\n      swap3\n      swap2\n      pop\n      pop\n      jump\t// out\n        /* \"contracts/testnetContract.sol\":803:924  function getEthUsdPrice() public view returns (uint256) {... */\n    tag_28:\n        /* \"contracts/testnetContract.sol\":850:857  uint256 */\n      0x00\n        /* \"contracts/testnetContract.sol\":888:899  priceSource */\n      0x00\n      0x00\n      swap1\n      sload\n      swap1\n      0x0100\n      exp\n      swap1\n      div\n      0xffffffffffffffffffffffffffffffffffffffff\n      and\n        /* \"contracts/testnetContract.sol\":876:915  IMockPrices(priceSource).getEthUsdPrice */\n      0xffffffffffffffffffffffffffffffffffffffff\n      and\n      0xa0a8045e\n        /* \"contracts/testnetContract.sol\":876:917  IMockPrices(priceSource).getEthUsdPrice() */\n      mload(0x40)\n      dup2\n      0xffffffff\n      and\n      0xe0\n      shl\n      dup2\n      mstore\n      0x04\n      add\n      0x20\n      mload(0x40)\n      dup1\n      dup4\n      sub\n      dup2\n      dup7\n      gas\n      staticcall\n      iszero\n      dup1\n      iszero\n      tag_62\n      jumpi\n      returndatacopy(0x00, 0x00, returndatasize)\n      revert(0x00, returndatasize)\n    tag_62:\n      pop\n      pop\n      pop\n      pop\n      mload(0x40)\n      returndatasize\n      not(0x1f)\n      0x1f\n      dup3\n      add\n      and\n      dup3\n      add\n      dup1\n      0x40\n      mstore\n      pop\n      dup2\n      add\n      swap1\n      tag_63\n      swap2\n      swap1\n      tag_39\n      jump\t// in\n    tag_63:\n        /* \"contracts/testnetContract.sol\":869:917  return IMockPrices(priceSource).getEthUsdPrice() */\n      swap1\n      pop\n        /* \"contracts/testnetContract.sol\":803:924  function getEthUsdPrice() public view returns (uint256) {... */\n      swap1\n      jump\t// out\n        /* \"contracts/testnetContract.sol\":425:499  address public constant token = 0x1c7D4B196Cb0C7B01d743Fbc6116a902379C7238 */\n    tag_31:\n        /* \"contracts/testnetContract.sol\":457:499  0x1c7D4B196Cb0C7B01d743Fbc6116a902379C7238 */\n      0x1c7d4b196cb0c7b01d743fbc6116a902379c7238\n        /* \"contracts/testnetContract.sol\":425:499  address public constant token = 0x1c7D4B196Cb0C7B01d743Fbc6116a902379C7238 */\n      dup2\n      jump\t// out\n        /* \"contracts/testnetContract.sol\":687:793  function getTokenDecimals() internal view returns (uint8) {... */\n    tag_44:\n        /* \"contracts/testnetContract.sol\":738:743  uint8 */\n      0x00\n        /* \"contracts/testnetContract.sol\":457:499  0x1c7D4B196Cb0C7B01d743Fbc6116a902379C7238 */\n      0x1c7d4b196cb0c7b01d743fbc6116a902379c7238\n        /* \"contracts/testnetContract.sol\":762:784  IERC20(token).decimals */\n      0xffffffffffffffffffffffffffffffffffffffff\n      and\n      0x313ce567\n        /* \"contracts/testnetContract.sol\":762:786  IERC20(token).decimals() */\n      mload(0x40)\n      dup2\n      0xffffffff\n      and\n      0xe0\n      shl\n      dup2\n      mstore\n      0x04\n      add\n      0x20\n      mload(0x40)\n      dup1\n      dup4\n      sub\n      dup2\n      dup7\n      gas\n      staticcall\n      iszero\n      dup1\n      iszero\n      tag_66\n      jumpi\n      returndatacopy(0x00, 0x00, returndatasize)\n      revert(0x00, returndatasize)\n    tag_66:\n      pop\n      pop\n      pop\n      pop\n      mload(0x40)\n      returndatasize\n      not(0x1f)\n      0x1f\n      dup3\n      add\n      and\n      dup3\n      add\n      dup1\n      0x40\n      mstore\n      pop\n      dup2\n      add\n      swap1\n      tag_67\n      swap2\n      swap1\n      tag_68\n      jump\t// in\n    tag_67:\n        /* \"contracts/testnetContract.sol\":755:786  return IERC20(token).decimals() */\n      swap1\n      pop\n        /* \"contracts/testnetContract.sol\":687:793  function getTokenDecimals() internal view returns (uint8) {... */\n      swap1\n      jump\t// out\n        /* \"#utility.yul\":7:133   */\n    tag_69:\n        /* \"#utility.yul\":44:51   */\n      0x00\n        /* \"#utility.yul\":84:126   */\n      0xffffffffffffffffffffffffffffffffffffffff\n        /* \"#utility.yul\":77:82   */\n      dup3\n        /* \"#utility.yul\":73:127   */\n      and\n        /* \"#utility.yul\":62:127   */\n      swap1\n      pop\n        /* \"#utility.yul\":7:133   */\n      swap2\n      swap1\n      pop\n      jump\t// out\n        /* \"#utility.yul\":139:235   */\n    tag_70:\n        /* \"#utility.yul\":176:183   */\n      0x00\n        /* \"#utility.yul\":205:229   */\n      tag_100\n        /* \"#utility.yul\":223:228   */\n      dup3\n        /* \"#utility.yul\":205:229   */\n      tag_69\n      jump\t// in\n    tag_100:\n        /* \"#utility.yul\":194:229   */\n      swap1\n      pop\n        /* \"#utility.yul\":139:235   */\n      swap2\n      swap1\n      pop\n      jump\t// out\n        /* \"#utility.yul\":241:359   */\n    tag_71:\n        /* \"#utility.yul\":328:352   */\n      tag_102\n        /* \"#utility.yul\":346:351   */\n      dup2\n        /* \"#utility.yul\":328:352   */\n      tag_70\n      jump\t// in\n    tag_102:\n        /* \"#utility.yul\":323:326   */\n      dup3\n        /* \"#utility.yul\":316:353   */\n      mstore\n        /* \"#utility.yul\":241:359   */\n      pop\n      pop\n      jump\t// out\n        /* \"#utility.yul\":365:587   */\n    tag_12:\n        /* \"#utility.yul\":458:462   */\n      0x00\n        /* \"#utility.yul\":496:498   */\n      0x20\n        /* \"#utility.yul\":485:494   */\n      dup3\n        /* \"#utility.yul\":481:499   */\n      add\n        /* \"#utility.yul\":473:499   */\n      swap1\n      pop\n        /* \"#utility.yul\":509:580   */\n      tag_104\n        /* \"#utility.yul\":577:578   */\n      0x00\n        /* \"#utility.yul\":566:575   */\n      dup4\n        /* \"#utility.yul\":562:579   */\n      add\n        /* \"#utility.yul\":553:559   */\n      dup5\n        /* \"#utility.yul\":509:580   */\n      tag_71\n      jump\t// in\n    tag_104:\n        /* \"#utility.yul\":365:587   */\n      swap3\n      swap2\n      pop\n      pop\n      jump\t// out\n        /* \"#utility.yul\":674:791   */\n    tag_73:\n        /* \"#utility.yul\":783:784   */\n      0x00\n        /* \"#utility.yul\":780:781   */\n      0x00\n        /* \"#utility.yul\":773:785   */\n      revert\n        /* \"#utility.yul\":920:1013   */\n    tag_75:\n        /* \"#utility.yul\":956:963   */\n      0x00\n        /* \"#utility.yul\":996:1006   */\n      0xffffffff\n        /* \"#utility.yul\":989:994   */\n      dup3\n        /* \"#utility.yul\":985:1007   */\n      and\n        /* \"#utility.yul\":974:1007   */\n      swap1\n      pop\n        /* \"#utility.yul\":920:1013   */\n      swap2\n      swap1\n      pop\n      jump\t// out\n        /* \"#utility.yul\":1019:1139   */\n    tag_76:\n        /* \"#utility.yul\":1091:1114   */\n      tag_110\n        /* \"#utility.yul\":1108:1113   */\n      dup2\n        /* \"#utility.yul\":1091:1114   */\n      tag_75\n      jump\t// in\n    tag_110:\n        /* \"#utility.yul\":1084:1089   */\n      dup2\n        /* \"#utility.yul\":1081:1115   */\n      eq\n        /* \"#utility.yul\":1071:1133   */\n      tag_111\n      jumpi\n        /* \"#utility.yul\":1129:1130   */\n      0x00\n        /* \"#utility.yul\":1126:1127   */\n      0x00\n        /* \"#utility.yul\":1119:1131   */\n      revert\n        /* \"#utility.yul\":1071:1133   */\n    tag_111:\n        /* \"#utility.yul\":1019:1139   */\n      pop\n      jump\t// out\n        /* \"#utility.yul\":1145:1282   */\n    tag_77:\n        /* \"#utility.yul\":1190:1195   */\n      0x00\n        /* \"#utility.yul\":1228:1234   */\n      dup2\n        /* \"#utility.yul\":1215:1235   */\n      calldataload\n        /* \"#utility.yul\":1206:1235   */\n      swap1\n      pop\n        /* \"#utility.yul\":1244:1276   */\n      tag_113\n        /* \"#utility.yul\":1270:1275   */\n      dup2\n        /* \"#utility.yul\":1244:1276   */\n      tag_76\n      jump\t// in\n    tag_113:\n        /* \"#utility.yul\":1145:1282   */\n      swap3\n      swap2\n      pop\n      pop\n      jump\t// out\n        /* \"#utility.yul\":1288:1615   */\n    tag_15:\n        /* \"#utility.yul\":1346:1352   */\n      0x00\n        /* \"#utility.yul\":1395:1397   */\n      0x20\n        /* \"#utility.yul\":1383:1392   */\n      dup3\n        /* \"#utility.yul\":1374:1381   */\n      dup5\n        /* \"#utility.yul\":1370:1393   */\n      sub\n        /* \"#utility.yul\":1366:1398   */\n      slt\n        /* \"#utility.yul\":1363:1482   */\n      iszero\n      tag_115\n      jumpi\n        /* \"#utility.yul\":1401:1480   */\n      tag_116\n      tag_73\n      jump\t// in\n    tag_116:\n        /* \"#utility.yul\":1363:1482   */\n    tag_115:\n        /* \"#utility.yul\":1521:1522   */\n      0x00\n        /* \"#utility.yul\":1546:1598   */\n      tag_117\n        /* \"#utility.yul\":1590:1597   */\n      dup5\n        /* \"#utility.yul\":1581:1587   */\n      dup3\n        /* \"#utility.yul\":1570:1579   */\n      dup6\n        /* \"#utility.yul\":1566:1588   */\n      add\n        /* \"#utility.yul\":1546:1598   */\n      tag_77\n      jump\t// in\n    tag_117:\n        /* \"#utility.yul\":1536:1598   */\n      swap2\n      pop\n        /* \"#utility.yul\":1492:1608   */\n      pop\n        /* \"#utility.yul\":1288:1615   */\n      swap3\n      swap2\n      pop\n      pop\n      jump\t// out\n        /* \"#utility.yul\":1621:1698   */\n    tag_78:\n        /* \"#utility.yul\":1658:1665   */\n      0x00\n        /* \"#utility.yul\":1687:1692   */\n      dup2\n        /* \"#utility.yul\":1676:1692   */\n      swap1\n      pop\n        /* \"#utility.yul\":1621:1698   */\n      swap2\n      swap1\n      pop\n      jump\t// out\n        /* \"#utility.yul\":1704:1822   */\n    tag_79:\n        /* \"#utility.yul\":1791:1815   */\n      tag_120\n        /* \"#utility.yul\":1809:1814   */\n      dup2\n        /* \"#utility.yul\":1791:1815   */\n      tag_78\n      jump\t// in\n    tag_120:\n        /* \"#utility.yul\":1786:1789   */\n      dup3\n        /* \"#utility.yul\":1779:1816   */\n      mstore\n        /* \"#utility.yul\":1704:1822   */\n      pop\n      pop\n      jump\t// out\n        /* \"#utility.yul\":1828:2050   */\n    tag_18:\n        /* \"#utility.yul\":1921:1925   */\n      0x00\n        /* \"#utility.yul\":1959:1961   */\n      0x20\n        /* \"#utility.yul\":1948:1957   */\n      dup3\n        /* \"#utility.yul\":1944:1962   */\n      add\n        /* \"#utility.yul\":1936:1962   */\n      swap1\n      pop\n        /* \"#utility.yul\":1972:2043   */\n      tag_122\n        /* \"#utility.yul\":2040:2041   */\n      0x00\n        /* \"#utility.yul\":2029:2038   */\n      dup4\n        /* \"#utility.yul\":2025:2042   */\n      add\n        /* \"#utility.yul\":2016:2022   */\n      dup5\n        /* \"#utility.yul\":1972:2043   */\n      tag_79\n      jump\t// in\n    tag_122:\n        /* \"#utility.yul\":1828:2050   */\n      swap3\n      swap2\n      pop\n      pop\n      jump\t// out\n        /* \"#utility.yul\":2056:2178   */\n    tag_80:\n        /* \"#utility.yul\":2129:2153   */\n      tag_124\n        /* \"#utility.yul\":2147:2152   */\n      dup2\n        /* \"#utility.yul\":2129:2153   */\n      tag_78\n      jump\t// in\n    tag_124:\n        /* \"#utility.yul\":2122:2127   */\n      dup2\n        /* \"#utility.yul\":2119:2154   */\n      eq\n        /* \"#utility.yul\":2109:2172   */\n      tag_125\n      jumpi\n        /* \"#utility.yul\":2168:2169   */\n      0x00\n        /* \"#utility.yul\":2165:2166   */\n      0x00\n        /* \"#utility.yul\":2158:2170   */\n      revert\n        /* \"#utility.yul\":2109:2172   */\n    tag_125:\n        /* \"#utility.yul\":2056:2178   */\n      pop\n      jump\t// out\n        /* \"#utility.yul\":2184:2323   */\n    tag_81:\n        /* \"#utility.yul\":2230:2235   */\n      0x00\n        /* \"#utility.yul\":2268:2274   */\n      dup2\n        /* \"#utility.yul\":2255:2275   */\n      calldataload\n        /* \"#utility.yul\":2246:2275   */\n      swap1\n      pop\n        /* \"#utility.yul\":2284:2317   */\n      tag_127\n        /* \"#utility.yul\":2311:2316   */\n      dup2\n        /* \"#utility.yul\":2284:2317   */\n      tag_80\n      jump\t// in\n    tag_127:\n        /* \"#utility.yul\":2184:2323   */\n      swap3\n      swap2\n      pop\n      pop\n      jump\t// out\n        /* \"#utility.yul\":2329:2801   */\n    tag_24:\n        /* \"#utility.yul\":2396:2402   */\n      0x00\n        /* \"#utility.yul\":2404:2410   */\n      0x00\n        /* \"#utility.yul\":2453:2455   */\n      0x40\n        /* \"#utility.yul\":2441:2450   */\n      dup4\n        /* \"#utility.yul\":2432:2439   */\n      dup6\n        /* \"#utility.yul\":2428:2451   */\n      sub\n        /* \"#utility.yul\":2424:2456   */\n      slt\n        /* \"#utility.yul\":2421:2540   */\n      iszero\n      tag_129\n      jumpi\n        /* \"#utility.yul\":2459:2538   */\n      tag_130\n      tag_73\n      jump\t// in\n    tag_130:\n        /* \"#utility.yul\":2421:2540   */\n    tag_129:\n        /* \"#utility.yul\":2579:2580   */\n      0x00\n        /* \"#utility.yul\":2604:2657   */\n      tag_131\n        /* \"#utility.yul\":2649:2656   */\n      dup6\n        /* \"#utility.yul\":2640:2646   */\n      dup3\n        /* \"#utility.yul\":2629:2638   */\n      dup7\n        /* \"#utility.yul\":2625:2647   */\n      add\n        /* \"#utility.yul\":2604:2657   */\n      tag_81\n      jump\t// in\n    tag_131:\n        /* \"#utility.yul\":2594:2657   */\n      swap3\n      pop\n        /* \"#utility.yul\":2550:2667   */\n      pop\n        /* \"#utility.yul\":2706:2708   */\n      0x20\n        /* \"#utility.yul\":2732:2784   */\n      tag_132\n        /* \"#utility.yul\":2776:2783   */\n      dup6\n        /* \"#utility.yul\":2767:2773   */\n      dup3\n        /* \"#utility.yul\":2756:2765   */\n      dup7\n        /* \"#utility.yul\":2752:2774   */\n      add\n        /* \"#utility.yul\":2732:2784   */\n      tag_77\n      jump\t// in\n    tag_132:\n        /* \"#utility.yul\":2722:2784   */\n      swap2\n      pop\n        /* \"#utility.yul\":2677:2794   */\n      pop\n        /* \"#utility.yul\":2329:2801   */\n      swap3\n      pop\n      swap3\n      swap1\n      pop\n      jump\t// out\n        /* \"#utility.yul\":2807:2922   */\n    tag_82:\n        /* \"#utility.yul\":2892:2915   */\n      tag_134\n        /* \"#utility.yul\":2909:2914   */\n      dup2\n        /* \"#utility.yul\":2892:2915   */\n      tag_75\n      jump\t// in\n    tag_134:\n        /* \"#utility.yul\":2887:2890   */\n      dup3\n        /* \"#utility.yul\":2880:2916   */\n      mstore\n        /* \"#utility.yul\":2807:2922   */\n      pop\n      pop\n      jump\t// out\n        /* \"#utility.yul\":2928:3146   */\n    tag_35:\n        /* \"#utility.yul\":3019:3023   */\n      0x00\n        /* \"#utility.yul\":3057:3059   */\n      0x20\n        /* \"#utility.yul\":3046:3055   */\n      dup3\n        /* \"#utility.yul\":3042:3060   */\n      add\n        /* \"#utility.yul\":3034:3060   */\n      swap1\n      pop\n        /* \"#utility.yul\":3070:3139   */\n      tag_136\n        /* \"#utility.yul\":3136:3137   */\n      0x00\n        /* \"#utility.yul\":3125:3134   */\n      dup4\n        /* \"#utility.yul\":3121:3138   */\n      add\n        /* \"#utility.yul\":3112:3118   */\n      dup5\n        /* \"#utility.yul\":3070:3139   */\n      tag_82\n      jump\t// in\n    tag_136:\n        /* \"#utility.yul\":2928:3146   */\n      swap3\n      swap2\n      pop\n      pop\n      jump\t// out\n        /* \"#utility.yul\":3152:3295   */\n    tag_83:\n        /* \"#utility.yul\":3209:3214   */\n      0x00\n        /* \"#utility.yul\":3240:3246   */\n      dup2\n        /* \"#utility.yul\":3234:3247   */\n      mload\n        /* \"#utility.yul\":3225:3247   */\n      swap1\n      pop\n        /* \"#utility.yul\":3256:3289   */\n      tag_138\n        /* \"#utility.yul\":3283:3288   */\n      dup2\n        /* \"#utility.yul\":3256:3289   */\n      tag_80\n      jump\t// in\n    tag_138:\n        /* \"#utility.yul\":3152:3295   */\n      swap3\n      swap2\n      pop\n      pop\n      jump\t// out\n        /* \"#utility.yul\":3301:3652   */\n    tag_39:\n        /* \"#utility.yul\":3371:3377   */\n      0x00\n        /* \"#utility.yul\":3420:3422   */\n      0x20\n        /* \"#utility.yul\":3408:3417   */\n      dup3\n        /* \"#utility.yul\":3399:3406   */\n      dup5\n        /* \"#utility.yul\":3395:3418   */\n      sub\n        /* \"#utility.yul\":3391:3423   */\n      slt\n        /* \"#utility.yul\":3388:3507   */\n      iszero\n      tag_140\n      jumpi\n        /* \"#utility.yul\":3426:3505   */\n      tag_141\n      tag_73\n      jump\t// in\n    tag_141:\n        /* \"#utility.yul\":3388:3507   */\n    tag_140:\n        /* \"#utility.yul\":3546:3547   */\n      0x00\n        /* \"#utility.yul\":3571:3635   */\n      tag_142\n        /* \"#utility.yul\":3627:3634   */\n      dup5\n        /* \"#utility.yul\":3618:3624   */\n      dup3\n        /* \"#utility.yul\":3607:3616   */\n      dup6\n        /* \"#utility.yul\":3603:3625   */\n      add\n        /* \"#utility.yul\":3571:3635   */\n      tag_83\n      jump\t// in\n    tag_142:\n        /* \"#utility.yul\":3561:3635   */\n      swap2\n      pop\n        /* \"#utility.yul\":3517:3645   */\n      pop\n        /* \"#utility.yul\":3301:3652   */\n      swap3\n      swap2\n      pop\n      pop\n      jump\t// out\n        /* \"#utility.yul\":3658:3827   */\n    tag_84:\n        /* \"#utility.yul\":3742:3753   */\n      0x00\n        /* \"#utility.yul\":3776:3782   */\n      dup3\n        /* \"#utility.yul\":3771:3774   */\n      dup3\n        /* \"#utility.yul\":3764:3783   */\n      mstore\n        /* \"#utility.yul\":3816:3820   */\n      0x20\n        /* \"#utility.yul\":3811:3814   */\n      dup3\n        /* \"#utility.yul\":3807:3821   */\n      add\n        /* \"#utility.yul\":3792:3821   */\n      swap1\n      pop\n        /* \"#utility.yul\":3658:3827   */\n      swap3\n      swap2\n      pop\n      pop\n      jump\t// out\n        /* \"#utility.yul\":3833:4007   */\n    tag_85:\n        /* \"#utility.yul\":3973:3999   */\n      0x546f6b656e2f455448207072696365206973207a65726f2e0000000000000000\n        /* \"#utility.yul\":3969:3970   */\n      0x00\n        /* \"#utility.yul\":3961:3967   */\n      dup3\n        /* \"#utility.yul\":3957:3971   */\n      add\n        /* \"#utility.yul\":3950:4000   */\n      mstore\n        /* \"#utility.yul\":3833:4007   */\n      pop\n      jump\t// out\n        /* \"#utility.yul\":4013:4379   */\n    tag_86:\n        /* \"#utility.yul\":4155:4158   */\n      0x00\n        /* \"#utility.yul\":4176:4243   */\n      tag_146\n        /* \"#utility.yul\":4240:4242   */\n      0x18\n        /* \"#utility.yul\":4235:4238   */\n      dup4\n        /* \"#utility.yul\":4176:4243   */\n      tag_84\n      jump\t// in\n    tag_146:\n        /* \"#utility.yul\":4169:4243   */\n      swap2\n      pop\n        /* \"#utility.yul\":4252:4345   */\n      tag_147\n        /* \"#utility.yul\":4341:4344   */\n      dup3\n        /* \"#utility.yul\":4252:4345   */\n      tag_85\n      jump\t// in\n    tag_147:\n        /* \"#utility.yul\":4370:4372   */\n      0x20\n        /* \"#utility.yul\":4365:4368   */\n      dup3\n        /* \"#utility.yul\":4361:4373   */\n      add\n        /* \"#utility.yul\":4354:4373   */\n      swap1\n      pop\n        /* \"#utility.yul\":4013:4379   */\n      swap2\n      swap1\n      pop\n      jump\t// out\n        /* \"#utility.yul\":4385:4804   */\n    tag_47:\n        /* \"#utility.yul\":4551:4555   */\n      0x00\n        /* \"#utility.yul\":4589:4591   */\n      0x20\n        /* \"#utility.yul\":4578:4587   */\n      dup3\n        /* \"#utility.yul\":4574:4592   */\n      add\n        /* \"#utility.yul\":4566:4592   */\n      swap1\n      pop\n        /* \"#utility.yul\":4638:4647   */\n      dup2\n        /* \"#utility.yul\":4632:4636   */\n      dup2\n        /* \"#utility.yul\":4628:4648   */\n      sub\n        /* \"#utility.yul\":4624:4625   */\n      0x00\n        /* \"#utility.yul\":4613:4622   */\n      dup4\n        /* \"#utility.yul\":4609:4626   */\n      add\n        /* \"#utility.yul\":4602:4649   */\n      mstore\n        /* \"#utility.yul\":4666:4797   */\n      tag_149\n        /* \"#utility.yul\":4792:4796   */\n      dup2\n        /* \"#utility.yul\":4666:4797   */\n      tag_86\n      jump\t// in\n    tag_149:\n        /* \"#utility.yul\":4658:4797   */\n      swap1\n      pop\n        /* \"#utility.yul\":4385:4804   */\n      swap2\n      swap1\n      pop\n      jump\t// out\n        /* \"#utility.yul\":4810:4982   */\n    tag_87:\n        /* \"#utility.yul\":4950:4974   */\n      0x4554482f555344207072696365206973207a65726f2e00000000000000000000\n        /* \"#utility.yul\":4946:4947   */\n      0x00\n        /* \"#utility.yul\":4938:4944   */\n      dup3\n        /* \"#utility.yul\":4934:4948   */\n      add\n        /* \"#utility.yul\":4927:4975   */\n      mstore\n        /* \"#utility.yul\":4810:4982   */\n      pop\n      jump\t// out\n        /* \"#utility.yul\":4988:5354   */\n    tag_88:\n        /* \"#utility.yul\":5130:5133   */\n      0x00\n        /* \"#utility.yul\":5151:5218   */\n      tag_152\n        /* \"#utility.yul\":5215:5217   */\n      0x16\n        /* \"#utility.yul\":5210:5213   */\n      dup4\n        /* \"#utility.yul\":5151:5218   */\n      tag_84\n      jump\t// in\n    tag_152:\n        /* \"#utility.yul\":5144:5218   */\n      swap2\n      pop\n        /* \"#utility.yul\":5227:5320   */\n      tag_153\n        /* \"#utility.yul\":5316:5319   */\n      dup3\n        /* \"#utility.yul\":5227:5320   */\n      tag_87\n      jump\t// in\n    tag_153:\n        /* \"#utility.yul\":5345:5347   */\n      0x20\n        /* \"#utility.yul\":5340:5343   */\n      dup3\n        /* \"#utility.yul\":5336:5348   */\n      add\n        /* \"#utility.yul\":5329:5348   */\n      swap1\n      pop\n        /* \"#utility.yul\":4988:5354   */\n      swap2\n      swap1\n      pop\n      jump\t// out\n        /* \"#utility.yul\":5360:5779   */\n    tag_50:\n        /* \"#utility.yul\":5526:5530   */\n      0x00\n        /* \"#utility.yul\":5564:5566   */\n      0x20\n        /* \"#utility.yul\":5553:5562   */\n      dup3\n        /* \"#utility.yul\":5549:5567   */\n      add\n        /* \"#utility.yul\":5541:5567   */\n      swap1\n      pop\n        /* \"#utility.yul\":5613:5622   */\n      dup2\n        /* \"#utility.yul\":5607:5611   */\n      dup2\n        /* \"#utility.yul\":5603:5623   */\n      sub\n        /* \"#utility.yul\":5599:5600   */\n      0x00\n        /* \"#utility.yul\":5588:5597   */\n      dup4\n        /* \"#utility.yul\":5584:5601   */\n      add\n        /* \"#utility.yul\":5577:5624   */\n      mstore\n        /* \"#utility.yul\":5641:5772   */\n      tag_155\n        /* \"#utility.yul\":5767:5771   */\n      dup2\n        /* \"#utility.yul\":5641:5772   */\n      tag_88\n      jump\t// in\n    tag_155:\n        /* \"#utility.yul\":5633:5772   */\n      swap1\n      pop\n        /* \"#utility.yul\":5360:5779   */\n      swap2\n      swap1\n      pop\n      jump\t// out\n        /* \"#utility.yul\":5785:5965   */\n    tag_89:\n        /* \"#utility.yul\":5833:5910   */\n      0x4e487b7100000000000000000000000000000000000000000000000000000000\n        /* \"#utility.yul\":5830:5831   */\n      0x00\n        /* \"#utility.yul\":5823:5911   */\n      mstore\n        /* \"#utility.yul\":5930:5934   */\n      0x11\n        /* \"#utility.yul\":5927:5928   */\n      0x04\n        /* \"#utility.yul\":5920:5935   */\n      mstore\n        /* \"#utility.yul\":5954:5958   */\n      0x24\n        /* \"#utility.yul\":5951:5952   */\n      0x00\n        /* \"#utility.yul\":5944:5959   */\n      revert\n        /* \"#utility.yul\":5971:6381   */\n    tag_52:\n        /* \"#utility.yul\":6011:6018   */\n      0x00\n        /* \"#utility.yul\":6034:6054   */\n      tag_158\n        /* \"#utility.yul\":6052:6053   */\n      dup3\n        /* \"#utility.yul\":6034:6054   */\n      tag_78\n      jump\t// in\n    tag_158:\n        /* \"#utility.yul\":6029:6054   */\n      swap2\n      pop\n        /* \"#utility.yul\":6068:6088   */\n      tag_159\n        /* \"#utility.yul\":6086:6087   */\n      dup4\n        /* \"#utility.yul\":6068:6088   */\n      tag_78\n      jump\t// in\n    tag_159:\n        /* \"#utility.yul\":6063:6088   */\n      swap3\n      pop\n        /* \"#utility.yul\":6123:6124   */\n      dup3\n        /* \"#utility.yul\":6120:6121   */\n      dup3\n        /* \"#utility.yul\":6116:6125   */\n      mul\n        /* \"#utility.yul\":6145:6175   */\n      tag_160\n        /* \"#utility.yul\":6163:6174   */\n      dup2\n        /* \"#utility.yul\":6145:6175   */\n      tag_78\n      jump\t// in\n    tag_160:\n        /* \"#utility.yul\":6134:6175   */\n      swap2\n      pop\n        /* \"#utility.yul\":6324:6325   */\n      dup3\n        /* \"#utility.yul\":6315:6322   */\n      dup3\n        /* \"#utility.yul\":6311:6326   */\n      div\n        /* \"#utility.yul\":6308:6309   */\n      dup5\n        /* \"#utility.yul\":6305:6327   */\n      eq\n        /* \"#utility.yul\":6285:6286   */\n      dup4\n        /* \"#utility.yul\":6278:6287   */\n      iszero\n        /* \"#utility.yul\":6258:6341   */\n      or\n        /* \"#utility.yul\":6235:6374   */\n      tag_161\n      jumpi\n        /* \"#utility.yul\":6354:6372   */\n      tag_162\n      tag_89\n      jump\t// in\n    tag_162:\n        /* \"#utility.yul\":6235:6374   */\n    tag_161:\n        /* \"#utility.yul\":6019:6381   */\n      pop\n        /* \"#utility.yul\":5971:6381   */\n      swap3\n      swap2\n      pop\n      pop\n      jump\t// out\n        /* \"#utility.yul\":6387:6489   */\n    tag_90:\n        /* \"#utility.yul\":6429:6437   */\n      0x00\n        /* \"#utility.yul\":6476:6481   */\n      dup2\n        /* \"#utility.yul\":6473:6474   */\n      0x01\n        /* \"#utility.yul\":6469:6482   */\n      shr\n        /* \"#utility.yul\":6448:6482   */\n      swap1\n      pop\n        /* \"#utility.yul\":6387:6489   */\n      swap2\n      swap1\n      pop\n      jump\t// out\n        /* \"#utility.yul\":6495:7343   */\n    tag_91:\n        /* \"#utility.yul\":6556:6561   */\n      0x00\n        /* \"#utility.yul\":6563:6567   */\n      0x00\n        /* \"#utility.yul\":6587:6593   */\n      dup3\n        /* \"#utility.yul\":6578:6593   */\n      swap2\n      pop\n        /* \"#utility.yul\":6611:6616   */\n      dup4\n        /* \"#utility.yul\":6602:6616   */\n      swap1\n      pop\n        /* \"#utility.yul\":6625:7337   */\n    tag_165:\n        /* \"#utility.yul\":6646:6647   */\n      0x01\n        /* \"#utility.yul\":6636:6644   */\n      dup6\n        /* \"#utility.yul\":6633:6648   */\n      gt\n        /* \"#utility.yul\":6625:7337   */\n      iszero\n      tag_167\n      jumpi\n        /* \"#utility.yul\":6741:6745   */\n      dup1\n        /* \"#utility.yul\":6736:6739   */\n      dup7\n        /* \"#utility.yul\":6732:6746   */\n      div\n        /* \"#utility.yul\":6726:6730   */\n      dup2\n        /* \"#utility.yul\":6723:6747   */\n      gt\n        /* \"#utility.yul\":6720:6770   */\n      iszero\n      tag_168\n      jumpi\n        /* \"#utility.yul\":6750:6768   */\n      tag_169\n      tag_89\n      jump\t// in\n    tag_169:\n        /* \"#utility.yul\":6720:6770   */\n    tag_168:\n        /* \"#utility.yul\":6800:6801   */\n      0x01\n        /* \"#utility.yul\":6790:6798   */\n      dup6\n        /* \"#utility.yul\":6786:6802   */\n      and\n        /* \"#utility.yul\":6783:7234   */\n      iszero\n      tag_170\n      jumpi\n        /* \"#utility.yul\":7215:7219   */\n      dup1\n        /* \"#utility.yul\":7208:7213   */\n      dup3\n        /* \"#utility.yul\":7204:7220   */\n      mul\n        /* \"#utility.yul\":7195:7220   */\n      swap2\n      pop\n        /* \"#utility.yul\":6783:7234   */\n    tag_170:\n        /* \"#utility.yul\":7265:7269   */\n      dup1\n        /* \"#utility.yul\":7259:7263   */\n      dup2\n        /* \"#utility.yul\":7255:7270   */\n      mul\n        /* \"#utility.yul\":7247:7270   */\n      swap1\n      pop\n        /* \"#utility.yul\":7295:7327   */\n      tag_171\n        /* \"#utility.yul\":7318:7326   */\n      dup6\n        /* \"#utility.yul\":7295:7327   */\n      tag_90\n      jump\t// in\n    tag_171:\n        /* \"#utility.yul\":7283:7327   */\n      swap5\n      pop\n        /* \"#utility.yul\":6625:7337   */\n      jump(tag_165)\n    tag_167:\n        /* \"#utility.yul\":6495:7343   */\n      swap5\n      pop\n      swap5\n      swap3\n      pop\n      pop\n      pop\n      jump\t// out\n        /* \"#utility.yul\":7349:8422   */\n    tag_92:\n        /* \"#utility.yul\":7403:7408   */\n      0x00\n        /* \"#utility.yul\":7594:7602   */\n      dup3\n        /* \"#utility.yul\":7584:7624   */\n      tag_173\n      jumpi\n        /* \"#utility.yul\":7615:7616   */\n      0x01\n        /* \"#utility.yul\":7606:7616   */\n      swap1\n      pop\n        /* \"#utility.yul\":7617:7622   */\n      jump(tag_172)\n        /* \"#utility.yul\":7584:7624   */\n    tag_173:\n        /* \"#utility.yul\":7643:7647   */\n      dup2\n        /* \"#utility.yul\":7633:7669   */\n      tag_174\n      jumpi\n        /* \"#utility.yul\":7660:7661   */\n      0x00\n        /* \"#utility.yul\":7651:7661   */\n      swap1\n      pop\n        /* \"#utility.yul\":7662:7667   */\n      jump(tag_172)\n        /* \"#utility.yul\":7633:7669   */\n    tag_174:\n        /* \"#utility.yul\":7729:7733   */\n      dup2\n        /* \"#utility.yul\":7777:7778   */\n      0x01\n        /* \"#utility.yul\":7772:7799   */\n      dup2\n      eq\n      tag_176\n      jumpi\n        /* \"#utility.yul\":7813:7814   */\n      0x02\n        /* \"#utility.yul\":7808:7999   */\n      dup2\n      eq\n      tag_177\n      jumpi\n        /* \"#utility.yul\":7722:7999   */\n      jump(tag_175)\n        /* \"#utility.yul\":7772:7799   */\n    tag_176:\n        /* \"#utility.yul\":7790:7791   */\n      0x01\n        /* \"#utility.yul\":7781:7791   */\n      swap2\n      pop\n        /* \"#utility.yul\":7792:7797   */\n      pop\n      jump(tag_172)\n        /* \"#utility.yul\":7808:7999   */\n    tag_177:\n        /* \"#utility.yul\":7853:7856   */\n      0xff\n        /* \"#utility.yul\":7843:7851   */\n      dup5\n        /* \"#utility.yul\":7840:7857   */\n      gt\n        /* \"#utility.yul\":7837:7880   */\n      iszero\n      tag_178\n      jumpi\n        /* \"#utility.yul\":7860:7878   */\n      tag_179\n      tag_89\n      jump\t// in\n    tag_179:\n        /* \"#utility.yul\":7837:7880   */\n    tag_178:\n        /* \"#utility.yul\":7909:7917   */\n      dup4\n        /* \"#utility.yul\":7906:7907   */\n      0x02\n        /* \"#utility.yul\":7902:7918   */\n      exp\n        /* \"#utility.yul\":7893:7918   */\n      swap2\n      pop\n        /* \"#utility.yul\":7944:7947   */\n      dup5\n        /* \"#utility.yul\":7937:7942   */\n      dup3\n        /* \"#utility.yul\":7934:7948   */\n      gt\n        /* \"#utility.yul\":7931:7971   */\n      iszero\n      tag_180\n      jumpi\n        /* \"#utility.yul\":7951:7969   */\n      tag_181\n      tag_89\n      jump\t// in\n    tag_181:\n        /* \"#utility.yul\":7931:7971   */\n    tag_180:\n        /* \"#utility.yul\":7984:7989   */\n      pop\n      jump(tag_172)\n        /* \"#utility.yul\":7722:7999   */\n    tag_175:\n      pop\n        /* \"#utility.yul\":8108:8110   */\n      0x20\n        /* \"#utility.yul\":8098:8106   */\n      dup4\n        /* \"#utility.yul\":8095:8111   */\n      lt\n        /* \"#utility.yul\":8089:8092   */\n      0x0133\n        /* \"#utility.yul\":8083:8087   */\n      dup4\n        /* \"#utility.yul\":8080:8093   */\n      lt\n        /* \"#utility.yul\":8076:8112   */\n      and\n        /* \"#utility.yul\":8058:8060   */\n      0x4e\n        /* \"#utility.yul\":8048:8056   */\n      dup5\n        /* \"#utility.yul\":8045:8061   */\n      lt\n        /* \"#utility.yul\":8040:8042   */\n      0x0b\n        /* \"#utility.yul\":8034:8038   */\n      dup5\n        /* \"#utility.yul\":8031:8043   */\n      lt\n        /* \"#utility.yul\":8027:8062   */\n      and\n        /* \"#utility.yul\":8011:8122   */\n      or\n        /* \"#utility.yul\":8008:8254   */\n      iszero\n      tag_182\n      jumpi\n        /* \"#utility.yul\":8164:8172   */\n      dup3\n        /* \"#utility.yul\":8158:8162   */\n      dup3\n        /* \"#utility.yul\":8154:8173   */\n      exp\n        /* \"#utility.yul\":8145:8173   */\n      swap1\n      pop\n        /* \"#utility.yul\":8199:8202   */\n      dup4\n        /* \"#utility.yul\":8192:8197   */\n      dup2\n        /* \"#utility.yul\":8189:8203   */\n      gt\n        /* \"#utility.yul\":8186:8226   */\n      iszero\n      tag_183\n      jumpi\n        /* \"#utility.yul\":8206:8224   */\n      tag_184\n      tag_89\n      jump\t// in\n    tag_184:\n        /* \"#utility.yul\":8186:8226   */\n    tag_183:\n        /* \"#utility.yul\":8239:8244   */\n      jump(tag_172)\n        /* \"#utility.yul\":8008:8254   */\n    tag_182:\n        /* \"#utility.yul\":8279:8321   */\n      tag_185\n        /* \"#utility.yul\":8317:8320   */\n      dup5\n        /* \"#utility.yul\":8307:8315   */\n      dup5\n        /* \"#utility.yul\":8301:8305   */\n      dup5\n        /* \"#utility.yul\":8298:8299   */\n      0x01\n        /* \"#utility.yul\":8279:8321   */\n      tag_91\n      jump\t// in\n    tag_185:\n        /* \"#utility.yul\":8264:8321   */\n      swap3\n      pop\n      swap1\n      pop\n        /* \"#utility.yul\":8353:8357   */\n      dup2\n        /* \"#utility.yul\":8348:8351   */\n      dup5\n        /* \"#utility.yul\":8344:8358   */\n      div\n        /* \"#utility.yul\":8337:8342   */\n      dup2\n        /* \"#utility.yul\":8334:8359   */\n      gt\n        /* \"#utility.yul\":8331:8382   */\n      iszero\n      tag_186\n      jumpi\n        /* \"#utility.yul\":8362:8380   */\n      tag_187\n      tag_89\n      jump\t// in\n    tag_187:\n        /* \"#utility.yul\":8331:8382   */\n    tag_186:\n        /* \"#utility.yul\":8411:8415   */\n      dup2\n        /* \"#utility.yul\":8404:8409   */\n      dup2\n        /* \"#utility.yul\":8400:8416   */\n      mul\n        /* \"#utility.yul\":8391:8416   */\n      swap1\n      pop\n        /* \"#utility.yul\":7349:8422   */\n    tag_172:\n      swap4\n      swap3\n      pop\n      pop\n      pop\n      jump\t// out\n        /* \"#utility.yul\":8428:8713   */\n    tag_54:\n        /* \"#utility.yul\":8488:8493   */\n      0x00\n        /* \"#utility.yul\":8512:8535   */\n      tag_189\n        /* \"#utility.yul\":8530:8534   */\n      dup3\n        /* \"#utility.yul\":8512:8535   */\n      tag_78\n      jump\t// in\n    tag_189:\n        /* \"#utility.yul\":8504:8535   */\n      swap2\n      pop\n        /* \"#utility.yul\":8556:8583   */\n      tag_190\n        /* \"#utility.yul\":8574:8582   */\n      dup4\n        /* \"#utility.yul\":8556:8583   */\n      tag_78\n      jump\t// in\n    tag_190:\n        /* \"#utility.yul\":8544:8583   */\n      swap3\n      pop\n        /* \"#utility.yul\":8602:8706   */\n      tag_191\n        /* \"#utility.yul\":8639:8705   */\n      0xffffffffffffffffffffffffffffffffffffffffffffffffffffffffffffffff\n        /* \"#utility.yul\":8629:8637   */\n      dup5\n        /* \"#utility.yul\":8623:8627   */\n      dup5\n        /* \"#utility.yul\":8602:8706   */\n      tag_92\n      jump\t// in\n    tag_191:\n        /* \"#utility.yul\":8593:8706   */\n      swap1\n      pop\n        /* \"#utility.yul\":8428:8713   */\n      swap3\n      swap2\n      pop\n      pop\n      jump\t// out\n        /* \"#utility.yul\":8719:8899   */\n    tag_93:\n        /* \"#utility.yul\":8767:8844   */\n      0x4e487b7100000000000000000000000000000000000000000000000000000000\n        /* \"#utility.yul\":8764:8765   */\n      0x00\n        /* \"#utility.yul\":8757:8845   */\n      mstore\n        /* \"#utility.yul\":8864:8868   */\n      0x12\n        /* \"#utility.yul\":8861:8862   */\n      0x04\n        /* \"#utility.yul\":8854:8869   */\n      mstore\n        /* \"#utility.yul\":8888:8892   */\n      0x24\n        /* \"#utility.yul\":8885:8886   */\n      0x00\n        /* \"#utility.yul\":8878:8893   */\n      revert\n        /* \"#utility.yul\":8905:9090   */\n    tag_59:\n        /* \"#utility.yul\":8945:8946   */\n      0x00\n        /* \"#utility.yul\":8962:8982   */\n      tag_194\n        /* \"#utility.yul\":8980:8981   */\n      dup3\n        /* \"#utility.yul\":8962:8982   */\n      tag_78\n      jump\t// in\n    tag_194:\n        /* \"#utility.yul\":8957:8982   */\n      swap2\n      pop\n        /* \"#utility.yul\":8996:9016   */\n      tag_195\n        /* \"#utility.yul\":9014:9015   */\n      dup4\n        /* \"#utility.yul\":8996:9016   */\n      tag_78\n      jump\t// in\n    tag_195:\n        /* \"#utility.yul\":8991:9016   */\n      swap3\n      pop\n        /* \"#utility.yul\":9035:9036   */\n      dup3\n        /* \"#utility.yul\":9025:9060   */\n      tag_196\n      jumpi\n        /* \"#utility.yul\":9040:9058   */\n      tag_197\n      tag_93\n      jump\t// in\n    tag_197:\n        /* \"#utility.yul\":9025:9060   */\n    tag_196:\n        /* \"#utility.yul\":9082:9083   */\n      dup3\n        /* \"#utility.yul\":9079:9080   */\n      dup3\n        /* \"#utility.yul\":9075:9084   */\n      div\n        /* \"#utility.yul\":9070:9084   */\n      swap1\n      pop\n        /* \"#utility.yul\":8905:9090   */\n      swap3\n      swap2\n      pop\n      pop\n      jump\t// out\n        /* \"#utility.yul\":9096:9182   */\n    tag_94:\n        /* \"#utility.yul\":9131:9138   */\n      0x00\n        /* \"#utility.yul\":9171:9175   */\n      0xff\n        /* \"#utility.yul\":9164:9169   */\n      dup3\n        /* \"#utility.yul\":9160:9176   */\n      and\n        /* \"#utility.yul\":9149:9176   */\n      swap1\n      pop\n        /* \"#utility.yul\":9096:9182   */\n      swap2\n      swap1\n      pop\n      jump\t// out\n        /* \"#utility.yul\":9188:9306   */\n    tag_95:\n        /* \"#utility.yul\":9259:9281   */\n      tag_200\n        /* \"#utility.yul\":9275:9280   */\n      dup2\n        /* \"#utility.yul\":9259:9281   */\n      tag_94\n      jump\t// in\n    tag_200:\n        /* \"#utility.yul\":9252:9257   */\n      dup2\n        /* \"#utility.yul\":9249:9282   */\n      eq\n        /* \"#utility.yul\":9239:9300   */\n      tag_201\n      jumpi\n        /* \"#utility.yul\":9296:9297   */\n      0x00\n        /* \"#utility.yul\":9293:9294   */\n      0x00\n        /* \"#utility.yul\":9286:9298   */\n      revert\n        /* \"#utility.yul\":9239:9300   */\n    tag_201:\n        /* \"#utility.yul\":9188:9306   */\n      pop\n      jump\t// out\n        /* \"#utility.yul\":9312:9451   */\n    tag_96:\n        /* \"#utility.yul\":9367:9372   */\n      0x00\n        /* \"#utility.yul\":9398:9404   */\n      dup2\n        /* \"#utility.yul\":9392:9405   */\n      mload\n        /* \"#utility.yul\":9383:9405   */\n      swap1\n      pop\n        /* \"#utility.yul\":9414:9445   */\n      tag_203\n        /* \"#utility.yul\":9439:9444   */\n      dup2\n        /* \"#utility.yul\":9414:9445   */\n      tag_95\n      jump\t// in\n    tag_203:\n        /* \"#utility.yul\":9312:9451   */\n      swap3\n      swap2\n      pop\n      pop\n      jump\t// out\n        /* \"#utility.yul\":9457:9804   */\n    tag_68:\n        /* \"#utility.yul\":9525:9531   */\n      0x00\n        /* \"#utility.yul\":9574:9576   */\n      0x20\n        /* \"#utility.yul\":9562:9571   */\n      dup3\n        /* \"#utility.yul\":9553:9560   */\n      dup5\n        /* \"#utility.yul\":9549:9572   */\n      sub\n        /* \"#utility.yul\":9545:9577   */\n      slt\n        /* \"#utility.yul\":9542:9661   */\n      iszero\n      tag_205\n      jumpi\n        /* \"#utility.yul\":9580:9659   */\n      tag_206\n      tag_73\n      jump\t// in\n    tag_206:\n        /* \"#utility.yul\":9542:9661   */\n    tag_205:\n        /* \"#utility.yul\":9700:9701   */\n      0x00\n        /* \"#utility.yul\":9725:9787   */\n      tag_207\n        /* \"#utility.yul\":9779:9786   */\n      dup5\n        /* \"#utility.yul\":9770:9776   */\n      dup3\n        /* \"#utility.yul\":9759:9768   */\n      dup6\n        /* \"#utility.yul\":9755:9777   */\n      add\n        /* \"#utility.yul\":9725:9787   */\n      tag_96\n      jump\t// in\n    tag_207:\n        /* \"#utility.yul\":9715:9787   */\n      swap2\n      pop\n        /* \"#utility.yul\":9671:9797   */\n      pop\n        /* \"#utility.yul\":9457:9804   */\n      swap3\n      swap2\n      pop\n      pop\n      jump\t// out\n\n    auxdata: 0xa2646970667358221220fed1ea2c912e99a5c8ff85aa5326feea69db65aa5909869e508d90c3826b6eee64736f6c634300081e0033\n}\n",
				"bytecode": {
					"linkReferences": {},
					"object": "608060405234801561000f575f5ffd5b50604051610aee380380610aee833981810160405281019061003191906100d4565b805f5f6101000a81548173ffffffffffffffffffffffffffffffffffffffff021916908373ffffffffffffffffffffffffffffffffffffffff160217905550506100ff565b5f5ffd5b5f73ffffffffffffffffffffffffffffffffffffffff82169050919050565b5f6100a38261007a565b9050919050565b6100b381610099565b81146100bd575f5ffd5b50565b5f815190506100ce816100aa565b92915050565b5f602082840312156100e9576100e8610076565b5b5f6100f6848285016100c0565b91505092915050565b6109e28061010c5f395ff3fe608060405234801561000f575f5ffd5b5060043610610060575f3560e01c806320531bc914610064578063292f8637146100825780633fc8cef3146100b2578063a0152b3a146100d0578063a0a8045e14610100578063fc0c546a1461011e575b5f5ffd5b61006c61013c565b60405161007991906104a6565b60405180910390f35b61009c600480360381019061009791906104fc565b610160565b6040516100a9919061053f565b60405180910390f35b6100ba610200565b6040516100c791906104a6565b60405180910390f35b6100ea60048036038101906100e59190610582565b610218565b6040516100f7919061053f565b60405180910390f35b610108610335565b604051610115919061053f565b60405180910390f35b6101266103c8565b60405161013391906104a6565b60405180910390f35b5f5f9054906101000a900473ffffffffffffffffffffffffffffffffffffffff1681565b5f5f5f9054906101000a900473ffffffffffffffffffffffffffffffffffffffff1673ffffffffffffffffffffffffffffffffffffffff1663906d67ea836040518263ffffffff1660e01b81526004016101ba91906105cf565b602060405180830381865afa1580156101d5573d5f5f3e3d5ffd5b505050506040513d601f19601f820116820180604052508101906101f991906105fc565b9050919050565b737b79995e5f793a07bc00c21412e50ecae098e7f981565b5f5f61022383610160565b90505f61022e610335565b90505f6102396103e0565b90505f831161027d576040517f08c379a000000000000000000000000000000000000000000000000000000000815260040161027490610681565b60405180910390fd5b5f82116102bf576040517f08c379a00000000000000000000000000000000000000000000000000000000081526004016102b6906106e9565b60405180910390fd5b5f82846102cc9190610734565b90505f8260ff16600a6102df91906108a4565b90505f670de0b6b3a7640000896102f69190610734565b90505f620f4240826103089190610734565b90505f83826103179190610734565b90508481610325919061091b565b9850505050505050505092915050565b5f5f5f9054906101000a900473ffffffffffffffffffffffffffffffffffffffff1673ffffffffffffffffffffffffffffffffffffffff1663a0a8045e6040518163ffffffff1660e01b8152600401602060405180830381865afa15801561039f573d5f5f3e3d5ffd5b505050506040513d601f19601f820116820180604052508101906103c391906105fc565b905090565b731c7d4b196cb0c7b01d743fbc6116a902379c723881565b5f731c7d4b196cb0c7b01d743fbc6116a902379c723873ffffffffffffffffffffffffffffffffffffffff1663313ce5676040518163ffffffff1660e01b8152600401602060405180830381865afa15801561043e573d5f5f3e3d5ffd5b505050506040513d601f19601f820116820180604052508101906104629190610981565b905090565b5f73ffffffffffffffffffffffffffffffffffffffff82169050919050565b5f61049082610467565b9050919050565b6104a081610486565b82525050565b5f6020820190506104b95f830184610497565b92915050565b5f5ffd5b5f63ffffffff82169050919050565b6104db816104c3565b81146104e5575f5ffd5b50565b5f813590506104f6816104d2565b92915050565b5f60208284031215610511576105106104bf565b5b5f61051e848285016104e8565b91505092915050565b5f819050919050565b61053981610527565b82525050565b5f6020820190506105525f830184610530565b92915050565b61056181610527565b811461056b575f5ffd5b50565b5f8135905061057c81610558565b92915050565b5f5f60408385031215610598576105976104bf565b5b5f6105a58582860161056e565b92505060206105b6858286016104e8565b9150509250929050565b6105c9816104c3565b82525050565b5f6020820190506105e25f8301846105c0565b92915050565b5f815190506105f681610558565b92915050565b5f60208284031215610611576106106104bf565b5b5f61061e848285016105e8565b91505092915050565b5f82825260208201905092915050565b7f546f6b656e2f455448207072696365206973207a65726f2e00000000000000005f82015250565b5f61066b601883610627565b915061067682610637565b602082019050919050565b5f6020820190508181035f8301526106988161065f565b9050919050565b7f4554482f555344207072696365206973207a65726f2e000000000000000000005f82015250565b5f6106d3601683610627565b91506106de8261069f565b602082019050919050565b5f6020820190508181035f830152610700816106c7565b9050919050565b7f4e487b71000000000000000000000000000000000000000000000000000000005f52601160045260245ffd5b5f61073e82610527565b915061074983610527565b925082820261075781610527565b9150828204841483151761076e5761076d610707565b5b5092915050565b5f8160011c9050919050565b5f5f8291508390505b60018511156107ca578086048111156107a6576107a5610707565b5b60018516156107b55780820291505b80810290506107c385610775565b945061078a565b94509492505050565b5f826107e2576001905061089d565b816107ef575f905061089d565b8160018114610805576002811461080f5761083e565b600191505061089d565b60ff84111561082157610820610707565b5b8360020a91508482111561083857610837610707565b5b5061089d565b5060208310610133831016604e8410600b84101617156108735782820a90508381111561086e5761086d610707565b5b61089d565b6108808484846001610781565b9250905081840481111561089757610896610707565b5b81810290505b9392505050565b5f6108ae82610527565b91506108b983610527565b92506108e67fffffffffffffffffffffffffffffffffffffffffffffffffffffffffffffffff84846107d3565b905092915050565b7f4e487b71000000000000000000000000000000000000000000000000000000005f52601260045260245ffd5b5f61092582610527565b915061093083610527565b9250826109405761093f6108ee565b5b828204905092915050565b5f60ff82169050919050565b6109608161094b565b811461096a575f5ffd5b50565b5f8151905061097b81610957565b92915050565b5f60208284031215610996576109956104bf565b5b5f6109a38482850161096d565b9150509291505056fea2646970667358221220fed1ea2c912e99a5c8ff85aa5326feea69db65aa5909869e508d90c3826b6eee64736f6c634300081e0033",
					"opcodes": "PUSH1 0x80 PUSH1 0x40 MSTORE CALLVALUE DUP1 ISZERO PUSH2 0xF JUMPI PUSH0 PUSH0 REVERT JUMPDEST POP PUSH1 0x40 MLOAD PUSH2 0xAEE CODESIZE SUB DUP1 PUSH2 0xAEE DUP4 CODECOPY DUP2 DUP2 ADD PUSH1 0x40 MSTORE DUP2 ADD SWAP1 PUSH2 0x31 SWAP2 SWAP1 PUSH2 0xD4 JUMP JUMPDEST DUP1 PUSH0 PUSH0 PUSH2 0x100 EXP DUP2 SLOAD DUP2 PUSH20 0xFFFFFFFFFFFFFFFFFFFFFFFFFFFFFFFFFFFFFFFF MUL NOT AND SWAP1 DUP4 PUSH20 0xFFFFFFFFFFFFFFFFFFFFFFFFFFFFFFFFFFFFFFFF AND MUL OR SWAP1 SSTORE POP POP PUSH2 0xFF JUMP JUMPDEST PUSH0 PUSH0 REVERT JUMPDEST PUSH0 PUSH20 0xFFFFFFFFFFFFFFFFFFFFFFFFFFFFFFFFFFFFFFFF DUP3 AND SWAP1 POP SWAP2 SWAP1 POP JUMP JUMPDEST PUSH0 PUSH2 0xA3 DUP3 PUSH2 0x7A JUMP JUMPDEST SWAP1 POP SWAP2 SWAP1 POP JUMP JUMPDEST PUSH2 0xB3 DUP2 PUSH2 0x99 JUMP JUMPDEST DUP2 EQ PUSH2 0xBD JUMPI PUSH0 PUSH0 REVERT JUMPDEST POP JUMP JUMPDEST PUSH0 DUP2 MLOAD SWAP1 POP PUSH2 0xCE DUP2 PUSH2 0xAA JUMP JUMPDEST SWAP3 SWAP2 POP POP JUMP JUMPDEST PUSH0 PUSH1 0x20 DUP3 DUP5 SUB SLT ISZERO PUSH2 0xE9 JUMPI PUSH2 0xE8 PUSH2 0x76 JUMP JUMPDEST JUMPDEST PUSH0 PUSH2 0xF6 DUP5 DUP3 DUP6 ADD PUSH2 0xC0 JUMP JUMPDEST SWAP2 POP POP SWAP3 SWAP2 POP POP JUMP JUMPDEST PUSH2 0x9E2 DUP1 PUSH2 0x10C PUSH0 CODECOPY PUSH0 RETURN INVALID PUSH1 0x80 PUSH1 0x40 MSTORE CALLVALUE DUP1 ISZERO PUSH2 0xF JUMPI PUSH0 PUSH0 REVERT JUMPDEST POP PUSH1 0x4 CALLDATASIZE LT PUSH2 0x60 JUMPI PUSH0 CALLDATALOAD PUSH1 0xE0 SHR DUP1 PUSH4 0x20531BC9 EQ PUSH2 0x64 JUMPI DUP1 PUSH4 0x292F8637 EQ PUSH2 0x82 JUMPI DUP1 PUSH4 0x3FC8CEF3 EQ PUSH2 0xB2 JUMPI DUP1 PUSH4 0xA0152B3A EQ PUSH2 0xD0 JUMPI DUP1 PUSH4 0xA0A8045E EQ PUSH2 0x100 JUMPI DUP1 PUSH4 0xFC0C546A EQ PUSH2 0x11E JUMPI JUMPDEST PUSH0 PUSH0 REVERT JUMPDEST PUSH2 0x6C PUSH2 0x13C JUMP JUMPDEST PUSH1 0x40 MLOAD PUSH2 0x79 SWAP2 SWAP1 PUSH2 0x4A6 JUMP JUMPDEST PUSH1 0x40 MLOAD DUP1 SWAP2 SUB SWAP1 RETURN JUMPDEST PUSH2 0x9C PUSH1 0x4 DUP1 CALLDATASIZE SUB DUP2 ADD SWAP1 PUSH2 0x97 SWAP2 SWAP1 PUSH2 0x4FC JUMP JUMPDEST PUSH2 0x160 JUMP JUMPDEST PUSH1 0x40 MLOAD PUSH2 0xA9 SWAP2 SWAP1 PUSH2 0x53F JUMP JUMPDEST PUSH1 0x40 MLOAD DUP1 SWAP2 SUB SWAP1 RETURN JUMPDEST PUSH2 0xBA PUSH2 0x200 JUMP JUMPDEST PUSH1 0x40 MLOAD PUSH2 0xC7 SWAP2 SWAP1 PUSH2 0x4A6 JUMP JUMPDEST PUSH1 0x40 MLOAD DUP1 SWAP2 SUB SWAP1 RETURN JUMPDEST PUSH2 0xEA PUSH1 0x4 DUP1 CALLDATASIZE SUB DUP2 ADD SWAP1 PUSH2 0xE5 SWAP2 SWAP1 PUSH2 0x582 JUMP JUMPDEST PUSH2 0x218 JUMP JUMPDEST PUSH1 0x40 MLOAD PUSH2 0xF7 SWAP2 SWAP1 PUSH2 0x53F JUMP JUMPDEST PUSH1 0x40 MLOAD DUP1 SWAP2 SUB SWAP1 RETURN JUMPDEST PUSH2 0x108 PUSH2 0x335 JUMP JUMPDEST PUSH1 0x40 MLOAD PUSH2 0x115 SWAP2 SWAP1 PUSH2 0x53F JUMP JUMPDEST PUSH1 0x40 MLOAD DUP1 SWAP2 SUB SWAP1 RETURN JUMPDEST PUSH2 0x126 PUSH2 0x3C8 JUMP JUMPDEST PUSH1 0x40 MLOAD PUSH2 0x133 SWAP2 SWAP1 PUSH2 0x4A6 JUMP JUMPDEST PUSH1 0x40 MLOAD DUP1 SWAP2 SUB SWAP1 RETURN JUMPDEST PUSH0 PUSH0 SWAP1 SLOAD SWAP1 PUSH2 0x100 EXP SWAP1 DIV PUSH20 0xFFFFFFFFFFFFFFFFFFFFFFFFFFFFFFFFFFFFFFFF AND DUP2 JUMP JUMPDEST PUSH0 PUSH0 PUSH0 SWAP1 SLOAD SWAP1 PUSH2 0x100 EXP SWAP1 DIV PUSH20 0xFFFFFFFFFFFFFFFFFFFFFFFFFFFFFFFFFFFFFFFF AND PUSH20 0xFFFFFFFFFFFFFFFFFFFFFFFFFFFFFFFFFFFFFFFF AND PUSH4 0x906D67EA DUP4 PUSH1 0x40 MLOAD DUP3 PUSH4 0xFFFFFFFF AND PUSH1 0xE0 SHL DUP2 MSTORE PUSH1 0x4 ADD PUSH2 0x1BA SWAP2 SWAP1 PUSH2 0x5CF JUMP JUMPDEST PUSH1 0x20 PUSH1 0x40 MLOAD DUP1 DUP4 SUB DUP2 DUP7 GAS STATICCALL ISZERO DUP1 ISZERO PUSH2 0x1D5 JUMPI RETURNDATASIZE PUSH0 PUSH0 RETURNDATACOPY RETURNDATASIZE PUSH0 REVERT JUMPDEST POP POP POP POP PUSH1 0x40 MLOAD RETURNDATASIZE PUSH1 0x1F NOT PUSH1 0x1F DUP3 ADD AND DUP3 ADD DUP1 PUSH1 0x40 MSTORE POP DUP2 ADD SWAP1 PUSH2 0x1F9 SWAP2 SWAP1 PUSH2 0x5FC JUMP JUMPDEST SWAP1 POP SWAP2 SWAP1 POP JUMP JUMPDEST PUSH20 0x7B79995E5F793A07BC00C21412E50ECAE098E7F9 DUP2 JUMP JUMPDEST PUSH0 PUSH0 PUSH2 0x223 DUP4 PUSH2 0x160 JUMP JUMPDEST SWAP1 POP PUSH0 PUSH2 0x22E PUSH2 0x335 JUMP JUMPDEST SWAP1 POP PUSH0 PUSH2 0x239 PUSH2 0x3E0 JUMP JUMPDEST SWAP1 POP PUSH0 DUP4 GT PUSH2 0x27D JUMPI PUSH1 0x40 MLOAD PUSH32 0x8C379A000000000000000000000000000000000000000000000000000000000 DUP2 MSTORE PUSH1 0x4 ADD PUSH2 0x274 SWAP1 PUSH2 0x681 JUMP JUMPDEST PUSH1 0x40 MLOAD DUP1 SWAP2 SUB SWAP1 REVERT JUMPDEST PUSH0 DUP3 GT PUSH2 0x2BF JUMPI PUSH1 0x40 MLOAD PUSH32 0x8C379A000000000000000000000000000000000000000000000000000000000 DUP2 MSTORE PUSH1 0x4 ADD PUSH2 0x2B6 SWAP1 PUSH2 0x6E9 JUMP JUMPDEST PUSH1 0x40 MLOAD DUP1 SWAP2 SUB SWAP1 REVERT JUMPDEST PUSH0 DUP3 DUP5 PUSH2 0x2CC SWAP2 SWAP1 PUSH2 0x734 JUMP JUMPDEST SWAP1 POP PUSH0 DUP3 PUSH1 0xFF AND PUSH1 0xA PUSH2 0x2DF SWAP2 SWAP1 PUSH2 0x8A4 JUMP JUMPDEST SWAP1 POP PUSH0 PUSH8 0xDE0B6B3A7640000 DUP10 PUSH2 0x2F6 SWAP2 SWAP1 PUSH2 0x734 JUMP JUMPDEST SWAP1 POP PUSH0 PUSH3 0xF4240 DUP3 PUSH2 0x308 SWAP2 SWAP1 PUSH2 0x734 JUMP JUMPDEST SWAP1 POP PUSH0 DUP4 DUP3 PUSH2 0x317 SWAP2 SWAP1 PUSH2 0x734 JUMP JUMPDEST SWAP1 POP DUP5 DUP2 PUSH2 0x325 SWAP2 SWAP1 PUSH2 0x91B JUMP JUMPDEST SWAP9 POP POP POP POP POP POP POP POP POP SWAP3 SWAP2 POP POP JUMP JUMPDEST PUSH0 PUSH0 PUSH0 SWAP1 SLOAD SWAP1 PUSH2 0x100 EXP SWAP1 DIV PUSH20 0xFFFFFFFFFFFFFFFFFFFFFFFFFFFFFFFFFFFFFFFF AND PUSH20 0xFFFFFFFFFFFFFFFFFFFFFFFFFFFFFFFFFFFFFFFF AND PUSH4 0xA0A8045E PUSH1 0x40 MLOAD DUP2 PUSH4 0xFFFFFFFF AND PUSH1 0xE0 SHL DUP2 MSTORE PUSH1 0x4 ADD PUSH1 0x20 PUSH1 0x40 MLOAD DUP1 DUP4 SUB DUP2 DUP7 GAS STATICCALL ISZERO DUP1 ISZERO PUSH2 0x39F JUMPI RETURNDATASIZE PUSH0 PUSH0 RETURNDATACOPY RETURNDATASIZE PUSH0 REVERT JUMPDEST POP POP POP POP PUSH1 0x40 MLOAD RETURNDATASIZE PUSH1 0x1F NOT PUSH1 0x1F DUP3 ADD AND DUP3 ADD DUP1 PUSH1 0x40 MSTORE POP DUP2 ADD SWAP1 PUSH2 0x3C3 SWAP2 SWAP1 PUSH2 0x5FC JUMP JUMPDEST SWAP1 POP SWAP1 JUMP JUMPDEST PUSH20 0x1C7D4B196CB0C7B01D743FBC6116A902379C7238 DUP2 JUMP JUMPDEST PUSH0 PUSH20 0x1C7D4B196CB0C7B01D743FBC6116A902379C7238 PUSH20 0xFFFFFFFFFFFFFFFFFFFFFFFFFFFFFFFFFFFFFFFF AND PUSH4 0x313CE567 PUSH1 0x40 MLOAD DUP2 PUSH4 0xFFFFFFFF AND PUSH1 0xE0 SHL DUP2 MSTORE PUSH1 0x4 ADD PUSH1 0x20 PUSH1 0x40 MLOAD DUP1 DUP4 SUB DUP2 DUP7 GAS STATICCALL ISZERO DUP1 ISZERO PUSH2 0x43E JUMPI RETURNDATASIZE PUSH0 PUSH0 RETURNDATACOPY RETURNDATASIZE PUSH0 REVERT JUMPDEST POP POP POP POP PUSH1 0x40 MLOAD RETURNDATASIZE PUSH1 0x1F NOT PUSH1 0x1F DUP3 ADD AND DUP3 ADD DUP1 PUSH1 0x40 MSTORE POP DUP2 ADD SWAP1 PUSH2 0x462 SWAP2 SWAP1 PUSH2 0x981 JUMP JUMPDEST SWAP1 POP SWAP1 JUMP JUMPDEST PUSH0 PUSH20 0xFFFFFFFFFFFFFFFFFFFFFFFFFFFFFFFFFFFFFFFF DUP3 AND SWAP1 POP SWAP2 SWAP1 POP JUMP JUMPDEST PUSH0 PUSH2 0x490 DUP3 PUSH2 0x467 JUMP JUMPDEST SWAP1 POP SWAP2 SWAP1 POP JUMP JUMPDEST PUSH2 0x4A0 DUP2 PUSH2 0x486 JUMP JUMPDEST DUP3 MSTORE POP POP JUMP JUMPDEST PUSH0 PUSH1 0x20 DUP3 ADD SWAP1 POP PUSH2 0x4B9 PUSH0 DUP4 ADD DUP5 PUSH2 0x497 JUMP JUMPDEST SWAP3 SWAP2 POP POP JUMP JUMPDEST PUSH0 PUSH0 REVERT JUMPDEST PUSH0 PUSH4 0xFFFFFFFF DUP3 AND SWAP1 POP SWAP2 SWAP1 POP JUMP JUMPDEST PUSH2 0x4DB DUP2 PUSH2 0x4C3 JUMP JUMPDEST DUP2 EQ PUSH2 0x4E5 JUMPI PUSH0 PUSH0 REVERT JUMPDEST POP JUMP JUMPDEST PUSH0 DUP2 CALLDATALOAD SWAP1 POP PUSH2 0x4F6 DUP2 PUSH2 0x4D2 JUMP JUMPDEST SWAP3 SWAP2 POP POP JUMP JUMPDEST PUSH0 PUSH1 0x20 DUP3 DUP5 SUB SLT ISZERO PUSH2 0x511 JUMPI PUSH2 0x510 PUSH2 0x4BF JUMP JUMPDEST JUMPDEST PUSH0 PUSH2 0x51E DUP5 DUP3 DUP6 ADD PUSH2 0x4E8 JUMP JUMPDEST SWAP2 POP POP SWAP3 SWAP2 POP POP JUMP JUMPDEST PUSH0 DUP2 SWAP1 POP SWAP2 SWAP1 POP JUMP JUMPDEST PUSH2 0x539 DUP2 PUSH2 0x527 JUMP JUMPDEST DUP3 MSTORE POP POP JUMP JUMPDEST PUSH0 PUSH1 0x20 DUP3 ADD SWAP1 POP PUSH2 0x552 PUSH0 DUP4 ADD DUP5 PUSH2 0x530 JUMP JUMPDEST SWAP3 SWAP2 POP POP JUMP JUMPDEST PUSH2 0x561 DUP2 PUSH2 0x527 JUMP JUMPDEST DUP2 EQ PUSH2 0x56B JUMPI PUSH0 PUSH0 REVERT JUMPDEST POP JUMP JUMPDEST PUSH0 DUP2 CALLDATALOAD SWAP1 POP PUSH2 0x57C DUP2 PUSH2 0x558 JUMP JUMPDEST SWAP3 SWAP2 POP POP JUMP JUMPDEST PUSH0 PUSH0 PUSH1 0x40 DUP4 DUP6 SUB SLT ISZERO PUSH2 0x598 JUMPI PUSH2 0x597 PUSH2 0x4BF JUMP JUMPDEST JUMPDEST PUSH0 PUSH2 0x5A5 DUP6 DUP3 DUP7 ADD PUSH2 0x56E JUMP JUMPDEST SWAP3 POP POP PUSH1 0x20 PUSH2 0x5B6 DUP6 DUP3 DUP7 ADD PUSH2 0x4E8 JUMP JUMPDEST SWAP2 POP POP SWAP3 POP SWAP3 SWAP1 POP JUMP JUMPDEST PUSH2 0x5C9 DUP2 PUSH2 0x4C3 JUMP JUMPDEST DUP3 MSTORE POP POP JUMP JUMPDEST PUSH0 PUSH1 0x20 DUP3 ADD SWAP1 POP PUSH2 0x5E2 PUSH0 DUP4 ADD DUP5 PUSH2 0x5C0 JUMP JUMPDEST SWAP3 SWAP2 POP POP JUMP JUMPDEST PUSH0 DUP2 MLOAD SWAP1 POP PUSH2 0x5F6 DUP2 PUSH2 0x558 JUMP JUMPDEST SWAP3 SWAP2 POP POP JUMP JUMPDEST PUSH0 PUSH1 0x20 DUP3 DUP5 SUB SLT ISZERO PUSH2 0x611 JUMPI PUSH2 0x610 PUSH2 0x4BF JUMP JUMPDEST JUMPDEST PUSH0 PUSH2 0x61E DUP5 DUP3 DUP6 ADD PUSH2 0x5E8 JUMP JUMPDEST SWAP2 POP POP SWAP3 SWAP2 POP POP JUMP JUMPDEST PUSH0 DUP3 DUP3 MSTORE PUSH1 0x20 DUP3 ADD SWAP1 POP SWAP3 SWAP2 POP POP JUMP JUMPDEST PUSH32 0x546F6B656E2F455448207072696365206973207A65726F2E0000000000000000 PUSH0 DUP3 ADD MSTORE POP JUMP JUMPDEST PUSH0 PUSH2 0x66B PUSH1 0x18 DUP4 PUSH2 0x627 JUMP JUMPDEST SWAP2 POP PUSH2 0x676 DUP3 PUSH2 0x637 JUMP JUMPDEST PUSH1 0x20 DUP3 ADD SWAP1 POP SWAP2 SWAP1 POP JUMP JUMPDEST PUSH0 PUSH1 0x20 DUP3 ADD SWAP1 POP DUP2 DUP2 SUB PUSH0 DUP4 ADD MSTORE PUSH2 0x698 DUP2 PUSH2 0x65F JUMP JUMPDEST SWAP1 POP SWAP2 SWAP1 POP JUMP JUMPDEST PUSH32 0x4554482F555344207072696365206973207A65726F2E00000000000000000000 PUSH0 DUP3 ADD MSTORE POP JUMP JUMPDEST PUSH0 PUSH2 0x6D3 PUSH1 0x16 DUP4 PUSH2 0x627 JUMP JUMPDEST SWAP2 POP PUSH2 0x6DE DUP3 PUSH2 0x69F JUMP JUMPDEST PUSH1 0x20 DUP3 ADD SWAP1 POP SWAP2 SWAP1 POP JUMP JUMPDEST PUSH0 PUSH1 0x20 DUP3 ADD SWAP1 POP DUP2 DUP2 SUB PUSH0 DUP4 ADD MSTORE PUSH2 0x700 DUP2 PUSH2 0x6C7 JUMP JUMPDEST SWAP1 POP SWAP2 SWAP1 POP JUMP JUMPDEST PUSH32 0x4E487B7100000000000000000000000000000000000000000000000000000000 PUSH0 MSTORE PUSH1 0x11 PUSH1 0x4 MSTORE PUSH1 0x24 PUSH0 REVERT JUMPDEST PUSH0 PUSH2 0x73E DUP3 PUSH2 0x527 JUMP JUMPDEST SWAP2 POP PUSH2 0x749 DUP4 PUSH2 0x527 JUMP JUMPDEST SWAP3 POP DUP3 DUP3 MUL PUSH2 0x757 DUP2 PUSH2 0x527 JUMP JUMPDEST SWAP2 POP DUP3 DUP3 DIV DUP5 EQ DUP4 ISZERO OR PUSH2 0x76E JUMPI PUSH2 0x76D PUSH2 0x707 JUMP JUMPDEST JUMPDEST POP SWAP3 SWAP2 POP POP JUMP JUMPDEST PUSH0 DUP2 PUSH1 0x1 SHR SWAP1 POP SWAP2 SWAP1 POP JUMP JUMPDEST PUSH0 PUSH0 DUP3 SWAP2 POP DUP4 SWAP1 POP JUMPDEST PUSH1 0x1 DUP6 GT ISZERO PUSH2 0x7CA JUMPI DUP1 DUP7 DIV DUP2 GT ISZERO PUSH2 0x7A6 JUMPI PUSH2 0x7A5 PUSH2 0x707 JUMP JUMPDEST JUMPDEST PUSH1 0x1 DUP6 AND ISZERO PUSH2 0x7B5 JUMPI DUP1 DUP3 MUL SWAP2 POP JUMPDEST DUP1 DUP2 MUL SWAP1 POP PUSH2 0x7C3 DUP6 PUSH2 0x775 JUMP JUMPDEST SWAP5 POP PUSH2 0x78A JUMP JUMPDEST SWAP5 POP SWAP5 SWAP3 POP POP POP JUMP JUMPDEST PUSH0 DUP3 PUSH2 0x7E2 JUMPI PUSH1 0x1 SWAP1 POP PUSH2 0x89D JUMP JUMPDEST DUP2 PUSH2 0x7EF JUMPI PUSH0 SWAP1 POP PUSH2 0x89D JUMP JUMPDEST DUP2 PUSH1 0x1 DUP2 EQ PUSH2 0x805 JUMPI PUSH1 0x2 DUP2 EQ PUSH2 0x80F JUMPI PUSH2 0x83E JUMP JUMPDEST PUSH1 0x1 SWAP2 POP POP PUSH2 0x89D JUMP JUMPDEST PUSH1 0xFF DUP5 GT ISZERO PUSH2 0x821 JUMPI PUSH2 0x820 PUSH2 0x707 JUMP JUMPDEST JUMPDEST DUP4 PUSH1 0x2 EXP SWAP2 POP DUP5 DUP3 GT ISZERO PUSH2 0x838 JUMPI PUSH2 0x837 PUSH2 0x707 JUMP JUMPDEST JUMPDEST POP PUSH2 0x89D JUMP JUMPDEST POP PUSH1 0x20 DUP4 LT PUSH2 0x133 DUP4 LT AND PUSH1 0x4E DUP5 LT PUSH1 0xB DUP5 LT AND OR ISZERO PUSH2 0x873 JUMPI DUP3 DUP3 EXP SWAP1 POP DUP4 DUP2 GT ISZERO PUSH2 0x86E JUMPI PUSH2 0x86D PUSH2 0x707 JUMP JUMPDEST JUMPDEST PUSH2 0x89D JUMP JUMPDEST PUSH2 0x880 DUP5 DUP5 DUP5 PUSH1 0x1 PUSH2 0x781 JUMP JUMPDEST SWAP3 POP SWAP1 POP DUP2 DUP5 DIV DUP2 GT ISZERO PUSH2 0x897 JUMPI PUSH2 0x896 PUSH2 0x707 JUMP JUMPDEST JUMPDEST DUP2 DUP2 MUL SWAP1 POP JUMPDEST SWAP4 SWAP3 POP POP POP JUMP JUMPDEST PUSH0 PUSH2 0x8AE DUP3 PUSH2 0x527 JUMP JUMPDEST SWAP2 POP PUSH2 0x8B9 DUP4 PUSH2 0x527 JUMP JUMPDEST SWAP3 POP PUSH2 0x8E6 PUSH32 0xFFFFFFFFFFFFFFFFFFFFFFFFFFFFFFFFFFFFFFFFFFFFFFFFFFFFFFFFFFFFFFFF DUP5 DUP5 PUSH2 0x7D3 JUMP JUMPDEST SWAP1 POP SWAP3 SWAP2 POP POP JUMP JUMPDEST PUSH32 0x4E487B7100000000000000000000000000000000000000000000000000000000 PUSH0 MSTORE PUSH1 0x12 PUSH1 0x4 MSTORE PUSH1 0x24 PUSH0 REVERT JUMPDEST PUSH0 PUSH2 0x925 DUP3 PUSH2 0x527 JUMP JUMPDEST SWAP2 POP PUSH2 0x930 DUP4 PUSH2 0x527 JUMP JUMPDEST SWAP3 POP DUP3 PUSH2 0x940 JUMPI PUSH2 0x93F PUSH2 0x8EE JUMP JUMPDEST JUMPDEST DUP3 DUP3 DIV SWAP1 POP SWAP3 SWAP2 POP POP JUMP JUMPDEST PUSH0 PUSH1 0xFF DUP3 AND SWAP1 POP SWAP2 SWAP1 POP JUMP JUMPDEST PUSH2 0x960 DUP2 PUSH2 0x94B JUMP JUMPDEST DUP2 EQ PUSH2 0x96A JUMPI PUSH0 PUSH0 REVERT JUMPDEST POP JUMP JUMPDEST PUSH0 DUP2 MLOAD SWAP1 POP PUSH2 0x97B DUP2 PUSH2 0x957 JUMP JUMPDEST SWAP3 SWAP2 POP POP JUMP JUMPDEST PUSH0 PUSH1 0x20 DUP3 DUP5 SUB SLT ISZERO PUSH2 0x996 JUMPI PUSH2 0x995 PUSH2 0x4BF JUMP JUMPDEST JUMPDEST PUSH0 PUSH2 0x9A3 DUP5 DUP3 DUP6 ADD PUSH2 0x96D JUMP JUMPDEST SWAP2 POP POP SWAP3 SWAP2 POP POP JUMP INVALID LOG2 PUSH5 0x6970667358 0x22 SLT KECCAK256 INVALID DATALOADN 0xEA2C SWAP2 0x2E SWAP10 0xA5 0xC8 SELFDESTRUCT DUP6 0xAA MSTORE8 0x26 INVALID 0xEA PUSH10 0xDB65AA5909869E508D90 0xC3 DUP3 PUSH12 0x6EEE64736F6C634300081E00 CALLER "
				},
				"gasEstimates": {
					"creation": {
						"codeDepositCost": "506000",
						"executionCost": "infinite",
						"totalCost": "infinite"
					},
					"external": {
						"getEthUsdPrice()": "infinite",
						"getMockTokenPrice(uint32)": "infinite",
						"priceSource()": "2485",
						"token()": "461",
						"usdToToken(uint256,uint32)": "infinite",
						"weth()": "395"
					},
					"internal": {
						"getTokenDecimals()": "infinite"
					}
				},
				"methodIdentifiers": {
					"getEthUsdPrice()": "a0a8045e",
					"getMockTokenPrice(uint32)": "292f8637",
					"priceSource()": "20531bc9",
					"token()": "fc0c546a",
					"usdToToken(uint256,uint32)": "a0152b3a",
					"weth()": "3fc8cef3"
				}
			},
			"storageLayout": {
				"storage": [
					{
						"astId": 22,
						"contract": "contracts/testnetContract.sol:PriceOracle",
						"label": "priceSource",
						"offset": 0,
						"slot": "0",
						"type": "t_address"
					}
				],
				"types": {
					"t_address": {
						"encoding": "inplace",
						"label": "address",
						"numberOfBytes": "20"
					}
				}
			},
			"userdoc": {
				"kind": "user",
				"methods": {},
				"version": 1
			}
		}
	}
}