{
	"contracts/unichat.sol": {
		"PriceOracle": {
			"abi": [
				{
					"inputs": [
						{
							"internalType": "uint32",
							"name": "secondsAgo",
							"type": "uint32"
						}
					],
					"name": "getTokenPrice",
					"outputs": [
						{
							"internalType": "uint256",
							"name": "",
							"type": "uint256"
						}
					],
					"stateMutability": "view",
					"type": "function"
				},
				{
					"inputs": [],
					"name": "pool",
					"outputs": [
						{
							"internalType": "address",
							"name": "",
							"type": "address"
						}
					],
					"stateMutability": "view",
					"type": "function"
				},
				{
					"inputs": [],
					"name": "token",
					"outputs": [
						{
							"internalType": "address",
							"name": "",
							"type": "address"
						}
					],
					"stateMutability": "view",
					"type": "function"
				},
				{
					"inputs": [],
					"name": "weth",
					"outputs": [
						{
							"internalType": "address",
							"name": "",
							"type": "address"
						}
					],
					"stateMutability": "view",
					"type": "function"
				}
			],
			"devdoc": {
				"kind": "dev",
				"methods": {},
				"version": 1
			},
			"evm": {
				"assembly": "    /* \"contracts/unichat.sol\":128:766  contract PriceOracle {... */\n  mstore(0x40, 0x80)\n  callvalue\n  dup1\n  iszero\n  tag_1\n  jumpi\n  0x00\n  dup1\n  revert\ntag_1:\n  pop\n  dataSize(sub_0)\n  dup1\n  dataOffset(sub_0)\n  0x00\n  codecopy\n  0x00\n  return\nstop\n\nsub_0: assembly {\n        /* \"contracts/unichat.sol\":128:766  contract PriceOracle {... */\n      mstore(0x40, 0x80)\n      callvalue\n      dup1\n      iszero\n      tag_1\n      jumpi\n      0x00\n      dup1\n      revert\n    tag_1:\n      pop\n      jumpi(tag_2, lt(calldatasize, 0x04))\n      shr(0xe0, calldataload(0x00))\n      dup1\n      0x16f0115b\n      eq\n      tag_3\n      jumpi\n      dup1\n      0x3fc8cef3\n      eq\n      tag_4\n      jumpi\n      dup1\n      0x906d67ea\n      eq\n      tag_5\n      jumpi\n      dup1\n      0xfc0c546a\n      eq\n      tag_6\n      jumpi\n    tag_2:\n      0x00\n      dup1\n      revert\n        /* \"contracts/unichat.sol\":380:453  address public constant pool = 0x11950d141EcB863F01007AdD7D1A342041227b58 */\n    tag_3:\n      tag_7\n      tag_8\n      jump\t// in\n    tag_7:\n      mload(0x40)\n      dup1\n      dup3\n      0xffffffffffffffffffffffffffffffffffffffff\n      and\n      dup2\n      mstore\n      0x20\n      add\n      swap2\n      pop\n      pop\n      mload(0x40)\n      dup1\n      swap2\n      sub\n      swap1\n      return\n        /* \"contracts/unichat.sol\":243:316  address public constant weth = 0xC02aaA39b223FE8D0A0e5C4F27eAD9083C756Cc2 */\n    tag_4:\n      tag_9\n      tag_10\n      jump\t// in\n    tag_9:\n      mload(0x40)\n      dup1\n      dup3\n      0xffffffffffffffffffffffffffffffffffffffff\n      and\n      dup2\n      mstore\n      0x20\n      add\n      swap2\n      pop\n      pop\n      mload(0x40)\n      dup1\n      swap2\n      sub\n      swap1\n      return\n        /* \"contracts/unichat.sol\":460:764  function getTokenPrice(uint32 secondsAgo) public view returns (uint256) {... */\n    tag_5:\n      tag_11\n      0x04\n      dup1\n      calldatasize\n      sub\n      0x20\n      dup2\n      lt\n      iszero\n      tag_12\n      jumpi\n      0x00\n      dup1\n      revert\n    tag_12:\n      dup2\n      add\n      swap1\n      dup1\n      dup1\n      calldataload\n      0xffffffff\n      and\n      swap1\n      0x20\n      add\n      swap1\n      swap3\n      swap2\n      swap1\n      pop\n      pop\n      pop\n      tag_13\n      jump\t// in\n    tag_11:\n      mload(0x40)\n      dup1\n      dup3\n      dup2\n      mstore\n      0x20\n      add\n      swap2\n      pop\n      pop\n      mload(0x40)\n      dup1\n      swap2\n      sub\n      swap1\n      return\n        /* \"contracts/unichat.sol\":155:229  address public constant token = 0x6982508145454Ce325dDbE47a25d4ec3d2311933 */\n    tag_6:\n      tag_14\n      tag_15\n      jump\t// in\n    tag_14:\n      mload(0x40)\n      dup1\n      dup3\n      0xffffffffffffffffffffffffffffffffffffffff\n      and\n      dup2\n      mstore\n      0x20\n      add\n      swap2\n      pop\n      pop\n      mload(0x40)\n      dup1\n      swap2\n      sub\n      swap1\n      return\n        /* \"contracts/unichat.sol\":380:453  address public constant pool = 0x11950d141EcB863F01007AdD7D1A342041227b58 */\n    tag_8:\n        /* \"contracts/unichat.sol\":411:453  0x11950d141EcB863F01007AdD7D1A342041227b58 */\n      0x11950d141ecb863f01007add7d1a342041227b58\n        /* \"contracts/unichat.sol\":380:453  address public constant pool = 0x11950d141EcB863F01007AdD7D1A342041227b58 */\n      dup2\n      jump\t// out\n        /* \"contracts/unichat.sol\":243:316  address public constant weth = 0xC02aaA39b223FE8D0A0e5C4F27eAD9083C756Cc2 */\n    tag_10:\n        /* \"contracts/unichat.sol\":274:316  0xC02aaA39b223FE8D0A0e5C4F27eAD9083C756Cc2 */\n      0xc02aaa39b223fe8d0a0e5c4f27ead9083c756cc2\n        /* \"contracts/unichat.sol\":243:316  address public constant weth = 0xC02aaA39b223FE8D0A0e5C4F27eAD9083C756Cc2 */\n      dup2\n      jump\t// out\n        /* \"contracts/unichat.sol\":460:764  function getTokenPrice(uint32 secondsAgo) public view returns (uint256) {... */\n    tag_13:\n        /* \"contracts/unichat.sol\":523:530  uint256 */\n      0x00\n        /* \"contracts/unichat.sol\":543:553  int24 tick */\n      dup1\n        /* \"contracts/unichat.sol\":559:598  OracleLibrary.consult(pool, secondsAgo) */\n      tag_17\n        /* \"contracts/unichat.sol\":411:453  0x11950d141EcB863F01007AdD7D1A342041227b58 */\n      0x11950d141ecb863f01007add7d1a342041227b58\n        /* \"contracts/unichat.sol\":587:597  secondsAgo */\n      dup5\n        /* \"contracts/unichat.sol\":559:580  OracleLibrary.consult */\n      tag_18\n        /* \"contracts/unichat.sol\":559:598  OracleLibrary.consult(pool, secondsAgo) */\n      jump\t// in\n    tag_17:\n        /* \"contracts/unichat.sol\":542:598  (int24 tick, ) = OracleLibrary.consult(pool, secondsAgo) */\n      pop\n      swap1\n      pop\n        /* \"contracts/unichat.sol\":616:757  OracleLibrary.getQuoteAtTick(... */\n      tag_19\n        /* \"contracts/unichat.sol\":658:662  tick */\n      dup2\n        /* \"contracts/unichat.sol\":676:680  1e18 */\n      0x0de0b6b3a7640000\n        /* \"contracts/unichat.sol\":187:229  0x6982508145454Ce325dDbE47a25d4ec3d2311933 */\n      0x6982508145454ce325ddbe47a25d4ec3d2311933\n        /* \"contracts/unichat.sol\":274:316  0xC02aaA39b223FE8D0A0e5C4F27eAD9083C756Cc2 */\n      0xc02aaa39b223fe8d0a0e5c4f27ead9083c756cc2\n        /* \"contracts/unichat.sol\":616:644  OracleLibrary.getQuoteAtTick */\n      tag_20\n        /* \"contracts/unichat.sol\":616:757  OracleLibrary.getQuoteAtTick(... */\n      jump\t// in\n    tag_19:\n        /* \"contracts/unichat.sol\":609:757  return OracleLibrary.getQuoteAtTick(... */\n      swap2\n      pop\n      pop\n        /* \"contracts/unichat.sol\":460:764  function getTokenPrice(uint32 secondsAgo) public view returns (uint256) {... */\n      swap2\n      swap1\n      pop\n      jump\t// out\n        /* \"contracts/unichat.sol\":155:229  address public constant token = 0x6982508145454Ce325dDbE47a25d4ec3d2311933 */\n    tag_15:\n        /* \"contracts/unichat.sol\":187:229  0x6982508145454Ce325dDbE47a25d4ec3d2311933 */\n      0x6982508145454ce325ddbe47a25d4ec3d2311933\n        /* \"contracts/unichat.sol\":155:229  address public constant token = 0x6982508145454Ce325dDbE47a25d4ec3d2311933 */\n      dup2\n      jump\t// out\n        /* \"@uniswap/v3-periphery/contracts/libraries/OracleLibrary.sol\":885:2112  function consult(address pool, uint32 secondsAgo)... */\n    tag_18:\n        /* \"@uniswap/v3-periphery/contracts/libraries/OracleLibrary.sol\":982:1006  int24 arithmeticMeanTick */\n      0x00\n        /* \"@uniswap/v3-periphery/contracts/libraries/OracleLibrary.sol\":1008:1037  uint128 harmonicMeanLiquidity */\n      dup1\n        /* \"@uniswap/v3-periphery/contracts/libraries/OracleLibrary.sol\":1075:1076  0 */\n      0x00\n        /* \"@uniswap/v3-periphery/contracts/libraries/OracleLibrary.sol\":1061:1071  secondsAgo */\n      dup4\n        /* \"@uniswap/v3-periphery/contracts/libraries/OracleLibrary.sol\":1061:1076  secondsAgo != 0 */\n      0xffffffff\n      and\n      eq\n      iszero\n        /* \"@uniswap/v3-periphery/contracts/libraries/OracleLibrary.sol\":1053:1083  require(secondsAgo != 0, 'BP') */\n      tag_22\n      jumpi\n      mload(0x40)\n      0x08c379a000000000000000000000000000000000000000000000000000000000\n      dup2\n      mstore\n      0x04\n      add\n      dup1\n      dup1\n      0x20\n      add\n      dup3\n      dup2\n      sub\n      dup3\n      mstore\n      0x02\n      dup2\n      mstore\n      0x20\n      add\n      dup1\n      0x4250000000000000000000000000000000000000000000000000000000000000\n      dup2\n      mstore\n      pop\n      0x20\n      add\n      swap2\n      pop\n      pop\n      mload(0x40)\n      dup1\n      swap2\n      sub\n      swap1\n      revert\n    tag_22:\n        /* \"@uniswap/v3-periphery/contracts/libraries/OracleLibrary.sol\":1094:1121  uint32[] memory secondsAgos */\n      0x00\n        /* \"@uniswap/v3-periphery/contracts/libraries/OracleLibrary.sol\":1137:1138  2 */\n      0x02\n        /* \"@uniswap/v3-periphery/contracts/libraries/OracleLibrary.sol\":1124:1139  new uint32[](2) */\n      0xffffffffffffffff\n      dup2\n      gt\n      dup1\n      iszero\n      tag_23\n      jumpi\n      0x00\n      dup1\n      revert\n    tag_23:\n      pop\n      mload(0x40)\n      swap1\n      dup1\n      dup3\n      mstore\n      dup1\n      0x20\n      mul\n      0x20\n      add\n      dup3\n      add\n      0x40\n      mstore\n      dup1\n      iszero\n      tag_24\n      jumpi\n      dup2\n      0x20\n      add\n      0x20\n      dup3\n      mul\n      dup1\n      calldatasize\n      dup4\n      calldatacopy\n      dup1\n      dup3\n      add\n      swap2\n      pop\n      pop\n      swap1\n      pop\n    tag_24:\n      pop\n        /* \"@uniswap/v3-periphery/contracts/libraries/OracleLibrary.sol\":1094:1139  uint32[] memory secondsAgos = new uint32[](2) */\n      swap1\n      pop\n        /* \"@uniswap/v3-periphery/contracts/libraries/OracleLibrary.sol\":1166:1176  secondsAgo */\n      dup4\n        /* \"@uniswap/v3-periphery/contracts/libraries/OracleLibrary.sol\":1149:1160  secondsAgos */\n      dup2\n        /* \"@uniswap/v3-periphery/contracts/libraries/OracleLibrary.sol\":1161:1162  0 */\n      0x00\n        /* \"@uniswap/v3-periphery/contracts/libraries/OracleLibrary.sol\":1149:1163  secondsAgos[0] */\n      dup2\n      mload\n      dup2\n      lt\n      tag_25\n      jumpi\n      invalid\n    tag_25:\n      0x20\n      mul\n      0x20\n      add\n      add\n        /* \"@uniswap/v3-periphery/contracts/libraries/OracleLibrary.sol\":1149:1176  secondsAgos[0] = secondsAgo */\n      swap1\n      0xffffffff\n      and\n      swap1\n      dup2\n      0xffffffff\n      and\n      dup2\n      mstore\n      pop\n      pop\n        /* \"@uniswap/v3-periphery/contracts/libraries/OracleLibrary.sol\":1203:1204  0 */\n      0x00\n        /* \"@uniswap/v3-periphery/contracts/libraries/OracleLibrary.sol\":1186:1197  secondsAgos */\n      dup2\n        /* \"@uniswap/v3-periphery/contracts/libraries/OracleLibrary.sol\":1198:1199  1 */\n      0x01\n        /* \"@uniswap/v3-periphery/contracts/libraries/OracleLibrary.sol\":1186:1200  secondsAgos[1] */\n      dup2\n      mload\n      dup2\n      lt\n      tag_26\n      jumpi\n      invalid\n    tag_26:\n      0x20\n      mul\n      0x20\n      add\n      add\n        /* \"@uniswap/v3-periphery/contracts/libraries/OracleLibrary.sol\":1186:1204  secondsAgos[1] = 0 */\n      swap1\n      0xffffffff\n      and\n      swap1\n      dup2\n      0xffffffff\n      and\n      dup2\n      mstore\n      pop\n      pop\n        /* \"@uniswap/v3-periphery/contracts/libraries/OracleLibrary.sol\":1216:1246  int56[] memory tickCumulatives */\n      0x00\n        /* \"@uniswap/v3-periphery/contracts/libraries/OracleLibrary.sol\":1248:1299  uint160[] memory secondsPerLiquidityCumulativeX128s */\n      dup1\n        /* \"@uniswap/v3-periphery/contracts/libraries/OracleLibrary.sol\":1330:1334  pool */\n      dup7\n        /* \"@uniswap/v3-periphery/contracts/libraries/OracleLibrary.sol\":1315:1343  IUniswapV3Pool(pool).observe */\n      0xffffffffffffffffffffffffffffffffffffffff\n      and\n      0x883bdbfd\n        /* \"@uniswap/v3-periphery/contracts/libraries/OracleLibrary.sol\":1344:1355  secondsAgos */\n      dup5\n        /* \"@uniswap/v3-periphery/contracts/libraries/OracleLibrary.sol\":1315:1356  IUniswapV3Pool(pool).observe(secondsAgos) */\n      mload(0x40)\n      dup3\n      0xffffffff\n      and\n      0xe0\n      shl\n      dup2\n      mstore\n      0x04\n      add\n      dup1\n      dup1\n      0x20\n      add\n      dup3\n      dup2\n      sub\n      dup3\n      mstore\n      dup4\n      dup2\n      dup2\n      mload\n      dup2\n      mstore\n      0x20\n      add\n      swap2\n      pop\n      dup1\n      mload\n      swap1\n      0x20\n      add\n      swap1\n      0x20\n      mul\n      dup1\n      dup4\n      dup4\n      0x00\n    tag_27:\n      dup4\n      dup2\n      lt\n      iszero\n      tag_29\n      jumpi\n      dup1\n      dup3\n      add\n      mload\n      dup2\n      dup5\n      add\n      mstore\n      0x20\n      dup2\n      add\n      swap1\n      pop\n      jump(tag_27)\n    tag_29:\n      pop\n      pop\n      pop\n      pop\n      swap1\n      pop\n      add\n      swap3\n      pop\n      pop\n      pop\n      0x00\n      mload(0x40)\n      dup1\n      dup4\n      sub\n      dup2\n      dup7\n      dup1\n      extcodesize\n      iszero\n      dup1\n      iszero\n      tag_30\n      jumpi\n      0x00\n      dup1\n      revert\n    tag_30:\n      pop\n      gas\n      staticcall\n      iszero\n      dup1\n      iszero\n      tag_32\n      jumpi\n      returndatasize\n      0x00\n      dup1\n      returndatacopy\n      revert(0x00, returndatasize)\n    tag_32:\n      pop\n      pop\n      pop\n      pop\n      mload(0x40)\n      returndatasize\n      0x00\n      dup3\n      returndatacopy\n      returndatasize\n      not(0x1f)\n      0x1f\n      dup3\n      add\n      and\n      dup3\n      add\n      dup1\n      0x40\n      mstore\n      pop\n      0x40\n      dup2\n      lt\n      iszero\n      tag_33\n      jumpi\n      0x00\n      dup1\n      revert\n    tag_33:\n      dup2\n      add\n      swap1\n      dup1\n      dup1\n      mload\n      mload(0x40)\n      swap4\n      swap3\n      swap2\n      swap1\n      dup5\n      0x0100000000\n      dup3\n      gt\n      iszero\n      tag_34\n      jumpi\n      0x00\n      dup1\n      revert\n    tag_34:\n      dup4\n      dup3\n      add\n      swap2\n      pop\n      0x20\n      dup3\n      add\n      dup6\n      dup2\n      gt\n      iszero\n      tag_35\n      jumpi\n      0x00\n      dup1\n      revert\n    tag_35:\n      dup3\n      mload\n      dup7\n      0x20\n      dup3\n      mul\n      dup4\n      add\n      gt\n      0x0100000000\n      dup3\n      gt\n      or\n      iszero\n      tag_36\n      jumpi\n      0x00\n      dup1\n      revert\n    tag_36:\n      dup1\n      dup4\n      mstore\n      0x20\n      dup4\n      add\n      swap3\n      pop\n      pop\n      pop\n      swap1\n      dup1\n      mload\n      swap1\n      0x20\n      add\n      swap1\n      0x20\n      mul\n      dup1\n      dup4\n      dup4\n      0x00\n    tag_37:\n      dup4\n      dup2\n      lt\n      iszero\n      tag_39\n      jumpi\n      dup1\n      dup3\n      add\n      mload\n      dup2\n      dup5\n      add\n      mstore\n      0x20\n      dup2\n      add\n      swap1\n      pop\n      jump(tag_37)\n    tag_39:\n      pop\n      pop\n      pop\n      pop\n      swap1\n      pop\n      add\n      0x40\n      mstore\n      0x20\n      add\n      dup1\n      mload\n      mload(0x40)\n      swap4\n      swap3\n      swap2\n      swap1\n      dup5\n      0x0100000000\n      dup3\n      gt\n      iszero\n      tag_40\n      jumpi\n      0x00\n      dup1\n      revert\n    tag_40:\n      dup4\n      dup3\n      add\n      swap2\n      pop\n      0x20\n      dup3\n      add\n      dup6\n      dup2\n      gt\n      iszero\n      tag_41\n      jumpi\n      0x00\n      dup1\n      revert\n    tag_41:\n      dup3\n      mload\n      dup7\n      0x20\n      dup3\n      mul\n      dup4\n      add\n      gt\n      0x0100000000\n      dup3\n      gt\n      or\n      iszero\n      tag_42\n      jumpi\n      0x00\n      dup1\n      revert\n    tag_42:\n      dup1\n      dup4\n      mstore\n      0x20\n      dup4\n      add\n      swap3\n      pop\n      pop\n      pop\n      swap1\n      dup1\n      mload\n      swap1\n      0x20\n      add\n      swap1\n      0x20\n      mul\n      dup1\n      dup4\n      dup4\n      0x00\n    tag_43:\n      dup4\n      dup2\n      lt\n      iszero\n      tag_45\n      jumpi\n      dup1\n      dup3\n      add\n      mload\n      dup2\n      dup5\n      add\n      mstore\n      0x20\n      dup2\n      add\n      swap1\n      pop\n      jump(tag_43)\n    tag_45:\n      pop\n      pop\n      pop\n      pop\n      swap1\n      pop\n      add\n      0x40\n      mstore\n      pop\n      pop\n      pop\n        /* \"@uniswap/v3-periphery/contracts/libraries/OracleLibrary.sol\":1215:1356  (int56[] memory tickCumulatives, uint160[] memory secondsPerLiquidityCumulativeX128s) =... */\n      swap2\n      pop\n      swap2\n      pop\n        /* \"@uniswap/v3-periphery/contracts/libraries/OracleLibrary.sol\":1367:1393  int56 tickCumulativesDelta */\n      0x00\n        /* \"@uniswap/v3-periphery/contracts/libraries/OracleLibrary.sol\":1417:1432  tickCumulatives */\n      dup3\n        /* \"@uniswap/v3-periphery/contracts/libraries/OracleLibrary.sol\":1433:1434  0 */\n      0x00\n        /* \"@uniswap/v3-periphery/contracts/libraries/OracleLibrary.sol\":1417:1435  tickCumulatives[0] */\n      dup2\n      mload\n      dup2\n      lt\n      tag_46\n      jumpi\n      invalid\n    tag_46:\n      0x20\n      mul\n      0x20\n      add\n      add\n      mload\n        /* \"@uniswap/v3-periphery/contracts/libraries/OracleLibrary.sol\":1396:1411  tickCumulatives */\n      dup4\n        /* \"@uniswap/v3-periphery/contracts/libraries/OracleLibrary.sol\":1412:1413  1 */\n      0x01\n        /* \"@uniswap/v3-periphery/contracts/libraries/OracleLibrary.sol\":1396:1414  tickCumulatives[1] */\n      dup2\n      mload\n      dup2\n      lt\n      tag_47\n      jumpi\n      invalid\n    tag_47:\n      0x20\n      mul\n      0x20\n      add\n      add\n      mload\n        /* \"@uniswap/v3-periphery/contracts/libraries/OracleLibrary.sol\":1396:1435  tickCumulatives[1] - tickCumulatives[0] */\n      sub\n        /* \"@uniswap/v3-periphery/contracts/libraries/OracleLibrary.sol\":1367:1435  int56 tickCumulativesDelta = tickCumulatives[1] - tickCumulatives[0] */\n      swap1\n      pop\n        /* \"@uniswap/v3-periphery/contracts/libraries/OracleLibrary.sol\":1445:1488  uint160 secondsPerLiquidityCumulativesDelta */\n      0x00\n        /* \"@uniswap/v3-periphery/contracts/libraries/OracleLibrary.sol\":1543:1577  secondsPerLiquidityCumulativeX128s */\n      dup3\n        /* \"@uniswap/v3-periphery/contracts/libraries/OracleLibrary.sol\":1578:1579  0 */\n      0x00\n        /* \"@uniswap/v3-periphery/contracts/libraries/OracleLibrary.sol\":1543:1580  secondsPerLiquidityCumulativeX128s[0] */\n      dup2\n      mload\n      dup2\n      lt\n      tag_48\n      jumpi\n      invalid\n    tag_48:\n      0x20\n      mul\n      0x20\n      add\n      add\n      mload\n        /* \"@uniswap/v3-periphery/contracts/libraries/OracleLibrary.sol\":1503:1537  secondsPerLiquidityCumulativeX128s */\n      dup4\n        /* \"@uniswap/v3-periphery/contracts/libraries/OracleLibrary.sol\":1538:1539  1 */\n      0x01\n        /* \"@uniswap/v3-periphery/contracts/libraries/OracleLibrary.sol\":1503:1540  secondsPerLiquidityCumulativeX128s[1] */\n      dup2\n      mload\n      dup2\n      lt\n      tag_49\n      jumpi\n      invalid\n    tag_49:\n      0x20\n      mul\n      0x20\n      add\n      add\n      mload\n        /* \"@uniswap/v3-periphery/contracts/libraries/OracleLibrary.sol\":1503:1580  secondsPerLiquidityCumulativeX128s[1] - secondsPerLiquidityCumulativeX128s[0] */\n      sub\n        /* \"@uniswap/v3-periphery/contracts/libraries/OracleLibrary.sol\":1445:1580  uint160 secondsPerLiquidityCumulativesDelta =... */\n      swap1\n      pop\n        /* \"@uniswap/v3-periphery/contracts/libraries/OracleLibrary.sol\":1641:1651  secondsAgo */\n      dup8\n        /* \"@uniswap/v3-periphery/contracts/libraries/OracleLibrary.sol\":1618:1651  tickCumulativesDelta / secondsAgo */\n      0xffffffff\n      and\n        /* \"@uniswap/v3-periphery/contracts/libraries/OracleLibrary.sol\":1618:1638  tickCumulativesDelta */\n      dup3\n        /* \"@uniswap/v3-periphery/contracts/libraries/OracleLibrary.sol\":1618:1651  tickCumulativesDelta / secondsAgo */\n      0x06\n      signextend\n      dup2\n      tag_50\n      jumpi\n      invalid\n    tag_50:\n      sdiv\n        /* \"@uniswap/v3-periphery/contracts/libraries/OracleLibrary.sol\":1591:1652  arithmeticMeanTick = int24(tickCumulativesDelta / secondsAgo) */\n      swap7\n      pop\n        /* \"@uniswap/v3-periphery/contracts/libraries/OracleLibrary.sol\":1734:1735  0 */\n      0x00\n        /* \"@uniswap/v3-periphery/contracts/libraries/OracleLibrary.sol\":1711:1731  tickCumulativesDelta */\n      dup3\n        /* \"@uniswap/v3-periphery/contracts/libraries/OracleLibrary.sol\":1711:1735  tickCumulativesDelta < 0 */\n      0x06\n      signextend\n      slt\n        /* \"@uniswap/v3-periphery/contracts/libraries/OracleLibrary.sol\":1711:1779  tickCumulativesDelta < 0 && (tickCumulativesDelta % secondsAgo != 0) */\n      dup1\n      iszero\n      tag_51\n      jumpi\n      pop\n        /* \"@uniswap/v3-periphery/contracts/libraries/OracleLibrary.sol\":1777:1778  0 */\n      0x00\n        /* \"@uniswap/v3-periphery/contracts/libraries/OracleLibrary.sol\":1763:1773  secondsAgo */\n      dup9\n        /* \"@uniswap/v3-periphery/contracts/libraries/OracleLibrary.sol\":1740:1773  tickCumulativesDelta % secondsAgo */\n      0xffffffff\n      and\n        /* \"@uniswap/v3-periphery/contracts/libraries/OracleLibrary.sol\":1740:1760  tickCumulativesDelta */\n      dup4\n        /* \"@uniswap/v3-periphery/contracts/libraries/OracleLibrary.sol\":1740:1773  tickCumulativesDelta % secondsAgo */\n      0x06\n      signextend\n      dup2\n      tag_52\n      jumpi\n      invalid\n    tag_52:\n      smod\n        /* \"@uniswap/v3-periphery/contracts/libraries/OracleLibrary.sol\":1740:1778  tickCumulativesDelta % secondsAgo != 0 */\n      0x06\n      signextend\n      eq\n      iszero\n        /* \"@uniswap/v3-periphery/contracts/libraries/OracleLibrary.sol\":1711:1779  tickCumulativesDelta < 0 && (tickCumulativesDelta % secondsAgo != 0) */\n    tag_51:\n        /* \"@uniswap/v3-periphery/contracts/libraries/OracleLibrary.sol\":1707:1801  if (tickCumulativesDelta < 0 && (tickCumulativesDelta % secondsAgo != 0)) arithmeticMeanTick-- */\n      iszero\n      tag_53\n      jumpi\n        /* \"@uniswap/v3-periphery/contracts/libraries/OracleLibrary.sol\":1781:1801  arithmeticMeanTick-- */\n      dup7\n      dup1\n      0x01\n      swap1\n      sub\n      swap8\n      pop\n      pop\n        /* \"@uniswap/v3-periphery/contracts/libraries/OracleLibrary.sol\":1707:1801  if (tickCumulativesDelta < 0 && (tickCumulativesDelta % secondsAgo != 0)) arithmeticMeanTick-- */\n    tag_53:\n        /* \"@uniswap/v3-periphery/contracts/libraries/OracleLibrary.sol\":1929:1951  uint192 secondsAgoX160 */\n      0x00\n        /* \"@uniswap/v3-periphery/contracts/libraries/OracleLibrary.sol\":1976:1993  type(uint160).max */\n      0xffffffffffffffffffffffffffffffffffffffff\n        /* \"@uniswap/v3-periphery/contracts/libraries/OracleLibrary.sol\":1954:1993  uint192(secondsAgo) * type(uint160).max */\n      dup1\n      and\n        /* \"@uniswap/v3-periphery/contracts/libraries/OracleLibrary.sol\":1962:1972  secondsAgo */\n      dup10\n        /* \"@uniswap/v3-periphery/contracts/libraries/OracleLibrary.sol\":1954:1973  uint192(secondsAgo) */\n      0xffffffff\n      and\n        /* \"@uniswap/v3-periphery/contracts/libraries/OracleLibrary.sol\":1954:1993  uint192(secondsAgo) * type(uint160).max */\n      mul\n        /* \"@uniswap/v3-periphery/contracts/libraries/OracleLibrary.sol\":1929:1993  uint192 secondsAgoX160 = uint192(secondsAgo) * type(uint160).max */\n      swap1\n      pop\n        /* \"@uniswap/v3-periphery/contracts/libraries/OracleLibrary.sol\":2101:2103  32 */\n      0x20\n        /* \"@uniswap/v3-periphery/contracts/libraries/OracleLibrary.sol\":2061:2096  secondsPerLiquidityCumulativesDelta */\n      dup3\n        /* \"@uniswap/v3-periphery/contracts/libraries/OracleLibrary.sol\":2053:2097  uint192(secondsPerLiquidityCumulativesDelta) */\n      0xffffffffffffffffffffffffffffffffffffffff\n      and\n        /* \"@uniswap/v3-periphery/contracts/libraries/OracleLibrary.sol\":2053:2103  uint192(secondsPerLiquidityCumulativesDelta) << 32 */\n      0xffffffffffffffffffffffffffffffffffffffffffffffff\n      and\n      swap1\n      shl\n        /* \"@uniswap/v3-periphery/contracts/libraries/OracleLibrary.sol\":2035:2104  secondsAgoX160 / (uint192(secondsPerLiquidityCumulativesDelta) << 32) */\n      0xffffffffffffffffffffffffffffffffffffffffffffffff\n      and\n        /* \"@uniswap/v3-periphery/contracts/libraries/OracleLibrary.sol\":2035:2049  secondsAgoX160 */\n      dup2\n        /* \"@uniswap/v3-periphery/contracts/libraries/OracleLibrary.sol\":2035:2104  secondsAgoX160 / (uint192(secondsPerLiquidityCumulativesDelta) << 32) */\n      0xffffffffffffffffffffffffffffffffffffffffffffffff\n      and\n      dup2\n      tag_54\n      jumpi\n      invalid\n    tag_54:\n      div\n        /* \"@uniswap/v3-periphery/contracts/libraries/OracleLibrary.sol\":2003:2105  harmonicMeanLiquidity = uint128(secondsAgoX160 / (uint192(secondsPerLiquidityCumulativesDelta) << 32)) */\n      swap7\n      pop\n        /* \"@uniswap/v3-periphery/contracts/libraries/OracleLibrary.sol\":885:2112  function consult(address pool, uint32 secondsAgo)... */\n      pop\n      pop\n      pop\n      pop\n      pop\n      pop\n      swap3\n      pop\n      swap3\n      swap1\n      pop\n      jump\t// out\n        /* \"@uniswap/v3-periphery/contracts/libraries/OracleLibrary.sol\":2616:3571  function getQuoteAtTick(... */\n    tag_20:\n        /* \"@uniswap/v3-periphery/contracts/libraries/OracleLibrary.sol\":2772:2791  uint256 quoteAmount */\n      0x00\n        /* \"@uniswap/v3-periphery/contracts/libraries/OracleLibrary.sol\":2803:2823  uint160 sqrtRatioX96 */\n      dup1\n        /* \"@uniswap/v3-periphery/contracts/libraries/OracleLibrary.sol\":2826:2859  TickMath.getSqrtRatioAtTick(tick) */\n      tag_56\n        /* \"@uniswap/v3-periphery/contracts/libraries/OracleLibrary.sol\":2854:2858  tick */\n      dup7\n        /* \"@uniswap/v3-periphery/contracts/libraries/OracleLibrary.sol\":2826:2853  TickMath.getSqrtRatioAtTick */\n      tag_57\n        /* \"@uniswap/v3-periphery/contracts/libraries/OracleLibrary.sol\":2826:2859  TickMath.getSqrtRatioAtTick(tick) */\n      jump\t// in\n    tag_56:\n        /* \"@uniswap/v3-periphery/contracts/libraries/OracleLibrary.sol\":2803:2859  uint160 sqrtRatioX96 = TickMath.getSqrtRatioAtTick(tick) */\n      swap1\n      pop\n        /* \"@uniswap/v3-periphery/contracts/libraries/OracleLibrary.sol\":2994:3011  type(uint128).max */\n      0xffffffffffffffffffffffffffffffff\n        /* \"@uniswap/v3-periphery/contracts/libraries/OracleLibrary.sol\":2978:3011  sqrtRatioX96 <= type(uint128).max */\n      dup1\n      and\n        /* \"@uniswap/v3-periphery/contracts/libraries/OracleLibrary.sol\":2978:2990  sqrtRatioX96 */\n      dup2\n        /* \"@uniswap/v3-periphery/contracts/libraries/OracleLibrary.sol\":2978:3011  sqrtRatioX96 <= type(uint128).max */\n      0xffffffffffffffffffffffffffffffffffffffff\n      and\n      gt\n        /* \"@uniswap/v3-periphery/contracts/libraries/OracleLibrary.sol\":2974:3565  if (sqrtRatioX96 <= type(uint128).max) {... */\n      tag_58\n      jumpi\n        /* \"@uniswap/v3-periphery/contracts/libraries/OracleLibrary.sol\":3027:3044  uint256 ratioX192 */\n      0x00\n        /* \"@uniswap/v3-periphery/contracts/libraries/OracleLibrary.sol\":3071:3083  sqrtRatioX96 */\n      dup2\n        /* \"@uniswap/v3-periphery/contracts/libraries/OracleLibrary.sol\":3047:3083  uint256(sqrtRatioX96) * sqrtRatioX96 */\n      0xffffffffffffffffffffffffffffffffffffffff\n      and\n        /* \"@uniswap/v3-periphery/contracts/libraries/OracleLibrary.sol\":3055:3067  sqrtRatioX96 */\n      dup3\n        /* \"@uniswap/v3-periphery/contracts/libraries/OracleLibrary.sol\":3047:3068  uint256(sqrtRatioX96) */\n      0xffffffffffffffffffffffffffffffffffffffff\n      and\n        /* \"@uniswap/v3-periphery/contracts/libraries/OracleLibrary.sol\":3047:3083  uint256(sqrtRatioX96) * sqrtRatioX96 */\n      mul\n        /* \"@uniswap/v3-periphery/contracts/libraries/OracleLibrary.sol\":3027:3083  uint256 ratioX192 = uint256(sqrtRatioX96) * sqrtRatioX96 */\n      swap1\n      pop\n        /* \"@uniswap/v3-periphery/contracts/libraries/OracleLibrary.sol\":3123:3133  quoteToken */\n      dup4\n        /* \"@uniswap/v3-periphery/contracts/libraries/OracleLibrary.sol\":3111:3133  baseToken < quoteToken */\n      0xffffffffffffffffffffffffffffffffffffffff\n      and\n        /* \"@uniswap/v3-periphery/contracts/libraries/OracleLibrary.sol\":3111:3120  baseToken */\n      dup6\n        /* \"@uniswap/v3-periphery/contracts/libraries/OracleLibrary.sol\":3111:3133  baseToken < quoteToken */\n      0xffffffffffffffffffffffffffffffffffffffff\n      and\n      lt\n        /* \"@uniswap/v3-periphery/contracts/libraries/OracleLibrary.sol\":3111:3267  baseToken < quoteToken... */\n      tag_59\n      jumpi\n        /* \"@uniswap/v3-periphery/contracts/libraries/OracleLibrary.sol\":3219:3267  FullMath.mulDiv(1 << 192, baseAmount, ratioX192) */\n      tag_60\n        /* \"@uniswap/v3-periphery/contracts/libraries/OracleLibrary.sol\":3235:3243  1 << 192 */\n      0x01000000000000000000000000000000000000000000000000\n        /* \"@uniswap/v3-periphery/contracts/libraries/OracleLibrary.sol\":3245:3255  baseAmount */\n      dup8\n        /* \"@uniswap/v3-periphery/contracts/libraries/OracleLibrary.sol\":3219:3267  FullMath.mulDiv(1 << 192, baseAmount, ratioX192) */\n      0xffffffffffffffffffffffffffffffff\n      and\n        /* \"@uniswap/v3-periphery/contracts/libraries/OracleLibrary.sol\":3257:3266  ratioX192 */\n      dup4\n        /* \"@uniswap/v3-periphery/contracts/libraries/OracleLibrary.sol\":3219:3234  FullMath.mulDiv */\n      tag_61\n        /* \"@uniswap/v3-periphery/contracts/libraries/OracleLibrary.sol\":3219:3267  FullMath.mulDiv(1 << 192, baseAmount, ratioX192) */\n      jump\t// in\n    tag_60:\n        /* \"@uniswap/v3-periphery/contracts/libraries/OracleLibrary.sol\":3111:3267  baseToken < quoteToken... */\n      jump(tag_62)\n    tag_59:\n        /* \"@uniswap/v3-periphery/contracts/libraries/OracleLibrary.sol\":3152:3200  FullMath.mulDiv(ratioX192, baseAmount, 1 << 192) */\n      tag_63\n        /* \"@uniswap/v3-periphery/contracts/libraries/OracleLibrary.sol\":3168:3177  ratioX192 */\n      dup2\n        /* \"@uniswap/v3-periphery/contracts/libraries/OracleLibrary.sol\":3179:3189  baseAmount */\n      dup8\n        /* \"@uniswap/v3-periphery/contracts/libraries/OracleLibrary.sol\":3152:3200  FullMath.mulDiv(ratioX192, baseAmount, 1 << 192) */\n      0xffffffffffffffffffffffffffffffff\n      and\n        /* \"@uniswap/v3-periphery/contracts/libraries/OracleLibrary.sol\":3191:3199  1 << 192 */\n      0x01000000000000000000000000000000000000000000000000\n        /* \"@uniswap/v3-periphery/contracts/libraries/OracleLibrary.sol\":3152:3167  FullMath.mulDiv */\n      tag_61\n        /* \"@uniswap/v3-periphery/contracts/libraries/OracleLibrary.sol\":3152:3200  FullMath.mulDiv(ratioX192, baseAmount, 1 << 192) */\n      jump\t// in\n    tag_63:\n        /* \"@uniswap/v3-periphery/contracts/libraries/OracleLibrary.sol\":3111:3267  baseToken < quoteToken... */\n    tag_62:\n        /* \"@uniswap/v3-periphery/contracts/libraries/OracleLibrary.sol\":3097:3267  quoteAmount = baseToken < quoteToken... */\n      swap3\n      pop\n        /* \"@uniswap/v3-periphery/contracts/libraries/OracleLibrary.sol\":2974:3565  if (sqrtRatioX96 <= type(uint128).max) {... */\n      pop\n      jump(tag_64)\n    tag_58:\n        /* \"@uniswap/v3-periphery/contracts/libraries/OracleLibrary.sol\":3298:3315  uint256 ratioX128 */\n      0x00\n        /* \"@uniswap/v3-periphery/contracts/libraries/OracleLibrary.sol\":3318:3370  FullMath.mulDiv(sqrtRatioX96, sqrtRatioX96, 1 << 64) */\n      tag_65\n        /* \"@uniswap/v3-periphery/contracts/libraries/OracleLibrary.sol\":3334:3346  sqrtRatioX96 */\n      dup3\n        /* \"@uniswap/v3-periphery/contracts/libraries/OracleLibrary.sol\":3318:3370  FullMath.mulDiv(sqrtRatioX96, sqrtRatioX96, 1 << 64) */\n      0xffffffffffffffffffffffffffffffffffffffff\n      and\n        /* \"@uniswap/v3-periphery/contracts/libraries/OracleLibrary.sol\":3348:3360  sqrtRatioX96 */\n      dup4\n        /* \"@uniswap/v3-periphery/contracts/libraries/OracleLibrary.sol\":3318:3370  FullMath.mulDiv(sqrtRatioX96, sqrtRatioX96, 1 << 64) */\n      0xffffffffffffffffffffffffffffffffffffffff\n      and\n        /* \"@uniswap/v3-periphery/contracts/libraries/OracleLibrary.sol\":3362:3369  1 << 64 */\n      0x010000000000000000\n        /* \"@uniswap/v3-periphery/contracts/libraries/OracleLibrary.sol\":3318:3333  FullMath.mulDiv */\n      tag_61\n        /* \"@uniswap/v3-periphery/contracts/libraries/OracleLibrary.sol\":3318:3370  FullMath.mulDiv(sqrtRatioX96, sqrtRatioX96, 1 << 64) */\n      jump\t// in\n    tag_65:\n        /* \"@uniswap/v3-periphery/contracts/libraries/OracleLibrary.sol\":3298:3370  uint256 ratioX128 = FullMath.mulDiv(sqrtRatioX96, sqrtRatioX96, 1 << 64) */\n      swap1\n      pop\n        /* \"@uniswap/v3-periphery/contracts/libraries/OracleLibrary.sol\":3410:3420  quoteToken */\n      dup4\n        /* \"@uniswap/v3-periphery/contracts/libraries/OracleLibrary.sol\":3398:3420  baseToken < quoteToken */\n      0xffffffffffffffffffffffffffffffffffffffff\n      and\n        /* \"@uniswap/v3-periphery/contracts/libraries/OracleLibrary.sol\":3398:3407  baseToken */\n      dup6\n        /* \"@uniswap/v3-periphery/contracts/libraries/OracleLibrary.sol\":3398:3420  baseToken < quoteToken */\n      0xffffffffffffffffffffffffffffffffffffffff\n      and\n      lt\n        /* \"@uniswap/v3-periphery/contracts/libraries/OracleLibrary.sol\":3398:3554  baseToken < quoteToken... */\n      tag_66\n      jumpi\n        /* \"@uniswap/v3-periphery/contracts/libraries/OracleLibrary.sol\":3506:3554  FullMath.mulDiv(1 << 128, baseAmount, ratioX128) */\n      tag_67\n        /* \"@uniswap/v3-periphery/contracts/libraries/OracleLibrary.sol\":3522:3530  1 << 128 */\n      0x0100000000000000000000000000000000\n        /* \"@uniswap/v3-periphery/contracts/libraries/OracleLibrary.sol\":3532:3542  baseAmount */\n      dup8\n        /* \"@uniswap/v3-periphery/contracts/libraries/OracleLibrary.sol\":3506:3554  FullMath.mulDiv(1 << 128, baseAmount, ratioX128) */\n      0xffffffffffffffffffffffffffffffff\n      and\n        /* \"@uniswap/v3-periphery/contracts/libraries/OracleLibrary.sol\":3544:3553  ratioX128 */\n      dup4\n        /* \"@uniswap/v3-periphery/contracts/libraries/OracleLibrary.sol\":3506:3521  FullMath.mulDiv */\n      tag_61\n        /* \"@uniswap/v3-periphery/contracts/libraries/OracleLibrary.sol\":3506:3554  FullMath.mulDiv(1 << 128, baseAmount, ratioX128) */\n      jump\t// in\n    tag_67:\n        /* \"@uniswap/v3-periphery/contracts/libraries/OracleLibrary.sol\":3398:3554  baseToken < quoteToken... */\n      jump(tag_68)\n    tag_66:\n        /* \"@uniswap/v3-periphery/contracts/libraries/OracleLibrary.sol\":3439:3487  FullMath.mulDiv(ratioX128, baseAmount, 1 << 128) */\n      tag_69\n        /* \"@uniswap/v3-periphery/contracts/libraries/OracleLibrary.sol\":3455:3464  ratioX128 */\n      dup2\n        /* \"@uniswap/v3-periphery/contracts/libraries/OracleLibrary.sol\":3466:3476  baseAmount */\n      dup8\n        /* \"@uniswap/v3-periphery/contracts/libraries/OracleLibrary.sol\":3439:3487  FullMath.mulDiv(ratioX128, baseAmount, 1 << 128) */\n      0xffffffffffffffffffffffffffffffff\n      and\n        /* \"@uniswap/v3-periphery/contracts/libraries/OracleLibrary.sol\":3478:3486  1 << 128 */\n      0x0100000000000000000000000000000000\n        /* \"@uniswap/v3-periphery/contracts/libraries/OracleLibrary.sol\":3439:3454  FullMath.mulDiv */\n      tag_61\n        /* \"@uniswap/v3-periphery/contracts/libraries/OracleLibrary.sol\":3439:3487  FullMath.mulDiv(ratioX128, baseAmount, 1 << 128) */\n      jump\t// in\n    tag_69:\n        /* \"@uniswap/v3-periphery/contracts/libraries/OracleLibrary.sol\":3398:3554  baseToken < quoteToken... */\n    tag_68:\n        /* \"@uniswap/v3-periphery/contracts/libraries/OracleLibrary.sol\":3384:3554  quoteAmount = baseToken < quoteToken... */\n      swap3\n      pop\n        /* \"@uniswap/v3-periphery/contracts/libraries/OracleLibrary.sol\":2974:3565  if (sqrtRatioX96 <= type(uint128).max) {... */\n      pop\n    tag_64:\n        /* \"@uniswap/v3-periphery/contracts/libraries/OracleLibrary.sol\":2616:3571  function getQuoteAtTick(... */\n      pop\n      swap5\n      swap4\n      pop\n      pop\n      pop\n      pop\n      jump\t// out\n        /* \"@uniswap/v3-core/contracts/libraries/TickMath.sol\":1362:3942  function getSqrtRatioAtTick(int24 tick) internal pure returns (uint160 sqrtPriceX96) {... */\n    tag_57:\n        /* \"@uniswap/v3-core/contracts/libraries/TickMath.sol\":1425:1445  uint160 sqrtPriceX96 */\n      0x00\n        /* \"@uniswap/v3-core/contracts/libraries/TickMath.sol\":1457:1472  uint256 absTick */\n      dup1\n        /* \"@uniswap/v3-core/contracts/libraries/TickMath.sol\":1482:1483  0 */\n      0x00\n        /* \"@uniswap/v3-core/contracts/libraries/TickMath.sol\":1475:1479  tick */\n      dup4\n        /* \"@uniswap/v3-core/contracts/libraries/TickMath.sol\":1475:1483  tick < 0 */\n      0x02\n      signextend\n      slt\n        /* \"@uniswap/v3-core/contracts/libraries/TickMath.sol\":1475:1532  tick < 0 ? uint256(-int256(tick)) : uint256(int256(tick)) */\n      tag_71\n      jumpi\n        /* \"@uniswap/v3-core/contracts/libraries/TickMath.sol\":1526:1530  tick */\n      dup3\n        /* \"@uniswap/v3-core/contracts/libraries/TickMath.sol\":1519:1531  int256(tick) */\n      0x02\n      signextend\n        /* \"@uniswap/v3-core/contracts/libraries/TickMath.sol\":1475:1532  tick < 0 ? uint256(-int256(tick)) : uint256(int256(tick)) */\n      jump(tag_72)\n    tag_71:\n        /* \"@uniswap/v3-core/contracts/libraries/TickMath.sol\":1502:1506  tick */\n      dup3\n        /* \"@uniswap/v3-core/contracts/libraries/TickMath.sol\":1495:1507  int256(tick) */\n      0x02\n      signextend\n        /* \"@uniswap/v3-core/contracts/libraries/TickMath.sol\":1494:1507  -int256(tick) */\n      0x00\n      sub\n        /* \"@uniswap/v3-core/contracts/libraries/TickMath.sol\":1475:1532  tick < 0 ? uint256(-int256(tick)) : uint256(int256(tick)) */\n    tag_72:\n        /* \"@uniswap/v3-core/contracts/libraries/TickMath.sol\":1457:1532  uint256 absTick = tick < 0 ? uint256(-int256(tick)) : uint256(int256(tick)) */\n      swap1\n      pop\n        /* \"@uniswap/v3-core/contracts/libraries/TickMath.sol\":484:491  -887272 */\n      0xfffffffffffffffffffffffffffffffffffffffffffffffffffffffffff27618\n        /* \"@uniswap/v3-core/contracts/libraries/TickMath.sol\":644:653  -MIN_TICK */\n      0x00\n      sub\n        /* \"@uniswap/v3-core/contracts/libraries/TickMath.sol\":1561:1578  uint256(MAX_TICK) */\n      0x02\n      signextend\n        /* \"@uniswap/v3-core/contracts/libraries/TickMath.sol\":1550:1557  absTick */\n      dup2\n        /* \"@uniswap/v3-core/contracts/libraries/TickMath.sol\":1550:1578  absTick <= uint256(MAX_TICK) */\n      gt\n      iszero\n        /* \"@uniswap/v3-core/contracts/libraries/TickMath.sol\":1542:1584  require(absTick <= uint256(MAX_TICK), 'T') */\n      tag_73\n      jumpi\n      mload(0x40)\n      0x08c379a000000000000000000000000000000000000000000000000000000000\n      dup2\n      mstore\n      0x04\n      add\n      dup1\n      dup1\n      0x20\n      add\n      dup3\n      dup2\n      sub\n      dup3\n      mstore\n      0x01\n      dup2\n      mstore\n      0x20\n      add\n      dup1\n      0x5400000000000000000000000000000000000000000000000000000000000000\n      dup2\n      mstore\n      pop\n      0x20\n      add\n      swap2\n      pop\n      pop\n      mload(0x40)\n      dup1\n      swap2\n      sub\n      swap1\n      revert\n    tag_73:\n        /* \"@uniswap/v3-core/contracts/libraries/TickMath.sol\":1595:1608  uint256 ratio */\n      0x00\n        /* \"@uniswap/v3-core/contracts/libraries/TickMath.sol\":1628:1629  0 */\n      dup1\n        /* \"@uniswap/v3-core/contracts/libraries/TickMath.sol\":1621:1624  0x1 */\n      0x01\n        /* \"@uniswap/v3-core/contracts/libraries/TickMath.sol\":1611:1618  absTick */\n      dup4\n        /* \"@uniswap/v3-core/contracts/libraries/TickMath.sol\":1611:1624  absTick & 0x1 */\n      and\n        /* \"@uniswap/v3-core/contracts/libraries/TickMath.sol\":1611:1629  absTick & 0x1 != 0 */\n      eq\n      iszero\n        /* \"@uniswap/v3-core/contracts/libraries/TickMath.sol\":1611:1704  absTick & 0x1 != 0 ? 0xfffcb933bd6fad37aa2d162d1a594001 : 0x100000000000000000000000000000000 */\n      tag_74\n      jumpi\n        /* \"@uniswap/v3-core/contracts/libraries/TickMath.sol\":1669:1704  0x100000000000000000000000000000000 */\n      0x0100000000000000000000000000000000\n        /* \"@uniswap/v3-core/contracts/libraries/TickMath.sol\":1611:1704  absTick & 0x1 != 0 ? 0xfffcb933bd6fad37aa2d162d1a594001 : 0x100000000000000000000000000000000 */\n      jump(tag_75)\n    tag_74:\n        /* \"@uniswap/v3-core/contracts/libraries/TickMath.sol\":1632:1666  0xfffcb933bd6fad37aa2d162d1a594001 */\n      0xfffcb933bd6fad37aa2d162d1a594001\n        /* \"@uniswap/v3-core/contracts/libraries/TickMath.sol\":1611:1704  absTick & 0x1 != 0 ? 0xfffcb933bd6fad37aa2d162d1a594001 : 0x100000000000000000000000000000000 */\n    tag_75:\n        /* \"@uniswap/v3-core/contracts/libraries/TickMath.sol\":1595:1704  uint256 ratio = absTick & 0x1 != 0 ? 0xfffcb933bd6fad37aa2d162d1a594001 : 0x100000000000000000000000000000000 */\n      0xffffffffffffffffffffffffffffffffff\n      and\n      swap1\n      pop\n        /* \"@uniswap/v3-core/contracts/libraries/TickMath.sol\":1735:1736  0 */\n      0x00\n        /* \"@uniswap/v3-core/contracts/libraries/TickMath.sol\":1728:1731  0x2 */\n      0x02\n        /* \"@uniswap/v3-core/contracts/libraries/TickMath.sol\":1718:1725  absTick */\n      dup4\n        /* \"@uniswap/v3-core/contracts/libraries/TickMath.sol\":1718:1731  absTick & 0x2 */\n      and\n        /* \"@uniswap/v3-core/contracts/libraries/TickMath.sol\":1718:1736  absTick & 0x2 != 0 */\n      eq\n        /* \"@uniswap/v3-core/contracts/libraries/TickMath.sol\":1714:1797  if (absTick & 0x2 != 0) ratio = (ratio * 0xfff97272373d413259a46990580e213a) >> 128 */\n      tag_76\n      jumpi\n        /* \"@uniswap/v3-core/contracts/libraries/TickMath.sol\":1794:1797  128 */\n      0x80\n        /* \"@uniswap/v3-core/contracts/libraries/TickMath.sol\":1755:1789  0xfff97272373d413259a46990580e213a */\n      0xfff97272373d413259a46990580e213a\n        /* \"@uniswap/v3-core/contracts/libraries/TickMath.sol\":1747:1752  ratio */\n      dup3\n        /* \"@uniswap/v3-core/contracts/libraries/TickMath.sol\":1747:1789  ratio * 0xfff97272373d413259a46990580e213a */\n      mul\n        /* \"@uniswap/v3-core/contracts/libraries/TickMath.sol\":1746:1797  (ratio * 0xfff97272373d413259a46990580e213a) >> 128 */\n      swap1\n      shr\n        /* \"@uniswap/v3-core/contracts/libraries/TickMath.sol\":1738:1797  ratio = (ratio * 0xfff97272373d413259a46990580e213a) >> 128 */\n      swap1\n      pop\n        /* \"@uniswap/v3-core/contracts/libraries/TickMath.sol\":1714:1797  if (absTick & 0x2 != 0) ratio = (ratio * 0xfff97272373d413259a46990580e213a) >> 128 */\n    tag_76:\n        /* \"@uniswap/v3-core/contracts/libraries/TickMath.sol\":1828:1829  0 */\n      0x00\n        /* \"@uniswap/v3-core/contracts/libraries/TickMath.sol\":1821:1824  0x4 */\n      0x04\n        /* \"@uniswap/v3-core/contracts/libraries/TickMath.sol\":1811:1818  absTick */\n      dup4\n        /* \"@uniswap/v3-core/contracts/libraries/TickMath.sol\":1811:1824  absTick & 0x4 */\n      and\n        /* \"@uniswap/v3-core/contracts/libraries/TickMath.sol\":1811:1829  absTick & 0x4 != 0 */\n      eq\n        /* \"@uniswap/v3-core/contracts/libraries/TickMath.sol\":1807:1890  if (absTick & 0x4 != 0) ratio = (ratio * 0xfff2e50f5f656932ef12357cf3c7fdcc) >> 128 */\n      tag_77\n      jumpi\n        /* \"@uniswap/v3-core/contracts/libraries/TickMath.sol\":1887:1890  128 */\n      0x80\n        /* \"@uniswap/v3-core/contracts/libraries/TickMath.sol\":1848:1882  0xfff2e50f5f656932ef12357cf3c7fdcc */\n      0xfff2e50f5f656932ef12357cf3c7fdcc\n        /* \"@uniswap/v3-core/contracts/libraries/TickMath.sol\":1840:1845  ratio */\n      dup3\n        /* \"@uniswap/v3-core/contracts/libraries/TickMath.sol\":1840:1882  ratio * 0xfff2e50f5f656932ef12357cf3c7fdcc */\n      mul\n        /* \"@uniswap/v3-core/contracts/libraries/TickMath.sol\":1839:1890  (ratio * 0xfff2e50f5f656932ef12357cf3c7fdcc) >> 128 */\n      swap1\n      shr\n        /* \"@uniswap/v3-core/contracts/libraries/TickMath.sol\":1831:1890  ratio = (ratio * 0xfff2e50f5f656932ef12357cf3c7fdcc) >> 128 */\n      swap1\n      pop\n        /* \"@uniswap/v3-core/contracts/libraries/TickMath.sol\":1807:1890  if (absTick & 0x4 != 0) ratio = (ratio * 0xfff2e50f5f656932ef12357cf3c7fdcc) >> 128 */\n    tag_77:\n        /* \"@uniswap/v3-core/contracts/libraries/TickMath.sol\":1921:1922  0 */\n      0x00\n        /* \"@uniswap/v3-core/contracts/libraries/TickMath.sol\":1914:1917  0x8 */\n      0x08\n        /* \"@uniswap/v3-core/contracts/libraries/TickMath.sol\":1904:1911  absTick */\n      dup4\n        /* \"@uniswap/v3-core/contracts/libraries/TickMath.sol\":1904:1917  absTick & 0x8 */\n      and\n        /* \"@uniswap/v3-core/contracts/libraries/TickMath.sol\":1904:1922  absTick & 0x8 != 0 */\n      eq\n        /* \"@uniswap/v3-core/contracts/libraries/TickMath.sol\":1900:1983  if (absTick & 0x8 != 0) ratio = (ratio * 0xffe5caca7e10e4e61c3624eaa0941cd0) >> 128 */\n      tag_78\n      jumpi\n        /* \"@uniswap/v3-core/contracts/libraries/TickMath.sol\":1980:1983  128 */\n      0x80\n        /* \"@uniswap/v3-core/contracts/libraries/TickMath.sol\":1941:1975  0xffe5caca7e10e4e61c3624eaa0941cd0 */\n      0xffe5caca7e10e4e61c3624eaa0941cd0\n        /* \"@uniswap/v3-core/contracts/libraries/TickMath.sol\":1933:1938  ratio */\n      dup3\n        /* \"@uniswap/v3-core/contracts/libraries/TickMath.sol\":1933:1975  ratio * 0xffe5caca7e10e4e61c3624eaa0941cd0 */\n      mul\n        /* \"@uniswap/v3-core/contracts/libraries/TickMath.sol\":1932:1983  (ratio * 0xffe5caca7e10e4e61c3624eaa0941cd0) >> 128 */\n      swap1\n      shr\n        /* \"@uniswap/v3-core/contracts/libraries/TickMath.sol\":1924:1983  ratio = (ratio * 0xffe5caca7e10e4e61c3624eaa0941cd0) >> 128 */\n      swap1\n      pop\n        /* \"@uniswap/v3-core/contracts/libraries/TickMath.sol\":1900:1983  if (absTick & 0x8 != 0) ratio = (ratio * 0xffe5caca7e10e4e61c3624eaa0941cd0) >> 128 */\n    tag_78:\n        /* \"@uniswap/v3-core/contracts/libraries/TickMath.sol\":2015:2016  0 */\n      0x00\n        /* \"@uniswap/v3-core/contracts/libraries/TickMath.sol\":2007:2011  0x10 */\n      0x10\n        /* \"@uniswap/v3-core/contracts/libraries/TickMath.sol\":1997:2004  absTick */\n      dup4\n        /* \"@uniswap/v3-core/contracts/libraries/TickMath.sol\":1997:2011  absTick & 0x10 */\n      and\n        /* \"@uniswap/v3-core/contracts/libraries/TickMath.sol\":1997:2016  absTick & 0x10 != 0 */\n      eq\n        /* \"@uniswap/v3-core/contracts/libraries/TickMath.sol\":1993:2077  if (absTick & 0x10 != 0) ratio = (ratio * 0xffcb9843d60f6159c9db58835c926644) >> 128 */\n      tag_79\n      jumpi\n        /* \"@uniswap/v3-core/contracts/libraries/TickMath.sol\":2074:2077  128 */\n      0x80\n        /* \"@uniswap/v3-core/contracts/libraries/TickMath.sol\":2035:2069  0xffcb9843d60f6159c9db58835c926644 */\n      0xffcb9843d60f6159c9db58835c926644\n        /* \"@uniswap/v3-core/contracts/libraries/TickMath.sol\":2027:2032  ratio */\n      dup3\n        /* \"@uniswap/v3-core/contracts/libraries/TickMath.sol\":2027:2069  ratio * 0xffcb9843d60f6159c9db58835c926644 */\n      mul\n        /* \"@uniswap/v3-core/contracts/libraries/TickMath.sol\":2026:2077  (ratio * 0xffcb9843d60f6159c9db58835c926644) >> 128 */\n      swap1\n      shr\n        /* \"@uniswap/v3-core/contracts/libraries/TickMath.sol\":2018:2077  ratio = (ratio * 0xffcb9843d60f6159c9db58835c926644) >> 128 */\n      swap1\n      pop\n        /* \"@uniswap/v3-core/contracts/libraries/TickMath.sol\":1993:2077  if (absTick & 0x10 != 0) ratio = (ratio * 0xffcb9843d60f6159c9db58835c926644) >> 128 */\n    tag_79:\n        /* \"@uniswap/v3-core/contracts/libraries/TickMath.sol\":2109:2110  0 */\n      0x00\n        /* \"@uniswap/v3-core/contracts/libraries/TickMath.sol\":2101:2105  0x20 */\n      0x20\n        /* \"@uniswap/v3-core/contracts/libraries/TickMath.sol\":2091:2098  absTick */\n      dup4\n        /* \"@uniswap/v3-core/contracts/libraries/TickMath.sol\":2091:2105  absTick & 0x20 */\n      and\n        /* \"@uniswap/v3-core/contracts/libraries/TickMath.sol\":2091:2110  absTick & 0x20 != 0 */\n      eq\n        /* \"@uniswap/v3-core/contracts/libraries/TickMath.sol\":2087:2171  if (absTick & 0x20 != 0) ratio = (ratio * 0xff973b41fa98c081472e6896dfb254c0) >> 128 */\n      tag_80\n      jumpi\n        /* \"@uniswap/v3-core/contracts/libraries/TickMath.sol\":2168:2171  128 */\n      0x80\n        /* \"@uniswap/v3-core/contracts/libraries/TickMath.sol\":2129:2163  0xff973b41fa98c081472e6896dfb254c0 */\n      0xff973b41fa98c081472e6896dfb254c0\n        /* \"@uniswap/v3-core/contracts/libraries/TickMath.sol\":2121:2126  ratio */\n      dup3\n        /* \"@uniswap/v3-core/contracts/libraries/TickMath.sol\":2121:2163  ratio * 0xff973b41fa98c081472e6896dfb254c0 */\n      mul\n        /* \"@uniswap/v3-core/contracts/libraries/TickMath.sol\":2120:2171  (ratio * 0xff973b41fa98c081472e6896dfb254c0) >> 128 */\n      swap1\n      shr\n        /* \"@uniswap/v3-core/contracts/libraries/TickMath.sol\":2112:2171  ratio = (ratio * 0xff973b41fa98c081472e6896dfb254c0) >> 128 */\n      swap1\n      pop\n        /* \"@uniswap/v3-core/contracts/libraries/TickMath.sol\":2087:2171  if (absTick & 0x20 != 0) ratio = (ratio * 0xff973b41fa98c081472e6896dfb254c0) >> 128 */\n    tag_80:\n        /* \"@uniswap/v3-core/contracts/libraries/TickMath.sol\":2203:2204  0 */\n      0x00\n        /* \"@uniswap/v3-core/contracts/libraries/TickMath.sol\":2195:2199  0x40 */\n      0x40\n        /* \"@uniswap/v3-core/contracts/libraries/TickMath.sol\":2185:2192  absTick */\n      dup4\n        /* \"@uniswap/v3-core/contracts/libraries/TickMath.sol\":2185:2199  absTick & 0x40 */\n      and\n        /* \"@uniswap/v3-core/contracts/libraries/TickMath.sol\":2185:2204  absTick & 0x40 != 0 */\n      eq\n        /* \"@uniswap/v3-core/contracts/libraries/TickMath.sol\":2181:2265  if (absTick & 0x40 != 0) ratio = (ratio * 0xff2ea16466c96a3843ec78b326b52861) >> 128 */\n      tag_81\n      jumpi\n        /* \"@uniswap/v3-core/contracts/libraries/TickMath.sol\":2262:2265  128 */\n      0x80\n        /* \"@uniswap/v3-core/contracts/libraries/TickMath.sol\":2223:2257  0xff2ea16466c96a3843ec78b326b52861 */\n      0xff2ea16466c96a3843ec78b326b52861\n        /* \"@uniswap/v3-core/contracts/libraries/TickMath.sol\":2215:2220  ratio */\n      dup3\n        /* \"@uniswap/v3-core/contracts/libraries/TickMath.sol\":2215:2257  ratio * 0xff2ea16466c96a3843ec78b326b52861 */\n      mul\n        /* \"@uniswap/v3-core/contracts/libraries/TickMath.sol\":2214:2265  (ratio * 0xff2ea16466c96a3843ec78b326b52861) >> 128 */\n      swap1\n      shr\n        /* \"@uniswap/v3-core/contracts/libraries/TickMath.sol\":2206:2265  ratio = (ratio * 0xff2ea16466c96a3843ec78b326b52861) >> 128 */\n      swap1\n      pop\n        /* \"@uniswap/v3-core/contracts/libraries/TickMath.sol\":2181:2265  if (absTick & 0x40 != 0) ratio = (ratio * 0xff2ea16466c96a3843ec78b326b52861) >> 128 */\n    tag_81:\n        /* \"@uniswap/v3-core/contracts/libraries/TickMath.sol\":2297:2298  0 */\n      0x00\n        /* \"@uniswap/v3-core/contracts/libraries/TickMath.sol\":2289:2293  0x80 */\n      0x80\n        /* \"@uniswap/v3-core/contracts/libraries/TickMath.sol\":2279:2286  absTick */\n      dup4\n        /* \"@uniswap/v3-core/contracts/libraries/TickMath.sol\":2279:2293  absTick & 0x80 */\n      and\n        /* \"@uniswap/v3-core/contracts/libraries/TickMath.sol\":2279:2298  absTick & 0x80 != 0 */\n      eq\n        /* \"@uniswap/v3-core/contracts/libraries/TickMath.sol\":2275:2359  if (absTick & 0x80 != 0) ratio = (ratio * 0xfe5dee046a99a2a811c461f1969c3053) >> 128 */\n      tag_82\n      jumpi\n        /* \"@uniswap/v3-core/contracts/libraries/TickMath.sol\":2356:2359  128 */\n      0x80\n        /* \"@uniswap/v3-core/contracts/libraries/TickMath.sol\":2317:2351  0xfe5dee046a99a2a811c461f1969c3053 */\n      0xfe5dee046a99a2a811c461f1969c3053\n        /* \"@uniswap/v3-core/contracts/libraries/TickMath.sol\":2309:2314  ratio */\n      dup3\n        /* \"@uniswap/v3-core/contracts/libraries/TickMath.sol\":2309:2351  ratio * 0xfe5dee046a99a2a811c461f1969c3053 */\n      mul\n        /* \"@uniswap/v3-core/contracts/libraries/TickMath.sol\":2308:2359  (ratio * 0xfe5dee046a99a2a811c461f1969c3053) >> 128 */\n      swap1\n      shr\n        /* \"@uniswap/v3-core/contracts/libraries/TickMath.sol\":2300:2359  ratio = (ratio * 0xfe5dee046a99a2a811c461f1969c3053) >> 128 */\n      swap1\n      pop\n        /* \"@uniswap/v3-core/contracts/libraries/TickMath.sol\":2275:2359  if (absTick & 0x80 != 0) ratio = (ratio * 0xfe5dee046a99a2a811c461f1969c3053) >> 128 */\n    tag_82:\n        /* \"@uniswap/v3-core/contracts/libraries/TickMath.sol\":2392:2393  0 */\n      0x00\n        /* \"@uniswap/v3-core/contracts/libraries/TickMath.sol\":2383:2388  0x100 */\n      0x0100\n        /* \"@uniswap/v3-core/contracts/libraries/TickMath.sol\":2373:2380  absTick */\n      dup4\n        /* \"@uniswap/v3-core/contracts/libraries/TickMath.sol\":2373:2388  absTick & 0x100 */\n      and\n        /* \"@uniswap/v3-core/contracts/libraries/TickMath.sol\":2373:2393  absTick & 0x100 != 0 */\n      eq\n        /* \"@uniswap/v3-core/contracts/libraries/TickMath.sol\":2369:2454  if (absTick & 0x100 != 0) ratio = (ratio * 0xfcbe86c7900a88aedcffc83b479aa3a4) >> 128 */\n      tag_83\n      jumpi\n        /* \"@uniswap/v3-core/contracts/libraries/TickMath.sol\":2451:2454  128 */\n      0x80\n        /* \"@uniswap/v3-core/contracts/libraries/TickMath.sol\":2412:2446  0xfcbe86c7900a88aedcffc83b479aa3a4 */\n      0xfcbe86c7900a88aedcffc83b479aa3a4\n        /* \"@uniswap/v3-core/contracts/libraries/TickMath.sol\":2404:2409  ratio */\n      dup3\n        /* \"@uniswap/v3-core/contracts/libraries/TickMath.sol\":2404:2446  ratio * 0xfcbe86c7900a88aedcffc83b479aa3a4 */\n      mul\n        /* \"@uniswap/v3-core/contracts/libraries/TickMath.sol\":2403:2454  (ratio * 0xfcbe86c7900a88aedcffc83b479aa3a4) >> 128 */\n      swap1\n      shr\n        /* \"@uniswap/v3-core/contracts/libraries/TickMath.sol\":2395:2454  ratio = (ratio * 0xfcbe86c7900a88aedcffc83b479aa3a4) >> 128 */\n      swap1\n      pop\n        /* \"@uniswap/v3-core/contracts/libraries/TickMath.sol\":2369:2454  if (absTick & 0x100 != 0) ratio = (ratio * 0xfcbe86c7900a88aedcffc83b479aa3a4) >> 128 */\n    tag_83:\n        /* \"@uniswap/v3-core/contracts/libraries/TickMath.sol\":2487:2488  0 */\n      0x00\n        /* \"@uniswap/v3-core/contracts/libraries/TickMath.sol\":2478:2483  0x200 */\n      0x0200\n        /* \"@uniswap/v3-core/contracts/libraries/TickMath.sol\":2468:2475  absTick */\n      dup4\n        /* \"@uniswap/v3-core/contracts/libraries/TickMath.sol\":2468:2483  absTick & 0x200 */\n      and\n        /* \"@uniswap/v3-core/contracts/libraries/TickMath.sol\":2468:2488  absTick & 0x200 != 0 */\n      eq\n        /* \"@uniswap/v3-core/contracts/libraries/TickMath.sol\":2464:2549  if (absTick & 0x200 != 0) ratio = (ratio * 0xf987a7253ac413176f2b074cf7815e54) >> 128 */\n      tag_84\n      jumpi\n        /* \"@uniswap/v3-core/contracts/libraries/TickMath.sol\":2546:2549  128 */\n      0x80\n        /* \"@uniswap/v3-core/contracts/libraries/TickMath.sol\":2507:2541  0xf987a7253ac413176f2b074cf7815e54 */\n      0xf987a7253ac413176f2b074cf7815e54\n        /* \"@uniswap/v3-core/contracts/libraries/TickMath.sol\":2499:2504  ratio */\n      dup3\n        /* \"@uniswap/v3-core/contracts/libraries/TickMath.sol\":2499:2541  ratio * 0xf987a7253ac413176f2b074cf7815e54 */\n      mul\n        /* \"@uniswap/v3-core/contracts/libraries/TickMath.sol\":2498:2549  (ratio * 0xf987a7253ac413176f2b074cf7815e54) >> 128 */\n      swap1\n      shr\n        /* \"@uniswap/v3-core/contracts/libraries/TickMath.sol\":2490:2549  ratio = (ratio * 0xf987a7253ac413176f2b074cf7815e54) >> 128 */\n      swap1\n      pop\n        /* \"@uniswap/v3-core/contracts/libraries/TickMath.sol\":2464:2549  if (absTick & 0x200 != 0) ratio = (ratio * 0xf987a7253ac413176f2b074cf7815e54) >> 128 */\n    tag_84:\n        /* \"@uniswap/v3-core/contracts/libraries/TickMath.sol\":2582:2583  0 */\n      0x00\n        /* \"@uniswap/v3-core/contracts/libraries/TickMath.sol\":2573:2578  0x400 */\n      0x0400\n        /* \"@uniswap/v3-core/contracts/libraries/TickMath.sol\":2563:2570  absTick */\n      dup4\n        /* \"@uniswap/v3-core/contracts/libraries/TickMath.sol\":2563:2578  absTick & 0x400 */\n      and\n        /* \"@uniswap/v3-core/contracts/libraries/TickMath.sol\":2563:2583  absTick & 0x400 != 0 */\n      eq\n        /* \"@uniswap/v3-core/contracts/libraries/TickMath.sol\":2559:2644  if (absTick & 0x400 != 0) ratio = (ratio * 0xf3392b0822b70005940c7a398e4b70f3) >> 128 */\n      tag_85\n      jumpi\n        /* \"@uniswap/v3-core/contracts/libraries/TickMath.sol\":2641:2644  128 */\n      0x80\n        /* \"@uniswap/v3-core/contracts/libraries/TickMath.sol\":2602:2636  0xf3392b0822b70005940c7a398e4b70f3 */\n      0xf3392b0822b70005940c7a398e4b70f3\n        /* \"@uniswap/v3-core/contracts/libraries/TickMath.sol\":2594:2599  ratio */\n      dup3\n        /* \"@uniswap/v3-core/contracts/libraries/TickMath.sol\":2594:2636  ratio * 0xf3392b0822b70005940c7a398e4b70f3 */\n      mul\n        /* \"@uniswap/v3-core/contracts/libraries/TickMath.sol\":2593:2644  (ratio * 0xf3392b0822b70005940c7a398e4b70f3) >> 128 */\n      swap1\n      shr\n        /* \"@uniswap/v3-core/contracts/libraries/TickMath.sol\":2585:2644  ratio = (ratio * 0xf3392b0822b70005940c7a398e4b70f3) >> 128 */\n      swap1\n      pop\n        /* \"@uniswap/v3-core/contracts/libraries/TickMath.sol\":2559:2644  if (absTick & 0x400 != 0) ratio = (ratio * 0xf3392b0822b70005940c7a398e4b70f3) >> 128 */\n    tag_85:\n        /* \"@uniswap/v3-core/contracts/libraries/TickMath.sol\":2677:2678  0 */\n      0x00\n        /* \"@uniswap/v3-core/contracts/libraries/TickMath.sol\":2668:2673  0x800 */\n      0x0800\n        /* \"@uniswap/v3-core/contracts/libraries/TickMath.sol\":2658:2665  absTick */\n      dup4\n        /* \"@uniswap/v3-core/contracts/libraries/TickMath.sol\":2658:2673  absTick & 0x800 */\n      and\n        /* \"@uniswap/v3-core/contracts/libraries/TickMath.sol\":2658:2678  absTick & 0x800 != 0 */\n      eq\n        /* \"@uniswap/v3-core/contracts/libraries/TickMath.sol\":2654:2739  if (absTick & 0x800 != 0) ratio = (ratio * 0xe7159475a2c29b7443b29c7fa6e889d9) >> 128 */\n      tag_86\n      jumpi\n        /* \"@uniswap/v3-core/contracts/libraries/TickMath.sol\":2736:2739  128 */\n      0x80\n        /* \"@uniswap/v3-core/contracts/libraries/TickMath.sol\":2697:2731  0xe7159475a2c29b7443b29c7fa6e889d9 */\n      0xe7159475a2c29b7443b29c7fa6e889d9\n        /* \"@uniswap/v3-core/contracts/libraries/TickMath.sol\":2689:2694  ratio */\n      dup3\n        /* \"@uniswap/v3-core/contracts/libraries/TickMath.sol\":2689:2731  ratio * 0xe7159475a2c29b7443b29c7fa6e889d9 */\n      mul\n        /* \"@uniswap/v3-core/contracts/libraries/TickMath.sol\":2688:2739  (ratio * 0xe7159475a2c29b7443b29c7fa6e889d9) >> 128 */\n      swap1\n      shr\n        /* \"@uniswap/v3-core/contracts/libraries/TickMath.sol\":2680:2739  ratio = (ratio * 0xe7159475a2c29b7443b29c7fa6e889d9) >> 128 */\n      swap1\n      pop\n        /* \"@uniswap/v3-core/contracts/libraries/TickMath.sol\":2654:2739  if (absTick & 0x800 != 0) ratio = (ratio * 0xe7159475a2c29b7443b29c7fa6e889d9) >> 128 */\n    tag_86:\n        /* \"@uniswap/v3-core/contracts/libraries/TickMath.sol\":2773:2774  0 */\n      0x00\n        /* \"@uniswap/v3-core/contracts/libraries/TickMath.sol\":2763:2769  0x1000 */\n      0x1000\n        /* \"@uniswap/v3-core/contracts/libraries/TickMath.sol\":2753:2760  absTick */\n      dup4\n        /* \"@uniswap/v3-core/contracts/libraries/TickMath.sol\":2753:2769  absTick & 0x1000 */\n      and\n        /* \"@uniswap/v3-core/contracts/libraries/TickMath.sol\":2753:2774  absTick & 0x1000 != 0 */\n      eq\n        /* \"@uniswap/v3-core/contracts/libraries/TickMath.sol\":2749:2835  if (absTick & 0x1000 != 0) ratio = (ratio * 0xd097f3bdfd2022b8845ad8f792aa5825) >> 128 */\n      tag_87\n      jumpi\n        /* \"@uniswap/v3-core/contracts/libraries/TickMath.sol\":2832:2835  128 */\n      0x80\n        /* \"@uniswap/v3-core/contracts/libraries/TickMath.sol\":2793:2827  0xd097f3bdfd2022b8845ad8f792aa5825 */\n      0xd097f3bdfd2022b8845ad8f792aa5825\n        /* \"@uniswap/v3-core/contracts/libraries/TickMath.sol\":2785:2790  ratio */\n      dup3\n        /* \"@uniswap/v3-core/contracts/libraries/TickMath.sol\":2785:2827  ratio * 0xd097f3bdfd2022b8845ad8f792aa5825 */\n      mul\n        /* \"@uniswap/v3-core/contracts/libraries/TickMath.sol\":2784:2835  (ratio * 0xd097f3bdfd2022b8845ad8f792aa5825) >> 128 */\n      swap1\n      shr\n        /* \"@uniswap/v3-core/contracts/libraries/TickMath.sol\":2776:2835  ratio = (ratio * 0xd097f3bdfd2022b8845ad8f792aa5825) >> 128 */\n      swap1\n      pop\n        /* \"@uniswap/v3-core/contracts/libraries/TickMath.sol\":2749:2835  if (absTick & 0x1000 != 0) ratio = (ratio * 0xd097f3bdfd2022b8845ad8f792aa5825) >> 128 */\n    tag_87:\n        /* \"@uniswap/v3-core/contracts/libraries/TickMath.sol\":2869:2870  0 */\n      0x00\n        /* \"@uniswap/v3-core/contracts/libraries/TickMath.sol\":2859:2865  0x2000 */\n      0x2000\n        /* \"@uniswap/v3-core/contracts/libraries/TickMath.sol\":2849:2856  absTick */\n      dup4\n        /* \"@uniswap/v3-core/contracts/libraries/TickMath.sol\":2849:2865  absTick & 0x2000 */\n      and\n        /* \"@uniswap/v3-core/contracts/libraries/TickMath.sol\":2849:2870  absTick & 0x2000 != 0 */\n      eq\n        /* \"@uniswap/v3-core/contracts/libraries/TickMath.sol\":2845:2931  if (absTick & 0x2000 != 0) ratio = (ratio * 0xa9f746462d870fdf8a65dc1f90e061e5) >> 128 */\n      tag_88\n      jumpi\n        /* \"@uniswap/v3-core/contracts/libraries/TickMath.sol\":2928:2931  128 */\n      0x80\n        /* \"@uniswap/v3-core/contracts/libraries/TickMath.sol\":2889:2923  0xa9f746462d870fdf8a65dc1f90e061e5 */\n      0xa9f746462d870fdf8a65dc1f90e061e5\n        /* \"@uniswap/v3-core/contracts/libraries/TickMath.sol\":2881:2886  ratio */\n      dup3\n        /* \"@uniswap/v3-core/contracts/libraries/TickMath.sol\":2881:2923  ratio * 0xa9f746462d870fdf8a65dc1f90e061e5 */\n      mul\n        /* \"@uniswap/v3-core/contracts/libraries/TickMath.sol\":2880:2931  (ratio * 0xa9f746462d870fdf8a65dc1f90e061e5) >> 128 */\n      swap1\n      shr\n        /* \"@uniswap/v3-core/contracts/libraries/TickMath.sol\":2872:2931  ratio = (ratio * 0xa9f746462d870fdf8a65dc1f90e061e5) >> 128 */\n      swap1\n      pop\n        /* \"@uniswap/v3-core/contracts/libraries/TickMath.sol\":2845:2931  if (absTick & 0x2000 != 0) ratio = (ratio * 0xa9f746462d870fdf8a65dc1f90e061e5) >> 128 */\n    tag_88:\n        /* \"@uniswap/v3-core/contracts/libraries/TickMath.sol\":2965:2966  0 */\n      0x00\n        /* \"@uniswap/v3-core/contracts/libraries/TickMath.sol\":2955:2961  0x4000 */\n      0x4000\n        /* \"@uniswap/v3-core/contracts/libraries/TickMath.sol\":2945:2952  absTick */\n      dup4\n        /* \"@uniswap/v3-core/contracts/libraries/TickMath.sol\":2945:2961  absTick & 0x4000 */\n      and\n        /* \"@uniswap/v3-core/contracts/libraries/TickMath.sol\":2945:2966  absTick & 0x4000 != 0 */\n      eq\n        /* \"@uniswap/v3-core/contracts/libraries/TickMath.sol\":2941:3027  if (absTick & 0x4000 != 0) ratio = (ratio * 0x70d869a156d2a1b890bb3df62baf32f7) >> 128 */\n      tag_89\n      jumpi\n        /* \"@uniswap/v3-core/contracts/libraries/TickMath.sol\":3024:3027  128 */\n      0x80\n        /* \"@uniswap/v3-core/contracts/libraries/TickMath.sol\":2985:3019  0x70d869a156d2a1b890bb3df62baf32f7 */\n      0x70d869a156d2a1b890bb3df62baf32f7\n        /* \"@uniswap/v3-core/contracts/libraries/TickMath.sol\":2977:2982  ratio */\n      dup3\n        /* \"@uniswap/v3-core/contracts/libraries/TickMath.sol\":2977:3019  ratio * 0x70d869a156d2a1b890bb3df62baf32f7 */\n      mul\n        /* \"@uniswap/v3-core/contracts/libraries/TickMath.sol\":2976:3027  (ratio * 0x70d869a156d2a1b890bb3df62baf32f7) >> 128 */\n      swap1\n      shr\n        /* \"@uniswap/v3-core/contracts/libraries/TickMath.sol\":2968:3027  ratio = (ratio * 0x70d869a156d2a1b890bb3df62baf32f7) >> 128 */\n      swap1\n      pop\n        /* \"@uniswap/v3-core/contracts/libraries/TickMath.sol\":2941:3027  if (absTick & 0x4000 != 0) ratio = (ratio * 0x70d869a156d2a1b890bb3df62baf32f7) >> 128 */\n    tag_89:\n        /* \"@uniswap/v3-core/contracts/libraries/TickMath.sol\":3061:3062  0 */\n      0x00\n        /* \"@uniswap/v3-core/contracts/libraries/TickMath.sol\":3051:3057  0x8000 */\n      0x8000\n        /* \"@uniswap/v3-core/contracts/libraries/TickMath.sol\":3041:3048  absTick */\n      dup4\n        /* \"@uniswap/v3-core/contracts/libraries/TickMath.sol\":3041:3057  absTick & 0x8000 */\n      and\n        /* \"@uniswap/v3-core/contracts/libraries/TickMath.sol\":3041:3062  absTick & 0x8000 != 0 */\n      eq\n        /* \"@uniswap/v3-core/contracts/libraries/TickMath.sol\":3037:3123  if (absTick & 0x8000 != 0) ratio = (ratio * 0x31be135f97d08fd981231505542fcfa6) >> 128 */\n      tag_90\n      jumpi\n        /* \"@uniswap/v3-core/contracts/libraries/TickMath.sol\":3120:3123  128 */\n      0x80\n        /* \"@uniswap/v3-core/contracts/libraries/TickMath.sol\":3081:3115  0x31be135f97d08fd981231505542fcfa6 */\n      0x31be135f97d08fd981231505542fcfa6\n        /* \"@uniswap/v3-core/contracts/libraries/TickMath.sol\":3073:3078  ratio */\n      dup3\n        /* \"@uniswap/v3-core/contracts/libraries/TickMath.sol\":3073:3115  ratio * 0x31be135f97d08fd981231505542fcfa6 */\n      mul\n        /* \"@uniswap/v3-core/contracts/libraries/TickMath.sol\":3072:3123  (ratio * 0x31be135f97d08fd981231505542fcfa6) >> 128 */\n      swap1\n      shr\n        /* \"@uniswap/v3-core/contracts/libraries/TickMath.sol\":3064:3123  ratio = (ratio * 0x31be135f97d08fd981231505542fcfa6) >> 128 */\n      swap1\n      pop\n        /* \"@uniswap/v3-core/contracts/libraries/TickMath.sol\":3037:3123  if (absTick & 0x8000 != 0) ratio = (ratio * 0x31be135f97d08fd981231505542fcfa6) >> 128 */\n    tag_90:\n        /* \"@uniswap/v3-core/contracts/libraries/TickMath.sol\":3158:3159  0 */\n      0x00\n        /* \"@uniswap/v3-core/contracts/libraries/TickMath.sol\":3147:3154  0x10000 */\n      0x010000\n        /* \"@uniswap/v3-core/contracts/libraries/TickMath.sol\":3137:3144  absTick */\n      dup4\n        /* \"@uniswap/v3-core/contracts/libraries/TickMath.sol\":3137:3154  absTick & 0x10000 */\n      and\n        /* \"@uniswap/v3-core/contracts/libraries/TickMath.sol\":3137:3159  absTick & 0x10000 != 0 */\n      eq\n        /* \"@uniswap/v3-core/contracts/libraries/TickMath.sol\":3133:3219  if (absTick & 0x10000 != 0) ratio = (ratio * 0x9aa508b5b7a84e1c677de54f3e99bc9) >> 128 */\n      tag_91\n      jumpi\n        /* \"@uniswap/v3-core/contracts/libraries/TickMath.sol\":3216:3219  128 */\n      0x80\n        /* \"@uniswap/v3-core/contracts/libraries/TickMath.sol\":3178:3211  0x9aa508b5b7a84e1c677de54f3e99bc9 */\n      0x09aa508b5b7a84e1c677de54f3e99bc9\n        /* \"@uniswap/v3-core/contracts/libraries/TickMath.sol\":3170:3175  ratio */\n      dup3\n        /* \"@uniswap/v3-core/contracts/libraries/TickMath.sol\":3170:3211  ratio * 0x9aa508b5b7a84e1c677de54f3e99bc9 */\n      mul\n        /* \"@uniswap/v3-core/contracts/libraries/TickMath.sol\":3169:3219  (ratio * 0x9aa508b5b7a84e1c677de54f3e99bc9) >> 128 */\n      swap1\n      shr\n        /* \"@uniswap/v3-core/contracts/libraries/TickMath.sol\":3161:3219  ratio = (ratio * 0x9aa508b5b7a84e1c677de54f3e99bc9) >> 128 */\n      swap1\n      pop\n        /* \"@uniswap/v3-core/contracts/libraries/TickMath.sol\":3133:3219  if (absTick & 0x10000 != 0) ratio = (ratio * 0x9aa508b5b7a84e1c677de54f3e99bc9) >> 128 */\n    tag_91:\n        /* \"@uniswap/v3-core/contracts/libraries/TickMath.sol\":3254:3255  0 */\n      0x00\n        /* \"@uniswap/v3-core/contracts/libraries/TickMath.sol\":3243:3250  0x20000 */\n      0x020000\n        /* \"@uniswap/v3-core/contracts/libraries/TickMath.sol\":3233:3240  absTick */\n      dup4\n        /* \"@uniswap/v3-core/contracts/libraries/TickMath.sol\":3233:3250  absTick & 0x20000 */\n      and\n        /* \"@uniswap/v3-core/contracts/libraries/TickMath.sol\":3233:3255  absTick & 0x20000 != 0 */\n      eq\n        /* \"@uniswap/v3-core/contracts/libraries/TickMath.sol\":3229:3314  if (absTick & 0x20000 != 0) ratio = (ratio * 0x5d6af8dedb81196699c329225ee604) >> 128 */\n      tag_92\n      jumpi\n        /* \"@uniswap/v3-core/contracts/libraries/TickMath.sol\":3311:3314  128 */\n      0x80\n        /* \"@uniswap/v3-core/contracts/libraries/TickMath.sol\":3274:3306  0x5d6af8dedb81196699c329225ee604 */\n      0x5d6af8dedb81196699c329225ee604\n        /* \"@uniswap/v3-core/contracts/libraries/TickMath.sol\":3266:3271  ratio */\n      dup3\n        /* \"@uniswap/v3-core/contracts/libraries/TickMath.sol\":3266:3306  ratio * 0x5d6af8dedb81196699c329225ee604 */\n      mul\n        /* \"@uniswap/v3-core/contracts/libraries/TickMath.sol\":3265:3314  (ratio * 0x5d6af8dedb81196699c329225ee604) >> 128 */\n      swap1\n      shr\n        /* \"@uniswap/v3-core/contracts/libraries/TickMath.sol\":3257:3314  ratio = (ratio * 0x5d6af8dedb81196699c329225ee604) >> 128 */\n      swap1\n      pop\n        /* \"@uniswap/v3-core/contracts/libraries/TickMath.sol\":3229:3314  if (absTick & 0x20000 != 0) ratio = (ratio * 0x5d6af8dedb81196699c329225ee604) >> 128 */\n    tag_92:\n        /* \"@uniswap/v3-core/contracts/libraries/TickMath.sol\":3349:3350  0 */\n      0x00\n        /* \"@uniswap/v3-core/contracts/libraries/TickMath.sol\":3338:3345  0x40000 */\n      0x040000\n        /* \"@uniswap/v3-core/contracts/libraries/TickMath.sol\":3328:3335  absTick */\n      dup4\n        /* \"@uniswap/v3-core/contracts/libraries/TickMath.sol\":3328:3345  absTick & 0x40000 */\n      and\n        /* \"@uniswap/v3-core/contracts/libraries/TickMath.sol\":3328:3350  absTick & 0x40000 != 0 */\n      eq\n        /* \"@uniswap/v3-core/contracts/libraries/TickMath.sol\":3324:3407  if (absTick & 0x40000 != 0) ratio = (ratio * 0x2216e584f5fa1ea926041bedfe98) >> 128 */\n      tag_93\n      jumpi\n        /* \"@uniswap/v3-core/contracts/libraries/TickMath.sol\":3404:3407  128 */\n      0x80\n        /* \"@uniswap/v3-core/contracts/libraries/TickMath.sol\":3369:3399  0x2216e584f5fa1ea926041bedfe98 */\n      0x2216e584f5fa1ea926041bedfe98\n        /* \"@uniswap/v3-core/contracts/libraries/TickMath.sol\":3361:3366  ratio */\n      dup3\n        /* \"@uniswap/v3-core/contracts/libraries/TickMath.sol\":3361:3399  ratio * 0x2216e584f5fa1ea926041bedfe98 */\n      mul\n        /* \"@uniswap/v3-core/contracts/libraries/TickMath.sol\":3360:3407  (ratio * 0x2216e584f5fa1ea926041bedfe98) >> 128 */\n      swap1\n      shr\n        /* \"@uniswap/v3-core/contracts/libraries/TickMath.sol\":3352:3407  ratio = (ratio * 0x2216e584f5fa1ea926041bedfe98) >> 128 */\n      swap1\n      pop\n        /* \"@uniswap/v3-core/contracts/libraries/TickMath.sol\":3324:3407  if (absTick & 0x40000 != 0) ratio = (ratio * 0x2216e584f5fa1ea926041bedfe98) >> 128 */\n    tag_93:\n        /* \"@uniswap/v3-core/contracts/libraries/TickMath.sol\":3442:3443  0 */\n      0x00\n        /* \"@uniswap/v3-core/contracts/libraries/TickMath.sol\":3431:3438  0x80000 */\n      0x080000\n        /* \"@uniswap/v3-core/contracts/libraries/TickMath.sol\":3421:3428  absTick */\n      dup4\n        /* \"@uniswap/v3-core/contracts/libraries/TickMath.sol\":3421:3438  absTick & 0x80000 */\n      and\n        /* \"@uniswap/v3-core/contracts/libraries/TickMath.sol\":3421:3443  absTick & 0x80000 != 0 */\n      eq\n        /* \"@uniswap/v3-core/contracts/libraries/TickMath.sol\":3417:3495  if (absTick & 0x80000 != 0) ratio = (ratio * 0x48a170391f7dc42444e8fa2) >> 128 */\n      tag_94\n      jumpi\n        /* \"@uniswap/v3-core/contracts/libraries/TickMath.sol\":3492:3495  128 */\n      0x80\n        /* \"@uniswap/v3-core/contracts/libraries/TickMath.sol\":3462:3487  0x48a170391f7dc42444e8fa2 */\n      0x048a170391f7dc42444e8fa2\n        /* \"@uniswap/v3-core/contracts/libraries/TickMath.sol\":3454:3459  ratio */\n      dup3\n        /* \"@uniswap/v3-core/contracts/libraries/TickMath.sol\":3454:3487  ratio * 0x48a170391f7dc42444e8fa2 */\n      mul\n        /* \"@uniswap/v3-core/contracts/libraries/TickMath.sol\":3453:3495  (ratio * 0x48a170391f7dc42444e8fa2) >> 128 */\n      swap1\n      shr\n        /* \"@uniswap/v3-core/contracts/libraries/TickMath.sol\":3445:3495  ratio = (ratio * 0x48a170391f7dc42444e8fa2) >> 128 */\n      swap1\n      pop\n        /* \"@uniswap/v3-core/contracts/libraries/TickMath.sol\":3417:3495  if (absTick & 0x80000 != 0) ratio = (ratio * 0x48a170391f7dc42444e8fa2) >> 128 */\n    tag_94:\n        /* \"@uniswap/v3-core/contracts/libraries/TickMath.sol\":3517:3518  0 */\n      0x00\n        /* \"@uniswap/v3-core/contracts/libraries/TickMath.sol\":3510:3514  tick */\n      dup5\n        /* \"@uniswap/v3-core/contracts/libraries/TickMath.sol\":3510:3518  tick > 0 */\n      0x02\n      signextend\n      sgt\n        /* \"@uniswap/v3-core/contracts/libraries/TickMath.sol\":3506:3553  if (tick > 0) ratio = type(uint256).max / ratio */\n      iszero\n      tag_95\n      jumpi\n        /* \"@uniswap/v3-core/contracts/libraries/TickMath.sol\":3548:3553  ratio */\n      dup1\n        /* \"@uniswap/v3-core/contracts/libraries/TickMath.sol\":3528:3545  type(uint256).max */\n      0xffffffffffffffffffffffffffffffffffffffffffffffffffffffffffffffff\n        /* \"@uniswap/v3-core/contracts/libraries/TickMath.sol\":3528:3553  type(uint256).max / ratio */\n      dup2\n      tag_96\n      jumpi\n      invalid\n    tag_96:\n      div\n        /* \"@uniswap/v3-core/contracts/libraries/TickMath.sol\":3520:3553  ratio = type(uint256).max / ratio */\n      swap1\n      pop\n        /* \"@uniswap/v3-core/contracts/libraries/TickMath.sol\":3506:3553  if (tick > 0) ratio = type(uint256).max / ratio */\n    tag_95:\n        /* \"@uniswap/v3-core/contracts/libraries/TickMath.sol\":3924:3925  0 */\n      0x00\n        /* \"@uniswap/v3-core/contracts/libraries/TickMath.sol\":3912:3919  1 << 32 */\n      0x0100000000\n        /* \"@uniswap/v3-core/contracts/libraries/TickMath.sol\":3903:3908  ratio */\n      dup3\n        /* \"@uniswap/v3-core/contracts/libraries/TickMath.sol\":3903:3920  ratio % (1 << 32) */\n      dup2\n      tag_97\n      jumpi\n      invalid\n    tag_97:\n      mod\n        /* \"@uniswap/v3-core/contracts/libraries/TickMath.sol\":3903:3925  ratio % (1 << 32) == 0 */\n      eq\n        /* \"@uniswap/v3-core/contracts/libraries/TickMath.sol\":3903:3933  ratio % (1 << 32) == 0 ? 0 : 1 */\n      tag_98\n      jumpi\n        /* \"@uniswap/v3-core/contracts/libraries/TickMath.sol\":3932:3933  1 */\n      0x01\n        /* \"@uniswap/v3-core/contracts/libraries/TickMath.sol\":3903:3933  ratio % (1 << 32) == 0 ? 0 : 1 */\n      jump(tag_99)\n    tag_98:\n        /* \"@uniswap/v3-core/contracts/libraries/TickMath.sol\":3928:3929  0 */\n      0x00\n        /* \"@uniswap/v3-core/contracts/libraries/TickMath.sol\":3903:3933  ratio % (1 << 32) == 0 ? 0 : 1 */\n    tag_99:\n        /* \"@uniswap/v3-core/contracts/libraries/TickMath.sol\":3886:3934  (ratio >> 32) + (ratio % (1 << 32) == 0 ? 0 : 1) */\n      0xff\n      and\n        /* \"@uniswap/v3-core/contracts/libraries/TickMath.sol\":3896:3898  32 */\n      0x20\n        /* \"@uniswap/v3-core/contracts/libraries/TickMath.sol\":3887:3892  ratio */\n      dup3\n        /* \"@uniswap/v3-core/contracts/libraries/TickMath.sol\":3887:3898  ratio >> 32 */\n      swap1\n      shr\n        /* \"@uniswap/v3-core/contracts/libraries/TickMath.sol\":3886:3934  (ratio >> 32) + (ratio % (1 << 32) == 0 ? 0 : 1) */\n      add\n        /* \"@uniswap/v3-core/contracts/libraries/TickMath.sol\":3863:3935  sqrtPriceX96 = uint160((ratio >> 32) + (ratio % (1 << 32) == 0 ? 0 : 1)) */\n      swap3\n      pop\n        /* \"@uniswap/v3-core/contracts/libraries/TickMath.sol\":1362:3942  function getSqrtRatioAtTick(int24 tick) internal pure returns (uint160 sqrtPriceX96) {... */\n      pop\n      pop\n      swap2\n      swap1\n      pop\n      jump\t// out\n        /* \"@uniswap/v3-core/contracts/libraries/FullMath.sol\":749:4525  function mulDiv(... */\n    tag_61:\n        /* \"@uniswap/v3-core/contracts/libraries/FullMath.sol\":861:875  uint256 result */\n      0x00\n        /* \"@uniswap/v3-core/contracts/libraries/FullMath.sol\":1190:1203  uint256 prod0 */\n      dup1\n        /* \"@uniswap/v3-core/contracts/libraries/FullMath.sol\":1258:1271  uint256 prod1 */\n      0x00\n        /* \"@uniswap/v3-core/contracts/libraries/FullMath.sol\":1375:1376  0 */\n      dup1\n        /* \"@uniswap/v3-core/contracts/libraries/FullMath.sol\":1371:1377  not(0) */\n      not\n        /* \"@uniswap/v3-core/contracts/libraries/FullMath.sol\":1368:1369  b */\n      dup6\n        /* \"@uniswap/v3-core/contracts/libraries/FullMath.sol\":1365:1366  a */\n      dup8\n        /* \"@uniswap/v3-core/contracts/libraries/FullMath.sol\":1358:1378  mulmod(a, b, not(0)) */\n      mulmod\n        /* \"@uniswap/v3-core/contracts/libraries/FullMath.sol\":1407:1408  b */\n      dup6\n        /* \"@uniswap/v3-core/contracts/libraries/FullMath.sol\":1404:1405  a */\n      dup8\n        /* \"@uniswap/v3-core/contracts/libraries/FullMath.sol\":1400:1409  mul(a, b) */\n      mul\n        /* \"@uniswap/v3-core/contracts/libraries/FullMath.sol\":1391:1409  prod0 := mul(a, b) */\n      swap3\n      pop\n        /* \"@uniswap/v3-core/contracts/libraries/FullMath.sol\":1458:1463  prod0 */\n      dup3\n        /* \"@uniswap/v3-core/contracts/libraries/FullMath.sol\":1454:1456  mm */\n      dup2\n        /* \"@uniswap/v3-core/contracts/libraries/FullMath.sol\":1451:1464  lt(mm, prod0) */\n      lt\n        /* \"@uniswap/v3-core/contracts/libraries/FullMath.sol\":1443:1448  prod0 */\n      dup4\n        /* \"@uniswap/v3-core/contracts/libraries/FullMath.sol\":1439:1441  mm */\n      dup3\n        /* \"@uniswap/v3-core/contracts/libraries/FullMath.sol\":1435:1449  sub(mm, prod0) */\n      sub\n        /* \"@uniswap/v3-core/contracts/libraries/FullMath.sol\":1431:1465  sub(sub(mm, prod0), lt(mm, prod0)) */\n      sub\n        /* \"@uniswap/v3-core/contracts/libraries/FullMath.sol\":1422:1465  prod1 := sub(sub(mm, prod0), lt(mm, prod0)) */\n      swap2\n      pop\n        /* \"@uniswap/v3-core/contracts/libraries/FullMath.sol\":1334:1475  {... */\n      pop\n        /* \"@uniswap/v3-core/contracts/libraries/FullMath.sol\":1556:1557  0 */\n      0x00\n        /* \"@uniswap/v3-core/contracts/libraries/FullMath.sol\":1547:1552  prod1 */\n      dup2\n        /* \"@uniswap/v3-core/contracts/libraries/FullMath.sol\":1547:1557  prod1 == 0 */\n      eq\n        /* \"@uniswap/v3-core/contracts/libraries/FullMath.sol\":1543:1722  if (prod1 == 0) {... */\n      iszero\n      tag_101\n      jumpi\n        /* \"@uniswap/v3-core/contracts/libraries/FullMath.sol\":1595:1596  0 */\n      0x00\n        /* \"@uniswap/v3-core/contracts/libraries/FullMath.sol\":1581:1592  denominator */\n      dup5\n        /* \"@uniswap/v3-core/contracts/libraries/FullMath.sol\":1581:1596  denominator > 0 */\n      gt\n        /* \"@uniswap/v3-core/contracts/libraries/FullMath.sol\":1573:1597  require(denominator > 0) */\n      tag_102\n      jumpi\n      0x00\n      dup1\n      revert\n    tag_102:\n        /* \"@uniswap/v3-core/contracts/libraries/FullMath.sol\":1659:1670  denominator */\n      dup4\n        /* \"@uniswap/v3-core/contracts/libraries/FullMath.sol\":1652:1657  prod0 */\n      dup3\n        /* \"@uniswap/v3-core/contracts/libraries/FullMath.sol\":1648:1671  div(prod0, denominator) */\n      div\n        /* \"@uniswap/v3-core/contracts/libraries/FullMath.sol\":1638:1671  result := div(prod0, denominator) */\n      swap3\n      pop\n        /* \"@uniswap/v3-core/contracts/libraries/FullMath.sol\":1698:1711  return result */\n      pop\n      pop\n      jump(tag_100)\n        /* \"@uniswap/v3-core/contracts/libraries/FullMath.sol\":1543:1722  if (prod1 == 0) {... */\n    tag_101:\n        /* \"@uniswap/v3-core/contracts/libraries/FullMath.sol\":1849:1854  prod1 */\n      dup1\n        /* \"@uniswap/v3-core/contracts/libraries/FullMath.sol\":1835:1846  denominator */\n      dup5\n        /* \"@uniswap/v3-core/contracts/libraries/FullMath.sol\":1835:1854  denominator > prod1 */\n      gt\n        /* \"@uniswap/v3-core/contracts/libraries/FullMath.sol\":1827:1855  require(denominator > prod1) */\n      tag_103\n      jumpi\n      0x00\n      dup1\n      revert\n    tag_103:\n        /* \"@uniswap/v3-core/contracts/libraries/FullMath.sol\":2132:2149  uint256 remainder */\n      0x00\n        /* \"@uniswap/v3-core/contracts/libraries/FullMath.sol\":2208:2219  denominator */\n      dup5\n        /* \"@uniswap/v3-core/contracts/libraries/FullMath.sol\":2205:2206  b */\n      dup7\n        /* \"@uniswap/v3-core/contracts/libraries/FullMath.sol\":2202:2203  a */\n      dup9\n        /* \"@uniswap/v3-core/contracts/libraries/FullMath.sol\":2195:2220  mulmod(a, b, denominator) */\n      mulmod\n        /* \"@uniswap/v3-core/contracts/libraries/FullMath.sol\":2182:2220  remainder := mulmod(a, b, denominator) */\n      swap1\n      pop\n        /* \"@uniswap/v3-core/contracts/libraries/FullMath.sol\":2351:2356  prod0 */\n      dup3\n        /* \"@uniswap/v3-core/contracts/libraries/FullMath.sol\":2340:2349  remainder */\n      dup2\n        /* \"@uniswap/v3-core/contracts/libraries/FullMath.sol\":2337:2357  gt(remainder, prod0) */\n      gt\n        /* \"@uniswap/v3-core/contracts/libraries/FullMath.sol\":2330:2335  prod1 */\n      dup3\n        /* \"@uniswap/v3-core/contracts/libraries/FullMath.sol\":2326:2358  sub(prod1, gt(remainder, prod0)) */\n      sub\n        /* \"@uniswap/v3-core/contracts/libraries/FullMath.sol\":2317:2358  prod1 := sub(prod1, gt(remainder, prod0)) */\n      swap2\n      pop\n        /* \"@uniswap/v3-core/contracts/libraries/FullMath.sol\":2391:2400  remainder */\n      dup1\n        /* \"@uniswap/v3-core/contracts/libraries/FullMath.sol\":2384:2389  prod0 */\n      dup4\n        /* \"@uniswap/v3-core/contracts/libraries/FullMath.sol\":2380:2401  sub(prod0, remainder) */\n      sub\n        /* \"@uniswap/v3-core/contracts/libraries/FullMath.sol\":2371:2401  prod0 := sub(prod0, remainder) */\n      swap3\n      pop\n        /* \"@uniswap/v3-core/contracts/libraries/FullMath.sol\":2560:2572  uint256 twos */\n      0x00\n        /* \"@uniswap/v3-core/contracts/libraries/FullMath.sol\":2590:2601  denominator */\n      dup6\n        /* \"@uniswap/v3-core/contracts/libraries/FullMath.sol\":2576:2587  denominator */\n      dup7\n        /* \"@uniswap/v3-core/contracts/libraries/FullMath.sol\":2575:2587  -denominator */\n      0x00\n      sub\n        /* \"@uniswap/v3-core/contracts/libraries/FullMath.sol\":2575:2601  -denominator & denominator */\n      and\n        /* \"@uniswap/v3-core/contracts/libraries/FullMath.sol\":2560:2601  uint256 twos = -denominator & denominator */\n      swap1\n      pop\n        /* \"@uniswap/v3-core/contracts/libraries/FullMath.sol\":2712:2716  twos */\n      dup1\n        /* \"@uniswap/v3-core/contracts/libraries/FullMath.sol\":2699:2710  denominator */\n      dup7\n        /* \"@uniswap/v3-core/contracts/libraries/FullMath.sol\":2695:2717  div(denominator, twos) */\n      div\n        /* \"@uniswap/v3-core/contracts/libraries/FullMath.sol\":2680:2717  denominator := div(denominator, twos) */\n      swap6\n      pop\n        /* \"@uniswap/v3-core/contracts/libraries/FullMath.sol\":2834:2838  twos */\n      dup1\n        /* \"@uniswap/v3-core/contracts/libraries/FullMath.sol\":2827:2832  prod0 */\n      dup5\n        /* \"@uniswap/v3-core/contracts/libraries/FullMath.sol\":2823:2839  div(prod0, twos) */\n      div\n        /* \"@uniswap/v3-core/contracts/libraries/FullMath.sol\":2814:2839  prod0 := div(prod0, twos) */\n      swap4\n      pop\n        /* \"@uniswap/v3-core/contracts/libraries/FullMath.sol\":3088:3089  1 */\n      0x01\n        /* \"@uniswap/v3-core/contracts/libraries/FullMath.sol\":3081:3085  twos */\n      dup2\n        /* \"@uniswap/v3-core/contracts/libraries/FullMath.sol\":3074:3078  twos */\n      dup3\n        /* \"@uniswap/v3-core/contracts/libraries/FullMath.sol\":3071:3072  0 */\n      0x00\n        /* \"@uniswap/v3-core/contracts/libraries/FullMath.sol\":3067:3079  sub(0, twos) */\n      sub\n        /* \"@uniswap/v3-core/contracts/libraries/FullMath.sol\":3063:3086  div(sub(0, twos), twos) */\n      div\n        /* \"@uniswap/v3-core/contracts/libraries/FullMath.sol\":3059:3090  add(div(sub(0, twos), twos), 1) */\n      add\n        /* \"@uniswap/v3-core/contracts/libraries/FullMath.sol\":3051:3090  twos := add(div(sub(0, twos), twos), 1) */\n      swap1\n      pop\n        /* \"@uniswap/v3-core/contracts/libraries/FullMath.sol\":3126:3130  twos */\n      dup1\n        /* \"@uniswap/v3-core/contracts/libraries/FullMath.sol\":3118:3123  prod1 */\n      dup4\n        /* \"@uniswap/v3-core/contracts/libraries/FullMath.sol\":3118:3130  prod1 * twos */\n      mul\n        /* \"@uniswap/v3-core/contracts/libraries/FullMath.sol\":3109:3130  prod0 |= prod1 * twos */\n      dup5\n      or\n      swap4\n      pop\n        /* \"@uniswap/v3-core/contracts/libraries/FullMath.sol\":3464:3475  uint256 inv */\n      0x00\n        /* \"@uniswap/v3-core/contracts/libraries/FullMath.sol\":3498:3499  2 */\n      0x02\n        /* \"@uniswap/v3-core/contracts/libraries/FullMath.sol\":3483:3494  denominator */\n      dup8\n        /* \"@uniswap/v3-core/contracts/libraries/FullMath.sol\":3479:3480  3 */\n      0x03\n        /* \"@uniswap/v3-core/contracts/libraries/FullMath.sol\":3479:3494  3 * denominator */\n      mul\n        /* \"@uniswap/v3-core/contracts/libraries/FullMath.sol\":3478:3499  (3 * denominator) ^ 2 */\n      xor\n        /* \"@uniswap/v3-core/contracts/libraries/FullMath.sol\":3464:3499  uint256 inv = (3 * denominator) ^ 2 */\n      swap1\n      pop\n        /* \"@uniswap/v3-core/contracts/libraries/FullMath.sol\":3739:3742  inv */\n      dup1\n        /* \"@uniswap/v3-core/contracts/libraries/FullMath.sol\":3725:3736  denominator */\n      dup8\n        /* \"@uniswap/v3-core/contracts/libraries/FullMath.sol\":3725:3742  denominator * inv */\n      mul\n        /* \"@uniswap/v3-core/contracts/libraries/FullMath.sol\":3721:3722  2 */\n      0x02\n        /* \"@uniswap/v3-core/contracts/libraries/FullMath.sol\":3721:3742  2 - denominator * inv */\n      sub\n        /* \"@uniswap/v3-core/contracts/libraries/FullMath.sol\":3714:3742  inv *= 2 - denominator * inv */\n      dup2\n      mul\n      swap1\n      pop\n        /* \"@uniswap/v3-core/contracts/libraries/FullMath.sol\":3797:3800  inv */\n      dup1\n        /* \"@uniswap/v3-core/contracts/libraries/FullMath.sol\":3783:3794  denominator */\n      dup8\n        /* \"@uniswap/v3-core/contracts/libraries/FullMath.sol\":3783:3800  denominator * inv */\n      mul\n        /* \"@uniswap/v3-core/contracts/libraries/FullMath.sol\":3779:3780  2 */\n      0x02\n        /* \"@uniswap/v3-core/contracts/libraries/FullMath.sol\":3779:3800  2 - denominator * inv */\n      sub\n        /* \"@uniswap/v3-core/contracts/libraries/FullMath.sol\":3772:3800  inv *= 2 - denominator * inv */\n      dup2\n      mul\n      swap1\n      pop\n        /* \"@uniswap/v3-core/contracts/libraries/FullMath.sol\":3856:3859  inv */\n      dup1\n        /* \"@uniswap/v3-core/contracts/libraries/FullMath.sol\":3842:3853  denominator */\n      dup8\n        /* \"@uniswap/v3-core/contracts/libraries/FullMath.sol\":3842:3859  denominator * inv */\n      mul\n        /* \"@uniswap/v3-core/contracts/libraries/FullMath.sol\":3838:3839  2 */\n      0x02\n        /* \"@uniswap/v3-core/contracts/libraries/FullMath.sol\":3838:3859  2 - denominator * inv */\n      sub\n        /* \"@uniswap/v3-core/contracts/libraries/FullMath.sol\":3831:3859  inv *= 2 - denominator * inv */\n      dup2\n      mul\n      swap1\n      pop\n        /* \"@uniswap/v3-core/contracts/libraries/FullMath.sol\":3915:3918  inv */\n      dup1\n        /* \"@uniswap/v3-core/contracts/libraries/FullMath.sol\":3901:3912  denominator */\n      dup8\n        /* \"@uniswap/v3-core/contracts/libraries/FullMath.sol\":3901:3918  denominator * inv */\n      mul\n        /* \"@uniswap/v3-core/contracts/libraries/FullMath.sol\":3897:3898  2 */\n      0x02\n        /* \"@uniswap/v3-core/contracts/libraries/FullMath.sol\":3897:3918  2 - denominator * inv */\n      sub\n        /* \"@uniswap/v3-core/contracts/libraries/FullMath.sol\":3890:3918  inv *= 2 - denominator * inv */\n      dup2\n      mul\n      swap1\n      pop\n        /* \"@uniswap/v3-core/contracts/libraries/FullMath.sol\":3974:3977  inv */\n      dup1\n        /* \"@uniswap/v3-core/contracts/libraries/FullMath.sol\":3960:3971  denominator */\n      dup8\n        /* \"@uniswap/v3-core/contracts/libraries/FullMath.sol\":3960:3977  denominator * inv */\n      mul\n        /* \"@uniswap/v3-core/contracts/libraries/FullMath.sol\":3956:3957  2 */\n      0x02\n        /* \"@uniswap/v3-core/contracts/libraries/FullMath.sol\":3956:3977  2 - denominator * inv */\n      sub\n        /* \"@uniswap/v3-core/contracts/libraries/FullMath.sol\":3949:3977  inv *= 2 - denominator * inv */\n      dup2\n      mul\n      swap1\n      pop\n        /* \"@uniswap/v3-core/contracts/libraries/FullMath.sol\":4034:4037  inv */\n      dup1\n        /* \"@uniswap/v3-core/contracts/libraries/FullMath.sol\":4020:4031  denominator */\n      dup8\n        /* \"@uniswap/v3-core/contracts/libraries/FullMath.sol\":4020:4037  denominator * inv */\n      mul\n        /* \"@uniswap/v3-core/contracts/libraries/FullMath.sol\":4016:4017  2 */\n      0x02\n        /* \"@uniswap/v3-core/contracts/libraries/FullMath.sol\":4016:4037  2 - denominator * inv */\n      sub\n        /* \"@uniswap/v3-core/contracts/libraries/FullMath.sol\":4009:4037  inv *= 2 - denominator * inv */\n      dup2\n      mul\n      swap1\n      pop\n        /* \"@uniswap/v3-core/contracts/libraries/FullMath.sol\":4492:4495  inv */\n      dup1\n        /* \"@uniswap/v3-core/contracts/libraries/FullMath.sol\":4484:4489  prod0 */\n      dup6\n        /* \"@uniswap/v3-core/contracts/libraries/FullMath.sol\":4484:4495  prod0 * inv */\n      mul\n        /* \"@uniswap/v3-core/contracts/libraries/FullMath.sol\":4475:4495  result = prod0 * inv */\n      swap6\n      pop\n        /* \"@uniswap/v3-core/contracts/libraries/FullMath.sol\":4505:4518  return result */\n      pop\n      pop\n      pop\n      pop\n      pop\n        /* \"@uniswap/v3-core/contracts/libraries/FullMath.sol\":749:4525  function mulDiv(... */\n    tag_100:\n      swap4\n      swap3\n      pop\n      pop\n      pop\n      jump\t// out\n\n    auxdata: 0xa2646970667358221220989cc889235e45bf04739decdcf5fed7df2567b05638e2ff034be1567bdb3c1164736f6c63430007060033\n}\n",
				"bytecode": {
					"linkReferences": {},
					"object": "608060405234801561001057600080fd5b50610da0806100206000396000f3fe608060405234801561001057600080fd5b506004361061004c5760003560e01c806316f0115b146100515780633fc8cef314610085578063906d67ea146100b9578063fc0c546a14610101575b600080fd5b610059610135565b604051808273ffffffffffffffffffffffffffffffffffffffff16815260200191505060405180910390f35b61008d61014d565b604051808273ffffffffffffffffffffffffffffffffffffffff16815260200191505060405180910390f35b6100eb600480360360208110156100cf57600080fd5b81019080803563ffffffff169060200190929190505050610165565b6040518082815260200191505060405180910390f35b6101096101cd565b604051808273ffffffffffffffffffffffffffffffffffffffff16815260200191505060405180910390f35b7311950d141ecb863f01007add7d1a342041227b5881565b73c02aaa39b223fe8d0a0e5c4f27ead9083c756cc281565b6000806101867311950d141ecb863f01007add7d1a342041227b58846101e5565b5090506101c581670de0b6b3a7640000736982508145454ce325ddbe47a25d4ec3d231193373c02aaa39b223fe8d0a0e5c4f27ead9083c756cc2610652565b915050919050565b736982508145454ce325ddbe47a25d4ec3d231193381565b60008060008363ffffffff161415610265576040517f08c379a00000000000000000000000000000000000000000000000000000000081526004018080602001828103825260028152602001807f425000000000000000000000000000000000000000000000000000000000000081525060200191505060405180910390fd5b6000600267ffffffffffffffff8111801561027f57600080fd5b506040519080825280602002602001820160405280156102ae5781602001602082028036833780820191505090505b50905083816000815181106102bf57fe5b602002602001019063ffffffff16908163ffffffff16815250506000816001815181106102e857fe5b602002602001019063ffffffff16908163ffffffff16815250506000808673ffffffffffffffffffffffffffffffffffffffff1663883bdbfd846040518263ffffffff1660e01b81526004018080602001828103825283818151815260200191508051906020019060200280838360005b83811015610374578082015181840152602081019050610359565b505050509050019250505060006040518083038186803b15801561039757600080fd5b505afa1580156103ab573d6000803e3d6000fd5b505050506040513d6000823e3d601f19601f8201168201806040525060408110156103d557600080fd5b81019080805160405193929190846401000000008211156103f557600080fd5b8382019150602082018581111561040b57600080fd5b825186602082028301116401000000008211171561042857600080fd5b8083526020830192505050908051906020019060200280838360005b8381101561045f578082015181840152602081019050610444565b505050509050016040526020018051604051939291908464010000000082111561048857600080fd5b8382019150602082018581111561049e57600080fd5b82518660208202830111640100000000821117156104bb57600080fd5b8083526020830192505050908051906020019060200280838360005b838110156104f25780820151818401526020810190506104d7565b505050509050016040525050509150915060008260008151811061051257fe5b60200260200101518360018151811061052757fe5b602002602001015103905060008260008151811061054157fe5b60200260200101518360018151811061055657fe5b60200260200101510390508763ffffffff168260060b8161057357fe5b05965060008260060b12801561059f575060008863ffffffff168360060b8161059857fe5b0760060b14155b156105ae578680600190039750505b600073ffffffffffffffffffffffffffffffffffffffff80168963ffffffff1602905060208273ffffffffffffffffffffffffffffffffffffffff1677ffffffffffffffffffffffffffffffffffffffffffffffff16901b77ffffffffffffffffffffffffffffffffffffffffffffffff168177ffffffffffffffffffffffffffffffffffffffffffffffff168161064257fe5b0496505050505050509250929050565b60008061065e86610855565b90506fffffffffffffffffffffffffffffffff80168173ffffffffffffffffffffffffffffffffffffffff161161076f5760008173ffffffffffffffffffffffffffffffffffffffff168273ffffffffffffffffffffffffffffffffffffffff160290508373ffffffffffffffffffffffffffffffffffffffff168573ffffffffffffffffffffffffffffffffffffffff16106107305761072b7801000000000000000000000000000000000000000000000000876fffffffffffffffffffffffffffffffff1683610c90565b610767565b61076681876fffffffffffffffffffffffffffffffff167801000000000000000000000000000000000000000000000000610c90565b5b92505061084c565b60006107b18273ffffffffffffffffffffffffffffffffffffffff168373ffffffffffffffffffffffffffffffffffffffff1668010000000000000000610c90565b90508373ffffffffffffffffffffffffffffffffffffffff168573ffffffffffffffffffffffffffffffffffffffff161061081957610814700100000000000000000000000000000000876fffffffffffffffffffffffffffffffff1683610c90565b610848565b61084781876fffffffffffffffffffffffffffffffff16700100000000000000000000000000000000610c90565b5b9250505b50949350505050565b60008060008360020b1261086c578260020b610874565b8260020b6000035b90507ffffffffffffffffffffffffffffffffffffffffffffffffffffffffffff2761860000360020b811115610912576040517f08c379a00000000000000000000000000000000000000000000000000000000081526004018080602001828103825260018152602001807f540000000000000000000000000000000000000000000000000000000000000081525060200191505060405180910390fd5b60008060018316141561093657700100000000000000000000000000000000610948565b6ffffcb933bd6fad37aa2d162d1a5940015b70ffffffffffffffffffffffffffffffffff169050600060028316146109825760806ffff97272373d413259a46990580e213a8202901c90505b600060048316146109a75760806ffff2e50f5f656932ef12357cf3c7fdcc8202901c90505b600060088316146109cc5760806fffe5caca7e10e4e61c3624eaa0941cd08202901c90505b600060108316146109f15760806fffcb9843d60f6159c9db58835c9266448202901c90505b60006020831614610a165760806fff973b41fa98c081472e6896dfb254c08202901c90505b60006040831614610a3b5760806fff2ea16466c96a3843ec78b326b528618202901c90505b60006080831614610a605760806ffe5dee046a99a2a811c461f1969c30538202901c90505b6000610100831614610a865760806ffcbe86c7900a88aedcffc83b479aa3a48202901c90505b6000610200831614610aac5760806ff987a7253ac413176f2b074cf7815e548202901c90505b6000610400831614610ad25760806ff3392b0822b70005940c7a398e4b70f38202901c90505b6000610800831614610af85760806fe7159475a2c29b7443b29c7fa6e889d98202901c90505b6000611000831614610b1e5760806fd097f3bdfd2022b8845ad8f792aa58258202901c90505b6000612000831614610b445760806fa9f746462d870fdf8a65dc1f90e061e58202901c90505b6000614000831614610b6a5760806f70d869a156d2a1b890bb3df62baf32f78202901c90505b6000618000831614610b905760806f31be135f97d08fd981231505542fcfa68202901c90505b600062010000831614610bb75760806f09aa508b5b7a84e1c677de54f3e99bc98202901c90505b600062020000831614610bdd5760806e5d6af8dedb81196699c329225ee6048202901c90505b600062040000831614610c025760806d2216e584f5fa1ea926041bedfe988202901c90505b600062080000831614610c255760806b048a170391f7dc42444e8fa28202901c90505b60008460020b1315610c5e57807fffffffffffffffffffffffffffffffffffffffffffffffffffffffffffffffff81610c5a57fe5b0490505b60006401000000008281610c6e57fe5b0614610c7b576001610c7e565b60005b60ff16602082901c0192505050919050565b600080600080198587098587029250828110838203039150506000811415610ccb5760008411610cbf57600080fd5b83820492505050610d63565b808411610cd757600080fd5b600084868809905082811182039150808303925060008586600003169050808604955080840493506001818260000304019050808302841793506000600287600302189050808702600203810290508087026002038102905080870260020381029050808702600203810290508087026002038102905080870260020381029050808502955050505050505b939250505056fea2646970667358221220989cc889235e45bf04739decdcf5fed7df2567b05638e2ff034be1567bdb3c1164736f6c63430007060033",
					"opcodes": "PUSH1 0x80 PUSH1 0x40 MSTORE CALLVALUE DUP1 ISZERO PUSH2 0x10 JUMPI PUSH1 0x0 DUP1 REVERT JUMPDEST POP PUSH2 0xDA0 DUP1 PUSH2 0x20 PUSH1 0x0 CODECOPY PUSH1 0x0 RETURN INVALID PUSH1 0x80 PUSH1 0x40 MSTORE CALLVALUE DUP1 ISZERO PUSH2 0x10 JUMPI PUSH1 0x0 DUP1 REVERT JUMPDEST POP PUSH1 0x4 CALLDATASIZE LT PUSH2 0x4C JUMPI PUSH1 0x0 CALLDATALOAD PUSH1 0xE0 SHR DUP1 PUSH4 0x16F0115B EQ PUSH2 0x51 JUMPI DUP1 PUSH4 0x3FC8CEF3 EQ PUSH2 0x85 JUMPI DUP1 PUSH4 0x906D67EA EQ PUSH2 0xB9 JUMPI DUP1 PUSH4 0xFC0C546A EQ PUSH2 0x101 JUMPI JUMPDEST PUSH1 0x0 DUP1 REVERT JUMPDEST PUSH2 0x59 PUSH2 0x135 JUMP JUMPDEST PUSH1 0x40 MLOAD DUP1 DUP3 PUSH20 0xFFFFFFFFFFFFFFFFFFFFFFFFFFFFFFFFFFFFFFFF AND DUP2 MSTORE PUSH1 0x20 ADD SWAP2 POP POP PUSH1 0x40 MLOAD DUP1 SWAP2 SUB SWAP1 RETURN JUMPDEST PUSH2 0x8D PUSH2 0x14D JUMP JUMPDEST PUSH1 0x40 MLOAD DUP1 DUP3 PUSH20 0xFFFFFFFFFFFFFFFFFFFFFFFFFFFFFFFFFFFFFFFF AND DUP2 MSTORE PUSH1 0x20 ADD SWAP2 POP POP PUSH1 0x40 MLOAD DUP1 SWAP2 SUB SWAP1 RETURN JUMPDEST PUSH2 0xEB PUSH1 0x4 DUP1 CALLDATASIZE SUB PUSH1 0x20 DUP2 LT ISZERO PUSH2 0xCF JUMPI PUSH1 0x0 DUP1 REVERT JUMPDEST DUP2 ADD SWAP1 DUP1 DUP1 CALLDATALOAD PUSH4 0xFFFFFFFF AND SWAP1 PUSH1 0x20 ADD SWAP1 SWAP3 SWAP2 SWAP1 POP POP POP PUSH2 0x165 JUMP JUMPDEST PUSH1 0x40 MLOAD DUP1 DUP3 DUP2 MSTORE PUSH1 0x20 ADD SWAP2 POP POP PUSH1 0x40 MLOAD DUP1 SWAP2 SUB SWAP1 RETURN JUMPDEST PUSH2 0x109 PUSH2 0x1CD JUMP JUMPDEST PUSH1 0x40 MLOAD DUP1 DUP3 PUSH20 0xFFFFFFFFFFFFFFFFFFFFFFFFFFFFFFFFFFFFFFFF AND DUP2 MSTORE PUSH1 0x20 ADD SWAP2 POP POP PUSH1 0x40 MLOAD DUP1 SWAP2 SUB SWAP1 RETURN JUMPDEST PUSH20 0x11950D141ECB863F01007ADD7D1A342041227B58 DUP2 JUMP JUMPDEST PUSH20 0xC02AAA39B223FE8D0A0E5C4F27EAD9083C756CC2 DUP2 JUMP JUMPDEST PUSH1 0x0 DUP1 PUSH2 0x186 PUSH20 0x11950D141ECB863F01007ADD7D1A342041227B58 DUP5 PUSH2 0x1E5 JUMP JUMPDEST POP SWAP1 POP PUSH2 0x1C5 DUP2 PUSH8 0xDE0B6B3A7640000 PUSH20 0x6982508145454CE325DDBE47A25D4EC3D2311933 PUSH20 0xC02AAA39B223FE8D0A0E5C4F27EAD9083C756CC2 PUSH2 0x652 JUMP JUMPDEST SWAP2 POP POP SWAP2 SWAP1 POP JUMP JUMPDEST PUSH20 0x6982508145454CE325DDBE47A25D4EC3D2311933 DUP2 JUMP JUMPDEST PUSH1 0x0 DUP1 PUSH1 0x0 DUP4 PUSH4 0xFFFFFFFF AND EQ ISZERO PUSH2 0x265 JUMPI PUSH1 0x40 MLOAD PUSH32 0x8C379A000000000000000000000000000000000000000000000000000000000 DUP2 MSTORE PUSH1 0x4 ADD DUP1 DUP1 PUSH1 0x20 ADD DUP3 DUP2 SUB DUP3 MSTORE PUSH1 0x2 DUP2 MSTORE PUSH1 0x20 ADD DUP1 PUSH32 0x4250000000000000000000000000000000000000000000000000000000000000 DUP2 MSTORE POP PUSH1 0x20 ADD SWAP2 POP POP PUSH1 0x40 MLOAD DUP1 SWAP2 SUB SWAP1 REVERT JUMPDEST PUSH1 0x0 PUSH1 0x2 PUSH8 0xFFFFFFFFFFFFFFFF DUP2 GT DUP1 ISZERO PUSH2 0x27F JUMPI PUSH1 0x0 DUP1 REVERT JUMPDEST POP PUSH1 0x40 MLOAD SWAP1 DUP1 DUP3 MSTORE DUP1 PUSH1 0x20 MUL PUSH1 0x20 ADD DUP3 ADD PUSH1 0x40 MSTORE DUP1 ISZERO PUSH2 0x2AE JUMPI DUP2 PUSH1 0x20 ADD PUSH1 0x20 DUP3 MUL DUP1 CALLDATASIZE DUP4 CALLDATACOPY DUP1 DUP3 ADD SWAP2 POP POP SWAP1 POP JUMPDEST POP SWAP1 POP DUP4 DUP2 PUSH1 0x0 DUP2 MLOAD DUP2 LT PUSH2 0x2BF JUMPI INVALID JUMPDEST PUSH1 0x20 MUL PUSH1 0x20 ADD ADD SWAP1 PUSH4 0xFFFFFFFF AND SWAP1 DUP2 PUSH4 0xFFFFFFFF AND DUP2 MSTORE POP POP PUSH1 0x0 DUP2 PUSH1 0x1 DUP2 MLOAD DUP2 LT PUSH2 0x2E8 JUMPI INVALID JUMPDEST PUSH1 0x20 MUL PUSH1 0x20 ADD ADD SWAP1 PUSH4 0xFFFFFFFF AND SWAP1 DUP2 PUSH4 0xFFFFFFFF AND DUP2 MSTORE POP POP PUSH1 0x0 DUP1 DUP7 PUSH20 0xFFFFFFFFFFFFFFFFFFFFFFFFFFFFFFFFFFFFFFFF AND PUSH4 0x883BDBFD DUP5 PUSH1 0x40 MLOAD DUP3 PUSH4 0xFFFFFFFF AND PUSH1 0xE0 SHL DUP2 MSTORE PUSH1 0x4 ADD DUP1 DUP1 PUSH1 0x20 ADD DUP3 DUP2 SUB DUP3 MSTORE DUP4 DUP2 DUP2 MLOAD DUP2 MSTORE PUSH1 0x20 ADD SWAP2 POP DUP1 MLOAD SWAP1 PUSH1 0x20 ADD SWAP1 PUSH1 0x20 MUL DUP1 DUP4 DUP4 PUSH1 0x0 JUMPDEST DUP4 DUP2 LT ISZERO PUSH2 0x374 JUMPI DUP1 DUP3 ADD MLOAD DUP2 DUP5 ADD MSTORE PUSH1 0x20 DUP2 ADD SWAP1 POP PUSH2 0x359 JUMP JUMPDEST POP POP POP POP SWAP1 POP ADD SWAP3 POP POP POP PUSH1 0x0 PUSH1 0x40 MLOAD DUP1 DUP4 SUB DUP2 DUP7 DUP1 EXTCODESIZE ISZERO DUP1 ISZERO PUSH2 0x397 JUMPI PUSH1 0x0 DUP1 REVERT JUMPDEST POP GAS STATICCALL ISZERO DUP1 ISZERO PUSH2 0x3AB JUMPI RETURNDATASIZE PUSH1 0x0 DUP1 RETURNDATACOPY RETURNDATASIZE PUSH1 0x0 REVERT JUMPDEST POP POP POP POP PUSH1 0x40 MLOAD RETURNDATASIZE PUSH1 0x0 DUP3 RETURNDATACOPY RETURNDATASIZE PUSH1 0x1F NOT PUSH1 0x1F DUP3 ADD AND DUP3 ADD DUP1 PUSH1 0x40 MSTORE POP PUSH1 0x40 DUP2 LT ISZERO PUSH2 0x3D5 JUMPI PUSH1 0x0 DUP1 REVERT JUMPDEST DUP2 ADD SWAP1 DUP1 DUP1 MLOAD PUSH1 0x40 MLOAD SWAP4 SWAP3 SWAP2 SWAP1 DUP5 PUSH5 0x100000000 DUP3 GT ISZERO PUSH2 0x3F5 JUMPI PUSH1 0x0 DUP1 REVERT JUMPDEST DUP4 DUP3 ADD SWAP2 POP PUSH1 0x20 DUP3 ADD DUP6 DUP2 GT ISZERO PUSH2 0x40B JUMPI PUSH1 0x0 DUP1 REVERT JUMPDEST DUP3 MLOAD DUP7 PUSH1 0x20 DUP3 MUL DUP4 ADD GT PUSH5 0x100000000 DUP3 GT OR ISZERO PUSH2 0x428 JUMPI PUSH1 0x0 DUP1 REVERT JUMPDEST DUP1 DUP4 MSTORE PUSH1 0x20 DUP4 ADD SWAP3 POP POP POP SWAP1 DUP1 MLOAD SWAP1 PUSH1 0x20 ADD SWAP1 PUSH1 0x20 MUL DUP1 DUP4 DUP4 PUSH1 0x0 JUMPDEST DUP4 DUP2 LT ISZERO PUSH2 0x45F JUMPI DUP1 DUP3 ADD MLOAD DUP2 DUP5 ADD MSTORE PUSH1 0x20 DUP2 ADD SWAP1 POP PUSH2 0x444 JUMP JUMPDEST POP POP POP POP SWAP1 POP ADD PUSH1 0x40 MSTORE PUSH1 0x20 ADD DUP1 MLOAD PUSH1 0x40 MLOAD SWAP4 SWAP3 SWAP2 SWAP1 DUP5 PUSH5 0x100000000 DUP3 GT ISZERO PUSH2 0x488 JUMPI PUSH1 0x0 DUP1 REVERT JUMPDEST DUP4 DUP3 ADD SWAP2 POP PUSH1 0x20 DUP3 ADD DUP6 DUP2 GT ISZERO PUSH2 0x49E JUMPI PUSH1 0x0 DUP1 REVERT JUMPDEST DUP3 MLOAD DUP7 PUSH1 0x20 DUP3 MUL DUP4 ADD GT PUSH5 0x100000000 DUP3 GT OR ISZERO PUSH2 0x4BB JUMPI PUSH1 0x0 DUP1 REVERT JUMPDEST DUP1 DUP4 MSTORE PUSH1 0x20 DUP4 ADD SWAP3 POP POP POP SWAP1 DUP1 MLOAD SWAP1 PUSH1 0x20 ADD SWAP1 PUSH1 0x20 MUL DUP1 DUP4 DUP4 PUSH1 0x0 JUMPDEST DUP4 DUP2 LT ISZERO PUSH2 0x4F2 JUMPI DUP1 DUP3 ADD MLOAD DUP2 DUP5 ADD MSTORE PUSH1 0x20 DUP2 ADD SWAP1 POP PUSH2 0x4D7 JUMP JUMPDEST POP POP POP POP SWAP1 POP ADD PUSH1 0x40 MSTORE POP POP POP SWAP2 POP SWAP2 POP PUSH1 0x0 DUP3 PUSH1 0x0 DUP2 MLOAD DUP2 LT PUSH2 0x512 JUMPI INVALID JUMPDEST PUSH1 0x20 MUL PUSH1 0x20 ADD ADD MLOAD DUP4 PUSH1 0x1 DUP2 MLOAD DUP2 LT PUSH2 0x527 JUMPI INVALID JUMPDEST PUSH1 0x20 MUL PUSH1 0x20 ADD ADD MLOAD SUB SWAP1 POP PUSH1 0x0 DUP3 PUSH1 0x0 DUP2 MLOAD DUP2 LT PUSH2 0x541 JUMPI INVALID JUMPDEST PUSH1 0x20 MUL PUSH1 0x20 ADD ADD MLOAD DUP4 PUSH1 0x1 DUP2 MLOAD DUP2 LT PUSH2 0x556 JUMPI INVALID JUMPDEST PUSH1 0x20 MUL PUSH1 0x20 ADD ADD MLOAD SUB SWAP1 POP DUP8 PUSH4 0xFFFFFFFF AND DUP3 PUSH1 0x6 SIGNEXTEND DUP2 PUSH2 0x573 JUMPI INVALID JUMPDEST SDIV SWAP7 POP PUSH1 0x0 DUP3 PUSH1 0x6 SIGNEXTEND SLT DUP1 ISZERO PUSH2 0x59F JUMPI POP PUSH1 0x0 DUP9 PUSH4 0xFFFFFFFF AND DUP4 PUSH1 0x6 SIGNEXTEND DUP2 PUSH2 0x598 JUMPI INVALID JUMPDEST SMOD PUSH1 0x6 SIGNEXTEND EQ ISZERO JUMPDEST ISZERO PUSH2 0x5AE JUMPI DUP7 DUP1 PUSH1 0x1 SWAP1 SUB SWAP8 POP POP JUMPDEST PUSH1 0x0 PUSH20 0xFFFFFFFFFFFFFFFFFFFFFFFFFFFFFFFFFFFFFFFF DUP1 AND DUP10 PUSH4 0xFFFFFFFF AND MUL SWAP1 POP PUSH1 0x20 DUP3 PUSH20 0xFFFFFFFFFFFFFFFFFFFFFFFFFFFFFFFFFFFFFFFF AND PUSH24 0xFFFFFFFFFFFFFFFFFFFFFFFFFFFFFFFFFFFFFFFFFFFFFFFF AND SWAP1 SHL PUSH24 0xFFFFFFFFFFFFFFFFFFFFFFFFFFFFFFFFFFFFFFFFFFFFFFFF AND DUP2 PUSH24 0xFFFFFFFFFFFFFFFFFFFFFFFFFFFFFFFFFFFFFFFFFFFFFFFF AND DUP2 PUSH2 0x642 JUMPI INVALID JUMPDEST DIV SWAP7 POP POP POP POP POP POP POP SWAP3 POP SWAP3 SWAP1 POP JUMP JUMPDEST PUSH1 0x0 DUP1 PUSH2 0x65E DUP7 PUSH2 0x855 JUMP JUMPDEST SWAP1 POP PUSH16 0xFFFFFFFFFFFFFFFFFFFFFFFFFFFFFFFF DUP1 AND DUP2 PUSH20 0xFFFFFFFFFFFFFFFFFFFFFFFFFFFFFFFFFFFFFFFF AND GT PUSH2 0x76F JUMPI PUSH1 0x0 DUP2 PUSH20 0xFFFFFFFFFFFFFFFFFFFFFFFFFFFFFFFFFFFFFFFF AND DUP3 PUSH20 0xFFFFFFFFFFFFFFFFFFFFFFFFFFFFFFFFFFFFFFFF AND MUL SWAP1 POP DUP4 PUSH20 0xFFFFFFFFFFFFFFFFFFFFFFFFFFFFFFFFFFFFFFFF AND DUP6 PUSH20 0xFFFFFFFFFFFFFFFFFFFFFFFFFFFFFFFFFFFFFFFF AND LT PUSH2 0x730 JUMPI PUSH2 0x72B PUSH25 0x1000000000000000000000000000000000000000000000000 DUP8 PUSH16 0xFFFFFFFFFFFFFFFFFFFFFFFFFFFFFFFF AND DUP4 PUSH2 0xC90 JUMP JUMPDEST PUSH2 0x767 JUMP JUMPDEST PUSH2 0x766 DUP2 DUP8 PUSH16 0xFFFFFFFFFFFFFFFFFFFFFFFFFFFFFFFF AND PUSH25 0x1000000000000000000000000000000000000000000000000 PUSH2 0xC90 JUMP JUMPDEST JUMPDEST SWAP3 POP POP PUSH2 0x84C JUMP JUMPDEST PUSH1 0x0 PUSH2 0x7B1 DUP3 PUSH20 0xFFFFFFFFFFFFFFFFFFFFFFFFFFFFFFFFFFFFFFFF AND DUP4 PUSH20 0xFFFFFFFFFFFFFFFFFFFFFFFFFFFFFFFFFFFFFFFF AND PUSH9 0x10000000000000000 PUSH2 0xC90 JUMP JUMPDEST SWAP1 POP DUP4 PUSH20 0xFFFFFFFFFFFFFFFFFFFFFFFFFFFFFFFFFFFFFFFF AND DUP6 PUSH20 0xFFFFFFFFFFFFFFFFFFFFFFFFFFFFFFFFFFFFFFFF AND LT PUSH2 0x819 JUMPI PUSH2 0x814 PUSH17 0x100000000000000000000000000000000 DUP8 PUSH16 0xFFFFFFFFFFFFFFFFFFFFFFFFFFFFFFFF AND DUP4 PUSH2 0xC90 JUMP JUMPDEST PUSH2 0x848 JUMP JUMPDEST PUSH2 0x847 DUP2 DUP8 PUSH16 0xFFFFFFFFFFFFFFFFFFFFFFFFFFFFFFFF AND PUSH17 0x100000000000000000000000000000000 PUSH2 0xC90 JUMP JUMPDEST JUMPDEST SWAP3 POP POP JUMPDEST POP SWAP5 SWAP4 POP POP POP POP JUMP JUMPDEST PUSH1 0x0 DUP1 PUSH1 0x0 DUP4 PUSH1 0x2 SIGNEXTEND SLT PUSH2 0x86C JUMPI DUP3 PUSH1 0x2 SIGNEXTEND PUSH2 0x874 JUMP JUMPDEST DUP3 PUSH1 0x2 SIGNEXTEND PUSH1 0x0 SUB JUMPDEST SWAP1 POP PUSH32 0xFFFFFFFFFFFFFFFFFFFFFFFFFFFFFFFFFFFFFFFFFFFFFFFFFFFFFFFFFFF27618 PUSH1 0x0 SUB PUSH1 0x2 SIGNEXTEND DUP2 GT ISZERO PUSH2 0x912 JUMPI PUSH1 0x40 MLOAD PUSH32 0x8C379A000000000000000000000000000000000000000000000000000000000 DUP2 MSTORE PUSH1 0x4 ADD DUP1 DUP1 PUSH1 0x20 ADD DUP3 DUP2 SUB DUP3 MSTORE PUSH1 0x1 DUP2 MSTORE PUSH1 0x20 ADD DUP1 PUSH32 0x5400000000000000000000000000000000000000000000000000000000000000 DUP2 MSTORE POP PUSH1 0x20 ADD SWAP2 POP POP PUSH1 0x40 MLOAD DUP1 SWAP2 SUB SWAP1 REVERT JUMPDEST PUSH1 0x0 DUP1 PUSH1 0x1 DUP4 AND EQ ISZERO PUSH2 0x936 JUMPI PUSH17 0x100000000000000000000000000000000 PUSH2 0x948 JUMP JUMPDEST PUSH16 0xFFFCB933BD6FAD37AA2D162D1A594001 JUMPDEST PUSH17 0xFFFFFFFFFFFFFFFFFFFFFFFFFFFFFFFFFF AND SWAP1 POP PUSH1 0x0 PUSH1 0x2 DUP4 AND EQ PUSH2 0x982 JUMPI PUSH1 0x80 PUSH16 0xFFF97272373D413259A46990580E213A DUP3 MUL SWAP1 SHR SWAP1 POP JUMPDEST PUSH1 0x0 PUSH1 0x4 DUP4 AND EQ PUSH2 0x9A7 JUMPI PUSH1 0x80 PUSH16 0xFFF2E50F5F656932EF12357CF3C7FDCC DUP3 MUL SWAP1 SHR SWAP1 POP JUMPDEST PUSH1 0x0 PUSH1 0x8 DUP4 AND EQ PUSH2 0x9CC JUMPI PUSH1 0x80 PUSH16 0xFFE5CACA7E10E4E61C3624EAA0941CD0 DUP3 MUL SWAP1 SHR SWAP1 POP JUMPDEST PUSH1 0x0 PUSH1 0x10 DUP4 AND EQ PUSH2 0x9F1 JUMPI PUSH1 0x80 PUSH16 0xFFCB9843D60F6159C9DB58835C926644 DUP3 MUL SWAP1 SHR SWAP1 POP JUMPDEST PUSH1 0x0 PUSH1 0x20 DUP4 AND EQ PUSH2 0xA16 JUMPI PUSH1 0x80 PUSH16 0xFF973B41FA98C081472E6896DFB254C0 DUP3 MUL SWAP1 SHR SWAP1 POP JUMPDEST PUSH1 0x0 PUSH1 0x40 DUP4 AND EQ PUSH2 0xA3B JUMPI PUSH1 0x80 PUSH16 0xFF2EA16466C96A3843EC78B326B52861 DUP3 MUL SWAP1 SHR SWAP1 POP JUMPDEST PUSH1 0x0 PUSH1 0x80 DUP4 AND EQ PUSH2 0xA60 JUMPI PUSH1 0x80 PUSH16 0xFE5DEE046A99A2A811C461F1969C3053 DUP3 MUL SWAP1 SHR SWAP1 POP JUMPDEST PUSH1 0x0 PUSH2 0x100 DUP4 AND EQ PUSH2 0xA86 JUMPI PUSH1 0x80 PUSH16 0xFCBE86C7900A88AEDCFFC83B479AA3A4 DUP3 MUL SWAP1 SHR SWAP1 POP JUMPDEST PUSH1 0x0 PUSH2 0x200 DUP4 AND EQ PUSH2 0xAAC JUMPI PUSH1 0x80 PUSH16 0xF987A7253AC413176F2B074CF7815E54 DUP3 MUL SWAP1 SHR SWAP1 POP JUMPDEST PUSH1 0x0 PUSH2 0x400 DUP4 AND EQ PUSH2 0xAD2 JUMPI PUSH1 0x80 PUSH16 0xF3392B0822B70005940C7A398E4B70F3 DUP3 MUL SWAP1 SHR SWAP1 POP JUMPDEST PUSH1 0x0 PUSH2 0x800 DUP4 AND EQ PUSH2 0xAF8 JUMPI PUSH1 0x80 PUSH16 0xE7159475A2C29B7443B29C7FA6E889D9 DUP3 MUL SWAP1 SHR SWAP1 POP JUMPDEST PUSH1 0x0 PUSH2 0x1000 DUP4 AND EQ PUSH2 0xB1E JUMPI PUSH1 0x80 PUSH16 0xD097F3BDFD2022B8845AD8F792AA5825 DUP3 MUL SWAP1 SHR SWAP1 POP JUMPDEST PUSH1 0x0 PUSH2 0x2000 DUP4 AND EQ PUSH2 0xB44 JUMPI PUSH1 0x80 PUSH16 0xA9F746462D870FDF8A65DC1F90E061E5 DUP3 MUL SWAP1 SHR SWAP1 POP JUMPDEST PUSH1 0x0 PUSH2 0x4000 DUP4 AND EQ PUSH2 0xB6A JUMPI PUSH1 0x80 PUSH16 0x70D869A156D2A1B890BB3DF62BAF32F7 DUP3 MUL SWAP1 SHR SWAP1 POP JUMPDEST PUSH1 0x0 PUSH2 0x8000 DUP4 AND EQ PUSH2 0xB90 JUMPI PUSH1 0x80 PUSH16 0x31BE135F97D08FD981231505542FCFA6 DUP3 MUL SWAP1 SHR SWAP1 POP JUMPDEST PUSH1 0x0 PUSH3 0x10000 DUP4 AND EQ PUSH2 0xBB7 JUMPI PUSH1 0x80 PUSH16 0x9AA508B5B7A84E1C677DE54F3E99BC9 DUP3 MUL SWAP1 SHR SWAP1 POP JUMPDEST PUSH1 0x0 PUSH3 0x20000 DUP4 AND EQ PUSH2 0xBDD JUMPI PUSH1 0x80 PUSH15 0x5D6AF8DEDB81196699C329225EE604 DUP3 MUL SWAP1 SHR SWAP1 POP JUMPDEST PUSH1 0x0 PUSH3 0x40000 DUP4 AND EQ PUSH2 0xC02 JUMPI PUSH1 0x80 PUSH14 0x2216E584F5FA1EA926041BEDFE98 DUP3 MUL SWAP1 SHR SWAP1 POP JUMPDEST PUSH1 0x0 PUSH3 0x80000 DUP4 AND EQ PUSH2 0xC25 JUMPI PUSH1 0x80 PUSH12 0x48A170391F7DC42444E8FA2 DUP3 MUL SWAP1 SHR SWAP1 POP JUMPDEST PUSH1 0x0 DUP5 PUSH1 0x2 SIGNEXTEND SGT ISZERO PUSH2 0xC5E JUMPI DUP1 PUSH32 0xFFFFFFFFFFFFFFFFFFFFFFFFFFFFFFFFFFFFFFFFFFFFFFFFFFFFFFFFFFFFFFFF DUP2 PUSH2 0xC5A JUMPI INVALID JUMPDEST DIV SWAP1 POP JUMPDEST PUSH1 0x0 PUSH5 0x100000000 DUP3 DUP2 PUSH2 0xC6E JUMPI INVALID JUMPDEST MOD EQ PUSH2 0xC7B JUMPI PUSH1 0x1 PUSH2 0xC7E JUMP JUMPDEST PUSH1 0x0 JUMPDEST PUSH1 0xFF AND PUSH1 0x20 DUP3 SWAP1 SHR ADD SWAP3 POP POP POP SWAP2 SWAP1 POP JUMP JUMPDEST PUSH1 0x0 DUP1 PUSH1 0x0 DUP1 NOT DUP6 DUP8 MULMOD DUP6 DUP8 MUL SWAP3 POP DUP3 DUP2 LT DUP4 DUP3 SUB SUB SWAP2 POP POP PUSH1 0x0 DUP2 EQ ISZERO PUSH2 0xCCB JUMPI PUSH1 0x0 DUP5 GT PUSH2 0xCBF JUMPI PUSH1 0x0 DUP1 REVERT JUMPDEST DUP4 DUP3 DIV SWAP3 POP POP POP PUSH2 0xD63 JUMP JUMPDEST DUP1 DUP5 GT PUSH2 0xCD7 JUMPI PUSH1 0x0 DUP1 REVERT JUMPDEST PUSH1 0x0 DUP5 DUP7 DUP9 MULMOD SWAP1 POP DUP3 DUP2 GT DUP3 SUB SWAP2 POP DUP1 DUP4 SUB SWAP3 POP PUSH1 0x0 DUP6 DUP7 PUSH1 0x0 SUB AND SWAP1 POP DUP1 DUP7 DIV SWAP6 POP DUP1 DUP5 DIV SWAP4 POP PUSH1 0x1 DUP2 DUP3 PUSH1 0x0 SUB DIV ADD SWAP1 POP DUP1 DUP4 MUL DUP5 OR SWAP4 POP PUSH1 0x0 PUSH1 0x2 DUP8 PUSH1 0x3 MUL XOR SWAP1 POP DUP1 DUP8 MUL PUSH1 0x2 SUB DUP2 MUL SWAP1 POP DUP1 DUP8 MUL PUSH1 0x2 SUB DUP2 MUL SWAP1 POP DUP1 DUP8 MUL PUSH1 0x2 SUB DUP2 MUL SWAP1 POP DUP1 DUP8 MUL PUSH1 0x2 SUB DUP2 MUL SWAP1 POP DUP1 DUP8 MUL PUSH1 0x2 SUB DUP2 MUL SWAP1 POP DUP1 DUP8 MUL PUSH1 0x2 SUB DUP2 MUL SWAP1 POP DUP1 DUP6 MUL SWAP6 POP POP POP POP POP POP JUMPDEST SWAP4 SWAP3 POP POP POP JUMP INVALID LOG2 PUSH5 0x6970667358 0x22 SLT KECCAK256 SWAP9 SWAP13 0xC8 DUP10 0x23 0x5E GASLIMIT 0xBF DIV PUSH20 0x9DECDCF5FED7DF2567B05638E2FF034BE1567BDB EXTCODECOPY GT PUSH5 0x736F6C6343 STOP SMOD MOD STOP CALLER "
				},
				"gasEstimates": {
					"creation": {
						"codeDepositCost": "697600",
						"executionCost": "728",
						"totalCost": "698328"
					},
					"external": {
						"getTokenPrice(uint32)": "infinite",
						"pool()": "189",
						"token()": "255",
						"weth()": "211"
					}
				},
				"methodIdentifiers": {
					"getTokenPrice(uint32)": "906d67ea",
					"pool()": "16f0115b",
					"token()": "fc0c546a",
					"weth()": "3fc8cef3"
				}
			},
			"storageLayout": {
				"storage": [],
				"types": null
			},
			"userdoc": {
				"kind": "user",
				"methods": {},
				"version": 1
			}
		}
	}
}