{
	"contracts/contract.sol": {
		"DataConsumerV3": {
			"abi": [
				{
					"inputs": [],
					"stateMutability": "nonpayable",
					"type": "constructor"
				},
				{
					"inputs": [],
					"name": "getChainlinkDataFeedLatestAnswer",
					"outputs": [
						{
							"internalType": "int256",
							"name": "",
							"type": "int256"
						}
					],
					"stateMutability": "view",
					"type": "function"
				},
				{
					"inputs": [],
					"name": "getEthUsdPrice",
					"outputs": [
						{
							"internalType": "uint256",
							"name": "",
							"type": "uint256"
						}
					],
					"stateMutability": "view",
					"type": "function"
				},
				{
					"inputs": [
						{
							"internalType": "uint256",
							"name": "usdAmount",
							"type": "uint256"
						}
					],
					"name": "usdToEth",
					"outputs": [
						{
							"internalType": "uint256",
							"name": "",
							"type": "uint256"
						}
					],
					"stateMutability": "view",
					"type": "function"
				}
			],
			"devdoc": {
				"kind": "dev",
				"methods": {},
				"version": 1
			},
			"evm": {
				"assembly": "    /* \"contracts/contract.sol\":647:1892  contract DataConsumerV3 {... */\n  mstore(0x40, 0x80)\n    /* \"contracts/contract.sol\":835:936  constructor() {... */\n  callvalue\n  dup1\n  iszero\n  tag_1\n  jumpi\n  revert(0x00, 0x00)\ntag_1:\n  pop\n    /* \"contracts/contract.sol\":888:930  0x694AA1769357215DE4FAC081bf1f309aDC325306 */\n  0x694aa1769357215de4fac081bf1f309adc325306\n    /* \"contracts/contract.sol\":855:863  dataFeed */\n  0x00\n  0x00\n    /* \"contracts/contract.sol\":855:931  dataFeed = AggregatorV3Interface(0x694AA1769357215DE4FAC081bf1f309aDC325306) */\n  0x0100\n  exp\n  dup2\n  sload\n  dup2\n  0xffffffffffffffffffffffffffffffffffffffff\n  mul\n  not\n  and\n  swap1\n  dup4\n  0xffffffffffffffffffffffffffffffffffffffff\n  and\n  mul\n  or\n  swap1\n  sstore\n  pop\n    /* \"contracts/contract.sol\":647:1892  contract DataConsumerV3 {... */\n  dataSize(sub_0)\n  dup1\n  dataOffset(sub_0)\n  0x00\n  codecopy\n  0x00\n  return\nstop\n\nsub_0: assembly {\n        /* \"contracts/contract.sol\":647:1892  contract DataConsumerV3 {... */\n      mstore(0x40, 0x80)\n      callvalue\n      dup1\n      iszero\n      tag_1\n      jumpi\n      revert(0x00, 0x00)\n    tag_1:\n      pop\n      jumpi(tag_2, lt(calldatasize, 0x04))\n      shr(0xe0, calldataload(0x00))\n      dup1\n      0xa0a8045e\n      eq\n      tag_3\n      jumpi\n      dup1\n      0xbcecf667\n      eq\n      tag_4\n      jumpi\n      dup1\n      0xbea4dfb5\n      eq\n      tag_5\n      jumpi\n    tag_2:\n      revert(0x00, 0x00)\n        /* \"contracts/contract.sol\":1311:1529  function getEthUsdPrice() public view returns (uint256) {... */\n    tag_3:\n      tag_6\n      tag_7\n      jump\t// in\n    tag_6:\n      mload(0x40)\n      tag_8\n      swap2\n      swap1\n      tag_9\n      jump\t// in\n    tag_8:\n      mload(0x40)\n      dup1\n      swap2\n      sub\n      swap1\n      return\n        /* \"contracts/contract.sol\":1577:1890  function usdToEth(uint256 usdAmount) public view returns (uint256) {... */\n    tag_4:\n      tag_10\n      0x04\n      dup1\n      calldatasize\n      sub\n      dup2\n      add\n      swap1\n      tag_11\n      swap2\n      swap1\n      tag_12\n      jump\t// in\n    tag_11:\n      tag_13\n      jump\t// in\n    tag_10:\n      mload(0x40)\n      tag_14\n      swap2\n      swap1\n      tag_9\n      jump\t// in\n    tag_14:\n      mload(0x40)\n      dup1\n      swap2\n      sub\n      swap1\n      return\n        /* \"contracts/contract.sol\":984:1307  function getChainlinkDataFeedLatestAnswer() public view returns (int256) {... */\n    tag_5:\n      tag_15\n      tag_16\n      jump\t// in\n    tag_15:\n      mload(0x40)\n      tag_17\n      swap2\n      swap1\n      tag_18\n      jump\t// in\n    tag_17:\n      mload(0x40)\n      dup1\n      swap2\n      sub\n      swap1\n      return\n        /* \"contracts/contract.sol\":1311:1529  function getEthUsdPrice() public view returns (uint256) {... */\n    tag_7:\n        /* \"contracts/contract.sol\":1358:1365  uint256 */\n      0x00\n        /* \"contracts/contract.sol\":1380:1393  int256 answer */\n      0x00\n        /* \"contracts/contract.sol\":1400:1408  dataFeed */\n      0x00\n      0x00\n      swap1\n      sload\n      swap1\n      0x0100\n      exp\n      swap1\n      div\n      0xffffffffffffffffffffffffffffffffffffffff\n      and\n        /* \"contracts/contract.sol\":1400:1424  dataFeed.latestRoundData */\n      0xffffffffffffffffffffffffffffffffffffffff\n      and\n      0xfeaf968c\n        /* \"contracts/contract.sol\":1400:1426  dataFeed.latestRoundData() */\n      mload(0x40)\n      dup2\n      0xffffffff\n      and\n      0xe0\n      shl\n      dup2\n      mstore\n      0x04\n      add\n      0xa0\n      mload(0x40)\n      dup1\n      dup4\n      sub\n      dup2\n      dup7\n      gas\n      staticcall\n      iszero\n      dup1\n      iszero\n      tag_21\n      jumpi\n      returndatacopy(0x00, 0x00, returndatasize)\n      revert(0x00, returndatasize)\n    tag_21:\n      pop\n      pop\n      pop\n      pop\n      mload(0x40)\n      returndatasize\n      not(0x1f)\n      0x1f\n      dup3\n      add\n      and\n      dup3\n      add\n      dup1\n      0x40\n      mstore\n      pop\n      dup2\n      add\n      swap1\n      tag_22\n      swap2\n      swap1\n      tag_23\n      jump\t// in\n    tag_22:\n        /* \"contracts/contract.sol\":1377:1426  (, int256 answer,,,) = dataFeed.latestRoundData() */\n      pop\n      pop\n      pop\n      swap2\n      pop\n      pop\n        /* \"contracts/contract.sol\":1515:1521  answer */\n      dup1\n        /* \"contracts/contract.sol\":1500:1522  return uint256(answer) */\n      swap2\n      pop\n      pop\n        /* \"contracts/contract.sol\":1311:1529  function getEthUsdPrice() public view returns (uint256) {... */\n      swap1\n      jump\t// out\n        /* \"contracts/contract.sol\":1577:1890  function usdToEth(uint256 usdAmount) public view returns (uint256) {... */\n    tag_13:\n        /* \"contracts/contract.sol\":1635:1642  uint256 */\n      0x00\n        /* \"contracts/contract.sol\":1654:1670  uint256 ethPrice */\n      0x00\n        /* \"contracts/contract.sol\":1673:1689  getEthUsdPrice() */\n      tag_25\n        /* \"contracts/contract.sol\":1673:1687  getEthUsdPrice */\n      tag_7\n        /* \"contracts/contract.sol\":1673:1689  getEthUsdPrice() */\n      jump\t// in\n    tag_25:\n        /* \"contracts/contract.sol\":1654:1689  uint256 ethPrice = getEthUsdPrice() */\n      swap1\n      pop\n        /* \"contracts/contract.sol\":1774:1790  uint256 usdInWei */\n      0x00\n        /* \"contracts/contract.sol\":1805:1809  1e18 */\n      0x0de0b6b3a7640000\n        /* \"contracts/contract.sol\":1793:1802  usdAmount */\n      dup5\n        /* \"contracts/contract.sol\":1793:1809  usdAmount * 1e18 */\n      tag_26\n      swap2\n      swap1\n      tag_27\n      jump\t// in\n    tag_26:\n        /* \"contracts/contract.sol\":1774:1809  uint256 usdInWei = usdAmount * 1e18 */\n      swap1\n      pop\n        /* \"contracts/contract.sol\":1875:1883  ethPrice */\n      dup2\n        /* \"contracts/contract.sol\":1864:1872  usdInWei */\n      dup2\n        /* \"contracts/contract.sol\":1864:1883  usdInWei / ethPrice */\n      tag_28\n      swap2\n      swap1\n      tag_29\n      jump\t// in\n    tag_28:\n        /* \"contracts/contract.sol\":1857:1883  return usdInWei / ethPrice */\n      swap3\n      pop\n      pop\n      pop\n        /* \"contracts/contract.sol\":1577:1890  function usdToEth(uint256 usdAmount) public view returns (uint256) {... */\n      swap2\n      swap1\n      pop\n      jump\t// out\n        /* \"contracts/contract.sol\":984:1307  function getChainlinkDataFeedLatestAnswer() public view returns (int256) {... */\n    tag_16:\n        /* \"contracts/contract.sol\":1049:1055  int256 */\n      0x00\n        /* \"contracts/contract.sol\":1129:1142  int256 answer */\n      0x00\n        /* \"contracts/contract.sol\":1257:1265  dataFeed */\n      0x00\n      0x00\n      swap1\n      sload\n      swap1\n      0x0100\n      exp\n      swap1\n      div\n      0xffffffffffffffffffffffffffffffffffffffff\n      and\n        /* \"contracts/contract.sol\":1257:1281  dataFeed.latestRoundData */\n      0xffffffffffffffffffffffffffffffffffffffff\n      and\n      0xfeaf968c\n        /* \"contracts/contract.sol\":1257:1283  dataFeed.latestRoundData() */\n      mload(0x40)\n      dup2\n      0xffffffff\n      and\n      0xe0\n      shl\n      dup2\n      mstore\n      0x04\n      add\n      0xa0\n      mload(0x40)\n      dup1\n      dup4\n      sub\n      dup2\n      dup7\n      gas\n      staticcall\n      iszero\n      dup1\n      iszero\n      tag_32\n      jumpi\n      returndatacopy(0x00, 0x00, returndatasize)\n      revert(0x00, returndatasize)\n    tag_32:\n      pop\n      pop\n      pop\n      pop\n      mload(0x40)\n      returndatasize\n      not(0x1f)\n      0x1f\n      dup3\n      add\n      and\n      dup3\n      add\n      dup1\n      0x40\n      mstore\n      pop\n      dup2\n      add\n      swap1\n      tag_33\n      swap2\n      swap1\n      tag_23\n      jump\t// in\n    tag_33:\n        /* \"contracts/contract.sol\":1086:1283  (... */\n      pop\n      pop\n      pop\n      swap2\n      pop\n      pop\n        /* \"contracts/contract.sol\":1296:1302  answer */\n      dup1\n        /* \"contracts/contract.sol\":1289:1302  return answer */\n      swap2\n      pop\n      pop\n        /* \"contracts/contract.sol\":984:1307  function getChainlinkDataFeedLatestAnswer() public view returns (int256) {... */\n      swap1\n      jump\t// out\n        /* \"#utility.yul\":7:84   */\n    tag_34:\n        /* \"#utility.yul\":44:51   */\n      0x00\n        /* \"#utility.yul\":73:78   */\n      dup2\n        /* \"#utility.yul\":62:78   */\n      swap1\n      pop\n        /* \"#utility.yul\":7:84   */\n      swap2\n      swap1\n      pop\n      jump\t// out\n        /* \"#utility.yul\":90:208   */\n    tag_35:\n        /* \"#utility.yul\":177:201   */\n      tag_54\n        /* \"#utility.yul\":195:200   */\n      dup2\n        /* \"#utility.yul\":177:201   */\n      tag_34\n      jump\t// in\n    tag_54:\n        /* \"#utility.yul\":172:175   */\n      dup3\n        /* \"#utility.yul\":165:202   */\n      mstore\n        /* \"#utility.yul\":90:208   */\n      pop\n      pop\n      jump\t// out\n        /* \"#utility.yul\":214:436   */\n    tag_9:\n        /* \"#utility.yul\":307:311   */\n      0x00\n        /* \"#utility.yul\":345:347   */\n      0x20\n        /* \"#utility.yul\":334:343   */\n      dup3\n        /* \"#utility.yul\":330:348   */\n      add\n        /* \"#utility.yul\":322:348   */\n      swap1\n      pop\n        /* \"#utility.yul\":358:429   */\n      tag_56\n        /* \"#utility.yul\":426:427   */\n      0x00\n        /* \"#utility.yul\":415:424   */\n      dup4\n        /* \"#utility.yul\":411:428   */\n      add\n        /* \"#utility.yul\":402:408   */\n      dup5\n        /* \"#utility.yul\":358:429   */\n      tag_35\n      jump\t// in\n    tag_56:\n        /* \"#utility.yul\":214:436   */\n      swap3\n      swap2\n      pop\n      pop\n      jump\t// out\n        /* \"#utility.yul\":523:640   */\n    tag_37:\n        /* \"#utility.yul\":632:633   */\n      0x00\n        /* \"#utility.yul\":629:630   */\n      0x00\n        /* \"#utility.yul\":622:634   */\n      revert\n        /* \"#utility.yul\":769:891   */\n    tag_39:\n        /* \"#utility.yul\":842:866   */\n      tag_61\n        /* \"#utility.yul\":860:865   */\n      dup2\n        /* \"#utility.yul\":842:866   */\n      tag_34\n      jump\t// in\n    tag_61:\n        /* \"#utility.yul\":835:840   */\n      dup2\n        /* \"#utility.yul\":832:867   */\n      eq\n        /* \"#utility.yul\":822:885   */\n      tag_62\n      jumpi\n        /* \"#utility.yul\":881:882   */\n      0x00\n        /* \"#utility.yul\":878:879   */\n      0x00\n        /* \"#utility.yul\":871:883   */\n      revert\n        /* \"#utility.yul\":822:885   */\n    tag_62:\n        /* \"#utility.yul\":769:891   */\n      pop\n      jump\t// out\n        /* \"#utility.yul\":897:1036   */\n    tag_40:\n        /* \"#utility.yul\":943:948   */\n      0x00\n        /* \"#utility.yul\":981:987   */\n      dup2\n        /* \"#utility.yul\":968:988   */\n      calldataload\n        /* \"#utility.yul\":959:988   */\n      swap1\n      pop\n        /* \"#utility.yul\":997:1030   */\n      tag_64\n        /* \"#utility.yul\":1024:1029   */\n      dup2\n        /* \"#utility.yul\":997:1030   */\n      tag_39\n      jump\t// in\n    tag_64:\n        /* \"#utility.yul\":897:1036   */\n      swap3\n      swap2\n      pop\n      pop\n      jump\t// out\n        /* \"#utility.yul\":1042:1371   */\n    tag_12:\n        /* \"#utility.yul\":1101:1107   */\n      0x00\n        /* \"#utility.yul\":1150:1152   */\n      0x20\n        /* \"#utility.yul\":1138:1147   */\n      dup3\n        /* \"#utility.yul\":1129:1136   */\n      dup5\n        /* \"#utility.yul\":1125:1148   */\n      sub\n        /* \"#utility.yul\":1121:1153   */\n      slt\n        /* \"#utility.yul\":1118:1237   */\n      iszero\n      tag_66\n      jumpi\n        /* \"#utility.yul\":1156:1235   */\n      tag_67\n      tag_37\n      jump\t// in\n    tag_67:\n        /* \"#utility.yul\":1118:1237   */\n    tag_66:\n        /* \"#utility.yul\":1276:1277   */\n      0x00\n        /* \"#utility.yul\":1301:1354   */\n      tag_68\n        /* \"#utility.yul\":1346:1353   */\n      dup5\n        /* \"#utility.yul\":1337:1343   */\n      dup3\n        /* \"#utility.yul\":1326:1335   */\n      dup6\n        /* \"#utility.yul\":1322:1344   */\n      add\n        /* \"#utility.yul\":1301:1354   */\n      tag_40\n      jump\t// in\n    tag_68:\n        /* \"#utility.yul\":1291:1354   */\n      swap2\n      pop\n        /* \"#utility.yul\":1247:1364   */\n      pop\n        /* \"#utility.yul\":1042:1371   */\n      swap3\n      swap2\n      pop\n      pop\n      jump\t// out\n        /* \"#utility.yul\":1377:1453   */\n    tag_41:\n        /* \"#utility.yul\":1413:1420   */\n      0x00\n        /* \"#utility.yul\":1442:1447   */\n      dup2\n        /* \"#utility.yul\":1431:1447   */\n      swap1\n      pop\n        /* \"#utility.yul\":1377:1453   */\n      swap2\n      swap1\n      pop\n      jump\t// out\n        /* \"#utility.yul\":1459:1574   */\n    tag_42:\n        /* \"#utility.yul\":1544:1567   */\n      tag_71\n        /* \"#utility.yul\":1561:1566   */\n      dup2\n        /* \"#utility.yul\":1544:1567   */\n      tag_41\n      jump\t// in\n    tag_71:\n        /* \"#utility.yul\":1539:1542   */\n      dup3\n        /* \"#utility.yul\":1532:1568   */\n      mstore\n        /* \"#utility.yul\":1459:1574   */\n      pop\n      pop\n      jump\t// out\n        /* \"#utility.yul\":1580:1798   */\n    tag_18:\n        /* \"#utility.yul\":1671:1675   */\n      0x00\n        /* \"#utility.yul\":1709:1711   */\n      0x20\n        /* \"#utility.yul\":1698:1707   */\n      dup3\n        /* \"#utility.yul\":1694:1712   */\n      add\n        /* \"#utility.yul\":1686:1712   */\n      swap1\n      pop\n        /* \"#utility.yul\":1722:1791   */\n      tag_73\n        /* \"#utility.yul\":1788:1789   */\n      0x00\n        /* \"#utility.yul\":1777:1786   */\n      dup4\n        /* \"#utility.yul\":1773:1790   */\n      add\n        /* \"#utility.yul\":1764:1770   */\n      dup5\n        /* \"#utility.yul\":1722:1791   */\n      tag_42\n      jump\t// in\n    tag_73:\n        /* \"#utility.yul\":1580:1798   */\n      swap3\n      swap2\n      pop\n      pop\n      jump\t// out\n        /* \"#utility.yul\":1804:1909   */\n    tag_43:\n        /* \"#utility.yul\":1840:1847   */\n      0x00\n        /* \"#utility.yul\":1880:1902   */\n      0xffffffffffffffffffff\n        /* \"#utility.yul\":1873:1878   */\n      dup3\n        /* \"#utility.yul\":1869:1903   */\n      and\n        /* \"#utility.yul\":1858:1903   */\n      swap1\n      pop\n        /* \"#utility.yul\":1804:1909   */\n      swap2\n      swap1\n      pop\n      jump\t// out\n        /* \"#utility.yul\":1915:2035   */\n    tag_44:\n        /* \"#utility.yul\":1987:2010   */\n      tag_76\n        /* \"#utility.yul\":2004:2009   */\n      dup2\n        /* \"#utility.yul\":1987:2010   */\n      tag_43\n      jump\t// in\n    tag_76:\n        /* \"#utility.yul\":1980:1985   */\n      dup2\n        /* \"#utility.yul\":1977:2011   */\n      eq\n        /* \"#utility.yul\":1967:2029   */\n      tag_77\n      jumpi\n        /* \"#utility.yul\":2025:2026   */\n      0x00\n        /* \"#utility.yul\":2022:2023   */\n      0x00\n        /* \"#utility.yul\":2015:2027   */\n      revert\n        /* \"#utility.yul\":1967:2029   */\n    tag_77:\n        /* \"#utility.yul\":1915:2035   */\n      pop\n      jump\t// out\n        /* \"#utility.yul\":2041:2182   */\n    tag_45:\n        /* \"#utility.yul\":2097:2102   */\n      0x00\n        /* \"#utility.yul\":2128:2134   */\n      dup2\n        /* \"#utility.yul\":2122:2135   */\n      mload\n        /* \"#utility.yul\":2113:2135   */\n      swap1\n      pop\n        /* \"#utility.yul\":2144:2176   */\n      tag_79\n        /* \"#utility.yul\":2170:2175   */\n      dup2\n        /* \"#utility.yul\":2144:2176   */\n      tag_44\n      jump\t// in\n    tag_79:\n        /* \"#utility.yul\":2041:2182   */\n      swap3\n      swap2\n      pop\n      pop\n      jump\t// out\n        /* \"#utility.yul\":2188:2308   */\n    tag_46:\n        /* \"#utility.yul\":2260:2283   */\n      tag_81\n        /* \"#utility.yul\":2277:2282   */\n      dup2\n        /* \"#utility.yul\":2260:2283   */\n      tag_41\n      jump\t// in\n    tag_81:\n        /* \"#utility.yul\":2253:2258   */\n      dup2\n        /* \"#utility.yul\":2250:2284   */\n      eq\n        /* \"#utility.yul\":2240:2302   */\n      tag_82\n      jumpi\n        /* \"#utility.yul\":2298:2299   */\n      0x00\n        /* \"#utility.yul\":2295:2296   */\n      0x00\n        /* \"#utility.yul\":2288:2300   */\n      revert\n        /* \"#utility.yul\":2240:2302   */\n    tag_82:\n        /* \"#utility.yul\":2188:2308   */\n      pop\n      jump\t// out\n        /* \"#utility.yul\":2314:2455   */\n    tag_47:\n        /* \"#utility.yul\":2370:2375   */\n      0x00\n        /* \"#utility.yul\":2401:2407   */\n      dup2\n        /* \"#utility.yul\":2395:2408   */\n      mload\n        /* \"#utility.yul\":2386:2408   */\n      swap1\n      pop\n        /* \"#utility.yul\":2417:2449   */\n      tag_84\n        /* \"#utility.yul\":2443:2448   */\n      dup2\n        /* \"#utility.yul\":2417:2449   */\n      tag_46\n      jump\t// in\n    tag_84:\n        /* \"#utility.yul\":2314:2455   */\n      swap3\n      swap2\n      pop\n      pop\n      jump\t// out\n        /* \"#utility.yul\":2461:2604   */\n    tag_48:\n        /* \"#utility.yul\":2518:2523   */\n      0x00\n        /* \"#utility.yul\":2549:2555   */\n      dup2\n        /* \"#utility.yul\":2543:2556   */\n      mload\n        /* \"#utility.yul\":2534:2556   */\n      swap1\n      pop\n        /* \"#utility.yul\":2565:2598   */\n      tag_86\n        /* \"#utility.yul\":2592:2597   */\n      dup2\n        /* \"#utility.yul\":2565:2598   */\n      tag_39\n      jump\t// in\n    tag_86:\n        /* \"#utility.yul\":2461:2604   */\n      swap3\n      swap2\n      pop\n      pop\n      jump\t// out\n        /* \"#utility.yul\":2610:3581   */\n    tag_23:\n        /* \"#utility.yul\":2713:2719   */\n      0x00\n        /* \"#utility.yul\":2721:2727   */\n      0x00\n        /* \"#utility.yul\":2729:2735   */\n      0x00\n        /* \"#utility.yul\":2737:2743   */\n      0x00\n        /* \"#utility.yul\":2745:2751   */\n      0x00\n        /* \"#utility.yul\":2794:2797   */\n      0xa0\n        /* \"#utility.yul\":2782:2791   */\n      dup7\n        /* \"#utility.yul\":2773:2780   */\n      dup9\n        /* \"#utility.yul\":2769:2792   */\n      sub\n        /* \"#utility.yul\":2765:2798   */\n      slt\n        /* \"#utility.yul\":2762:2882   */\n      iszero\n      tag_88\n      jumpi\n        /* \"#utility.yul\":2801:2880   */\n      tag_89\n      tag_37\n      jump\t// in\n    tag_89:\n        /* \"#utility.yul\":2762:2882   */\n    tag_88:\n        /* \"#utility.yul\":2921:2922   */\n      0x00\n        /* \"#utility.yul\":2946:3009   */\n      tag_90\n        /* \"#utility.yul\":3001:3008   */\n      dup9\n        /* \"#utility.yul\":2992:2998   */\n      dup3\n        /* \"#utility.yul\":2981:2990   */\n      dup10\n        /* \"#utility.yul\":2977:2999   */\n      add\n        /* \"#utility.yul\":2946:3009   */\n      tag_45\n      jump\t// in\n    tag_90:\n        /* \"#utility.yul\":2936:3009   */\n      swap6\n      pop\n        /* \"#utility.yul\":2892:3019   */\n      pop\n        /* \"#utility.yul\":3058:3060   */\n      0x20\n        /* \"#utility.yul\":3084:3147   */\n      tag_91\n        /* \"#utility.yul\":3139:3146   */\n      dup9\n        /* \"#utility.yul\":3130:3136   */\n      dup3\n        /* \"#utility.yul\":3119:3128   */\n      dup10\n        /* \"#utility.yul\":3115:3137   */\n      add\n        /* \"#utility.yul\":3084:3147   */\n      tag_47\n      jump\t// in\n    tag_91:\n        /* \"#utility.yul\":3074:3147   */\n      swap5\n      pop\n        /* \"#utility.yul\":3029:3157   */\n      pop\n        /* \"#utility.yul\":3196:3198   */\n      0x40\n        /* \"#utility.yul\":3222:3286   */\n      tag_92\n        /* \"#utility.yul\":3278:3285   */\n      dup9\n        /* \"#utility.yul\":3269:3275   */\n      dup3\n        /* \"#utility.yul\":3258:3267   */\n      dup10\n        /* \"#utility.yul\":3254:3276   */\n      add\n        /* \"#utility.yul\":3222:3286   */\n      tag_48\n      jump\t// in\n    tag_92:\n        /* \"#utility.yul\":3212:3286   */\n      swap4\n      pop\n        /* \"#utility.yul\":3167:3296   */\n      pop\n        /* \"#utility.yul\":3335:3337   */\n      0x60\n        /* \"#utility.yul\":3361:3425   */\n      tag_93\n        /* \"#utility.yul\":3417:3424   */\n      dup9\n        /* \"#utility.yul\":3408:3414   */\n      dup3\n        /* \"#utility.yul\":3397:3406   */\n      dup10\n        /* \"#utility.yul\":3393:3415   */\n      add\n        /* \"#utility.yul\":3361:3425   */\n      tag_48\n      jump\t// in\n    tag_93:\n        /* \"#utility.yul\":3351:3425   */\n      swap3\n      pop\n        /* \"#utility.yul\":3306:3435   */\n      pop\n        /* \"#utility.yul\":3474:3477   */\n      0x80\n        /* \"#utility.yul\":3501:3564   */\n      tag_94\n        /* \"#utility.yul\":3556:3563   */\n      dup9\n        /* \"#utility.yul\":3547:3553   */\n      dup3\n        /* \"#utility.yul\":3536:3545   */\n      dup10\n        /* \"#utility.yul\":3532:3554   */\n      add\n        /* \"#utility.yul\":3501:3564   */\n      tag_45\n      jump\t// in\n    tag_94:\n        /* \"#utility.yul\":3491:3564   */\n      swap2\n      pop\n        /* \"#utility.yul\":3445:3574   */\n      pop\n        /* \"#utility.yul\":2610:3581   */\n      swap3\n      swap6\n      pop\n      swap3\n      swap6\n      swap1\n      swap4\n      pop\n      jump\t// out\n        /* \"#utility.yul\":3587:3767   */\n    tag_49:\n        /* \"#utility.yul\":3635:3712   */\n      0x4e487b7100000000000000000000000000000000000000000000000000000000\n        /* \"#utility.yul\":3632:3633   */\n      0x00\n        /* \"#utility.yul\":3625:3713   */\n      mstore\n        /* \"#utility.yul\":3732:3736   */\n      0x11\n        /* \"#utility.yul\":3729:3730   */\n      0x04\n        /* \"#utility.yul\":3722:3737   */\n      mstore\n        /* \"#utility.yul\":3756:3760   */\n      0x24\n        /* \"#utility.yul\":3753:3754   */\n      0x00\n        /* \"#utility.yul\":3746:3761   */\n      revert\n        /* \"#utility.yul\":3773:4183   */\n    tag_27:\n        /* \"#utility.yul\":3813:3820   */\n      0x00\n        /* \"#utility.yul\":3836:3856   */\n      tag_97\n        /* \"#utility.yul\":3854:3855   */\n      dup3\n        /* \"#utility.yul\":3836:3856   */\n      tag_34\n      jump\t// in\n    tag_97:\n        /* \"#utility.yul\":3831:3856   */\n      swap2\n      pop\n        /* \"#utility.yul\":3870:3890   */\n      tag_98\n        /* \"#utility.yul\":3888:3889   */\n      dup4\n        /* \"#utility.yul\":3870:3890   */\n      tag_34\n      jump\t// in\n    tag_98:\n        /* \"#utility.yul\":3865:3890   */\n      swap3\n      pop\n        /* \"#utility.yul\":3925:3926   */\n      dup3\n        /* \"#utility.yul\":3922:3923   */\n      dup3\n        /* \"#utility.yul\":3918:3927   */\n      mul\n        /* \"#utility.yul\":3947:3977   */\n      tag_99\n        /* \"#utility.yul\":3965:3976   */\n      dup2\n        /* \"#utility.yul\":3947:3977   */\n      tag_34\n      jump\t// in\n    tag_99:\n        /* \"#utility.yul\":3936:3977   */\n      swap2\n      pop\n        /* \"#utility.yul\":4126:4127   */\n      dup3\n        /* \"#utility.yul\":4117:4124   */\n      dup3\n        /* \"#utility.yul\":4113:4128   */\n      div\n        /* \"#utility.yul\":4110:4111   */\n      dup5\n        /* \"#utility.yul\":4107:4129   */\n      eq\n        /* \"#utility.yul\":4087:4088   */\n      dup4\n        /* \"#utility.yul\":4080:4089   */\n      iszero\n        /* \"#utility.yul\":4060:4143   */\n      or\n        /* \"#utility.yul\":4037:4176   */\n      tag_100\n      jumpi\n        /* \"#utility.yul\":4156:4174   */\n      tag_101\n      tag_49\n      jump\t// in\n    tag_101:\n        /* \"#utility.yul\":4037:4176   */\n    tag_100:\n        /* \"#utility.yul\":3821:4183   */\n      pop\n        /* \"#utility.yul\":3773:4183   */\n      swap3\n      swap2\n      pop\n      pop\n      jump\t// out\n        /* \"#utility.yul\":4189:4369   */\n    tag_50:\n        /* \"#utility.yul\":4237:4314   */\n      0x4e487b7100000000000000000000000000000000000000000000000000000000\n        /* \"#utility.yul\":4234:4235   */\n      0x00\n        /* \"#utility.yul\":4227:4315   */\n      mstore\n        /* \"#utility.yul\":4334:4338   */\n      0x12\n        /* \"#utility.yul\":4331:4332   */\n      0x04\n        /* \"#utility.yul\":4324:4339   */\n      mstore\n        /* \"#utility.yul\":4358:4362   */\n      0x24\n        /* \"#utility.yul\":4355:4356   */\n      0x00\n        /* \"#utility.yul\":4348:4363   */\n      revert\n        /* \"#utility.yul\":4375:4560   */\n    tag_29:\n        /* \"#utility.yul\":4415:4416   */\n      0x00\n        /* \"#utility.yul\":4432:4452   */\n      tag_104\n        /* \"#utility.yul\":4450:4451   */\n      dup3\n        /* \"#utility.yul\":4432:4452   */\n      tag_34\n      jump\t// in\n    tag_104:\n        /* \"#utility.yul\":4427:4452   */\n      swap2\n      pop\n        /* \"#utility.yul\":4466:4486   */\n      tag_105\n        /* \"#utility.yul\":4484:4485   */\n      dup4\n        /* \"#utility.yul\":4466:4486   */\n      tag_34\n      jump\t// in\n    tag_105:\n        /* \"#utility.yul\":4461:4486   */\n      swap3\n      pop\n        /* \"#utility.yul\":4505:4506   */\n      dup3\n        /* \"#utility.yul\":4495:4530   */\n      tag_106\n      jumpi\n        /* \"#utility.yul\":4510:4528   */\n      tag_107\n      tag_50\n      jump\t// in\n    tag_107:\n        /* \"#utility.yul\":4495:4530   */\n    tag_106:\n        /* \"#utility.yul\":4552:4553   */\n      dup3\n        /* \"#utility.yul\":4549:4550   */\n      dup3\n        /* \"#utility.yul\":4545:4554   */\n      div\n        /* \"#utility.yul\":4540:4554   */\n      swap1\n      pop\n        /* \"#utility.yul\":4375:4560   */\n      swap3\n      swap2\n      pop\n      pop\n      jump\t// out\n\n    auxdata: 0xa2646970667358221220239fa8d9b944bfaebf6fde03f4530bd73f2d45b519c055e511c237c410d5b4f264736f6c634300081e0033\n}\n",
				"bytecode": {
					"linkReferences": {},
					"object": "6080604052348015600e575f5ffd5b5073694aa1769357215de4fac081bf1f309adc3253065f5f6101000a81548173ffffffffffffffffffffffffffffffffffffffff021916908373ffffffffffffffffffffffffffffffffffffffff1602179055506104cf8061006f5f395ff3fe608060405234801561000f575f5ffd5b506004361061003f575f3560e01c8063a0a8045e14610043578063bcecf66714610061578063bea4dfb514610091575b5f5ffd5b61004b6100af565b6040516100589190610237565b60405180910390f35b61007b6004803603810190610076919061027e565b61014b565b6040516100889190610237565b60405180910390f35b610099610183565b6040516100a691906102c1565b60405180910390f35b5f5f5f5f9054906101000a900473ffffffffffffffffffffffffffffffffffffffff1673ffffffffffffffffffffffffffffffffffffffff1663feaf968c6040518163ffffffff1660e01b815260040160a060405180830381865afa15801561011a573d5f5f3e3d5ffd5b505050506040513d601f19601f8201168201806040525081019061013e9190610357565b5050509150508091505090565b5f5f6101556100af565b90505f670de0b6b3a76400008461016c91906103fb565b9050818161017a9190610469565b92505050919050565b5f5f5f5f9054906101000a900473ffffffffffffffffffffffffffffffffffffffff1673ffffffffffffffffffffffffffffffffffffffff1663feaf968c6040518163ffffffff1660e01b815260040160a060405180830381865afa1580156101ee573d5f5f3e3d5ffd5b505050506040513d601f19601f820116820180604052508101906102129190610357565b5050509150508091505090565b5f819050919050565b6102318161021f565b82525050565b5f60208201905061024a5f830184610228565b92915050565b5f5ffd5b61025d8161021f565b8114610267575f5ffd5b50565b5f8135905061027881610254565b92915050565b5f6020828403121561029357610292610250565b5b5f6102a08482850161026a565b91505092915050565b5f819050919050565b6102bb816102a9565b82525050565b5f6020820190506102d45f8301846102b2565b92915050565b5f69ffffffffffffffffffff82169050919050565b6102f8816102da565b8114610302575f5ffd5b50565b5f81519050610313816102ef565b92915050565b610322816102a9565b811461032c575f5ffd5b50565b5f8151905061033d81610319565b92915050565b5f8151905061035181610254565b92915050565b5f5f5f5f5f60a086880312156103705761036f610250565b5b5f61037d88828901610305565b955050602061038e8882890161032f565b945050604061039f88828901610343565b93505060606103b088828901610343565b92505060806103c188828901610305565b9150509295509295909350565b7f4e487b71000000000000000000000000000000000000000000000000000000005f52601160045260245ffd5b5f6104058261021f565b91506104108361021f565b925082820261041e8161021f565b91508282048414831517610435576104346103ce565b5b5092915050565b7f4e487b71000000000000000000000000000000000000000000000000000000005f52601260045260245ffd5b5f6104738261021f565b915061047e8361021f565b92508261048e5761048d61043c565b5b82820490509291505056fea2646970667358221220239fa8d9b944bfaebf6fde03f4530bd73f2d45b519c055e511c237c410d5b4f264736f6c634300081e0033",
					"opcodes": "PUSH1 0x80 PUSH1 0x40 MSTORE CALLVALUE DUP1 ISZERO PUSH1 0xE JUMPI PUSH0 PUSH0 REVERT JUMPDEST POP PUSH20 0x694AA1769357215DE4FAC081BF1F309ADC325306 PUSH0 PUSH0 PUSH2 0x100 EXP DUP2 SLOAD DUP2 PUSH20 0xFFFFFFFFFFFFFFFFFFFFFFFFFFFFFFFFFFFFFFFF MUL NOT AND SWAP1 DUP4 PUSH20 0xFFFFFFFFFFFFFFFFFFFFFFFFFFFFFFFFFFFFFFFF AND MUL OR SWAP1 SSTORE POP PUSH2 0x4CF DUP1 PUSH2 0x6F PUSH0 CODECOPY PUSH0 RETURN INVALID PUSH1 0x80 PUSH1 0x40 MSTORE CALLVALUE DUP1 ISZERO PUSH2 0xF JUMPI PUSH0 PUSH0 REVERT JUMPDEST POP PUSH1 0x4 CALLDATASIZE LT PUSH2 0x3F JUMPI PUSH0 CALLDATALOAD PUSH1 0xE0 SHR DUP1 PUSH4 0xA0A8045E EQ PUSH2 0x43 JUMPI DUP1 PUSH4 0xBCECF667 EQ PUSH2 0x61 JUMPI DUP1 PUSH4 0xBEA4DFB5 EQ PUSH2 0x91 JUMPI JUMPDEST PUSH0 PUSH0 REVERT JUMPDEST PUSH2 0x4B PUSH2 0xAF JUMP JUMPDEST PUSH1 0x40 MLOAD PUSH2 0x58 SWAP2 SWAP1 PUSH2 0x237 JUMP JUMPDEST PUSH1 0x40 MLOAD DUP1 SWAP2 SUB SWAP1 RETURN JUMPDEST PUSH2 0x7B PUSH1 0x4 DUP1 CALLDATASIZE SUB DUP2 ADD SWAP1 PUSH2 0x76 SWAP2 SWAP1 PUSH2 0x27E JUMP JUMPDEST PUSH2 0x14B JUMP JUMPDEST PUSH1 0x40 MLOAD PUSH2 0x88 SWAP2 SWAP1 PUSH2 0x237 JUMP JUMPDEST PUSH1 0x40 MLOAD DUP1 SWAP2 SUB SWAP1 RETURN JUMPDEST PUSH2 0x99 PUSH2 0x183 JUMP JUMPDEST PUSH1 0x40 MLOAD PUSH2 0xA6 SWAP2 SWAP1 PUSH2 0x2C1 JUMP JUMPDEST PUSH1 0x40 MLOAD DUP1 SWAP2 SUB SWAP1 RETURN JUMPDEST PUSH0 PUSH0 PUSH0 PUSH0 SWAP1 SLOAD SWAP1 PUSH2 0x100 EXP SWAP1 DIV PUSH20 0xFFFFFFFFFFFFFFFFFFFFFFFFFFFFFFFFFFFFFFFF AND PUSH20 0xFFFFFFFFFFFFFFFFFFFFFFFFFFFFFFFFFFFFFFFF AND PUSH4 0xFEAF968C PUSH1 0x40 MLOAD DUP2 PUSH4 0xFFFFFFFF AND PUSH1 0xE0 SHL DUP2 MSTORE PUSH1 0x4 ADD PUSH1 0xA0 PUSH1 0x40 MLOAD DUP1 DUP4 SUB DUP2 DUP7 GAS STATICCALL ISZERO DUP1 ISZERO PUSH2 0x11A JUMPI RETURNDATASIZE PUSH0 PUSH0 RETURNDATACOPY RETURNDATASIZE PUSH0 REVERT JUMPDEST POP POP POP POP PUSH1 0x40 MLOAD RETURNDATASIZE PUSH1 0x1F NOT PUSH1 0x1F DUP3 ADD AND DUP3 ADD DUP1 PUSH1 0x40 MSTORE POP DUP2 ADD SWAP1 PUSH2 0x13E SWAP2 SWAP1 PUSH2 0x357 JUMP JUMPDEST POP POP POP SWAP2 POP POP DUP1 SWAP2 POP POP SWAP1 JUMP JUMPDEST PUSH0 PUSH0 PUSH2 0x155 PUSH2 0xAF JUMP JUMPDEST SWAP1 POP PUSH0 PUSH8 0xDE0B6B3A7640000 DUP5 PUSH2 0x16C SWAP2 SWAP1 PUSH2 0x3FB JUMP JUMPDEST SWAP1 POP DUP2 DUP2 PUSH2 0x17A SWAP2 SWAP1 PUSH2 0x469 JUMP JUMPDEST SWAP3 POP POP POP SWAP2 SWAP1 POP JUMP JUMPDEST PUSH0 PUSH0 PUSH0 PUSH0 SWAP1 SLOAD SWAP1 PUSH2 0x100 EXP SWAP1 DIV PUSH20 0xFFFFFFFFFFFFFFFFFFFFFFFFFFFFFFFFFFFFFFFF AND PUSH20 0xFFFFFFFFFFFFFFFFFFFFFFFFFFFFFFFFFFFFFFFF AND PUSH4 0xFEAF968C PUSH1 0x40 MLOAD DUP2 PUSH4 0xFFFFFFFF AND PUSH1 0xE0 SHL DUP2 MSTORE PUSH1 0x4 ADD PUSH1 0xA0 PUSH1 0x40 MLOAD DUP1 DUP4 SUB DUP2 DUP7 GAS STATICCALL ISZERO DUP1 ISZERO PUSH2 0x1EE JUMPI RETURNDATASIZE PUSH0 PUSH0 RETURNDATACOPY RETURNDATASIZE PUSH0 REVERT JUMPDEST POP POP POP POP PUSH1 0x40 MLOAD RETURNDATASIZE PUSH1 0x1F NOT PUSH1 0x1F DUP3 ADD AND DUP3 ADD DUP1 PUSH1 0x40 MSTORE POP DUP2 ADD SWAP1 PUSH2 0x212 SWAP2 SWAP1 PUSH2 0x357 JUMP JUMPDEST POP POP POP SWAP2 POP POP DUP1 SWAP2 POP POP SWAP1 JUMP JUMPDEST PUSH0 DUP2 SWAP1 POP SWAP2 SWAP1 POP JUMP JUMPDEST PUSH2 0x231 DUP2 PUSH2 0x21F JUMP JUMPDEST DUP3 MSTORE POP POP JUMP JUMPDEST PUSH0 PUSH1 0x20 DUP3 ADD SWAP1 POP PUSH2 0x24A PUSH0 DUP4 ADD DUP5 PUSH2 0x228 JUMP JUMPDEST SWAP3 SWAP2 POP POP JUMP JUMPDEST PUSH0 PUSH0 REVERT JUMPDEST PUSH2 0x25D DUP2 PUSH2 0x21F JUMP JUMPDEST DUP2 EQ PUSH2 0x267 JUMPI PUSH0 PUSH0 REVERT JUMPDEST POP JUMP JUMPDEST PUSH0 DUP2 CALLDATALOAD SWAP1 POP PUSH2 0x278 DUP2 PUSH2 0x254 JUMP JUMPDEST SWAP3 SWAP2 POP POP JUMP JUMPDEST PUSH0 PUSH1 0x20 DUP3 DUP5 SUB SLT ISZERO PUSH2 0x293 JUMPI PUSH2 0x292 PUSH2 0x250 JUMP JUMPDEST JUMPDEST PUSH0 PUSH2 0x2A0 DUP5 DUP3 DUP6 ADD PUSH2 0x26A JUMP JUMPDEST SWAP2 POP POP SWAP3 SWAP2 POP POP JUMP JUMPDEST PUSH0 DUP2 SWAP1 POP SWAP2 SWAP1 POP JUMP JUMPDEST PUSH2 0x2BB DUP2 PUSH2 0x2A9 JUMP JUMPDEST DUP3 MSTORE POP POP JUMP JUMPDEST PUSH0 PUSH1 0x20 DUP3 ADD SWAP1 POP PUSH2 0x2D4 PUSH0 DUP4 ADD DUP5 PUSH2 0x2B2 JUMP JUMPDEST SWAP3 SWAP2 POP POP JUMP JUMPDEST PUSH0 PUSH10 0xFFFFFFFFFFFFFFFFFFFF DUP3 AND SWAP1 POP SWAP2 SWAP1 POP JUMP JUMPDEST PUSH2 0x2F8 DUP2 PUSH2 0x2DA JUMP JUMPDEST DUP2 EQ PUSH2 0x302 JUMPI PUSH0 PUSH0 REVERT JUMPDEST POP JUMP JUMPDEST PUSH0 DUP2 MLOAD SWAP1 POP PUSH2 0x313 DUP2 PUSH2 0x2EF JUMP JUMPDEST SWAP3 SWAP2 POP POP JUMP JUMPDEST PUSH2 0x322 DUP2 PUSH2 0x2A9 JUMP JUMPDEST DUP2 EQ PUSH2 0x32C JUMPI PUSH0 PUSH0 REVERT JUMPDEST POP JUMP JUMPDEST PUSH0 DUP2 MLOAD SWAP1 POP PUSH2 0x33D DUP2 PUSH2 0x319 JUMP JUMPDEST SWAP3 SWAP2 POP POP JUMP JUMPDEST PUSH0 DUP2 MLOAD SWAP1 POP PUSH2 0x351 DUP2 PUSH2 0x254 JUMP JUMPDEST SWAP3 SWAP2 POP POP JUMP JUMPDEST PUSH0 PUSH0 PUSH0 PUSH0 PUSH0 PUSH1 0xA0 DUP7 DUP9 SUB SLT ISZERO PUSH2 0x370 JUMPI PUSH2 0x36F PUSH2 0x250 JUMP JUMPDEST JUMPDEST PUSH0 PUSH2 0x37D DUP9 DUP3 DUP10 ADD PUSH2 0x305 JUMP JUMPDEST SWAP6 POP POP PUSH1 0x20 PUSH2 0x38E DUP9 DUP3 DUP10 ADD PUSH2 0x32F JUMP JUMPDEST SWAP5 POP POP PUSH1 0x40 PUSH2 0x39F DUP9 DUP3 DUP10 ADD PUSH2 0x343 JUMP JUMPDEST SWAP4 POP POP PUSH1 0x60 PUSH2 0x3B0 DUP9 DUP3 DUP10 ADD PUSH2 0x343 JUMP JUMPDEST SWAP3 POP POP PUSH1 0x80 PUSH2 0x3C1 DUP9 DUP3 DUP10 ADD PUSH2 0x305 JUMP JUMPDEST SWAP2 POP POP SWAP3 SWAP6 POP SWAP3 SWAP6 SWAP1 SWAP4 POP JUMP JUMPDEST PUSH32 0x4E487B7100000000000000000000000000000000000000000000000000000000 PUSH0 MSTORE PUSH1 0x11 PUSH1 0x4 MSTORE PUSH1 0x24 PUSH0 REVERT JUMPDEST PUSH0 PUSH2 0x405 DUP3 PUSH2 0x21F JUMP JUMPDEST SWAP2 POP PUSH2 0x410 DUP4 PUSH2 0x21F JUMP JUMPDEST SWAP3 POP DUP3 DUP3 MUL PUSH2 0x41E DUP2 PUSH2 0x21F JUMP JUMPDEST SWAP2 POP DUP3 DUP3 DIV DUP5 EQ DUP4 ISZERO OR PUSH2 0x435 JUMPI PUSH2 0x434 PUSH2 0x3CE JUMP JUMPDEST JUMPDEST POP SWAP3 SWAP2 POP POP JUMP JUMPDEST PUSH32 0x4E487B7100000000000000000000000000000000000000000000000000000000 PUSH0 MSTORE PUSH1 0x12 PUSH1 0x4 MSTORE PUSH1 0x24 PUSH0 REVERT JUMPDEST PUSH0 PUSH2 0x473 DUP3 PUSH2 0x21F JUMP JUMPDEST SWAP2 POP PUSH2 0x47E DUP4 PUSH2 0x21F JUMP JUMPDEST SWAP3 POP DUP3 PUSH2 0x48E JUMPI PUSH2 0x48D PUSH2 0x43C JUMP JUMPDEST JUMPDEST DUP3 DUP3 DIV SWAP1 POP SWAP3 SWAP2 POP POP JUMP INVALID LOG2 PUSH5 0x6970667358 0x22 SLT KECCAK256 0x23 SWAP16 0xA8 0xD9 0xB9 PREVRANDAO 0xBF 0xAE 0xBF PUSH16 0xDE03F4530BD73F2D45B519C055E511C2 CALLDATACOPY 0xC4 LT 0xD5 0xB4 CALLCODE PUSH5 0x736F6C6343 STOP ADDMOD 0x1E STOP CALLER "
				},
				"gasEstimates": {
					"creation": {
						"codeDepositCost": "246200",
						"executionCost": "24550",
						"totalCost": "270750"
					},
					"external": {
						"getChainlinkDataFeedLatestAnswer()": "infinite",
						"getEthUsdPrice()": "infinite",
						"usdToEth(uint256)": "infinite"
					}
				},
				"methodIdentifiers": {
					"getChainlinkDataFeedLatestAnswer()": "bea4dfb5",
					"getEthUsdPrice()": "a0a8045e",
					"usdToEth(uint256)": "bcecf667"
				}
			},
			"storageLayout": {
				"storage": [
					{
						"astId": 53,
						"contract": "contracts/contract.sol:DataConsumerV3",
						"label": "dataFeed",
						"offset": 0,
						"slot": "0",
						"type": "t_contract(AggregatorV3Interface)45"
					}
				],
				"types": {
					"t_contract(AggregatorV3Interface)45": {
						"encoding": "inplace",
						"label": "contract AggregatorV3Interface",
						"numberOfBytes": "20"
					}
				}
			},
			"userdoc": {
				"kind": "user",
				"methods": {
					"constructor": {
						"notice": "Network: Sepolia Aggregator: BTC/USD Address: 0x1b44F3514812d835EB1BDB0acB33d3fA3351Ee43"
					},
					"getChainlinkDataFeedLatestAnswer()": {
						"notice": "Returns the latest answer."
					}
				},
				"notice": "If you are reading data feeds on L2 networks, you must check the latest answer from the L2 Sequencer Uptime Feed to ensure that the data is accurate in the event of an L2 sequencer outage. See the https://docs.chain.link/data-feeds/l2-sequencer-feeds page for details.",
				"version": 1
			}
		}
	}
}